:020000040000FA
:030000000200AB50
:03001B00020B5D78
:10004B00020A8800000080FB1200DBB900030200EB
:10005B0095E4900200789579048002F0A3D8FCD93E
:10006B00FA900594AA82AB839000DE783F790180E9
:10007B0015E493A3AC82AD838A828B83F0A3AA820F
:10008B00AB838C828D83D8E9D9E775825375831C3A
:10009B0074001200BD75824E75830074001200BD92
:1000AB0075D0007581BF751000751102759F000228
:1000BB000053C09FF59FE473D09F22D083D082C0A2
:1000CB009FE493C0E0740193C0E0740293F59F2208
:1000DB00790122FFFFFFFF01000000140000003F29
:1000EB00B82F3B66663BC20C00FA3A0000C0C03F1B
:1000FB00065B4F666D7D077F6F00397680020000CF
:10010B000050000000A0000000F000000000000004
:10011B00001200C6C21B001200C6CE1B001200C686
:10012B006B16001200C6A716001200C6B0160012FE
:10013B0000C6B916001200C6C516001200C6CE16B0
:10014B00001200C6DA16001200C60D17001200C608
:10015B004017001200C67317001200C6A617001234
:10016B0000C6E817001200C6D511001200C6E9112F
:10017B00001200C62C14001200C6800B001200C621
:10018B00930D001200C6BC0E001200C6D510001253
:10019B0000C63611001200C69E11001200C63E1892
:1001AB00001200C6E018001200C68219001200C629
:1001BB004214001200C64B14001200C67914001230
:1001CB0000C6A714001200C6F014001200C66A1C69
:1001DB00001200C69F19001200C6AA19001200C611
:1001EB00E219001200C6E91A001200C6691B0012C0
:1001FB0000C6B31B001200C6261C00C3E7960809F5
:10020B00E7960809E7960809E79622C3E09608A344
:10021B00E09608A3E09608A3E09622E9799EC6082B
:10022B00CAC608CBC608CCC6C370207996CACBCC3D
:10023B007019798ECBCC70137986CC700EF9802A1D
:10024B00CA33CACB33CBCC33CC331930E7F2CCCB5C
:10025B00CA3350147004EA30E00DE4CA3ACACB3BFF
:10026B00CBCC3CCC500209C3E913C6CC182313C624
:10027B00CB18C6CA18C6F9228A088B098C0A8D0BB3
:10028B0078081202CD20F01430E72B74FFFCFBFA38
:10029B00747F8022E4FCFBFA7480801AB48008BC63
:1002AB0000F2BB00EF800F50EBF9E4C39AFAE49B2A
:1002BB00FBE49CFCE499C6CC18C6CB18C6CA18C67E
:1002CB00F922E4C9C608CAC608CBC6D3330308CC87
:1002DB00C63392F0C3947F402E94184019C9B907C6
:1002EB0004CACBCC225025C309CA33CACB33CBCCDF
:1002FB0033CC33D9F422F4600DC9CCC313CB13CB5D
:10030B00CA13CAD9F6CC22E4FCFBFA2214FCFBFA82
:10031B0022E6C33318461846184622E7C33319475B
:10032B001947194722181818E6084608700AE608F4
:10033B00C3337005E633F4220822191919E709476C
:10034B0009700AE709C3337005E733F4220922E683
:10035B00084608C3134608336002E633F422E70964
:10036B004709C3134709336002E733F42200120332
:10037B005A604F1203696012E7548066F61203301D
:10038B007011120326703B090909F4F618F618F6DA
:10039B0018F622120345701512031C08080860EAB0
:1003AB00E6447FF618768018E4F618F62212031C42
:1003BB0060161203267012E4F608F608F608E654E7
:1003CB0080F609090918181822EAC0E0EBC0E0EC26
:1003DB00C0E0EDC0E0E687F0A4FBACF008E687F0E8
:1003EB00A42CFCE435F0FA1809E687F0A42C4B603A
:1003FB00027401CA35F0FCE433FB09E687F0D2F74F
:10040B00A42CCB35F0FC1908E687F0A42BCC35F0E7
:10041B00FBE433FD0819E687F0D2E7A42C4ACB3571
:10042B00F0CD3400FC09E687F0D2E7A42DCC35F0F3
:10043B00FDE433FA0918E687F0D2F7A42CCD35F09A
:10044B00CA3400FC08E687F0D2E7D2F7A42ACC35F1
:10045B00F07A7E20E70B0ACB33CBCD33CDCC33CC2C
:10046B0033CB3350147004ED30E00ED2F1E4CD3DBC
:10047B00CDCC3CCC3B5005DA05C2F1EB547FC633F7
:10048B0008E63392F0FBE73309E733C39A502D2B81
:10049B0070190C0D4C4D70151806E608C333700D12
:1004AB0020F10AA2F013F6E418800B4024E4F63096
:1004BB00F002768018F618F618F68024D33B145009
:1004CB001074FFA2F013F6187680E418F618F68075
:1004DB000FA2F013F618E63303F618ECF618EDF648
:1004EB00D0E0FDD0E0FCD0E0FBD0E0FA2212035AC2
:1004FB00601D1203697005191919801A12033070E7
:10050B001F120345C37003E6673319191940071807
:10051B0018182208080874FFF618F618F618F622B1
:10052B001203456017120326702192F012031C7000
:10053B0019501720F014080808090909E7F61819CB
:10054B00E7F61819E7F61819E7F62212031C60E60E
:10055B00E869701F0808E62480F608E436F618549C
:10056B007FB47F0CE654806007F6E418F618F62289
:10057B00181822E9C6CC08C6CD08C6CE08C6CFC00F
:10058B00E0E8C0E0EAC0E0EBC0E009E9F809E7FA0F
:10059B0009E7FBE6F918E6F8C3EC98ED99EE9AEB50
:1005AB00C2E7F5F0EFC2E795F0500E600CEBCFFB16
:1005BB00EACEFAE9CDF9E8CCF8EAA2E7D2E7FAEB12
:1005CB0033FB13F5F0EEA2E7D2E7FEEF33FFC5F0F6
:1005DB0013A2E730E601B313C5F0C3C0E0C0F07F50
:1005EB0000C39BFB605B9418600C401AD0E023F9AE
:1005FB00D0E0F80206D68AF0E9486003D2F0E4AF07
:10060B00F0FAF9F8803BEB30E40D89F0EA6003D2A5
:10061B00F0E4AFF0F9CAF8EB30E30D88F0EF6002CD
:10062B00D2F0AFF0E4CAC9F8EB54076014FBC3EA8D
:10063B0013FAE913F9E813F8EF135002D2E0FFDBDA
:10064B00EDD0E0C0E030E739C3E49FFFF5F0EC9864
:10065B00FC42F0ED99FD42F0EE9AFE42F0D0E0F94B
:10066B00D0E0F8E5F0607AE923F9EE20E742D80212
:10067B008067C3EF33FFEC33FCED33FDEE33FE80CD
:10068B00EAEC28FCED39FDEE3AFED0E023F9D0E0A0
:10069B00F84002801BC3EE13FEED13FDEC13FCEFD1
:1006AB00135002D2E0FF08B800067F7F74FF802E44
:1006BB00EF3350178CF020F00260100CBC000C0DC7
:1006CB00BD00080EBE000408E860DFE933E813FF45
:1006DB00EE2313FE4F4D4C8008E95480FFE4FEFDE2
:1006EB00FCEE33EF33F47004FCFD7E80D0E0FBD0E6
:1006FB00E0FAD0E0F8D0E0CFC618CEC618CDC618B9
:10070B00CCC6F922E026F608A3E036F608A3E036BD
:10071B00F608A3E036F622E026F008A3E036F00850
:10072B00A3E036F008A3E036F022E0F608A3E0F6EB
:10073B0008A3E0F608A3E0F622E0FAA3E0FBA3E0AF
:10074B00FCA3E0FD22EAF0A3EBF0A3ECF0A3EDF0A9
:10075B0022CAC0E0E6F0A308DAFAD0E0FA22C3E43A
:10076B0098F8E499F91207AA8026C3E49AFAE49B55
:10077B00FBE920E7E91207AAE498F8E499F922C308
:10078B00E498F8E499F91207AAE498F8E499F9C304
:10079B00E49AFAE49BFB22EB20E7CFE920E7E0B9F0
:1007AB000010BB0008E88AF084F8AAF022E4FBC82A
:1007BB00FA22EB70227B10C833C8C933C9335007F8
:1007CB00C39AC3DBF280069A50012ADBEAC833F4E2
:1007DB00C8C933F4C9FA2275F008E4C833C8C93361
:1007EB00C933C99AC99B5004C92AC93BD5F0ECFB44
:1007FB00C833F4C8E4C9FA22251010AF08F510402D
:10080B000215118008F51040021511D2AF22C0D08D
:10081B00251010AF08F510500205118008F5105087
:10082B00020511D2AFD0D0222510F58210AF08F5FA
:10083B0010400215118008F51040021511D2AF853A
:10084B001183222510F582E43511F583222510C57D
:10085B0082C0E0E51134FFC583C0E0E510C395828B
:10086B0024F810AF088583118582108008858311C9
:10087B00858210D2AFCEF0A3E520F0A37808E6086E
:10088B00F0A3DEFAEFF0A3E58124FAF8E608F0A373
:10089B00E608F0A3E608F0A30808E608F0A3E608CC
:1008AB00F0A315811581D0E0FED0E0F815811581FC
:1008BB001581E8C0E0EEC0E022851183851082E04F
:1008CB00A3FEE0A3F5207808E0A3F608DFFAE0A387
:1008DB00FFE0A3C0E0E0A3C0E0E0A3C0E0E0A3C062
:1008EB00E0E0A3C0E010AF0885821085831180087B
:1008FB00858210858311D2AFD083D0820200C3C012
:10090B00D02510C582C0E0E51134FFC583C0E0E5FA
:10091B0010C3958224F310AF088583118582108054
:10092B0008858311858210D2AFC8F0A3E9F0A3EA42
:10093B00F0A3EBF0A37908E709F0A3D8FAECF0A346
:10094B00EDF0A3EEF0A3EFF0A3D0E0F0A3D0E0F036
:10095B00A3D0E0F0A3E520F0A3E5F0F0A3228511EE
:10096B0083851082E0C0E0A3E0F9A3E0FAA3E0FBEB
:10097B00A37808E0F608A3DFFAE0FCA3E0FDA3E010
:10098B00FEA3E0FFA3E0C0E0A3E0C0E0A3E0F5D04E
:10099B00A3E0F520A3E0A3F5F010AF088583118544
:1009AB0082108008858311858210D2AFD082D083CC
:1009BB00D0E0F8D0E03274028000C0E0F4041208FA
:1009CB0033D0E012075C22D083D082ECC0E0EDC0C4
:1009DB00E0E493A3FCE493A3FDED4C600D120A1E1F
:1009EB00EC24FFFCED34FFFD80EFE493A3FCE493D8
:1009FB00A3FDED4C600D120A5DEC24FFFCED34FF02
:100A0B00FD80EFD0E0FDD0E0FCE493A3C0E0E493E5
:100A1B00C0E022C0E0C3E49396087401939618409B
:100A2B000FE49366700808740193661870007019D0
:100A3B00A3A3C3E49396087401939618A3A3400D44
:100A4B00D0E0D0E0D0E0020A0EA3A3A3A3A3A3D0CF
:100A5B00E022C0E0C0F088F0E493667008087401EF
:100A6B009366187000A8F0A3A3700BD0F0D0E0D061
:100A7B00E0D0E0020A0EA3A3D0F0D0E022C0E074D5
:100A8B00EF12090A900598780812073590056F78D0
:100A9B00081207227A017B1612018EE96003020B02
:100AAB0055900478E0F508A3E0F50978081209D20F
:100ABB00000003000016CD0A1016FB0A3016290B96
:100ACB00550B75087375090578081209C17508016E
:100ADB0075091678081209C17901900474E0FCA31A
:100AEB00E0FD7A017B161201827404120819805AF8
:100AFB0075087D75090578081209C1750811750906
:100B0B001678081209C17901900474E0FCA3E0FD8A
:100B1B007A017B161201827404120819802C750855
:100B2B008775090578081209C1750831750916789A
:100B3B00081209C17902900474E0FCA3E0FD7A016C
:100B4B007B16120182740412081953AFFE7F040244
:100B5B000969C0E074F212090AC28F900591E05442
:100B6B0000F8A3E05480F9E8497005A9F91201884F
:100B7B007F0102096974F4120858E9FE740C12081B
:100B8B004EE0F50AA3E0F50B740E12084EE0F8A345
:100B9B00E0F99005497400F0A37400F080339005E0
:100BAB0049E0F508A3E0F509E50824E1C0E090056C
:100BBB0049E02405F508A3E03402F5098508828590
:100BCB000983D0E0F0900549E02401F0A3E0340064
:100BDB00F0900549C3E09404A3E0940040C0900357
:100BEB0099E0C394FF40069003997400F090039929
:100BFB00E0900209F0900399E02401F08A088B0938
:100C0B00E4E509F508E50890020AF0EA90020BF01A
:100C1B00ECFAEDFBE4EBFA90020CF0EC90020DF029
:100C2B00AA0AAB0BE4E50BAA0BE50B90020EF0E561
:100C3B000A90020FF0EE900210F0900549740CF040
:100C4B00A37400F0803A900549E0FAA3E0FBE82A90
:100C5B00FAE93BFBEA24F4F582EB34FFF583E0C0C1
:100C6B00E0900549E02405FAA3E03402FB8A828B6D
:100C7B0083D0E0F0900549E02401F0A3E03400F0CC
:100C8B009005498E08750900E508240CFAE509342E
:100C9B0000FBC3E09AA3E09B40AC8E08750900E50E
:100CAB0008240CFCE5093400FD7A057B0212019A3D
:100CBB00900469EAF0A3EBF0900469E0F8A3E0F983
:100CCB00E4E9F8C0E08E0875090074112508F58277
:100CDB0074023509F583D0E0F0900469E0F8A3E0E5
:100CEB00F9E8C0E08E0875090074122508F58274C6
:100CFB00023509F583D0E0F08E08750900E508246C
:100D0B000EF8E5093400F9900549E8F0A3E9F08005
:100D1B0030900549E0F8A3E0F9E824F2C39E24EAF9
:100D2B00C0E0900549E02405F8A3E03402F988827D
:100D3B008983D0E0F0900549E02401F0A3E0340072
:100D4B00F09005498E08750900E5082412F8E509AD
:100D5B003400F9C3E098A3E09940B6D2937A057BAF
:100D6B00001201A08E08750900E5082412FCE509A4
:100D7B003400FD7A057B021201E27A057B00120139
:100D8B00A0C2937F040208C4C082C08374E169705F
:100D9B000890054C7401F0806190054CE064017083
:100DAB000D74E269700890054C7402F0804C90054C
:100DBB004CE06402700D74E369700890054C740389
:100DCB00F0803790054CE06403702974E46970245B
:100DDB009002CD74E1F09002CE74E2F09002CF74E9
:100DEB00E3F09005917403F0A37400F090054D743B
:100DFB0001F0800690054C7400F090054DE07003F7
:100E0B00020EB5900591C3E094C7A3E09400401681
:100E1B0090054B7400F090054D7400F090059174A3
:100E2B0000F0A37400F0E9C0E0900591E024CDFA46
:100E3B00A3E03402FB8A828B83D0E0F0900591E033
:100E4B002401F0A3E03400F074EA69700890054BBC
:100E5B007401F0805590054BE06401700D74EB69E3
:100E6B00700890054B7402F0804090054BE06402D3
:100E7B00700D74EC69700890054B7403F0802B9027
:100E8B00054BE06403701D74ED6970189005917447
:100E9B0000F0A37480F090054D7400F090054B7436
:100EAB0000F0800690054B7400F0D083D0820200D6
:100EBB00C374F6120858900591E064007004A3E027
:100ECB00648060030210C59005507400F09002D44A
:100EDB00E0F87900E875F000A4C8ACF075F001A457
:100EEB002CFC75F000E9A42CF99002D5E0FC7D00F8
:100EFB00E82CF8E93DF9EA687002EB69600302102F
:100F0B00989002D1E0900473F09002D2E0F879004F
:100F1B00E875F000A4C8AAF075F001A42AFA75F0E0
:100F2B0000E9A42AF99002D3E0FA7B00E82AF8E959
:100F3B003BF9900474E8F0A3E9F09002D4E0F8795F
:100F4B0000E875F000A4C8AAF075F001A42AFA75A0
:100F5B00F000E9A42AF99002D5E0FA7B00E82AF820
:100F6B00E93BF9900476E8F0A3E9F09002D6E0F8BB
:100F7B007900E875F000A4C8AAF075F001A42AFA6C
:100F8B0075F000E9A42AF99002D7E0FA7B00E82A71
:100F9B00F8E93BF9900478E8F0A3E9F09002D8E087
:100FAB0090047AF090054E740CF0A37400F080322C
:100FBB0090054EE024CDF8A3E03402F988828983B2
:100FCB00E0C0E090054EE0246FF8A3E03404F9880C
:100FDB00828983D0E0F090054EE02401F0A3E03449
:100FEB0000F090054EC082C08390047AE0F879003F
:100FFB00240CF8E93400F9D083D082C3E098A3E045
:10100B009940AD90047AE0F8790074D928F5827490
:10101B000239F583E0F87900E875F000A4C8AAF06E
:10102B0075F001A42AFA75F000E9A42AF99005439A
:10103B00E8F0A3E9F090047AE0F8790074DA28F587
:10104B0082740239F583E0F87900900543E028F0CB
:10105B00A3E039F090047AE0F87900240CFCE93431
:10106B0000FD7ACD7B0212019A900551EAF0A3EBB9
:10107B00F0900551E0F8A3E0F9900543E0687003A8
:10108B00A3E069600E9005507401F0800690055046
:10109B007401F07508C875090078081209C17C0045
:1010AB007D007ACD7B0212020074021208199005A2
:1010BB00917400F0A37400F080069005507401F059
:1010CB00900550E0F97F020208C4C082C083E9FC9E
:1010DB007D00E4CCFDEC6AFAED6BFB9005537400DC
:1010EB00F0A37400F08013EAC333FAEB33FB9005E3
:1010FB0053E02401F0A3E03400F0900553C3E094D7
:10110B0008A3E09400501DEA5400FCEB5480FDEC66
:10111B004D60D4EAC333FAEB33FBEA6421FAEB6498
:10112B0010FB80CAD083D0820200C374F41208581B
:10113B008A088B09ECFEEDFF7A007B00E508450978
:10114B006004EE4F70067AFF7BFF8042900555746A
:10115B0000F0A37400F0802B900555E0F8A3E0F9A4
:10116B00E50828F582E50939F583E0F91201948A3F
:10117B000A8B0BAA0AAB0B900555E02401F0A3E0F8
:10118B003400F0900555C3E09EA3E09F40CA7F0456
:10119B000208C47C007D00780079007C007D008013
:1011AB0019E82401F8E93400F9C3E89480E994259F
:1011BB0040EFEC2401FCED3400FDC3EC9AED9B50A9
:1011CB00067800790080E20200C3C082C08343FF2F
:1011DB000112017C120176D083D0820200C3D2A00F
:1011EB00D2A0D2A0D2A0C2A0C2A0C2A0C2A0C2A0B4
:1011FB00C2A0C2A0C2A0D2A0D2A0D2A0D2A0C2A094
:10120B00C2A0C2A0C2A0C2A0C2A0C2A0C2A0D2A0B3
:10121B00D2A0D2A0D2A0C2A0C2A0C2A0C2A0C2A083
:10122B00C2A0C2A0C2A0D2A0D2A0D2A0D2A0C2A063
:10123B00C2A0C2A0C2A0C2A0C2A0C2A0C2A0D2A083
:10124B00D2A0D2A0D2A0C2A0C2A0C2A0C2A0C2A053
:10125B00C2A0C2A0C2A0D2A0D2A0D2A0D2A0C2A033
:10126B00C2A0C2A0C2A0C2A0C2A0C2A0C2A0D2A053
:10127B00D2A0D2A0D2A0C2A0C2A0C2A0C2A0C2A023
:10128B00C2A0C2A0C2A0D2A0D2A0D2A0D2A0C2A003
:10129B00C2A0C2A0C2A0C2A0C2A0C2A0C2A0D2A023
:1012AB00D2A0D2A0D2A0C2A0C2A0C2A0C2A0C2A0F3
:1012BB00C2A0C2A0C2A0D2A0D2A0D2A0D2A0C2A0D3
:1012CB00C2A0C2A0C2A0C2A0C2A0C2A0C2A0D2A0F3
:1012DB00D2A0D2A0D2A0C2A0C2A0C2A0C2A0C2A0C3
:1012EB00C2A0C2A0C2A0D2A0D2A0D2A0D2A0C2A0A3
:1012FB00C2A0C2A0C2A0C2A0C2A0C2A0C2A0D2A0C3
:10130B00D2A0D2A0D2A0C2A0C2A0C2A0C2A0C2A092
:10131B00C2A0C2A0C2A0D2A0D2A0D2A0D2A0C2A072
:10132B00C2A0C2A0C2A0C2A0C2A0C2A0C2A0D2A092
:10133B00D2A0D2A0D2A0C2A0C2A0C2A0C2A0C2A062
:10134B00C2A0C2A0C2A0D2A0D2A0D2A0D2A0C2A042
:10135B00C2A0C2A0C2A0C2A0C2A0C2A0C2A0D2A062
:10136B00D2A0D2A0D2A0D2A0D2A0D2A0D2A0C2A0F2
:10137B00C2A0C2A0C2A0D2A0D2A0D2A0D2A0D2A002
:10138B00D2A0D2A0D2A0C2A0C2A0C2A0C2A0D2A002
:10139B00D2A0D2A0D2A0D2A0D2A0D2A0D2A0C2A0C2
:1013AB00C2A0C2A0C2A0D2A0D2A0D2A0D2A0D2A0D2
:1013BB00D2A0D2A0D2A0C2A0C2A0C2A0C2A0D2A0D2
:1013CB00D2A0D2A0D2A0D2A0D2A0D2A0D2A0C2A092
:1013DB00C2A0C2A0C2A0D2A0D2A0D2A0D2A0D2A0A2
:1013EB00D2A0D2A0D2A0C2A0C2A0C2A0C2A0D2A0A2
:1013FB00D2A0D2A0D2A0D2A0D2A0D2A0D2A0C2A062
:10140B00C2A0C2A0C2A0D2A0D2A0D2A0D2A0D2A071
:10141B00D2A0D2A0D2A0C2A0C2A0C2A0C2A00200E1
:10142B00C3C082C083C2A09005981207441201EE7C
:10143B00D083D0820200C353F4CF43FE300200C3EB
:10144B00C082C083D295D2949005BE12074412017C
:10145B00EEC2959005BE1207441201EEC2949005A0
:10146B00BE1207441201EED083D0820200C3C082A9
:10147B00C083C295D2949005BE1207441201EED2DE
:10148B00959005BE1207441201EEC2949005BE1250
:10149B0007441201EED083D0820200C374F7120806
:1014AB0058E9FF8F08C295C2947E008014C29590B4
:1014BB0005BE1207441201EED294E508C313F508DA
:1014CB000EEEC394085015C294E508A2E050DED28C
:1014DB00959005BE1207441201EE80DCC294C295B2
:1014EB007F010208C474F0120858890FEAFEEBFF63
:1014FB008C0E7401650E700575080B806D7402659A
:10150B000E700575080C80627403650E7010EEF892
:10151B00EFF97A0A7B001207AAEAF508804C7404EB
:10152B00650E7046EEF8EFF97AE87B031207AAE82E
:10153B00F50BEEF8EFF97A647B001207AA7A0A7BB7
:10154B00001207AAEAF509EEF8EFF97A0A7B001206
:10155B0007AA7A0A7B001207AAEAF50AEEF8EFF956
:10156B007A0A7B001207AAEAF508C3EE94E9EF9416
:10157B0003403AEEF8EFF97AE87B031207AAE8F595
:10158B000BEEF8EFF97A647B001207AA7A0A7B005C
:10159B001207AAEAF509EEF8EFF97A0A7B001207AF
:1015AB00AA7A0A7B001207AAEAF50A8033C3EE94E3
:1015BB000AEF94004021EEF8EFF97A0A7B0012074C
:1015CB00AAE8F50BEEF8EFF97A0A7B001207AAEA04
:1015DB00F509750A0A8009750B00EEF509750A0AFB
:1015EB00D295D2941201BE79401201CA1201C412D3
:1015FB0001BEA90F1201CA850B0C750D0074B02525
:10160B000CF5827405350DF583E0F91201CA8509D5
:10161B000C750D0074B0250CF5827405350DF58332
:10162B00E0F91201CA750B0074B0250AF582740536
:10163B00350BF583E0F91201CA75090074B0250862
:10164B00F58274053509F583E0F91201CA1201C45C
:10165B001201BE798C1201CA1201C47F080208C4A0
:10166B0074F01208588A088B098C0A8D0B85080CAC
:10167B0085090D850A0E850B0F850C08850D0985CF
:10168B000E0A850F0B900594780812070FE50C4591
:10169B000D450E450F70D67F080208C453F3FC436B
:1016AB00FD030200C353F3FD43FD020200C353F3DA
:1016BB00FD53FDFD538FFD0200C353F3FE43FD01AC
:1016CB000200C353F3FE53FDFE538FFE0200C3C053
:1016DB0082C083120140120134D280D280900598CF
:1016EB001207441201F4D281D281C280C2809005CC
:1016FB00981207441201F4C281C281D083D08202B6
:10170B0000C3C082C083120140120134C281C28166
:10171B009005981207441201F4C280C280D281D284
:10172B00819005981207441201F4D280D280D083A5
:10173B00D0820200C3C082C083120134C281C28135
:10174B00120140C280C2809005981207441201F426
:10175B00D281D2819005981207441201F4C281C242
:10176B0081D083D0820200C3C082C083120134C2F5
:10177B0081C281120140D280D28090059812074419
:10178B001201F4D281D2819005981207441201F410
:10179B00C281C281D083D0820200C374F712085871
:1017AB007E00120134120140D280D28012014678A1
:1017BB00008016EEC333FED281D281A2805005D3B6
:1017CB00EE92E0FEC281C28108E8C3940840E412A5
:1017DB000140D280D280EEF97F010208C474F71267
:1017EB000858E9FF12013412014078008011C280C1
:1017FB00C280D281D281C281C281EFC333FF08E89C
:10180B00C39408500BEFA2E750E4D280D28080E261
:10181B00120146D281D281A28050047E0180027EC9
:10182B0000C281C281120140D280D280EEF97F01C9
:10183B000208C474F012085812013412014C79805A
:10184B0012016AE979E312016AE912014C798112FA
:10185B00016AE9D281D28112013A800990059C126A
:10186B000744120128A28150F3120164E9FE120110
:10187B0058120164E9F50812015E120152EEF87973
:10188B0000E4C8F9750900E84508F508E94509F5CC
:10189B000974FC5508F50874FF5509F509E4F50AB8
:1018AB00F50B78081202269005A0780C12073578F4
:1018BB0008790C1203789005A4780C120735780878
:1018CB00790C1204F8120134AA08AB09AC0AAD0B5F
:1018DB007F080208C474F012085812013412014C2C
:1018EB00798012016AE979E512016AE912014C79F2
:1018FB008112016AE9D281D28112013A80099005E5
:10190B009C120744120128A28150F3120164E9FED4
:10191B00120158120164E9F50812015E120152EE30
:10192B00F87900E4C8F9750900E84508F508E945B8
:10193B0009F50974FC5508F50874FF5509F509E418
:10194B00F50AF50B78081202269005A8780C1207F9
:10195B00357808790C1203789005AC780C120735A2
:10196B007808790C1204F8120134AA08AB09AC0AF6
:10197B00AD0B7F080208C4C082C0831201A690057C
:10198B00571207501201AC90055B120750D083D051
:10199B00820200C389F9A2EA50FCC2EA0200C374B6
:1019AB00F6120858EAFEEBFF8C088D0980128E8226
:1019BB008F83E0F91201DC8E828F83A3AE82AF831B
:1019CB00A808A909E824FFF508E934FFF509E84957
:1019DB0070DC7F020208C474F41208581201221240
:1019EB0001B2900557120744120283E50890057364
:1019FB00F090055B120744120283E50890057DF019
:101A0B00900557120744120283E508900587F09062
:101A1B00055B120744120283E508900588F09005D8
:101A2B006FC082C0839005C27808120735D083D06F
:101A3B00827808120216401A900593E070149005F4
:101A4B00937401F07C017A0B7B0079C01201D002F8
:101A5B001AE490056FC082C0839005C67808120700
:101A6B0035D083D0827808120216402A900593E075
:101A7B00640170229005937402F07C02ECF9FC90E7
:101A8B00055B120744120283AA08AB09E9FCF9793A
:101A9B00C01201D0804390056FC082C0839005CAED
:101AAB007808120735D083D08278081202164029A5
:101ABB00900593E0640270217C03900200E0FAA38E
:101ACB00E0FB79C01201D09005CE12074490056F50
:101ADB001207509005937400F07F040208C474F051
:101AEB0012085874FC1208038A0C8B0D8C0E8D0F88
:101AFB00740212084E7400F0A37400F0802D851050
:101B0B0082851183E02401F0A3E03400F08510827C
:101B1B00851183C3E09417A3E0940240E174021291
:101B2B00084EE02401F0A3E03400F0740212084EDA
:101B3B00E0F508A3E0F509E4F50AF50B780C790854
:101B4B00120206500F8510828511837400F0A37466
:101B5B0000F080B974041208197F080208C474F0ED
:101B6B0012085874FF1208038A0C8B0D8C0E8D0F04
:101B7B008510828511837400F0800A85108285118F
:101B8B0083E02401F0851082851183E0F508E4F5EC
:101B9B0009F50AF50B780C790812020640DD740181
:101BAB001208197F080208C453C6BFE59EA2E6407F
:101BBB00FA53C6B80200C343F30453FDFB43F204CC
:101BCB000200C3C082C083C28D75B6B2A28D50FC19
:101BDB00E5BB900202F0E5BA900203F0900202E03E
:101BEB00F87900E875F000A4C8AAF075F001A42AF2
:101BFB00FA75F000E9A42AF9900203E0FA7B00E8F9
:101C0B002AF8E93BF97A0A7B001207A2900200E856
:101C1B00F0A3E9F0D083D0820200C374F712085806
:101C2B00740912084EE0F8A3E0F98A828B838003D3
:101C3B00ECF0A3E8FEE9FFEE24FF18EF34FFF9EE1A
:101C4B004F70ED7F010208C41201FA1201701201EC
:101C5B001C12012E1201B81201D61201E880FB757D
:101C6B00DAC475DB0943E504D2B9D2DED2AF75E431
:041C7B000E0200C392
:04000005000000AB4C
:00000001FF
