:020000040800F2
:10000000900A0020CD010008D9150008D914000875
:10001000D71500080D030008892200080000000021
:10002000000000000000000000000000DD1C0008CF
:100030007D0400080000000075190008F71C000886
:10004000E7010008E7010008E7010008E7010008F0
:10005000E7010008E7010008E7010008E7010008E0
:10006000E7010008E7010008E7010008E7010008D0
:10007000E7010008E7010008E7010008E7010008C0
:10008000E7010008E7010008E7010008E7010008B0
:10009000E7010008E7010008E7010008E7010008A0
:1000A000E7010008E7010008E7010008E701000890
:1000B000E7010008B11D0008E7010008E70100089A
:1000C000E7010008E7010008E7010008E701000870
:1000D000E701000851220008E7010008E7010008D5
:1000E000E7010008E7010008E7010008E701000850
:1000F000E7010008E7010008E7010008E701000840
:10010000E7010008E7010008E7010008E70100082F
:10011000E7010008E7010008E7010008E70100081F
:10012000E7010008E7010008E7010008E70100080F
:1001300000F002F800F03AF80AA090E8000C8244BF
:100140008344AAF10107DA4501D100F02FF8AFF29C
:10015000090EBAE80F0013F0010F18BFFB1A43F0A5
:10016000010318470422000024220000103A24BF93
:1001700078C878C1FAD8520724BF30C830C144BF0C
:1001800004680C607047000000230024002500264E
:10019000103A28BF78C1FBD8520728BF30C148BFEA
:1001A0000B6070471FB51FBD10B510BD00F07CF887
:1001B0001146FFF7F7FF02F0B7F800F09AF803B422
:1001C000FFF7F2FF03BC02F07BF80000094880470C
:1001D00009480047FEE7FEE7FEE7FEE7FEE7FEE729
:1001E000FEE7FEE7FEE7FEE704480549054A064B41
:1001F00070470000611D00083101000890040020D4
:10020000900A0020900600209006002070474FF0D2
:1002100000020429C0F0128010F0030C00F01F80CF
:10022000CCF1040CBCF1020F18BF00F8012BA8BFE1
:1002300020F8022BA1EB0C0100F011B85FEAC17CA1
:1002400024BF00F8012B00F8012B48BF00F8012B58
:10025000704770477047704770474FF0000200B515
:10026000134694469646203922BFA0E80C50A0E8D9
:100270000C50B1F12001BFF4F7AF090728BFA0E887
:100280000C5048BF0CC05DF804EB890028BF40F853
:10029000042B08BF704748BF20F8022B11F0804F95
:1002A00018BF00F8012B7047754600F02BF8AE46DA
:1002B00005006946534620F00700854618B020B572
:1002C000FFF792FFBDE820404FF000064FF0000717
:1002D0004FF000084FF0000B21F00701AC46ACE8EE
:1002E000C009ACE8C009ACE8C009ACE8C0098D465B
:1002F000704710B50446AFF300802046BDE81040BB
:10030000FFF75DBF004870472C040020FEE70000A7
:1003100070B50E46002220B11EB105460020094CE2
:1003200009E04FF6FF7070BD295C90B201F0CAFF82
:1003300002B2A089401CA08180B2B042F4DB90B22E
:1003400070BD0000140000202DE9F0410E46074664
:1003500015460421052000F02AF80021012001F0B3
:1003600095FF80210A2001F0BAFC002405E0395DE8
:10037000092001F08BFF641CE4B2B442F7D30321DF
:10038000012001F083FFFF24052001F02BFB641EF8
:1003900014F0FF0401D04007F6D5222001F022FB23
:1003A0002870212001F01EFB6870BDE8F08170B557
:1003B0000C46054601F016FB20EA04012846BDE87C
:1003C000704001F063BF00002DE9F043DFF8A0901A
:1003D0000127284CD9F80010B1F5004F03D0E77081
:1003E000E078BDE8F083244E4FF0000884F80380E5
:1003F000B17981422DD106F5D275307928717079A5
:100400006871A971F079317A01EB00202881707A46
:10041000A8720A2003E0315C2A18401C5170E08069
:10042000A97A80B20A318142F5D8A97A1248124AD3
:100430000A300B32085C8A5C0A3102EB0020A5F816
:10044000D4000D48FFF764FF2081B5F8D420824224
:1004500000D0E7704146A4F80680E0883154401C83
:1004600080B2E080C828F8D3C9F80010B8E70000CF
:10047000280000201400002030010020704731B512
:1004800000F008F9044600F005F90099001B8842C5
:10049000F9D338BD2DE9F84FDFF8BC91002309F1FD
:1004A000040A0AF1040B1C464FF00F080BF1040E6E
:1004B00001270A68A7403A40BA4272D1DFF89CC1CE
:1004C0004D68A5EB0C0665452BD00DDC032D34D013
:1004D00005DC35B3012D19D0022D2FD11BE0112DD4
:1004E00016D0122D2AD119E0B6F5881F19D006DCD6
:1004F000B6F5803F15D0B6F5801F1FD111E0B6F5D7
:10050000001F0ED0B6F5041F18D10AE0CB6815E025
:10051000CB681B1D12E0CB6808330FE0CB680C33AF
:100520000CE08B682BB1012B4FF0080303D047611F
:1005300004E0042302E0076100E00023FF2A01D861
:10054000064601E000F104064FEA840501D9A5F151
:100550002005376808FA05FC27EA0C0703FA05F5B9
:1005600047EA050737604D68ED006ED53C4DAE6932
:1005700046F00106AE61AD6924F0030605F0010501
:100580000095384D7719BE68A5072D0F08FA05FCB0
:1005900026EA0C06DFF8D0C0604503D14FF0000C0E
:1005A00025E052E0DFF8C4C0604502D14FF0010CF5
:1005B0001DE0DFF8BCC0604502D14FF0020C16E030
:1005C000DFF8B0C0604502D14FF0030C0FE0DFF858
:1005D000A8C0604502D14FF0040C08E0DFF89CC0D1
:1005E000604502D14FF0050C01E04FF0060C0CFA0B
:1005F00005FC4CEA060CC7F808C04D68D9F8006045
:10060000ED034D4601D5164300E096432E604D683C
:10061000DAF80060AD03554601D5164300E0964375
:100620002E604D68DBF80060ED025D4601D5164393
:1006300000E096432E604D68DEF80060AD0275461E
:1006400001D5164300E096432E60641C102CFFF485
:100650002FAFBDE8F88F000000040140000011102A
:10066000001002400000014000080140000C014061
:10067000001001400014014000180140001C01401E
:100680008068084000D0012070470AB101617047BE
:100690000904FBE7014800687047000004000020DF
:1006A00002480168491C01607047000004000020F6
:1006B000074810B5016841F010010160032000F007
:1006C00047F80F2000F006F800F015F8002010BDE4
:1006D0000020024010B5044600F00CF94FF47A7186
:1006E000B0FBF1F000F049FC00222146501E00F062
:1006F0000FF8002010BD704700F01F02012191404B
:100700004009800000F1E020C0F8001170470000AF
:10071000F0B40E4B1B68C3F30223C3F10704042C8F
:1007200000D904241D1D072D01D2002300E0DB1E8B
:10073000012606FA04F56D1E0D409D409E40761E72
:10074000164045EA0601F0BC00F047BF0CED00E0A2
:10075000064A00F0070110684FF6FF03184040EA10
:100760000120034908431060704700000CED00E0D1
:100770000000FA052DE9F047DFF8688104460E46CF
:10078000D8F8000000F00700B0420CD2D8F80010F2
:1007900021F007013143C8F80010D8F8000000F03C
:1007A0000700B04273D120784F4F800705D5786895
:1007B000A16820F0F000084378602078C00755D089
:1007C0006068012201280CD0022828D0022393FA65
:1007D000A3F1B1FA81F141F02001490904D039684F
:1007E00003E04FF40033F2E7796A93FAA3F3B3FA24
:1007F00083F303F01F039A40114248D0796821F037
:10080000030101437960FFF745FF0546606841F247
:10081000883101280CD00228894615D022E04FF0FB
:100820000073D4E7FFF736FF411B494501D916E0B5
:1008300089467868C0F381000128F3D116E0FFF7FC
:1008400029FF411B49450AD87868C0F38100022876
:10085000F5D10BE0FFF71EFF411B494502D90320EC
:10086000BDE8F087786810F00C0FF3D1D8F80010CD
:10087000404601F00701B1420BD9016821F00701A0
:1008800031430160006800F00700B04201D0012050
:10089000E6E72078400705D57868E16820F4E06055
:1008A000084378602078000706D57868216920F42D
:1008B000605040EAC100786000F052F87968F02298
:1008C00092FAA2F201F0F001B2FA82F2D140074AA4
:1008D000515CC840064908600F20FFF7FBFE00206E
:1008E000BEE7000000200240001002404E23000836
:1008F0000000002001480068704700000000002050
:1009000008480949006849684FF4E06292FAA2F287
:1009100001F4E061B2FA82F2D140044A515CC8406D
:100920007047000000000020001002405E23000815
:1009300008480949006849684FF4605292FAA2F2E7
:1009400001F46051B2FA82F2D140044A515CC840CD
:100950007047000000000020001002405E230008E5
:1009600010B519A085B00FC88DE80F001AA01B4B59
:100970000068049059681A4801F00C02042A1DD03E
:10098000082A1BD14FF4701494FAA4F401F47012E5
:10099000B4FA84F4E240C9031DF8022010D5596866
:1009A0004FF4003393FAA3F301F40031B3FA83F365
:1009B000D94004AB595CB0FBF1F0504305B010BD19
:1009C00008485043FAE70000020304050607080937
:1009D0000A0B0C0D0E0F1010010200000010024057
:1009E00000127A0000093D002DE9F84F0446007816
:1009F000FE4EC0074FF001057FD070684FF40038FD
:100A0000C0F38100012807D07068C0F3810002287C
:100A10001BD17068C00318D598FAA8F0B0FA80F01E
:100A200040F02000400901D0306800E0706A98FA78
:100A3000A8F1B1FA81F101F01F0105FA01F10842B4
:100A40005BD06068002879D057E06068B0F5803FDF
:100A50000BD010B1B0F5A02F11D0306820F4803049
:100A60003060306820F4802002E0306840F480304C
:100A70003060606818B3FFF70DFE074609E0306884
:100A800040F480203060F0E7FFF704FEC01B6428CC
:100A900070D898FAA8F0B0FA80F040F02000400931
:100AA00001D0306800E0706A98FAA8F1B1FA81F1DB
:100AB00001F01F0105FA01F10842E5D01DE0FFF742
:100AC000E9FD074604E0FFF7E5FDC01B6428DFD819
:100AD00098FAA8F0B0FA80F040F02000400901D068
:100AE000306800E0706A98FAA8F1B1FA81F101F07B
:100AF0001F0105FA01F10842E5D12078DFF8F08204
:100B000080074FF0000A4FF002075AD570684FF087
:100B1000F80B10F00C0F07D07068C0F381000228AA
:100B20001CD17068C00319D497FAA7F0B0FA80F00E
:100B300040F02000400902D0306801E08AE0706A8D
:100B400097FAA7F1B1FA81F101F01F0105FA01F15D
:100B500008422BD0206901287CD127E0206988B386
:100B600095FAA5F0B0FA80F048F82050FFF792FD12
:100B7000814606E04DE1FFF78DFDA0EB090002285C
:100B800086D897FAA7F0B0FA80F040F0200040092C
:100B900001D0306800E0706A97FAA7F1B1FA81F1EC
:100BA00001F01F0105FA01F10842E4D030689BFA18
:100BB000ABF220F0F8016069B2FA82F29040014392
:100BC000316025E0FFE795FAA5F1B1FA81F148F827
:100BD00021A0FFF75FFD814605E0FFF75BFDA0EB7D
:100BE00009000228CCD897FAA7F0B0FA80F040F0BC
:100BF0002000400901D0306800E0706A97FAA7F140
:100C0000B1FA81F101F01F0105FA01F10842E4D1C6
:100C1000207800076DD5A069B8B395FAA5F0B0FAB1
:100C200080F008EB8000C0F88054FFF733FD814668
:100C300005E0FFF72FFDA0EB09000228A0D897FAE6
:100C4000A7F0B0FA80F040F06000B5EB501F02D181
:100C500030680CE063E197FAA7F0B0FA80F040F05A
:100C60006000B7EB501F01D1306A00E0706A97FA5C
:100C7000A7F1B1FA81F101F01F0105FA01F210426A
:100C8000D7D00120FFF7FBFB33E0FFE795FAA5F192
:100C9000B1FA81F108EB8101C1F880A4FFF7FAFCF9
:100CA000814605E0FFF7F6FCA0EB0900022899D881
:100CB00097FAA7F0B0FA80F040F06000B5EB501F53
:100CC00001D130680BE097FAA7F0B0FA80F040F05D
:100CD0006000B7EB501F01D1306A00E0706A97FAEC
:100CE000A7F1B1FA81F101F01F0105FA01F21042FA
:100CF000D8D12078400763D5F06940F08050F0618A
:100D0000F069DFF8F0B000F080500090DBF80010E0
:100D100041F48071CBF80010FFF7BCFC814605E080
:100D2000FFF7B8FCA0EB0900642872D8DBF80000DC
:100D3000C005F5D5E06801280AD008B1052813D010
:100D4000306A20F001003062306A20F0040002E0D6
:100D5000306A40F001003062E06841F2883B80B3C5
:100D6000FFF798FC81460AE0306A40F004003062E8
:100D7000EEE7FFF78FFCA0EB0901594549D897FA38
:100D8000A7F0B0FA80F040F04000B5EB501F01D161
:100D900030680BE097FAA7F0B0FA80F040F040001E
:100DA000B7EB501F01D1306A00E0706A97FAA7F1E3
:100DB000B1FA81F101F01F0205FA02F10842D8D020
:100DC00033E0FFE7FFF766FC814605E0FFF762FCD2
:100DD000A0EB090159451CD897FAA7F0B0FA80F0AA
:100DE00040F04000B5EB501F08D105E00010024074
:100DF000000042420070004030680CE097FAA7F013
:100E0000B0FA80F040F04000B7EB501F02D1306ADA
:100E100001E08AE0706A97FAA7F1B1FA81F101F076
:100E20001F0205FA02F10842D0D1E06998B3716857
:100E3000C1F38101022972D002284FF080714FF076
:100E4000007B50460AD091FAA1F1B1FA81F148F83D
:100E50002100FFF71FFC04465F4669E08A4691FACD
:100E6000A1F1B1FA81F1C14648F82100FFF712FC67
:100E7000A84607465D4604E0FFF70CFCC01B0228AD
:100E800053D895FAA5F0B0FA80F040F02000400960
:100E900002D0306801E060E0706A95FAA5F1B1FA1D
:100EA00081F101F01F0208FA02F10842E4D1206A40
:100EB000B0F5803F05D17068A16820F40030084388
:100EC0007060D4E908010843716821F47411084383
:100ED00070609AFAAAF0B0FA80F0474649F820808C
:100EE000FFF7D8FB044604E0FFF7D4FB001B022801
:100EF0001BD895FAA5F0B0FA80F040F02000400928
:100F000001D0306800E0706A95FAA5F1B1FA81F17C
:100F100001F01F0107FA01F10842E5D01DE01EE0D3
:100F2000FFF7B8FB001B022802D90320BDE8F88FA9
:100F300097FAA7F0B0FA80F040F02000400901D005
:100F4000306800E0706A97FAA7F1B1FA81F101F018
:100F50001F0105FA01F10842E2D10020E6E7012075
:100F6000E4E74FF0E0210428086903D020F00400F2
:100F70000861704740F00400FAE710B5401EB0F178
:100F8000807F01D3012010BD4FF0E02460610F216C
:100F9000601700F022FB0020A061072020610020E4
:100FA00010BD7047704710B5040003D094F83900A5
:100FB00010B107E0012010BD002084F83800204661
:100FC00000F00CF8022084F83900211D206800F0A0
:100FD0003DFF012084F83900002010BD08B50068ED
:100FE0000B49884212D10B48C16941F00201C1612D
:100FF000C069032200F00200009001211D20FFF7CC
:1010000087FBBDE808401D20FFF776BB08BD000048
:1010100000040040001002400168CA6842F001026A
:10102000CA600068016841F001010160002070475A
:10103000704770B50446006801694FF00005C94368
:10104000890715D4C168C943890711D4E91E016114
:1010500001202076206880698007204602D0FFF7B3
:10106000E7FF04E000F098F8204600F096F82576B7
:1010700020680169C943490717D4C168C9434907B2
:1010800013D46FF00401016102202076206880698A
:1010900010F4407F204602D0FFF7CAFF04E000F0C2
:1010A0007BF8204600F079F8257620680169C9436D
:1010B000090716D4C168C943090712D46FF00801A3
:1010C0000161042020762068C0698007204602D094
:1010D000FFF7AEFF04E000F05FF8204600F05DF897
:1010E000257620680169C943C90617D4C168C94378
:1010F000C90613D46FF01001016108202076206822
:10110000C06910F4407F204602D0FFF791FF04E051
:1011100000F042F8204600F040F82576206801698A
:10112000C943C90708D1C168C943C90704D1891E89
:101130000161204600F032F820680169C9430906C0
:1011400009D4C168C943090605D46FF08001016163
:101150002046FFF726FF20680169C943490609D4E4
:10116000C168C943490605D46FF0400101612046BA
:1011700000F015F820680169C94389060BD4C168DD
:10118000C943890607D46FF0200101612046BDE8FC
:101190007040FFF707BF70BD7047704770477047DA
:1011A000704738B5044600680168C268C1F30001A1
:1011B00002F4807221B11AB1E16B41F00101E163E7
:1011C0000168C1F34002416901F0010122B119B186
:1011D000E26B42F00402E2630268C2F3800222B1D1
:1011E00019B1E26B42F00202E2630268C2F3C0028C
:1011F00022B119B1E16B41F00801E1630168C068F7
:10120000C1F3401100F0200019B110B1204600F0E8
:1012100097FE20680168C068C1F3C01100F080002B
:1012200019B110B1204600F097FF21680868CA681C
:10123000C0F3801002F04002012568B162B1CA68B3
:10124000204622F04002CA6094F83910322910D0AA
:1012500080F8395000F03FF9E06B002808D0206892
:1012600001684068009084F839502046FFF798FFE5
:1012700038BD222180F83910ECE770B5040004D0A5
:1012800094F83900002510B106E0012070BD84F803
:101290003850204600F020F8022084F839002068F9
:1012A000C16821F40051C160204600F09DFE206815
:1012B000016921F4904101612068416921F02A010E
:1012C00041612068C16841F40051C160E5630120BB
:1012D00084F83900002070BDF0B500682D4F00255E
:1012E0002D490222012303262C4C85B0B8422FD170
:1012F000886940F004008861886900F00400049067
:10130000886940F480408861886900F480400490D6
:10131000886940F001008861886900F0010004904C
:1013200048158DE84D0069462046FFF7B3F82115B2
:10133000CDE9001569462046FFF7ACF82520FFF7F8
:10134000DBF9012211462520FFF7E2F905B0F0BDD7
:10135000134FB842FAD1886940F004008861886967
:1013600000F004000490C86940F40030C861C86906
:10137000694600F40030049004208DE84D002046BA
:10138000FFF788F80821CDE9001569462046FFF7E8
:1013900081F8DBE7003801400010024000080140FE
:1013A0000044004090F83930012B01D0122B2BD192
:1013B00031B32AB390F83830012B25D0012380F8BF
:1013C000383081628285C2850021C16390F839205E
:1013D000122A17D0222280F8392080F838100168AC
:1013E000CA6842F48072CA6001684A6942F0010228
:1013F0004A610068C16841F02001C1600020704767
:10140000012070473222E6E70220704770472DE93D
:10141000F047044690F8390099460D46012801D05E
:10142000222856D125B31AB394F83800012850D099
:10143000012684F838600027E76394F839002228F1
:1014400019D0122084F83900A284E2844FF4805825
:10145000E08C4B46401EE084A0684FF000024045FF
:101460004FF08001204613D100F0A9FE08BB04E034
:101470000120BDE8F0873220E4E728882168C0F326
:1014800008004860206908B16D1C08E0AD1C06E04A
:1014900000F095FE68B9216815F8010B4860E08CF2
:1014A0000028D5D14B4600224021204600F087FE7F
:1014B00008B10320DDE794F83900322805D084F81C
:1014C000396084F838700020D3E7222084F839008E
:1014D000F7E70220CDE77047FEE7000070B5264928
:1014E000522000F0A9F9254C262804D02249522088
:1014F00000F0A2F9607060780025262839D12078A4
:10150000002837D11C4800F085F826282ED11A482B
:1015100000F0FEF9262829D10120184A2070164B28
:10152000921D0521612000F0ABF826281ED112493A
:1015300005200A3100F05AF9262817D10E4BA58054
:1015400003F11E02A088195C1154401C80B2A080D7
:101550000428F7D30849A5800A31A08816180B5C27
:10156000401C80B23371A0801028F6D36078262802
:1015700000D0257070BD00002C0000200800002065
:1015800010B5412826D108210846FEF710FF3D215D
:10159000112000F07BFE8621172000F077FE7F21CE
:1015A000262000F073FE1E212D2000F06FFE00218A
:1015B0002C2000F06BFE8D212A2000F067FE3E21DA
:1015C0002B2000F063FE022000F0A4FEBDE81040D6
:1015D00000F013B810BDFEE770470907090E002898
:1015E00006DA00F00F0000F1E02080F8141D7047CB
:1015F00000F1E02080F80014704710B5142000F0CE
:10160000F1F9800705D10321BDE81040142000F056
:1016100066BB10BD70B50646082188B00024084698
:10162000FEF7C5FE00210D2000F030FE80210E20C7
:10163000FEF7BDFE93208DF8040020208DF80500F4
:1016400006A801AB0090022219460C2000F042F8D7
:10165000054626280DD1002101A8425C7254425C47
:10166000491C5440C9B20429F7D3405CA04200D0C1
:10167000BB2580210E2000F032FB08B0284670BD4B
:1016800030B587B08DF804008DF80510002001A951
:10169000145C0D18401CC0B2AC700628F8D30020B2
:1016A0000C181A5C401CC0B222720628F8D306A897
:1016B00000900B460C220E2000F00CF80446262861
:1016C00004D1082000F08EF9000700D4BB2407B035
:1016D000204630BD2DE9FF5F0025DDF838B0174604
:1016E0008A4681464FF0BB082E460C2805D0B9F13A
:1016F0000E0F04D11225102601E07725302645F083
:101700008001022000F0C2FD80210420FEF74FFE80
:101710000021012000F0BAFD80210A2000F0DFFA4C
:10172000002405E01AF80410092000F0AFFD641C45
:10173000BC42F7DB4946012000F0A8FDB9F10C0FCF
:1017400003D180210D2000F0CAFA4FF47A740420EE
:1017500000F048F90746641E03D0F80701D137426C
:10176000F5D080210D20FEF722FE3CB1062000F0CE
:1017700039F910F01B0F0DD04FF0BB0880210C2061
:1017800000F0ADFA0021012000F080FD04B04046D9
:10179000BDE8F09F2F404FF02608F80701D04FF02A
:1017A000CC08B9F10C0FE9D10A2000F01BF905466D
:1017B0000C2000F017F910F007004FEAC50101D026
:1017C00008390144CBF8001025B1122D00D912259B
:1017D000002408E00125FBE7092000F003F9014699
:1017E00003980155641CAC42F6DBC7E730B587B0FF
:1017F0000C4630218DF8041001AD8DF80500022152
:101800002846AA1CFEF7A0FD06A801AB0090042202
:1018100019460C20FFF75EFF262802D10699902971
:1018200002D0BB2007B030BD0023E95CE1545B1C53
:10183000DBB2102BF9D3F5E730B50C46054608218D
:1018400087B00846FEF7B3FD07210D2000F01EFD0E
:101850000321142000F043FA06A801AB00908DF894
:101860000450012219460C20FFF734FF262802D12C
:101870000699102902D0BB2007B030BD9DF8041096
:1018800021709DF805106170F6E7000010B51F4C3F
:10189000012211462046FEF7F8FE012000F03AFD35
:1018A000002201212046FEF7F0FE012000F032FD6B
:1018B000012211462046FEF7E8FE012000F02AFD35
:1018C0000F21012000F0E2FC012000F08BF8C0069F
:1018D000FAD4012000F01EFD3D21112000F0D6FCBD
:1018E0001E212D2000F0D2FC00212C2000F0CEFC87
:1018F0008D212A2000F0CAFC3E212B2000F0C6FCDE
:101900004021BDE81040152000F0C0BC0008014097
:1019100010B588B093218DF8041070218DF8051052
:1019200000218DF80A1001AA5418435CA370445C8E
:101930009DF80A30491C6340C9B28DF80A30042969
:10194000F2D3072101A8D21DFEF7FEFC08210846AC
:10195000FEF72DFD06A801AB0090092219460C20C8
:10196000FFF7B8FE262802D10699182900D0BB201F
:1019700008B010BD7047000030B5184885B08169C7
:1019800041F0040181618069154D00F0040004906C
:10199000B120009001200324019069460394284659
:1019A000FEF778FD40210020CDE900100394694640
:1019B0002846FEF76FFD012211462846FEF765FE18
:1019C000012210212846FEF760FEFFF75FFF05B0F9
:1019D0004120BDE83040FFF7D3BD000000100240B9
:1019E0000008014070B57E2101EA40000A4D40F038
:1019F0008004002210212846FEF747FE204600F012
:101A000043F900F019F90446012210212846FEF797
:101A10003CFE204670BD00000008014030B5104873
:101A200085B0816941F00401816180694FF480745F
:101A300000F0040004900120CDE900400220094D8F
:101A4000039069462846FEF725FD002221462846D8
:101A5000FEF71BFE00F0D4F800F03AFA05B030BDF6
:101A60000010024000080140F0B52A490125032674
:101A70004A78294F0023294C4FF0020CE12803D16A
:101A8000042A01D24D7012E0012A04D0022A07D0A4
:101A9000032A09D00AE0E22808D181F801C006E053
:101AA000E32803D14E7002E0E42817D04B708A7807
:101AB000002A1DD02268C72A02D90B708B702360C0
:101AC0002268B854521C2260EA2810D00A78012AF1
:101AD0000FD0022A12D0032A14D019E0E1223A7062
:101AE000E2227A70E322BA7026608D70E8E70D700A
:101AF000F0BDEB280CD181F800C0F0BDEC2807D177
:101B00000E70F0BDED2803D14FF4004020608B70C3
:101B10000B70F0BD140000203001002028000020D0
:101B20002DE9F0411C46314D13464FF0000C069A4A
:101B30002F4E8E46A5F804C0A98801F1E10777541D
:101B4000491C89B2A9800429F6D32A4F3979FF2983
:101B500001D387F804C039793171491C397170712A
:101B600086F806E0180AF071337274720A20A880B1
:101B700004F10A0105E0131813F80A3C3354401C21
:101B8000A88080B28842F6D31948FEF7C1FB31190C
:101B9000A7F8D400020A8A72C87204F10C00A88067
:101BA000071D04E0011BDE313154401CA88080B2C7
:101BB000B842F7D30122104D140221462846FEF701
:101BC00064FD052000F09AFB4FF47A733A46084909
:101BD0000A48FFF71CFC052000F090FB2146284630
:101BE000BDE8F0410022FEF750BD000014000020C7
:101BF00068000020F801002000080140B003002028
:101C000070B50B4C09480025206025716571A571E0
:101C10002581A572C82104F10B00FEF7F8FAA4F89B
:101C2000D4500448C4F8D80070BD0000E4E3E2E1F9
:101C3000D4020020EDECEBEA70B5124E00256006F0
:101C4000040E002220213046FEF71FFD142000F074
:101C500061FB40213046FEF713FD012801D144F01D
:101C60000104142000F056FB012220213046FEF72B
:101C70000CFD142000F04EFB6D1CEDB2082DDED3E0
:101C8000204670BD0008014070B5134E0546002483
:101C9000280601D5012200E0002280213046FEF70F
:101CA000F4FC142000F036FB002220213046FEF721
:101CB000ECFC142000F02EFB012220213046FEF720
:101CC000E4FC142000F026FB6806641C050EE4B258
:101CD000082CDDD370BD000000080140704770B5CE
:101CE0000C460546FFF77EFE40EA04012846BDE8A3
:101CF000704000F0CBBAFEF7D3BC30B58FB00224F1
:101D00000120049000941020059000254FF46010ED
:101D1000CDE9085007946846FEF766FE00B1FEE77D
:101D20000AA90F2081E831004FF48060CDE90D054C
:101D300002210AA8FEF71EFD00B1FEE7FEF7DAFD5C
:101D40004FF47A71B0FBF1F0FFF717F90420FFF7B9
:101D500008F900221146501EFEF7DAFC0FB030BD24
:101D60000F4810B5016841F00101016041680D4A5A
:101D70001140416001680C4A11400160016821F482
:101D800080210160416821F4FE0141604FF41F0190
:101D90008160FFF7B2FF05494FF00060086010BD99
:101DA000001002400000FFF8FFFFF6FE08ED00E023
:101DB00008B51820FEF708FB18BB14490889B0F5D0
:101DC000C05F07D000F5FE60B0F5005009D01028C4
:101DD00017D10DE00E4800904979042341F6010225
:101DE0000CE00C4800904979102341F6110205E0FF
:101DF000094800904979142341F621021820FFF781
:101E00008FFEBDE808400548FFF713B9D402002053
:101E10002C000020360000204A000020F0030020A3
:101E2000094A10B5074BC2E900310021C2E902108E
:101E300010461161FFF7B7F8BDE810400248FFF700
:101E4000EBB8000000040040F0030020F0B5026889
:101E50001A4D1B4E1B4FDFF870C01C4B4FF0804ECD
:101E6000A84209D0984207D0704505D0B04203D0AF
:101E7000B84201D0604503D122F070044A68224381
:101E8000A84209D0984207D0704505D0B04203D08F
:101E9000B84201D0604503D122F44074CA6822439D
:101EA00002608A68C2620A688262A84201D09842CF
:101EB00001D10969016301214161F0BD002C01409C
:101EC0000004004000080040000C004000340140C5
:101ED00070B50B4C09480025206025716571A5710E
:101EE0002581A572C82104F10B00FEF790F9A4F832
:101EF000D4500448C4F8D80070BD0000E4E3E2E127
:101F0000F8010020EDECEBEA0B4910B5094AC1E9F4
:101F1000002000208860C860086188610C2048614A
:101F20000846FFF7AAF9BDE810400122034902481C
:101F3000FFF738BA00380140B00300202400002029
:101F400010B590F83910222903D0322901D002208F
:101F500010BD8168B1F5805F11D001690029016869
:101F60001FD0496801F07F03816A4A1C82620B70AE
:101F7000C18D491E0904090CC18518D02FE00269E2
:101F8000816A002A0268526805D0D2B20A80816A4A
:101F9000491C8162ECE7C2F308020A80816A891C4D
:101FA000F7E74A68816A4B1C83620A70E0E70168C0
:101FB000CA6822F02002CA6090F83910322910D085
:101FC0000168CA6822F48072CA6001684A6922F016
:101FD00001024A61012180F83910FFF717FA002049
:101FE00010BD1221F7E700002DE9F041044600681A
:101FF0000169E26821F4405111430161A16820693F
:102000000143606901432068C26841F20C639A434E
:102010000A43C26020684169A26921F440711143FA
:1020200041614C4920686426322788423CD1FEF742
:102030007FFC00EBC00101EB001061688900B0FB80
:10204000F1F5FEF775FC00EBC00101EB00106168D3
:10205000B8468900B0FBF1F0B0FBF6F06FF0180164
:10206000484305EB800107EB0110B0FBF6F000F0F0
:10207000F005FEF75DFC00EBC00101EB00106168AC
:102080008900B0FBF1F0B0FBF6F005EB0015FEF7B0
:102090004FFC00EBC00101EB001061688900B0FB50
:1020A000F1F7FEF745FC3BE0FEF72AFC00EBC00130
:1020B00001EB001061688900B0FBF1F5FEF720FC30
:1020C00000EBC00101EB00106168B8468900B0FB6D
:1020D000F1F0B0FBF6F06FF01801484305EB80011A
:1020E00007EB0110B0FBF6F000F0F005FEF708FC7E
:1020F00000EBC00101EB001061688900B0FBF1F05A
:10210000B0FBF6F005EB0015FEF7FAFB00EBC001A3
:1021100001EB001061688900B0FBF1F7FEF7F0FBFE
:1021200000EBC00101EB001061688900B0FBF1F029
:10213000B0FBF6F06FF01801484307EB800108EBA5
:102140000110B0FBF6F0216800F00F002844886011
:10215000BDE8F0810038014090F83910122903D011
:10216000322901D0022070478168B1F5805F016A91
:102170000BD04A1C0262026809785160C18C491E6A
:102180000904090CC1840ED017E009880268C1F364
:102190000801516001690029016A02D0491C0162ED
:1021A000ECE7891CFBE70168CA6822F08002CA607C
:1021B0000068C16841F04001C160002070472DE90E
:1021C000F0471D4690460F460446FEF763FA064662
:1021D0005FEA08004FF000094FF0010808D030E036
:1021E000681C05D095B1FEF755FA801BA8420DD8A2
:1021F0002068006837EA0000F2D127E0681C20D090
:1022000025B1FEF747FA801BA8421AD92068C16899
:1022100021F08001C1602068C16821F02001C16007
:102220002068C16821F48071C1602068416921F093
:102230000101416184F8398084F838900320BDE8B9
:10224000F0872068006837EA0000D7D00020F6E762
:102250000A4810B500680068C043800609D40848E1
:1022600000680849C0B24968B1F5004F01D0FFF7D6
:10227000FBFBBDE810400148FEF793BFB003002010
:102280000438014024000020FEE7000070B50D4630
:102290007E2101EA4004094E002210213046FEF75B
:1022A000F4F92046FFF7F0FC2846FFF7EDFC304636
:1022B000BDE8704001221021FEF7E7B90008014097
:1022C0007047000010B50C4A80EA012000215181BE
:1022D00041F221034FF6FF74010403D583EA400065
:1022E00080B201E004EA40005189491C89B2518161
:1022F0000829F1D310BD00001400002000224FF483
:10230000165304E00021491C9942FCD3521C82421E
:10231000F8D37047002204E00021491C0A29FCD3AD
:10232000521C8242F8D37047FEF7C2F9FFF724FB34
:10233000FFF774FB4FF4E130FFF7E6FD40F27F2139
:1023400040F2CF70FFF76CFDFFF7C8F8FCE7000024
:102350000000000000000102030406070809000055
:102360000000010203040000882300080000002090
:102370002C0000006C010008B42300082C00002091
:10238000640A0000880100080090D00300000000EB
:10239000000000000000FFFFFFFFFFFF0000000043
:1023A000000000000000000000000000000000002D
:0423B0000000000029
:0400000508000131BD
:00000001FF
