:020000040800F2
:10000000E80A0020D5010008D1130008CD1300082C
:10001000CF130008A5040008051C0008000000001C
:10002000000000000000000000000000F5170008BC
:10003000A70400080000000009160008F7170008D0
:10004000EF010008EF010008EF010008EF010008D0
:10005000EF010008EF010008EF010008EF010008C0
:10006000EF010008EF010008EF010008EF010008B0
:10007000EF010008EF010008EF010008EF010008A0
:10008000EF010008EF010008EF010008EF01000890
:10009000EF010008EF010008EF010008EF01000880
:1000A000EF010008EF010008EF010008EF01000870
:1000B000EF010008B1180008EF010008EF01000887
:1000C000EF010008EF010008EF010008EF01000850
:1000D000EF010008651B0008AD1B0008EF010008D8
:1000E000EF010008EF010008EF010008EF01000830
:1000F000EF010008EF010008EF010008EF01000820
:10010000EF010008EF010008EF010008EF0100080F
:10011000EF010008EF010008EF010008EF010008FF
:10012000EF010008EF010008EF010008EF010008EF
:1001300000F002F800F03FF80AA090E8000C8244BA
:100140008344AAF10107DA4501D100F034F8AFF297
:10015000090EBAE80F0013F0010F18BFFB1A43F0A5
:1001600001031847B41B0000D41B0000103A24BF41
:1001700078C878C1FAD8520724BF30C830C144BF0C
:1001800004680C607047000000230024002500264E
:10019000103A28BF78C1FBD8520728BF30C148BFEA
:1001A0000B607047732900F03081002070471FB545
:1001B0001FBD10B510BD00F043F91146FFF7F7FF62
:1001C00001F02EFD00F061F903B4FFF7F2FF03BC6C
:1001D00001F019FD0948804709480047FEE7FEE79E
:1001E000FEE7FEE7FEE7FEE7FEE7FEE7FEE7FEE7E7
:1001F00004480549054A064B70470000611800088D
:1002000031010008E8040020E80A0020E806002088
:10021000E8060020704700000FB4044910B503AA97
:10022000029800F0F7F810BC5DF814FB34000020D1
:100230000FB41CB5074B06AA7B446946009005988D
:1002400000F0B9F80020694600F0C8F81CBC5DF861
:1002500014FB0000A10100002DE9F0410E46044608
:10026000002020622046E168884730B3252805D069
:10027000D4E901219047206A401CF2E7E16820465A
:1002800000278847050018D0A5F14100192802D899
:1002900020354FF400673246294620462760FFF795
:1002A00081FF40B1012804D0F61D26F0070608366C
:1002B000D8E7361DD6E72846DAE7206ABDE8F081A0
:1002C00070B50C460546012A05D02878800600D571
:1002D000EA69002302E0012305E05B1C934202D29D
:1002E000E05C0028F9D1A869E618C01AA861286A5C
:1002F000184428622846AFF3008004E0D5E90121C4
:1003000014F8010B9047B442F8D32846AFF30080AD
:1003100070BD4FF000020429C0F0128010F0030CF1
:1003200000F01B80CCF1040CBCF1020F18BF00F8E8
:10033000012BA8BF20F8022BA1EB0C0100F00DB897
:100340005FEAC17C24BF00F8012B00F8012B48BFF5
:1003500000F8012B70474FF0000200B51346944699
:100360009646203922BFA0E80C50A0E80C50B1F10D
:100370002001BFF4F7AF090728BFA0E80C5048BF21
:100380000CC05DF804EB890028BF40F8042B08BFBF
:10039000704748BF20F8022B11F0804F18BF00F8BB
:1003A000012B7047704770477047704701694A1CBE
:1003B00002610878704700B58FB0CDE901310021A6
:1003C000059105497944CDE9031011466846FFF7C8
:1003D00043FF0FB000BD0000E5FFFFFF0A6802F811
:1003E000010B0A60704710B5436913B1AFF3008089
:1003F00001E0FFF765FF012010BD127800F1240134
:100400000A7000224A700122EDE711684FF0FF32B6
:10041000E9E70000074B70B50D467B44FFF7CBFFC3
:100420000446284600F008F810B14FF0FF3070BDC8
:10043000204670BDEB170000007B00F08000704785
:10044000754600F02BF8AE4605006946534620F08D
:100450000700854618B020B5FFF7CAFEBDE820406A
:100460004FF000064FF000074FF000084FF0000B70
:1004700021F00701AC46ACE8C009ACE8C009ACE823
:10048000C009ACE8C0098D46704710B50446AFF30B
:1004900000802046BDE81040FFF796BE0048704738
:1004A00088040020FEE7704731B500F005F90446E6
:1004B00000F002F90099001B8842F9D338BD000012
:1004C0002DE9F84FDFF8BC91002309F1040A0AF185
:1004D000040B1C464FF00F080BF1040E01270A68AD
:1004E000A7403A40BA4272D1DFF89CC14D68A5EBF3
:1004F0000C0665452BD00DDC032D34D005DC35B35F
:10050000012D19D0022D2FD11BE0112D16D0122D47
:100510002AD119E0B6F5881F19D006DCB6F5803F60
:1005200015D0B6F5801F1FD111E0B6F5001F0ED013
:10053000B6F5041F18D10AE0CB6815E0CB681B1D87
:1005400012E0CB6808330FE0CB680C330CE08B680B
:100550002BB1012B4FF0080303D0476104E00423C3
:1005600002E0076100E00023FF2A01D8064601E00F
:1005700000F104064FEA840501D9A5F1200537688A
:1005800008FA05FC27EA0C0703FA05F547EA050710
:1005900037604D68ED006ED53C4DAE6946F0010602
:1005A000AE61AD6924F0030605F001050095384DF4
:1005B0007719BE68A5072D0F08FA05FC26EA0C0678
:1005C000DFF8D0C0604503D14FF0000C25E052E0C9
:1005D000DFF8C4C0604502D14FF0010C1DE0DFF828
:1005E000BCC0604502D14FF0020C16E0DFF8B0C08D
:1005F000604502D14FF0030C0FE0DFF8A8C0604562
:1006000002D14FF0040C08E0DFF89CC0604502D135
:100610004FF0050C01E04FF0060C0CFA05FC4CEA1B
:10062000060CC7F808C04D68D9F80060ED034D46C8
:1006300001D5164300E096432E604D68DAF800605D
:10064000AD03554601D5164300E096432E604D6834
:10065000DBF80060ED025D4601D5164300E09643ED
:100660002E604D68DEF80060AD02754601D5164378
:1006700000E096432E60641C102CFFF42FAFBDE801
:10068000F88F00000004014000001110001002402B
:100690000000014000080140000C01400010014032
:1006A0000014014000180140001C01400AB1016122
:1006B00070470904FBE7000001480068704700002C
:1006C0002800002002480168491C016070470000B2
:1006D00028000020074810B5016841F010010160B2
:1006E000032000F047F80F2000F006F800F015F89E
:1006F000002010BD0020024010B5044600F00CF9A7
:100700004FF47A71B0FBF1F000F049FC0022214671
:10071000501E00F00FF8002010BD704700F01F02BF
:10072000012191404009800000F1E020C0F8001153
:1007300070470000F0B40E4B1B68C3F30223C3F1F3
:100740000704042C00D904241D1D072D01D2002309
:1007500000E0DB1E012606FA04F56D1E0D409D40EB
:100760009E40761E164045EA0601F0BC00F03CBFF4
:100770000CED00E0064A00F0070110684FF6FF0399
:10078000184040EA01200349084310607047000008
:100790000CED00E00000FA052DE9F047DFF8688174
:1007A00004460E46D8F8000000F00700B0420CD214
:1007B000D8F8001021F007013143C8F80010D8F82C
:1007C000000000F00700B04273D120784F4F80073F
:1007D00005D57868A16820F0F0000843786020789B
:1007E000C00755D06068012201280CD0022828D00B
:1007F000022393FAA3F1B1FA81F141F020014909F2
:1008000004D0396803E04FF40033F2E7796A93FAD1
:10081000A3F3B3FA83F303F01F039A40114248D0C5
:10082000796821F0030101437960FFF745FF054630
:10083000606841F2883101280CD00228894615D021
:1008400022E04FF00073D4E7FFF736FF411B494524
:1008500001D916E089467868C0F381000128F3D1F8
:1008600016E0FFF729FF411B49450AD87868C0F315
:1008700081000228F5D10BE0FFF71EFF411B49451F
:1008800002D90320BDE8F087786810F00C0FF3D18F
:10089000D8F80010404601F00701B1420BD90168B9
:1008A00021F0070131430160006800F00700B04209
:1008B00001D00120E6E72078400705D57868E16897
:1008C00020F4E060084378602078000706D5786857
:1008D000216920F4605040EAC100786000F052F8CD
:1008E0007968F02292FAA2F201F0F001B2FA82F2F3
:1008F000D140074A515CC840064908600F20FFF705
:10090000FBFE0020BEE70000002002400010024075
:10091000F41C000824000020014800687047000013
:100920002400002008480949006849684FF4E06243
:1009300092FAA2F201F4E061B2FA82F2D140044AE2
:10094000515CC840704700002400002000100240A5
:10095000041D000808480949006849684FF46052BE
:1009600092FAA2F201F46051B2FA82F2D140044A42
:10097000515CC84070470000240000200010024075
:10098000041D000810B519A085B00FC88DE80F0030
:100990001AA01B4B0068049059681A4801F00C0219
:1009A000042A1DD0082A1BD14FF4701494FAA4F421
:1009B00001F47012B4FA84F4E240C9031DF8022075
:1009C00010D559684FF4003393FAA3F301F40031C2
:1009D000B3FA83F3D94004AB595CB0FBF1F0504358
:1009E00005B010BD08485043FAE7000002030405B3
:1009F000060708090A0B0C0D0E0F1010010200006B
:100A00000010024000127A0000093D002DE9F84F65
:100A100004460078FE4EC0074FF001057FD0706895
:100A20004FF40038C0F38100012807D07068C0F38C
:100A3000810002281BD17068C00318D598FAA8F06D
:100A4000B0FA80F040F02000400901D0306800E0AA
:100A5000706A98FAA8F1B1FA81F101F01F0105FA64
:100A600001F108425BD06068002879D057E06068E7
:100A7000B0F5803F0BD010B1B0F5A02F11D0306889
:100A800020F480303060306820F4802002E030684C
:100A900040F480303060606818B3FFF70DFE074601
:100AA00009E0306840F480203060F0E7FFF704FE92
:100AB000C01B642870D898FAA8F0B0FA80F040F013
:100AC0002000400901D0306800E0706A98FAA8F16F
:100AD000B1FA81F101F01F0105FA01F10842E5D0F8
:100AE0001DE0FFF7E9FD074604E0FFF7E5FDC01B49
:100AF0006428DFD898FAA8F0B0FA80F040F020001F
:100B0000400901D0306800E0706A98FAA8F1B1FAA3
:100B100081F101F01F0105FA01F10842E5D12078C9
:100B2000DFF8F08280074FF0000A4FF002075AD535
:100B300070684FF0F80B10F00C0F07D07068C0F31E
:100B4000810002281CD17068C00319D497FAA7F05D
:100B5000B0FA80F040F02000400902D0306801E097
:100B60008AE0706A97FAA7F1B1FA81F101F01F01EA
:100B700005FA01F108422BD0206901287CD127E039
:100B8000206988B395FAA5F0B0FA80F048F82050B3
:100B9000FFF792FD814606E04DE1FFF78DFDA0EBEA
:100BA0000900022886D897FAA7F0B0FA80F040F042
:100BB0002000400901D0306800E0706A97FAA7F180
:100BC000B1FA81F101F01F0105FA01F10842E4D008
:100BD00030689BFAABF220F0F8016069B2FA82F259
:100BE00090400143316025E0FFE795FAA5F1B1FAA5
:100BF00081F148F821A0FFF75FFD814605E0FFF78E
:100C00005BFDA0EB09000228CCD897FAA7F0B0FA58
:100C100080F040F02000400901D0306800E0706AA8
:100C200097FAA7F1B1FA81F101F01F0105FA01F17C
:100C30000842E4D1207800076DD5A069B8B395FAD1
:100C4000A5F0B0FA80F008EB8000C0F88054FFF700
:100C500033FD814605E0FFF72FFDA0EB09000228D8
:100C6000A0D897FAA7F0B0FA80F040F06000B5EB9A
:100C7000501F02D130680CE063E197FAA7F0B0FA98
:100C800080F040F06000B7EB501F01D1306A00E007
:100C9000706A97FAA7F1B1FA81F101F01F0105FA24
:100CA00001F21042D7D00120FFF7FEFB33E0FFE74F
:100CB00095FAA5F1B1FA81F108EB8101C1F880A4A0
:100CC000FFF7FAFC814605E0FFF7F6FCA0EB090010
:100CD000022899D897FAA7F0B0FA80F040F06000A7
:100CE000B5EB501F01D130680BE097FAA7F0B0FACE
:100CF00080F040F06000B7EB501F01D1306A00E097
:100D0000706A97FAA7F1B1FA81F101F01F0105FAB3
:100D100001F21042D8D12078400763D5F06940F045
:100D20008050F061F069DFF8F0B000F08050009082
:100D3000DBF8001041F48071CBF80010FFF7BCFC29
:100D4000814605E0FFF7B8FCA0EB0900642872D8E3
:100D5000DBF80000C005F5D5E06801280AD008B12D
:100D6000052813D0306A20F001003062306A20F08C
:100D7000040002E0306A40F001003062E06841F2B5
:100D8000883B80B3FFF798FC81460AE0306A40F068
:100D900004003062EEE7FFF78FFCA0EB0901594534
:100DA00049D897FAA7F0B0FA80F040F04000B5EBD0
:100DB000501F01D130680BE097FAA7F0B0FA80F02D
:100DC00040F04000B7EB501F01D1306A00E0706A7C
:100DD00097FAA7F1B1FA81F101F01F0205FA02F1C9
:100DE0000842D8D033E0FFE7FFF766FC814605E014
:100DF000FFF762FCA0EB090159451CD897FAA7F050
:100E0000B0FA80F040F04000B5EB501F08D105E08B
:100E100000100240000042420070004030680CE0C8
:100E200097FAA7F0B0FA80F040F04000B7EB501FFF
:100E300002D1306A01E08AE0706A97FAA7F1B1FA4C
:100E400081F101F01F0205FA02F10842D0D1E069F8
:100E500098B37168C1F38101022972D002284FF062
:100E600080714FF0007B50460AD091FAA1F1B1FA9F
:100E700081F148F82100FFF71FFC04465F4669E056
:100E80008A4691FAA1F1B1FA81F1C14648F82100F0
:100E9000FFF712FCA84607465D4604E0FFF70CFC8E
:100EA000C01B022853D895FAA5F0B0FA80F040F0A4
:100EB0002000400902D0306801E060E0706A95FAD5
:100EC000A5F1B1FA81F101F01F0208FA02F108421E
:100ED000E4D1206AB0F5803F05D17068A16820F4A4
:100EE000003008437060D4E908010843716821F4B8
:100EF0007411084370609AFAAAF0B0FA80F047467D
:100F000049F82080FFF7D8FB044604E0FFF7D4FB44
:100F1000001B02281BD895FAA5F0B0FA80F040F02B
:100F20002000400901D0306800E0706A95FAA5F110
:100F3000B1FA81F101F01F0107FA01F10842E5D091
:100F40001DE01EE0FFF7B8FB001B022802D90320BA
:100F5000BDE8F88F97FAA7F0B0FA80F040F02000D3
:100F6000400901D0306800E0706A97FAA7F1B1FA41
:100F700081F101F01F0105FA01F10842E2D10020E0
:100F8000E6E70120E4E74FF0E0210428086903D0F8
:100F900020F004000861704740F00400FAE710B543
:100FA000401EB0F1807F01D3012010BD4FF0E0243E
:100FB00060610F21601700F017FB0020A06107207F
:100FC0002061002010BD7047704710B5040003D0A9
:100FD00094F8390010B107E0012010BD002084F81A
:100FE0003800204600F00CF8022084F83900211D5A
:100FF000206800F085FC012084F83900002010BD35
:1010000008B500680B49884212D10B48C16941F00C
:101010000201C161C069032200F0020000900121B9
:101020001D20FFF787FBBDE808401D20FFF776BBBA
:1010300008BD000000040040001002400168CA68BA
:1010400042F00102CA600068016841F001010160DC
:1010500000207047704770B50446006801694FF082
:101060000005C943890715D4C168C943890711D44C
:10107000E91E0161012020762068806980072046F2
:1010800002D0FFF7E7FF04E000F098F8204600F0F8
:1010900096F8257620680169C943490717D4C168C5
:1010A000C943490713D46FF004010161022020767F
:1010B0002068806910F4407F204602D0FFF7CAFF05
:1010C00004E000F07BF8204600F079F825762068EF
:1010D0000169C943090716D4C168C943090712D475
:1010E0006FF008010161042020762068C069800744
:1010F000204602D0FFF7AEFF04E000F05FF8204684
:1011000000F05DF8257620680169C943C90617D447
:10111000C168C943C90613D46FF0100101610820EA
:1011200020762068C06910F4407F204602D0FFF787
:1011300091FF04E000F042F8204600F040F82576E8
:1011400020680169C943C90708D1C168C943C907F3
:1011500004D1891E0161204600F032F8206801693F
:10116000C943090609D4C168C943090605D46FF00B
:10117000800101612046FFF726FF20680169C9430D
:10118000490609D4C168C943490605D46FF0400136
:101190000161204600F015F820680169C9438906FD
:1011A0000BD4C168C943890607D46FF020010161DF
:1011B0002046BDE87040FFF707BF70BD704770471D
:1011C0007047704770B5040004D094F839000025CA
:1011D00010B106E0012070BD84F83850204600F0C0
:1011E00021F8022084F839002068C16821F40051F8
:1011F000C160204600F0FEFB2068016921F49041A7
:1012000001612068416921F02A0141612068C168BB
:1012100041F40051C160E563012084F839000020E9
:1012200070BD00002DE9F04780460068474B012162
:10123000474A0025474C0226032786B04FF48069B1
:1012400098422ED1A06940F00400A061A06900F08E
:1012500004000490A06940F48040A061A06900F4FB
:1012600080400490A06940F00100A061A06903974C
:1012700000F00100049048020090CDE90161694648
:1012800092461046FFF71CF9CDE900956946504695
:10129000FFF716F92520FFF741FA01221146252014
:1012A00029E02D4B984228D1A06940F00400A061AC
:1012B000A06900F004000490E06940F40030E061AF
:1012C000E069039700F40030049004200090CDE919
:1012D0000161694692461046FFF7F2F80820CDE911
:1012E000000569465046FFF7EBF82620FFF716FA8F
:1012F000022201212620FFF71DFA1849D8F8000024
:1013000088421FD1E06940F48020E061E06900F488
:1013100080200490A06940F00800A061A069104CF2
:1013200000F00800CDE90370CDE90096694620463B
:10133000FFF7C6F8E014CDE900056946204602959E
:10134000FFF7BEF806B0BDE8F087000000380140A6
:1013500000080140001002400044004000480040E6
:10136000000C014090F83930012B01D0122B2BD109
:1013700031B32AB390F83830012B25D0012380F8FF
:10138000383081628285C2850021C16390F839209E
:10139000122A17D0222280F8392080F838100168EC
:1013A000CA6842F48072CA6001684A6942F0010268
:1013B0004A610068C16841F02001C16000207047A7
:1013C000012070473222E6E702207047FEE7FEE781
:1013D000704700001CB50FA00522D0E90010CDE930
:1013E00000106946302000F0CFF805226946102031
:1013F00000F044F8002069460A5CA52A03D1401C8D
:10140000C0B20528F8D3052801D001201CBD00205A
:101410001CBD0000A5A5A5A5A5000000F0B585B0E0
:1014200000F092F91348816941F0040181618069FB
:10143000012400F00400022601940094CDE9036029
:101440000D4F69463846FFF73BF810256946384688
:101450000095FFF735F80020CDE900606946384671
:10146000FFF72EF8044814300460001F056005B033
:10147000F0BD000000100240000801402DE9F041DD
:101480000E460B49102715460F6000F08BF9804679
:10149000002405E0FF2000F085F93055641CE4B21B
:1014A000AC42F7D30248001F07604046BDE8F08118
:1014B0001408014010B5064910240C6000F072F9C0
:1014C000FF2000F06FF90249091F0C6010BD0000F9
:1014D0001408014010B51548012404600522144980
:1014E000302000F051F812490522491D2A2000F051
:1014F0004BF80121212000F063F80121222000F0A7
:101500005FF81A21242000F05BF82821252000F044
:1015100057F82621084600F053F80E21202000F04D
:101520004FF80248001F046010BD0000140801407D
:101530000C1D000810B5134A012414600146202236
:10154000A02000F021F80F48001F04600D480C385F
:1015500001688907FCD40720FFF7ACFF0446014669
:10156000272000F02DF8E00605D5FF21E12000F04E
:1015700027F8102010BDA00601D5202010BDFF20A7
:1015800010BD0000140801402DE9F0410D460B4943
:10159000102716460F6000F005F98046002405E08C
:1015A00015F8010B00F0FEF8641CE4B2B442F7D366
:1015B0000248001F07604046BDE8F0811408014062
:1015C00070B50D460146074810240460084600F037
:1015D000E9F80646284600F0E5F80248001F0460D6
:1015E000304670BD140801400907090E002806DACC
:1015F00000F00F0000F1E02080F8141D704700F1AA
:10160000E02080F8001470477047704730B51048EC
:1016100085B0816941F00401816180694FF4807473
:1016200000F0040004900120CDE900400220094DA3
:10163000039069462846FEF743FF002221462846CC
:10164000FFF734F800F064F800F09CF905B030BD05
:101650000010024000080140F0B52A490125032688
:101660004A78294F0023294C4FF0020CE12803D17E
:10167000042A01D24D7012E0012A04D0022A07D0B8
:10168000032A09D00AE0E22808D181F801C006E067
:10169000E32803D14E7002E0E42817D04B708A781B
:1016A000002A1DD02268C72A02D90B708B702360D4
:1016B0002268B854521C2260EA2810D00A78012A05
:1016C0000FD0022A12D0032A14D019E0E1223A7076
:1016D000E2227A70E322BA7026608D70E8E70D701E
:1016E000F0BDEB280CD181F800C0F0BDEC2807D18B
:1016F0000E70F0BDED2803D14FF4004020608B70D8
:101700000B70F0BD38000020840300203000002062
:1017100070B50B4C0948002520602571E5802581B6
:1017200065812573C82104F10D00FEF7F2FDA4F8D0
:10173000D6500448C4F8D80070BD0000E4E3E2E1EC
:10174000E0010020EDECEBEA30B5144885B081698A
:1017500041F0040181618069114D00F004000490A2
:1017600001200190022003908020009069462846C5
:10177000FEF7A6FE2024694628460094FEF7A0FE48
:1017800040210020CDE9001069462846FEF798FE6A
:1017900003481430046005B030BD00000010024062
:1017A00000080140F0B50246114D002080242E1D96
:1017B00003462027110601D52C6000E034600F217C
:1017C000491EFDD251060A0E0F21491EFDD22F607F
:1017D00040060749000E08390968490601D5401C32
:1017E000C0B237605B1CDBB2082BE3D3F0BD000056
:1017F000100801407047FEF765BF30B58FB0022476
:101800000120049000941020059000254FF46010F2
:10181000CDE9085007946846FFF7F8F800B1FEE7F5
:101820000AA90F2081E831004FF48060CDE90D0551
:1018300002210AA8FEF7B0FF00B1FEE7FFF76CF83F
:101840004FF47A71B0FBF1F0FFF7A9FB0420FFF72A
:101850009AFB00221146501EFEF76CFF0FB030BD00
:101860000F4810B5016841F00101016041680D4A5F
:101870001140416001680C4A11400160016821F487
:1018800080210160416821F4FE0141604FF41F0195
:101890008160FFF7B2FF05494FF00060086010BD9E
:1018A000001002400000FFF8FFFFF6FE08ED00E028
:1018B00010B50448FFF7CFFB03480068BDE81040AF
:1018C000004700004C0400204000002010B50A4BE7
:1018D0001446084AC3E900210021C3E90210184652
:1018E0001961FFF772FB05480460BDE8104002482B
:1018F000FFF7A4BB000400404C040020400000207F
:10190000F0B502681A4D1B4E1B4FDFF870C01C4B20
:101910004FF0804EA84209D0984207D0704505D0BC
:10192000B04203D0B84201D0604503D122F0700428
:101930004A682243A84209D0984207D0704505D092
:10194000B04203D0B84201D0604503D122F44074C4
:10195000CA68224302608A68C2620A688262A84238
:1019600001D0984201D10969016301214161F0BDB3
:10197000002C01400004004000080040000C004022
:101980000034014070B50B4C0948002520602571DA
:10199000E580258165812573C82104F10D00FEF7DE
:1019A000B8FCA4F8D6500448C4F8D80070BD0000B4
:1019B000E4E3E2E104010020EDECEBEA0B4910B5B1
:1019C000094AC1E9002000208860C8600861886178
:1019D0000C2048610846FFF7F5FBBDE810400122E6
:1019E00003490248FFF7BEBC003801404400002014
:1019F0002C0000202DE9F041044600680169E268EE
:101A000021F4405111430161A168206901436069DB
:101A100001432068C26841F20C639A430A43C260E2
:101A200020684169A26921F44071114341614C4928
:101A300020686426322788423CD1FEF78BFF00EBFA
:101A4000C00101EB001061688900B0FBF1F5FEF701
:101A500081FF00EBC00101EB00106168B84689000E
:101A6000B0FBF1F0B0FBF6F06FF01801484305EB66
:101A7000800107EB0110B0FBF6F000F0F005FEF777
:101A800069FF00EBC00101EB001061688900B0FB49
:101A9000F1F0B0FBF6F005EB0015FEF75BFF00EB95
:101AA000C00101EB001061688900B0FBF1F7FEF79F
:101AB00051FF3BE0FEF736FF00EBC00101EB0010E9
:101AC00061688900B0FBF1F5FEF72CFF00EBC00167
:101AD00001EB00106168B8468900B0FBF1F0B0FB83
:101AE000F6F06FF01801484305EB800107EB011099
:101AF000B0FBF6F000F0F005FEF714FF00EBC001BC
:101B000001EB001061688900B0FBF1F0B0FBF6F06A
:101B100005EB0015FEF706FF00EBC00101EB00101E
:101B200061688900B0FBF1F7FEF7FCFE00EBC00135
:101B300001EB001061688900B0FBF1F0B0FBF6F03A
:101B40006FF01801484307EB800108EB0110B0FB70
:101B5000F6F0216800F00F0028448860BDE8F081AD
:101B6000003801400D4810B500680068C043800689
:101B700012D40B480068C4B20A484068B0F5004F60
:101B80000AD000224FF480710748FEF78FFD2046EF
:101B9000BDE81040FFF760BD10BD0000440000200C
:101BA000043801402C00002000080140074800686C
:101BB0000168C943890607D46FF020010160044819
:101BC0000068C0B2FFF748BD70470000C4000020A5
:101BD000044400400A4910B5084AC1E90020002029
:101BE00088600C22C860C1E904028861C8610846A7
:101BF000FFF7E8FA002800D0FEE710BD00480040DB
:101C000084000020FEE7704704490A685206FCD5AC
:101C1000024AC1B2121D1160704700000048004026
:101C2000FEF758FDFFF7F2FC1B4A40F27F2142F21B
:101C30000F70FFF74BFE4FF4E1342046FFF7BEFE76
:101C40002046FFF7C7FFFFF7E9FB4FF47A7405E082
:101C500012A0FEF7E1FA2046FEF726FCFFF7BAFBDA
:101C60000028F5D113A0FEF7D7FAFFF733FC174D84
:101C70001B244FF4FA666F1C3046FEF715FC2C70DF
:101C80003C7013A219A1781CFEF7D2FA0F48401C31
:101C9000FFF750FCF0E700000B1600086E7266328A
:101CA000346C303120636865636B20206572726F1D
:101CB000720D0A006E726632346C303120636865D2
:101CC000636B20204F4B0D0A000000000000002035
:101CD000322E34475F4368616E6E656C3A68656C9E
:101CE0006C6F20776F726C642100000025730D0A01
:101CF00000000000000000000000000001020304DA
:101D00000607080900000000010203043443101014
:101D10000134431010010000381D000800000020AD
:101D2000440000006C0100087C1D000844000020F5
:101D3000A40A000088010008006F6E000000000087
:101D40000000000000000000000000000000000093
:101D50000000000000000000000000000090D00320
:101D60000000000000000000000000000000000073
:0C1D700000000000000000000000000067
:0400000508000131BD
:00000001FF
