:020000040800F2
:10000000080802209902000813160008B913000816
:100010001116000849030008ED2200080000000046
:10002000000000000000000000000000251C000887
:100030001905000800000000091A0008C91C000882
:10004000B3020008B3020008B3020008B3020008BC
:10005000B3020008B3020008B3020008B3020008AC
:10006000B3020008B3020008B3020008B30200089C
:10007000B3020008B3020008B3020008B30200088C
:10008000B3020008B3020008B3020008B30200087C
:10009000B3020008B3020008B3020008B30200086C
:1000A000B3020008B3020008B3020008B30200085C
:1000B000B3020008B3020008B3020008B30200084C
:1000C000B3020008B3020008B3020008B30200083C
:1000D000B3020008B3020008B3020008B30200082C
:1000E000B3020008B3020008B3020008B30200081C
:1000F000B3020008B3020008B3020008B30200080C
:10010000B3020008B3020008B3020008B3020008FB
:10011000B3020008B3020008B3020008B3020008EB
:10012000B3020008B3020008B3020008B3020008DB
:10013000B3020008B3020008B3020008B3020008CB
:10014000B3020008B3020008B3020008B3020008BB
:10015000B3020008B3020008B3020008B3020008AB
:10016000B3020008B3020008B3020008B30200089B
:10017000B3020008B3020008B30200080000000048
:10018000B3020008B3020008291D0008B3020008EA
:10019000B3020008B3020008B3020008B30200086B
:1001A000B3020008B3020008B3020008B30200085B
:1001B000B3020008B3020008B3020008B30200084B
:1001C000B3020008B302000800000000B3020008F8
:1001D000B3020008B3020008B3020008B30200082B
:1001E000B3020008B3020008B3020008B30200081B
:1001F000B3020008B302000800F002F800F03CF877
:100200000AA090E8000C82448344AAF10107DA4571
:1002100001D100F031F8AFF2090EBAE80F0013F087
:10022000010F18BFFB1A43F00103184758210000C3
:1002300078210000103A24BF78C878C1FAD8520754
:1002400024BF30C830C144BF04680C607047000050
:100250000023002400250026103A28BF78C1FBD8CF
:10026000520728BF30C148BF0B6070471FB502F06E
:1002700077F81FBD10B510BD00F033F81146FFF739
:10028000F5FF02F05CF800F051F803B4FFF7F2FF5D
:1002900003BC02F047F800000948804709480047BE
:1002A000FEE7FEE7FEE7FEE7FEE7FEE7FEE7FEE726
:1002B000FEE7FEE704480549054A064B7047000083
:1002C000CD1C0008F90100080802022008080220DD
:1002D00008040220080402207047704770477047E6
:1002E0007047754600F02CF8AE4605006946534647
:1002F00020F00700854618B020B5FFF7DBFFBDE80A
:1003000020404FF000064FF000074FF000084FF07C
:10031000000B21F00701AC46ACE8C009ACE8C0090D
:10032000ACE8C009ACE8C0098D46704710B504467A
:10033000AFF300802046BDE81040FFF7A6BF0000E5
:1003400000487047A4010220FEE7000070B4BFF32C
:100350004F8FBFF36F8F1A4900200860194D29682D
:1003600041F400312960BFF34F8FBFF36F8F1649FF
:100370000860BFF34F8F081F006843F6FF76134AEB
:10038000C0F34E3CC0F3C90406EA4C11204641EAD2
:1003900080731360401EFAD2BCF1010CF4D2BFF39B
:1003A0004F8F286840F480302860BFF34F8FBFF331
:1003B0006F8F0748016841F00401016070BC70470D
:1003C00050EF00E014ED00E084ED00E060EF00E0AD
:1003D0009CEF00E02DE9F041052417460D46064646
:1003E000204601F061FB20F00401204601F080FF6F
:1003F0000021012001F07CFF0A24204601F054FB7B
:1004000040F08001204601F073FF0024002D07D941
:10041000315D092001F06CFF601CC4B2A542F7D821
:100420000321012001F064FFFF24052001F03CFBC3
:10043000611E11F0FF0402D010F0040FF5D022204D
:1004400001F032FB3870212001F02EFB7870BDE8FE
:10045000F08100002DE9F00741254FF044084226C5
:100460004FF0450943274FF0460A3024A0F10A0C0B
:100470009BB32548BCF1060F1FD2DFE80CF0030741
:100480000B0F14194554BDE8F00770474654BDE8FA
:10049000F00770474754BDE8F007704700F8018047
:1004A000BDE8F007704700F80190BDE8F00770471D
:1004B00000F801A0BDE8F0077047144B03EB5103AF
:1004C0001AB11A7804EB121203E01A7802F00F0244
:1004D00030324254BDE8F0077047FFE70C48BCF1EA
:1004E000060F0AD2DFE80CF0080706050403DFE771
:1004F000D9E7D3E7CEE7C9E7C4E7064B002A03EB09
:100500005103E2D0DDE70000900102209A010220B1
:100510006801022054010220704790F8351002292A
:1005200003D08021416501207047052180F83510F6
:100530000068016821F0010101600020704700009F
:100540002DE9F84FDFF830920022DFF828820F27DC
:1005500009F1040A4FF0010E0B680EFA02F52B4068
:10056000AB4240F00181D1F804C0BCF1020F18BFCA
:10057000BCF1120F15D14FEAD20C00EB8C0CDCF859
:1005800020604FEA42744FEAD46407FA04FB26EA7B
:100590000B06D1F810B00BFA04F444EA0604CCF8C8
:1005A000204006684FEA420C91F804B04FF0030473
:1005B0000BF0030B04FA0CF40BFA0CFB26EA04060E
:1005C0004BEA060606604E68012E18BF022E03D0C5
:1005D000112E18BF122E14D18668D1F80CB026EA5D
:1005E00004060BFA0CFB4BEA06068660466826EA10
:1005F00005050E79C6F3001606FA02F646EA050569
:100600004560C56825EA04048D6805FA0CFC4CEACF
:10061000040CC0F80CC0D1F804C01CF0805F7CD082
:10062000D8F800C04CF4804CC8F800C0D8F800C01E
:100630000CF4804CCDF800C022F0030C0CF1804586
:1006400005F59835D5F808C84FEA82744FEA147456
:1006500007FA04F62CEA0606A0F1804CBCF5003C33
:1006600048D0A0F1804CBCF5013C08BF4FF0010C14
:1006700040D0A0F1804CBCF5023C08BF4FF0020C0A
:1006800038D0A0F1804CBCF5033C08BF4FF0030C00
:1006900030D0A0F1804CBCF5043C08BF4FF0040CF6
:1006A00028D0A0F1804CBCF5053C08BF4FF0050CEC
:1006B00020D0A0F1804CBCF5063C08BF4FF0060CE2
:1006C00018D0A0F1804CBCF5073C08BF4FF0070CD8
:1006D00010D0A0F1804CBCF5083C08BF4FF0080CCE
:1006E00008D0A0F1804CBCF5093C0CBF4FF0090CC0
:1006F0004FF00A0C0CFA04FC4CEA060CC5F808C8CA
:10070000D9F800C04C682CEA030C14F4803F18BFE1
:100710004CEA030CC9F800C000E025E0DAF800C09C
:100720004C682CEA030C14F4003F18BF4CEA030C8D
:10073000CAF800C0114CD4F800C04D682CEA030C74
:1007400015F4801F18BF4CEA030CC4F800C00C4C11
:10075000D4F800C04D682CEA030C15F4001F18BF34
:100760004CEA030CC4F800C0521C102AFFF4F4AE8B
:10077000BDE8F88F44380240003C0140083C01408D
:100780000C3C01400069084018BF01207047002A56
:1007900008BF090481617047014800687047000084
:1007A0000400022002480168491C016070470000F3
:1007B000040002200B4810B5016841F4007101608B
:1007C000052000F065F80F2000F00EF800F020F88A
:1007D0000923022219214FF4D87001F025FA0020D4
:1007E00010BD0000003C024010B5044607484FF41D
:1007F0007A720068B0FBF2F000F0BAFB00222146EA
:10080000501E00F013F8002010BD00000000022070
:100810007047012200F01F0102FA01F14009800037
:1008200000F1E020C0F8001170470000174B4DF8B0
:10083000044D1B68C3F30223C3F1070CBCF1040F82
:1008400088BF4FF0040C1C1D072C34BF0023DB1E97
:10085000012404FA0CFCACF1010C0CEA01019940F2
:1008600004FA03F35B1E1A40114300284FEA0111FA
:10087000B8BF00F00F0000F1E020B4BF80F8141DF5
:1008800080F800145DF8044B704700000CED00E0A8
:10089000074A00F0070011684FF6FF03194041EACC
:1008A000002040F0FD7040F0806010607047000054
:1008B0000CED00E01C4838B5016841F08051016042
:1008C00000681A4C00F080500090206840F480309E
:1008D0002060FFF761FF0546606810F4803F09D192
:1008E000FFF75AFF401BB0F57A7F14D8606810F408
:1008F000803FF5D0206840F400302060FFF74CFFC7
:100900000546606810F4003F0BD1FFF745FF401B20
:10091000B0F57A7F01D9032038BD606810F4003F3C
:10092000F3D0002038BD0000403802400070004085
:100930002DE9F047DFF8688104460D46D8F800003D
:1009400000F00F00A8420CD2D8F8000020F00F00F1
:100950002843C8F80000D8F8000000F00F00A842B3
:1009600070D120784F4F10F0020F05D03868A16881
:1009700020F0F00008433860207810F0010F4ED0CE
:1009800060684949012820D00968022822D011F066
:10099000020F57D0396821F0030108433860FFF790
:1009A000FBFE0646606841F28839012816D002280D
:1009B000386800F00C0021D0F8B1FFF7EDFE801B85
:1009C000484528D90320BDE8F087096811F4003FA5
:1009D000E0D137E011F0007FDCD133E0386800F07F
:1009E0000C0004281BD0FFF7D7FE801B4845E9D830
:1009F000386800F00C000428F5D110E008280ED06B
:100A0000FFF7CAFE801B4845DCD8386800F00C00B0
:100A10000828F5D103E0386810F00C0FCDD1D8F8D4
:100A2000000000F00F00A8420FD9D8F8000020F015
:100A30000F002843C8F80000D8F8000000F00F00AD
:100A4000A84202D00120BDE8F087207810F0040F02
:100A500005D03868E16820F4E05008433860207819
:100A600010F0080F06D03868216920F4604040EA91
:100A7000C100386000F04EF83968F02292FAA2F214
:100A800001F0F001B2FA82F2D140084A515CC8404C
:100A9000074908600F20FFF7A7FE0020BDE8F08798
:100AA000003C024008380240003802406A23000837
:100AB0000000022008480949006809684FF4E05224
:100AC00092FAA2F201F4E051B2FA82F2D140044A61
:100AD000515CC84070470000000002200838024006
:100AE0007A23000808480949006809684FF4604201
:100AF00092FAA2F201F46041B2FA82F2D140044AC1
:100B0000515CC840704700000000022008380240D5
:100B10007A2300082148006810F00C01204808BF23
:100B20007047DFF880C0042904BF60467047082979
:100B300018BF70474DF8044D1B4A1168136801F047
:100B40003F0113F4800F47F6C0730BD0BCFBF1F0EC
:100B50001168194093FAA3F3B3FA83F3D94000FB69
:100B600001F00AE0B0FBF1F01168194093FAA3F329
:100B7000B3FA83F3D94000FB01F011684FF440321F
:100B80005DF8044B92FAA2F201F44031B2FA82F21B
:100B9000D140491C4900B0FBF1F0704708380240D1
:100BA0000024F40040787D01043802402DE9F84F1C
:100BB000DFF8A88304460078A8F1040710F0010FBD
:100BC000A7F104055AD0D8F8000000F00C00042862
:100BD00009D0D8F8000000F00C0008280CD13868C3
:100BE00010F4800F08D0286810F4003F46D06068E9
:100BF000002800F0AF8141E06068B0F5803F04BF9D
:100C0000286840F480300AD010B1B0F5A02F11D080
:100C1000286820F480302860286820F4802028602C
:100C20006068D0B1FFF7B8FD0646286810F4003FB1
:100C300008D023E0286840F480202860286840F429
:100C40008030ECE7FFF7A8FD801B642800F22581C7
:100C5000286810F4003FF5D010E0FFF79DFD064630
:100C6000286810F4003F09D0FFF796FD801B642828
:100C700000F21381286810F4003FF5D1207810F0BD
:100C8000020F50D0D8F800004FF0F80910F00C0F08
:100C900018D0D8F8000000F00C00082804BF38680D
:100CA00010F4800F0ED0E0680028286828D040F0AB
:100CB00001002860FFF770FD0646286810F0020F5B
:100CC00009D011E0286810F0020F1CBFE06801286D
:100CD0000AD000F03FB9FFF75FFD801B02287DD8E6
:100CE000286810F0020FF6D0286899FAA9F2216955
:100CF000B2FA82F220F0F80091400843286012E036
:100D000020F001002860FFF747FD0646286810F034
:100D1000020F08D0FFF740FD801B02285ED828682C
:100D200010F0020FF6D1207810F0080F33D0DFF862
:100D3000309260690028D9F8000016D040F0010018
:100D4000C9F80000FFF728FD0646D9F8000010F0AA
:100D5000020F20D1FFF720FD801B02283ED8D9F8D2
:100D6000000010F0020FF5D015E020F00100C9F8E6
:100D70000000FFF711FD0646D9F8000010F0020F41
:100D800009D0FFF709FD801B022827D8D9F80000F9
:100D900010F0020FF5D1207810F0040F63D07148E5
:100DA000016841F08051016000686F4E00F0805092
:100DB0000090306840F480703060FFF7EDFC8146B1
:100DC000306810F4807F0BD1FFF7E6FCA0EB090040
:100DD000642862D8306810F4807F00E05DE0F3D0D2
:100DE000A068624E012804BF306840F0010009D0BD
:100DF00008B1052813D0306820F001003060306859
:100E000020F004003060A06841F2883AD0B1FFF7CA
:100E1000C3FC8146306810F0020F08D023E0306830
:100E200040F004003060306840F00100EAE7FFF76E
:100E3000B3FCA0EB090050452FD8306810F0020F2A
:100E4000F5D010E0FFF7A8FC8146306810F0020FE3
:100E500009D0FFF7A1FCA0EB090050451DD8306870
:100E600010F0020FF5D1A069E8B3D8F8001001F036
:100E70000C0108296ED00228286820F080702860B4
:100E80000ED0FFF789FC0446286810F0007F5ED082
:100E9000FFF782FC001B022855D90320BDE8F88F1C
:100EA000FFF77AFC0646286810F0007F08D0FFF7AD
:100EB00073FC801B0228F0D8286810F0007FF6D160
:100EC000D4E9070147F6C0724FF0FF3392FAA2F25D
:100ED0000843616AB2FA82F29140A26A03EB5202BD
:100EE0004FF4403300E032E093FAA3F3B3FA83F314
:100EF0009A4011434FF070620843E16A92FAA2F2FD
:100F0000B2FA82F291404FF0E0420843216B92FA2C
:100F1000A2F2B2FA82F2914008433860286840F0A9
:100F200080702860FFF738FC0446286810F0007FC6
:100F30000DD1FFF731FC001B0228AED8286810F055
:100F4000007FF6D003E0286810F0007FA0D10020D9
:100F5000BDE8F88F0120BDE8F88F00000838024096
:100F6000743802404038024000700040703802403F
:100F7000401EB0F1807F24BF012070474FF0E02178
:100F80004861F020044A82F8140D0020886107208F
:100F900008610020704700000FE000E0704700008B
:100FA00070B501680446C8690A688B6810F00F0FB5
:100FB0004FF0200551D040F2011C13EA0C0F7DD0F8
:100FC00010F0010F18BF12F4807F07D04FF0010C12
:100FD000C1F820C0E16E41F00101E16610F0020F9E
:100FE00018BF13F0010F08D0D4F800C00221CCF8CC
:100FF0002010E16E41F00401E16610F0040F18BF0B
:1010000013F0010F08D0D4F800C00421CCF8201050
:10101000E16E41F00201E16610F0080F0CD002F021
:10102000200103F00103194306D023680821196247
:10103000E16E41F00801E166E16E002908BF70BD74
:1010400010F0200F1EBF12F0200F204600F07FFF8F
:10105000E06E10F0080F10D10AE010F0200F18BF5A
:1010600012F0200F39D02046BDE8704000F06FBF6D
:101070002068806810F0400F29D02068016821F4B2
:10108000907101602068816821F00101816084F81D
:101090006A502068816811F0400F14D0816821F0F7
:1010A00040018160606E70B12F490165606EFFF78D
:1010B00034FA002808BF70BD606E00E00DE0016DDD
:1010C000BDE8704008472046FFF768FF70BD204626
:1010D000FFF764FF0020E06670BD10F0800F18BFBE
:1010E00012F0800F2FD094F86900212818BF70BD2E
:1010F000B4F85200A0B1A068B0F5805F04BF2069C9
:101100000028E06C16D000F10101E164216800784C
:101110008862B4F85200A0F10100A4F8520070BD3A
:10112000086820F0800008602068016841F04001F4
:10113000016070BD0088C0F308008862E06C00F1B7
:101140000200E064E5E710F0400F14BF12F0400F1A
:1011500070BD20460A6822F040020A6084F8695097
:1011600000F029F970BD00003B1F0008002804BFF3
:101170000120704710B5044690F8690028B9002096
:1011800084F86800204600F029F8242084F86900DB
:101190002068016821F001010160204600F018FF7D
:1011A000012808BF10BD606A00281CBF204600F05F
:1011B00027FE2068416821F49041416020688168E1
:1011C00021F02A0181602068016841F0010101607D
:1011D0002046BDE8104000F080BE00004DF804ED50
:1011E000006887B0A0F18041B1F5F0411CBF07B0A5
:1011F0005DF804FB1548016841F0200101600068BA
:1012000000F0200005901248016841F08041016023
:101210000068694600F080400590C02000900220E0
:1012200001900020029003200390082004900948B8
:10123000FFF786F95220FFF7ECFA03220121522032
:10124000FFF7F4FA07B05DF804FB00003038024005
:10125000403802400014024090F86A30202B49D1F7
:10126000002912BF002A0120704790F86830012B36
:1012700040D0012380F868304165A0F85820A0F8DC
:101280005A20FF228168B1F5805F05D07F2351B1DC
:10129000B1F1805F0CD012E00169002908BF40F273
:1012A000FF1102D109E0016909BBA0F85C2006E04A
:1012B0000169002918BF3F2119D0A0F85C10002156
:1012C000C166222280F86A2080F8681001680A68E6
:1012D00042F480720A6001688A6842F001028A6002
:1012E0000068016841F02001016000207047A0F80B
:1012F0005C30E4E70220704770472DE9F84304466C
:1013000090F869001E4691460D46202850D1002DC8
:1013100012BFB9F1000F0120BDE8F88394F868000E
:10132000012845D0012084F868000027E7662120C5
:1013300084F86900FFF730FAA4F850908046A4F8CA
:1013400052900022B4F8520080214346401EA4F877
:1013500052002046009600F08FFFB8B9A068B0F5A3
:10136000805F04BF2069002813D0216815F8010BA5
:101370008862B4F852000028E3D1434602464FF099
:1013800040012046009600F077FF48B10320BDE8F9
:10139000F883216835F8020BC0F308008862E8E79B
:1013A000202084F86900002084F86870BDE8F88384
:1013B0000220BDE8F8837047FEE700002DE9F04108
:1013C00045490024522000F06CFA444D262804D0F0
:1013D0004149522000F065FA68706878404E26282E
:1013E00070D12878002818BFBDE8F0813A4800F095
:1013F00011F9262861D1384800F0CCFA26285CD1B2
:101400000120354B374A05212870612000F048F94A
:10141000262852D13449052000F01BFA262808BF9F
:101420002D4F4AD107EB540014F0010FE1B20078C0
:101430000CBF000900F00F004FF001030CBF0122A8
:101440000022FFF707F8601C84B2082C24BF002498
:10145000254FE7D307EB540014F0010FE1B20078F9
:101460000CBF000900F00F004FF000030CBF012279
:101470000022FEF7EFFF601C84B2202CEAD300228A
:1014800030464FF48051FFF782F9032117A000F096
:1014900069FB1748082100F065FB022115A000F048
:1014A00061FB0C2114A000F05DFB1748102100F037
:1014B00059FB02210FA000F055FB6878262808BFD1
:1014C000BDE8F081012230461103FFF760F90020EA
:1014D0002870BDE8F08100009A010220100002206F
:1014E00000000240130002205401022049443A0047
:1014F000900102200D0A0000426C6F636B355F445F
:101500006174653A00000000680102200D484DF842
:1015100004ED87B0016841F001010160006801211C
:1015200000F00100059048F2301000900020CDE955
:101530000101039069460448FFF702F807B05DF81F
:1015400004FB000030380240000002400F4810B594
:1015500086B0016841F001010160006869460C4CE9
:1015600000F00100059040F2096000900120019018
:101570000290032003902046FEF7E2FF012240F292
:1015800009612046FFF703F906B010BD303802406C
:1015900000000240412818BF704710B508242046BB
:1015A00000F082FA20F00801204600F0A1FE3D2163
:1015B000112000F09DFE8621172000F099FE7F216A
:1015C000262000F095FE1E212D2000F091FE002126
:1015D0002C2000F08DFE8D212A2000F089FE3E2176
:1015E0002B2000F085FE022000F09DFE142000F06C
:1015F0005BFA10F0030F18BF10BD1424204600F052
:1016000053FA40F003012046BDE8104000F070BEE0
:10161000FEE7704770B5082605460024304688B0BE
:1016200000F042FA20F00801304600F061FE00218F
:101630000D2000F05DFE0E26304600F035FA20F059
:101640008001304600F054FE93208DF804002020E5
:101650008DF8050006A8009001AB022219460C2067
:1016600000F04DF82628064604BF002101AA0BD140
:10167000505C6854505C4440481CC1B20429F7D304
:10168000505CA04218BFBB260E24204600F00CFA86
:1016900040F08001204600F02BFE08B0304670BDBF
:1016A00010B588B08DF8040000208DF8051001A950
:1016B0000C1812F800C0401CC0B2062884F802C002
:1016C000F6D3002001EB000C1A5C401CC0B28CF871
:1016D00008200628F6D306A80B460C2200900E2000
:1016E00000F00DF82628044605D1082000F0DCF9AA
:1016F00010F0080F00D1BB2408B0204610BD2DE922
:10170000FF5F00259846BB279346DDF838900C28EC
:1017100082462E4604BF7725302604D0BAF10E0F3C
:1017200004BF1225102645F08001022000F0E0FDE4
:101730000424204600F0B8F920F08001204600F093
:10174000D7FD0021012000F0D3FD0A24204600F03F
:10175000ABF940F08001204600F0CAFD0024BBF147
:10176000000F07DD0198015D092000F0C1FD641C38
:10177000A345F7DC0120514600F0BAFDBAF10C0F89
:1017800008D10D24204600F08FF940F0800120465A
:1017900000F0AEFD4FF47A74042000F085F9641E69
:1017A000834605D01BF0010F08BF1BEA060FF3D0DC
:1017B0000D26304600F078F920F08001304600F028
:1017C00097FD3CB1062000F06FF910F01B0F18BF19
:1017D000BB2710D00C24204600F066F940F08001B1
:1017E000204600F085FD0021012000F081FD04B0BD
:1017F0003846BDE8F09F26270BEA050010F0010FE0
:1018000018BFCC27BAF10C0FE4D10A2000F04CF934
:1018100004460C2000F048F910F0070008BFE00073
:1018200002D0E10008390844C9F80000002C08BFC4
:10183000012402D0122C88BF12240025002CC9DDFF
:10184000092000F031F908F805006D1CAC42F7DC06
:10185000C0E730B587B00D46302101AC8DF80410DB
:10186000A21C02218DF805002046FEF7B3FD06A854
:10187000009001AB042219460C20FFF740FF2628F8
:1018800005BF06999029BB2000221CBF07B030BDC0
:10189000A15CA95402F10101CAB2102AF8D307B021
:1018A00030BD70B508250C4688B00646284600F0C5
:1018B000FBF820F00801284600F01AFD07210D2052
:1018C00000F016FD1425284600F0EEF840F0030164
:1018D000284600F00DFD06A88DF8046001AB0090CD
:1018E000012219460C20FFF70AFF262807BF069998
:1018F0001029BB2008B018BF70BD9DF804102170DE
:101900009DF80510617008B070BD000010B5204C46
:10191000012211032046FEF73AFF012000F003FDEB
:1019200000222046A114FEF732FF012000F0FBFC4C
:10193000012220461103FEF72AFF012000F0F3FCEC
:101940000F21012000F0D4FC012000F0ADF810F0D0
:10195000100FF9D1012000F0E6FC3D21112000F02C
:10196000C7FC1E212D2000F0C3FC00212C2000F01C
:10197000BFFC8D212A2000F0BBFC3E212B2000F073
:10198000B7FC4021BDE81040152000F0B1BC0000BC
:101990000018024010B588B0932101AA8DF80410F8
:1019A00070218DF8051000218DF80A1002EB010C52
:1019B000435C8CF8023010F801C0491C9DF80A30D5
:1019C000C9B2042983EA0C038DF80A30EED307214B
:1019D000D21D01A8FEF7FEFC0824204600F064F8A2
:1019E00020F00801204600F083FC06A8009001AB1F
:1019F000092219460C20FFF782FE262806BF069909
:101A00001829BB2008B010BD70470000234870B5EE
:101A100086B0016841F001010160016801F0010137
:101A20000591016841F040010160006801251C4EEC
:101A3000032400F04000059041F211106946CDE901
:101A4000000530460394FEF77BFD0821009100213C
:101A50003046039401916946FEF772FD0394280312
:101A6000104C6946CDE900052046FEF769FD0122CC
:101A700030461103FEF78BFE012220461103FEF7CC
:101A800086FE012230461021FEF781FEFFF73EFF61
:101A900006B04120BDE87040FFF77CBD3038024001
:101AA00000000240001802407E2170B501EA4000AB
:101AB0001A4E40F08004002230461021FEF767FEE7
:101AC000204600F07FF8002560060022040E304614
:101AD0004FF48071FEF75BFE142000F024FC082117
:101AE0003046FEF74FFE012808BF44F001041420E1
:101AF00000F019FC012230461102FEF748FE1420C6
:101B000000F011FC681CC5B2082DDDD3012230465F
:101B10001021FEF73CFE204670BD00000000024090
:101B20000E4810B586B0016841F0200101600068E0
:101B300069460B4C00F0200005904FF48070009037
:101B400001200190002003902046FEF7F9FC0022BE
:101B50002046A115FEF71BFE06B010BD303802402E
:101B60000014024070B5154C01220D4606461102C4
:101B70002046FEF70CFE022200210020401CB0F59A
:101B8000165FFBD3491C9142F7D30D484FF47A738B
:101B90002A463146FFF7B1FB012200210020401CFC
:101BA000B0F5165FFBD3491C9142F7D32046BDE840
:101BB000704000224FF48071FEF7E9BD001402402E
:101BC000E400022070B5164E0024054615F0800F83
:101BD00005D0012230461146FEF7D9FD04E000226F
:101BE00030460121FEF7D3FD142000F09CFB0022BB
:101BF00030464FF48071FEF7CAFD142000F093FBCD
:101C0000012230461102FEF7C2FD142000F08BFBCA
:101C10006806050E601CC4B2082CD7D370BD000046
:101C20000000024070470000DFF894C010B594B087
:101C3000DCF8004044F08054CCF80040DCF800C0F0
:101C40000CF0805CCDF848C0DFF878C0DCF80040CC
:101C500044F44044CCF80040DCF800C002240CF40A
:101C6000404CCDF848C04FF0010CCDF800C04FF407
:101C7000803CCDF804C04FF4800CCDE90810CDE9CC
:101C80000A23CDE9064C6846FEF790FF00B1FEE757
:101C9000FEF710FE00B1FEE70F20CDE90D04002095
:101CA0000F904FF4A05010904FF4805011900721E6
:101CB0000DA8FEF73DFE002804BF14B010BDFEE7DE
:101CC0004038024000700040FEF76CBD10480168CB
:101CD00041F4700101600F48016841F001010160A9
:101CE0000D4A00211160026822F4102222F0807255
:101CF0000260031D094A1A60026822F48022026011
:101D000007480160580607490860FEF71FBB00003E
:101D100088ED00E00038024008380240103000240E
:101D20000C38024008ED00E0174830B40068C06984
:101D300010F0200F22D015480068154AC1B211706A
:101D4000506810F4004F19D110F4804F4FF0000389
:101D500005D00A2908BF40F4004013D00DE00D293A
:101D600008BF40F480400DD00A4CC0F30D0C401C5D
:101D7000C72804F80C10506000D9536030BC0248EA
:101D8000FFF70EB95060F9E7E40002202478004024
:101D9000080002201C0002200E490D4A10B5C1E9BE
:101DA000002000208860C8600C220861C1E905207D
:101DB000C8610846FFF7DAF9074901220548FFF72D
:101DC0004BFABDE81040232104A0FFF7CBBE000072
:101DD00000780040E400022009000220BBB6D3AD29
:101DE000CAB9D3C3B7E4B3B2CCD7BCFE2D48465F63
:101DF00052464944C4A3BFE9CAB5D1E90D0A00005F
:101E000090F8241011F0010F06D001684A68836A27
:101E100022F400321A434A6090F8241011F0020FA5
:101E200006D001684A68C36A22F480321A434A60C5
:101E300090F8241011F0040F06D001684A68036B73
:101E400022F480221A434A6090F8241011F0080FFF
:101E500006D001684A68436B22F400421A434A6084
:101E600090F8241011F0100F06D001688A68836B77
:101E700022F480521A438A6090F8241011F0200F47
:101E800006D001688A68C36B22F400521A438A6044
:101E900090F8241011F0400F11D001684A68036CCB
:101EA00022F480121A434A60016CB1F5801F06D1FA
:101EB00001684A68436C22F4C0021A434A6090F8F1
:101EC000241011F0800F08BF704701684A68806CC9
:101ED00022F40022104348607047F8B500260446FB
:101EE000C666FEF759FC0746206800686FF07E451D
:101EF00010F0080F08D000223B464FF40011204696
:101F0000009500F0B9F968B92068006810F0040F76
:101F10000AD000223B464FF480012046009500F095
:101F2000ABF908B10320F8BD202084F8690084F8DB
:101F30006A00002084F86860F8BD10B5806B00214D
:101F4000A0F85A10A0F85210FFF728F810BD10B5ED
:101F5000B0F85C2090F86A300168222B05D08869BF
:101F600040F008008861022010BD8368B3F5805FEF
:101F700004BF0369002B23D0496A01EA0202416DC4
:101F800001F1010343650A70B0F85A10A1F1010193
:101F90000904090CA0F85A101CBF002010BD0168EC
:101FA0000A6822F490720A6001688A6822F00102CD
:101FB0008A60202180F86A10FFF79EF9002010BD8A
:101FC000436D496A11401980416D891C4165DBE709
:101FD00070B5044680681021002223691546D4F8A4
:101FE0001CC01843636943EA0C0303432068D0F81C
:101FF00000C09D4E0CEA060C4CEA03030360206807
:102000004368D4F80CC023F4405343EA0C03436004
:10201000236AA06903432068D0F808C02CF4306C10
:102020004CEA030383602068904BA0F1804CBCF520
:10203000883C23D0A0F1804CBCF5884C29D0A0F17D
:10204000804CBCF5904C2FD0A0F1804CBCF5984C46
:1020500035D0A0F1804CBCF5A04C3BD0A0F1804C19
:10206000BCF58A3C44D0A0F1804CBCF5F04C4FD07C
:10207000A0F1804CBCF5F84C58D06CE01B6813F014
:10208000030343D0012B63D0022B5FD0032B61D01D
:1020900061E01B6813F00C0356D0042B58D0082BBA
:1020A00054D00C2B56D056E01B6813F030034BD0A5
:1020B000102B4DD0202B49D0302B4BD04BE01B6840
:1020C00013F0C00340D0402B42D0802B3ED0C02B19
:1020D00040D040E01B6813F4407335D0B3F5807FE7
:1020E00036D0B3F5007F31D0B3F5407F32D032E047
:1020F0001B6813F4406309D0B3F5806F28D0B3F5A3
:10210000006F23D0B3F5406F24D024E0012122E0FA
:102110001B6813F4405317D0B3F5805F18D0B3F5A4
:10212000005F13D0B3F5405F14D014E01B6813F4C4
:10213000404309D0B3F5804F0AD0B3F5004F05D026
:10214000B3F5404F06D006E0002104E0022102E092
:10215000042100E00821E369B3F5004F08D0092904
:102160007FD2DFE801F046525E7E677E7E7E74009D
:10217000092935D2DFE801F0050F19342134343450
:102180002B00FEF797FC4100606801EB5001B1FBAA
:10219000F0F082B225E0FEF7A5FC4100606801EB9B
:1021A0005001B1FBF0F082B21BE06068304901EBF6
:1021B0005001B1FBF0F082B213E0FEF7ABFC41003E
:1021C000606801EB5001B1FBF0F082B209E0606899
:1021D0004FF4803101EB5001B1FBF0F082B200E02E
:1021E000012522F00F00C2F3420108432168C860B4
:1021F00038E0FEF75FFC0146606801EB5001B1FB7F
:10220000F0F0216880B2C8602CE0FEF76BFC01465C
:10221000606801EB5001B1FBF0F0216880B2C8604A
:1022200020E06168134A02EB5102B2FBF1F189B27E
:10223000C16017E0FEF76EFC0146606801EB5001DB
:10224000B1FBF0F0216880B2C8600BE009E0616882
:102250004FF4004202EB5102B2FBF1F189B2C160CE
:1022600000E00125284670BDF369FFEF9038024079
:102270000048E8010024F4002DE9F041044600681C
:102280001E461746069D8846C06931EA00000CBF0D
:1022900001200020B84226D1B5F1FF3F1AD025B168
:1022A000FEF77AFA801BA84214D32068016821F453
:1022B000D07101602068816821F0010181602020D7
:1022C00084F8690084F86A00002084F8680003201C
:1022D000BDE8F0812068C06938EA00000CBF012029
:1022E0000020B842D8D00020BDE8F081FEE7000011
:1022F00070B50B4D7E2202EA40040E4600222846AD
:102300001021FEF744FA2046FFF75CFC3046FFF749
:1023100059FC2846BDE8704001221021FEF737BA6B
:102320000000024070470022002898BF704700213B
:10233000491C8C29FCD3521C8242F8D37047FEF70B
:1023400039FAFFF703F9FFF7E1F8FFF7E9FBFFF7C9
:102350005DFB4FF4E130FFF71FFDFFF72FF8FCE7BF
:102360004FF04070E1EE100A7047000000000000DE
:102370000000010203040607080900000000010232
:1023800003040000A4230008000002201C00000039
:1023900034020008C02300081C000220EC070000E3
:1023A000500200080024F4000000000000000000BB
:1023B00000000000000000FFFFFFFFFFFF00000023
:04000005080001F9F5
:00000001FF
