:020000040000FA
:0600000002123C02079809
:03002B000224406C
:03003300020E0EAC
:0300430002107D2B
:03004B00020E861C
:030053000206F9A9
:03005B00020E95FD
:03006300020EA4E6
:03006B00020DF48F
:1000830002073101010503010F030003000300030D
:10009300000300030003000300030005000A00142B
:1000A3000028004F009E000000AB17AB17AB17AB47
:1000B3001767166116AB17FB2500000000D5240057
:1000C3000000000C0000000C0001A704FF013F0624
:1000D3005B4F666D7D077F6F0039768001010100FC
:1000E3002B0D0000009E0DE80364006400B80102BC
:1000F30002000800000501071E02051E0A03B80BD3
:100103000111FF0202020612303132333435363721
:10011300383941424344454600286E756C6C207063
:100123006F696E74657229003F3F3F000000807F56
:100133000000803FF9021550B743BA510000204137
:1001430000E7DB2E0000A0401000000008000000C4
:100153000A00000012124C6046121288603DE968E2
:100163007008F618F618F618F622748067F712016D
:100173008B090909748067F722121288601D121215
:100183004C7005191919801A1210FF701F1210D51F
:10019300C37003E6673319191940071818182208A2
:1001A300080874FFF618F618F618F6221210D56030
:1001B300171212D1702192F01212DB70195017200E
:1001C300F014080808090909E7F61819E7F61819D9
:1001D300E7F61819E7F6221212DB60E6E869701FEA
:1001E3000808E62480F608E436F618547FB47F0C3A
:1001F300E654806007F6E418F618F622181822E988
:10020300C6CC08C6CD08C6CE08C6CFC0E0E8C0E05D
:10021300EAC0E0EBC0E009E9F809E7FA09E7FBE621
:10022300F918E6F8C3EC98ED99EE9AEBC2E7F5F00E
:10023300EFC2E795F0500E600CEBCFFBEACEFAE984
:10024300CDF9E8CCF8EAA2E7D2E7FAEB33FB13F5F2
:10025300F0EEA2E7D2E7FEEF33FFC5F013A2E730DB
:10026300E601B313C5F0C3C0E0C0F07F00C39BFB3E
:10027300605B9418600C401AD0E023F9D0E0F802D8
:10028300035A8AF0E9486003D2F0E4AFF0FAF9F8D0
:10029300803BEB30E40D89F0EA6003D2F0E4AFF089
:1002A300F9CAF8EB30E30D88F0EF6002D2F0AFF05B
:1002B300E4CAC9F8EB54076014FBC3EA13FAE91361
:1002C300F9E813F8EF135002D2E0FFDBEDD0E0C002
:1002D300E030E739C3E49FFFF5F0EC98FC42F0ED22
:1002E30099FD42F0EE9AFE42F0D0E0F9D0E0F8E555
:1002F300F0607AE923F9EE20E742D8028067C3EF82
:1003030033FFEC33FCED33FDEE33FE80EAEC28FCE7
:10031300ED39FDEE3AFED0E023F9D0E0F84002805B
:100323001BC3EE13FEED13FDEC13FCEF135002D2CF
:10033300E0FF08B800067F7F74FF802EEF3350176D
:100343008CF020F00260100CBC000C0DBD00080EF8
:10035300BE000408E860DFE933E813FFEE2313FE71
:100363004F4D4C8008E95480FFE4FEFDFCEE33EF73
:1003730033F47004FCFD7E80D0E0FBD0E0FAD0E0E3
:10038300F8D0E0CFC618CEC618CDC618CCC6F92211
:1003930012128870041818182212124C700D74FF70
:1003A300F61819F61819F61819F622E7548066F6A6
:1003B3001212DB700F1212D170F014F608F608F661
:1003C30008F680D11212D1700CF608F60876800870
:1003D300E6447F80EC1210D8700C12110260BFE665
:1003E3005480F6E480BB121102700519191980A517
:1003F300E869700C763F18768018F618F6E8F9224B
:10040300E6CDC0E018ECC0E0E633CD33CDD313F630
:10041300E719FCE7191933CC33C3947F400ECD9D04
:10042300502408E65480F6E418F6800FF4043D14D3
:10043300501408E6447FF6187680E418F618F6D0D0
:10044300E0FCD0E0FD22CCD313CCFD18E4C6CBC036
:10045300E018E4C6CAC0E00808ED08C633E613F6A0
:1004630018E433C675F003C3CA97CA09CB97CB19EF
:100473009C40047D08802EBD000302053C16B6FF98
:10048300050606081618C3CA33CACB33CB33CA27AB
:10049300CA09CB37CB193CC37D08803E187D0820A1
:1004A300E75CC633C6CA33CACB33CB33DDF1D5F0F1
:1004B300EB30E77BCA97CA09CB974ACB199C406FAD
:1004C3004B7025E620E0218066187D08C3CA97CAD1
:1004D30009CB97CB199CD3C633C6CA33CACB33CB0C
:1004E3003350C9DDE7D5F0E1D3E4C636C608C636D6
:1004F300C608C636C608C636C61818188031C3CA19
:1005030097CA09CB97CB199CB34097C633C6CA3356
:10051300CACB33CB33DD34D5F02EC6A2E0C640C8F8
:10052300CA27CA09CB37194A70BECB3CB480B90875
:1005330008E63308E633601F181818D0E0FAD0E055
:10054300FBD0E0FCD0E0FD22187D08CA27CA09CB06
:1005530037CB193CD3808013F618E4B67F11F61815
:10056300B6FF0EF618C60470D20808768080CAF665
:1005730018F618F680C500121288604F12124C60EC
:1005830012E7548066F61210FF70111212D1703BFD
:10059300090909F4F618F618F618F6221210D570A0
:1005A300151212DB08080860EAE6447FF618768025
:1005B30018E4F618F6221212DB60161212D170122A
:1005C300E4F608F608F608E65480F609090918184F
:1005D3001822EAC0E0EBC0E0ECC0E0EDC0E0E68743
:1005E300F0A4FBACF008E687F0A42CFCE435F0FAA9
:1005F3001809E687F0A42C4B60027401CA35F0FC9D
:10060300E433FB09E687F0D2F7A42CCB35F0FC19D1
:1006130008E687F0A42BCC35F0FBE433FD0819E69C
:1006230087F0D2E7A42C4ACB35F0CD3400FC09E6A1
:1006330087F0D2E7A42DCC35F0FDE433FA0918E6B0
:1006430087F0D2F7A42CCD35F0CA3400FC08E68736
:10065300F0D2E7D2F7A42ACC35F07A7E20E70B0A52
:10066300CB33CBCD33CDCC33CC33CB33501470041D
:10067300ED30E00ED2F1E4CD3DCDCC3CCC3B50058A
:10068300DA05C2F1EB547FC63308E63392F0FBE799
:100693003309E733C39A502D2B70190C0D4C4D7051
:1006A300151806E608C333700D20F10AA2F013F6FD
:1006B300E418800B4024E4F630F002768018F61834
:1006C300F618F68024D33B14501074FFA2F013F6EF
:1006D300187680E418F618F6800FA2F013F618E6E1
:1006E3003303F618ECF618EDF6D0E0FDD0E0FCD0BD
:1006F300E0FBD0E0FA22C0E074F2120AB3E5A7F8F7
:10070300E5A1F95854106008121FCD53A1EF8019C9
:10071300E8A2E0C0D0E9A2E092F012118A1581822A
:10072300F0500612207553A1FE7F01020B6AC0E050
:1007330074F2120AB39061A4E0F8759B00E5915836
:10074300540860087591F712201B802AE5915854CC
:100753001060087591EF122021801BE8A2E0C0D041
:10076300E591A2E092F012118A158182F05007E020
:10077300C2E0F01221479061A3E0F8E5E958540480
:10078300600E12211D75E9FB906193E0A2E640F231
:100793007F01020B6AC0E074F2120AB39061A5E014
:1007A300F8E5BF585404600653BFFB12215F7F0175
:1007B300020B6AC3E498F8E499F91207F78026C399
:1007C300E49AFAE49BFBE920E7E91207F7E498F8D7
:1007D300E499F922C3E498F8E499F91207F7E49845
:1007E300F8E499F9C3E49AFAE49BFB22EB20E7CF00
:1007F300E920E7E0B90010BB0008E88AF084F8AA12
:10080300F022E4FBC8FA22EB70227B10C833C8C97C
:1008130033C9335007C39AC3DBF280069A50012AC7
:10082300DBEAC833F4C8C933F4C9FA2275F008E423
:10083300C833C8C933C933C99AC99B5004C92AC923
:100843003BD5F0ECFBC833F4C8E4C9FA2212089094
:1008530020F01430E72B74FFFCFBFA747F8022E452
:10086300FCFBFA7480801AB48008BC00F2BB00EF72
:10087300800F50EBF9E4C39AFAE49BFBE49CFCE49D
:1008830099C6CC18C6CB18C6CA18C6F922E4C9C67D
:1008930008CAC608CBC6D3330308CCC63392F0C309
:1008A300947F402E94184019C9B90704CACBCC22AF
:1008B3005025C309CA33CACB33CBCC33CC33D9F499
:1008C30022F4600DC9CCC313CB13CBCA13CAD9F618
:1008D300CC22E4FCFBFA2214FCFBFA22080808EA07
:1008E300C0E0EBC0E086F0E7A4FA180986F0E7A4BD
:1008F3002AFA180986F0E7A42AFA180986F0E7A469
:100903002AFA1986F0E7A4FBE5F02AFA190886F01B
:10091300E7A42BFBE5F03AFA190886F0E7A42BFBD2
:10092300E5F03AFA18180986F0E7A4C5F02BFBE4C2
:100933003AFA1908E7C5F0C6A426F6E5F03BFBE44E
:100943003AFA1886F0E7A4F6E5F00826F6E43B0841
:10095300F6E43A08F6D0E0FBD0E0FA22080808E60D
:1009630030E71112113D120977080808C64480C602
:1009730018181822181818E9799EC608CAC608CB91
:10098300C608CCC6C370207996CACBCC7019798EB1
:10099300CBCC70137986CC700EF9802ACA33CACBBC
:1009A30033CBCC33CC331930E7F2CCCBCA3350142E
:1009B3007004EA30E00DE4CA3ACACB3BCBCC3CCC62
:1009C300500209C3E913C6CC182313C6CB18C6CAF1
:1009D30018C6F922E4CFC0E0E4CEC0E0E4CDC0E025
:1009E300E4CCC0E075F020C3E633F608E633F6083E
:1009F300E633F608E633F6181818EC33FCED33FD4E
:100A0300EE33FEEF33FFC3EC9709ED9709EE970939
:100A1300EF97191919400FFFEC97FC09ED97FD09A2
:100A2300EE97FE191906D5F0BEECF709EDF709EEBE
:100A3300F709EFF7191919D0E0FCD0E0FDD0E0FE7B
:100A4300D0E0FF222518C582C0E0E51934FFC58335
:100A5300C0E0E518C3958224F810AF088583198593
:100A630082188008858319858218D2AFCEF0A3E55A
:100A730020F0A37808E608F0A3DEFAEFF0A3E581FF
:100A830024FAF8E608F0A3E608F0A3E608F0A308C2
:100A930008E608F0A3E608F0A315811581D0E0FE6F
:100AA300D0E0F8158115811581E8C0E0EEC0E022A1
:100AB300C0D02518C582C0E0E51934FFC583C0E066
:100AC300E518C3958224F310AF088583198582182E
:100AD3008008858319858218D2AFC8F0A3E9F0A3F3
:100AE300EAF0A3EBF0A37908E709F0A3D8FAECF056
:100AF300A3EDF0A3EEF0A3EFF0A3D0E0F0A3D0E0DA
:100B0300F0A3D0E0F0A3E520F0A3E5F0F0A32212D8
:100B130012BCB90003020B54E4900301789B7912D1
:100B23008002F0A3D8FCD9FA90149BAA82AB8390DD
:100B3300008678D279018015E493A3AC82AD838AD1
:100B4300828B83F0A3AA82AB838C828D83D8E9D96D
:100B5300E775828C7583F07402120CA975823B755C
:100B630083247400120CA9851983851882E0C0E0E0
:100B7300A3E0F9A3E0FAA3E0FBA37808E0F608A357
:100B8300DFFAE0FCA3E0FDA3E0FEA3E0FFA3E0C0E7
:100B9300E0A3E0C0E0A3E0F5D0A3E0F520A3E0A349
:100BA300F5F010AF088583198582188008858319AD
:100BB300858218D2AFD082D083D0E0F8D0E0321251
:100BC3001288601C12124C60171212DB700712128B
:100BD300D17001D322C0D01212D17006D0D0B3226B
:100BE300C32233D0D0501430E0F6C3E7960809E7A8
:100BF300960809E7960809E796B32220E0D5E69719
:100C03000809E6970809E6970809E697B322D0830F
:100C1300D082ECC0E0EDC0E0E493A3FCE493A3FD39
:100C2300ED4C600D120D7FEC24FFFCED34FFFD80D5
:100C3300EFE493A3FCE493A3FDED4C600D120EDFF0
:100C4300EC24FFFCED34FFFD80EFD0E0FDD0E0FCB1
:100C5300E493A3C0E0E493C0E022121288601B1265
:100C6300124C60161212DB70071212D1600CB32201
:100C7300C0D01212D17005D0D022C32233D0D050AD
:100C83001330E0EBC3E7960809E7960809E79608EF
:100C930009E7962220E0E4E6970809E6970809E6C3
:100CA300970809E69722C0F0F5F0E59F5407C0E0E6
:100CB300E59F54F845F0D0F0F59FE473859FF0531A
:100CC300F0F8D0E045F0F59F22D083D082E59F5421
:100CD30007C0E0E493C0E0740193C0E0740293544E
:100CE30007C0F0F5F0E59F54F845F0D0F0F59F22EA
:100CF300D083D082E9C0E0E493A3C386F0C5F09526
:100D0300F0F908E493A386F0C5F095F0700BE49333
:100D1300A3C3994005E9048002A3E475F002A42566
:100D230082F582E5F03583F583D0E0F9E493A3C03F
:100D3300E0E493C0E022851983851882E0A3FEE0F6
:100D4300A3F5207808E0A3F608DFFAE0A3FFE0A309
:100D5300C0E0E0A3C0E0E0A3C0E0E0A3C0E0E0A304
:100D6300C0E010AF08858218858319800885821832
:100D7300858319D2AFD083D082020CBFC0E0C3E415
:100D83009396087401939618400FE49366700808CD
:100D9300740193661870007019A3A3C3E4939608B3
:100DA3007401939618A3A3400DD0E0D0E0D0E002E5
:100DB3000C4DA3A3A3A3A3A3D0E022D083D082C5C9
:100DC300F0E493A3C5F0C395F0F5F0E493A3C395C2
:100DD300F04005E5F0048001E475F002A42582F5F6
:100DE30082E5F03583F583E493A3C0E0E493C0E0A8
:100DF30022C0E074F2120AB3E589A2E15003121E85
:100E0300AD758900C2C57F01020B6AC0E074F2129E
:100E13000AB3E58BA2E05003121EAD758B00C2E846
:100E23007F01020B6A7404800474028000CCC0E06A
:100E3300EDC0E0E518C39CCCAD1950011D10AF0601
:100E43008C188D1980068C188D19D2AF120F7CD097
:100E5300E0FDD0E0FC2274028000CCC0E0EDC0E0F5
:100E6300E518C39CCCAD1950011D10AF068C188D2D
:100E73001980068C188D19D2AF120F5AD0E0FDD00D
:100E8300E0FC22C0E074F2120AB3121EF57F0102E5
:100E93000B6AC0E074F2120AB3121EFB7F01020B4D
:100EA3006AC0E074F2120AB3121F017F01020B6AD7
:100EB300121288602512124C60201212DB7003029A
:100EC30012D1080808E76670101819E766700A1847
:100ED30019E76670041819E76622F422C0E0C0F02F
:100EE30088F0E4936670080874019366187000A88C
:100EF300F0A3A3700BD0F0D0E0D0E0D0E0020C4D13
:100F0300A3A3D0F0D0E022D083D082CCC0E0E4937E
:100F1300A36006120FDB1470FAE493A360061210A9
:100F2300941470FAD0E0FCE493A3C0E0E493C0E02F
:100F330022C008C3E096F50808A3E096420808A378
:100F4300E096420808A3E0964208A2D265D033E5B2
:100F5300087001D3D00822CAC0E0E493A3C582CCB1
:100F6300C582C583CDC583F0A3C582CCC582C583A5
:100F7300CDC583DAE5D0E0CA22CAC0E0E0A3C582CA
:100F8300CCC582C583CDC583F0A3C582CCC582C53C
:100F930083CDC583DAE6D0E0CA22700908080822A7
:100FA3006016181818C6C333C608C633C608C63336
:100FB300C608C633C6D5E0EA22C008C3E096F508E2
:100FC30008A3E096420808A3E096420808A3E09627
:100FD30045087001D3D00822C0E0E493A3D39C500A
:100FE30010E493A3C39C400AD0E0D0E0D0E0020F0A
:100FF30027A3A3A3D0E0222518F58210AF08F51884
:10100300400215198008F51840021519D2AF851949
:1010130083227404800A74038006740280027401BC
:10102300C0E0F404120FFAD0E012129722C0D025C8
:101033001810AF08F518500205198008F51850026A
:101043000519D2AFD0D022BB0102E722C082C083F0
:1010530089828A83BB0003E08002E493D083D08239
:10106300226016080808C6C313C618C613C618C6D6
:1010730013C618C613C6D5E0EA22C0E074F2120AFA
:10108300B3C2C0E5D1A2E45003121F2B7F01020BB0
:101093006AC0E0E493A36C7009D0E0D0E0D0E00232
:1010A3000F27A3A3D0E022251810AF08F51840029C
:1010B30015198008F51840021519D2AF22C3E79617
:1010C3000809E7960809E7960809E796A2D265D0CA
:1010D3003322191919E7094709700AE709C333705D
:1010E30005E733F4220922E066701008A3E0667076
:1010F3000A08A3E066700408A3E06622181818E63D
:10110300084608700AE608C3337005E633F422087C
:1011130022C3E09608A3E09608A3E09608A3E0960E
:10112300A2D265D03322C3E096F008A3E096F0087C
:10113300A3E096F008A3E096F022181818E4C396EB
:10114300F608E496F608E496F608E496F622E02616
:10115300F608A3E036F608A3E036F608A3E036F671
:1011630022E026F008A3E036F008A3E036F008A357
:10117300E036F022E627F60809E637F60809E637EF
:10118300F60809E637F622C0E0E8C0E0E58124FC72
:10119300F8E6A2E7D0E0F8D0E022E657F60809E641
:1011A30057F60809E657F60809E657F622E056F619
:1011B30008A3E056F608A3E056F608A3E056F62285
:1011C300E647F60809E647F60809E647F60809E69A
:1011D30047F622700422600D18C6C333C608C6330F
:1011E300C6D5E0F41822E056F008A3E056F008A3B1
:1011F300E056F008A3E056F022C3E09608A3E09679
:1012030008A3E09608A3E09622C6F4C608C6F4C66F
:1012130008C6F4C608C6F4C622600D08C6A2E713C2
:10122300C618C613C6D5E0F322C3E7960809E796A6
:101233000809E7960809E7962275D000758140757D
:10124300180175190300020B12E7094709C3134775
:1012530009336002E733F422600C08C6C313C618CF
:10126300C613C6D5E0F422E6F008A3E6F008A3E629
:10127300F008A3E6F022E0F608A3E0F608A3E0F600
:1012830008A3E0F622E6084608C3134608336002C3
:10129300E633F422CAC0E0E6F0A308DAFAD0E0FAB3
:1012A30022E0FAA3E0FBA3E0FCA3E0FD22EAF0A323
:1012B300EBF0A3ECF0A3EDF022E5C754F84401F5FD
:1012C300C77901222518F582E43519F58322E7C38E
:1012D3003319471947194722E6C3331846184618E6
:1012E3004622C2E9EAF5C1A2E950FC22120CCCDA8B
:1012F3006400120CCC756500120CCC226600120C33
:10130300CC606600120CCCD06600120CCC1B6700BC
:10131300120CCC546700120CCC826800120CCCB3B4
:101323006900120CCC126A00120CCC5B6A00120C1E
:10133300CC836A00120CCC066B00120CCC886B00B9
:10134300120CCCFD6B00120CCC0E6C00120CCC8476
:101353006C00120CCC366D00120CCC786D00120CA4
:10136300CCFE6D00120CCC456E00120CCC8E6E00C0
:10137300120CCC177000120CCCD17100120CCC1BC8
:101383007200120CCCFF7200120CCCF97400120C18
:10139300CC037500120CCC0D7500120CCC17750024
:1013A300120CCC217500120CCC2B7500120CCC3511
:1013B3007500120CCC567500120CCC7A7500120C09
:1013C300CC9E7500120CCCFD7500120CCC4C760033
:1013D300120CCC6A7600120CCCDA7600120CCC1705
:1013E3007700120CCC657700120CCCC87700120C76
:1013F300CC767900120CCCE87900120CCC087C0076
:10140300120CCC2D7C00120CCC6D7D00120CCCACDC
:101413007D00120CCCF27D00120CCCD07E00120C9D
:10142300CC377F00120CCC687F00120CCC6B7F0092
:10143300120CCCFB2700120CCC472800120CCC2238
:101443002A00120CCC602A00120CCCAC2A00120C1D
:10145300CC512B00120CCCB72B00120CCC022C005D
:10146300120CCC232D00120CCCBA2D00120CCCC6BE
:101473003000120CCC463100120CCC3D3200120C61
:10148300CCE23200120CCCF83300120CCC1837002B
:10149300120CCCCB3700120CCCF53700120CCCDB82
:1014A3003800120CCCAC3900120CCC433A00120CAD
:1014B300CC8D3A00120CCCBA3A00120CCCDC3A00B8
:1014C300120CCCDF3C00120CCCB43D00120CCC014E
:1014D3003E00120CCC703E00120CCC1E3F00120CCE
:1014E300CC533F00120CCCA13F00120CCCD63F00D2
:1014F300120CCC2E4000120CCC884000120CCC08ED
:101503004100120CCC724100120CCCF64100120CBB
:10151300CC574300120CCC184400120CCC444500A9
:10152300120CCCD24600120CCC704700120CCC77B4
:101533004800120CCC074900120CCC4E4900120C87
:10154300CCC84A00120CCCDC4A00120CCCE94A008D
:10155300120CCC1D4B00120CCC294B00120CCC47A7
:101563004B00120CCC3D4C00120CCC744C00120CF2
:10157300CC814C00120CCCDF4C00120CCC4D4D0036
:10158300120CCC4B4E00120CCC2D4F00120CCCC6BF
:101593004F00120CCC3D5000120CCC545000120CD6
:1015A300CC785000120CCC965000120CCCDA5000C0
:1015B300120CCC1B5100120CCC865100120CCC9C8B
:1015C3005200120CCCA55300120CCC755400120C13
:1015D300CCE05400120CCC8E5500120CCCB4550048
:1015E300120CCC995600120CCCB85600120CCC2716
:1015F3005700120CCCA05700120CCCCC5700120C85
:10160300CC175800120CCC775800120CCCDD5800C4
:10161300120CCC3D5900120CCC529B03120CCC9DE6
:101623009B03120CCC028901120CCC638901120CAE
:10163300CCC38901120CCC148A01120CCC2F8A0161
:10164300120CCC5F8A01120CCC808A01120CCC8C58
:101653008A01120CCCCD8B01120CCCEB8B01120C3A
:10166300CC548C01120CCC678C01120CCC7E8C01F7
:10167300120CCC118D01120CCC108E01120CCC0C5F
:101683008F01120CCC8E8F01120CCC988F01120C8F
:10169300CCFB8F01120CCC0C9001120CCC4F90019F
:1016A300120CCC969001120CCCCC9001120CCC02F3
:1016B3009101120CCC209101120CCC449101120C1B
:1016C300CC859101120CCC789201120CCCBE920104
:1016D300120CCCF99201120CCC569301120CCC7E55
:1016E3009301120CCCB79301120CCCC59301120CCD
:1016F300CC269401120CCC639401120CCCA594015A
:10170300120CCCD69401120CCC0A9501120CCC15F8
:101713009501120CCC339501120CCCFB9501120CE4
:10172300CC059601120CCC449601120CCC5A9601AE
:10173300120CCC639601120CCCCD9601120CCCE1A9
:101743009601120CCCD99701120CCCEC9701120C18
:10175300CC019801120CCCA19801120CCC05990173
:10176300120CCCC89901120CCCD39901120CCCF2F7
:101773009A01120CCC0E9B01120CCC669B01120C2D
:10178300CC9D9B01120CCCB79B01120CCCF69B0198
:10179300120CCC119E01120CCC7B9E01120CCCE6D8
:1017A3009E01120CCC3DA101120CCC4DA101120CD7
:1017B300CC50A101120CCC5CA101120CCC70A10184
:1017C300120CCC78A101120CCCADA101120CCC5B94
:1017D300A201120CCCCBA201120CCC2FA301120C30
:1017E300CCC8A301120CCC62A401120CCC89A401B5
:1017F300120CCC19A501120CCC25A501120CCC544A
:10180300A501120CCC76A501120CCC9DA501120CDE
:10181300CC03A601120CCC6DA701120CCC70A7014E
:10182300120CCCE7A701120CCCD3A801120CCCAB41
:10183300A901120CCC35AA01120CCC6AAB01120C13
:10184300CC1CAC01120CCC55AC01120CCC86AC01F7
:10185300120CCC8FAC01120CCC7BAD01120CCCF76B
:10186300AD01120CCC84AE01120CCC4EAF01120CA4
:10187300CCD2AF01120CCC08B001120CCC51B00188
:10188300120CCCA1AB02120CCCB3AB02120CCC2FBA
:10189300AC02120CCC69AC02120CCCC3AC02120C1D
:1018A300CCC2AE02120CCC1CB102120CCCE4B302BB
:1018B300120CCC1CB402120CCC3EB402120CCCBEE3
:1018C300B402120CCCFCB402120CCC21B502120CE3
:1018D300CC51B502120CCC92B502120CCCF1970389
:1018E300120CCCFA9703120CCC039803120CCC0CF9
:1018F3009803120CCC189803120CCC399803120CD1
:10190300CC5A9803120CCCDAF602120CCC54F70220
:10191300120CCC7AF702120CCC76FC02120CCC9788
:10192300FC02120CCCB8FC02120CCCE0FC02120C30
:10193300CC1CFD02120CCC52FD02120CCC17FE0281
:10194300120CCCE8BD02120CCC30BE02120CCC9EA1
:10195300BE02120CCCC1BE02120CCC9EBF02120CF2
:10196300CCACBF02120CCC01C002120CCC33C002AF
:10197300120CCC96C002120CCC20C102120CCC6704
:10198300C102120CCCBFC102120CCC24C202120C35
:10199300CC9FC202120CCC00C302120CCC42C30275
:1019A300120CCC8AC302120CCC9CC302120CCCAE18
:1019B300C302120CCCD1C302120CCC7DC402120C94
:1019C300CCC3C402120CCCE79403120CCCA3950332
:1019D300120CCCA18603120CCC0F8703120CCC364D
:1019E3008703120CCC2A8803120CCC22E401120CBC
:1019F300CC05E501120CCC4BE501120CCC1FE70121
:101A0300120CCC64E701120CCC30E901120CCC7837
:101A1300E901120CCC73EA01120CCC2AEB01120C73
:101A2300CC9CEB01120CCC43EC01120CCC99EC01D5
:101A3300120CCCF7EC01120CCC44ED01120CCCCB04
:101A4300EE01120CCC90F001120CCC47F201120CF7
:101A5300CC55F201120CCCB1F201120CCCB3F5014E
:101A6300120CCCE8FF01120CCCA79B03120CCC7513
:101A7300E602120CCC8CE602120CCC2DE702120CFF
:101A8300CC6DE702120CCC88E702120CCCAFE70254
:101A9300120CCCF4E702120CCC28E802120CCC5C3A
:101AA300E802120CCC02EA02120CCCFA9603120CD6
:101AB300CC259703120CCC769703120CCCE95C006F
:101AC300120CCCCB9703120CCCD99703120CCCF885
:101AD300C402120CCC16C502120CCC9BC502120C0C
:101AE300CCAAC502120CCCF7C502120CCC3CC60220
:101AF300120CCC5AC602120CCC7EC602120CCC9726
:101B0300C602120CCCB1C602120CCCCDC602120C0A
:101B1300CC6AC702120CCCBFC702120CCC7AC90222
:101B2300120CCC16CA02120CCC008003120CCC038C
:101B33008003120CCC936400120CCC158003120C9E
:101B4300CC218003120CCC2A8003120CCC368003E8
:101B5300120CCC4F8003120CCC688003120CCC8186
:101B63008003120CCC9A8003120CCCDC8003120C81
:101B7300CC148103120CCC9C8103120CCC24820361
:101B8300120CCC418203120CCC558203120CCCBC38
:101B93008203120CCC2F8303120CCC978303120CF9
:101BA300CC589203120CCC6F9203120CCCA5920367
:101BB300120CCCDB9203120CCC279303120CCC50E7
:101BC3009303120CCC169F02120CCC669F02120CCC
:101BD300CC739F02120CCC24A002120CCCC6A00220
:101BE300120CCC15A102120CCC18A102120CCC962B
:101BF300A102120CCCAEA102120CCC80A302120CD7
:101C0300CC0EA402120CCC49A402120CCCDEA50209
:101C1300120CCCF9A502120CCC46A602120CCC84F1
:101C2300A602120CCCE0A602120CCCF4A602120CF3
:101C3300CCF7A602120CCC5AA702120CCC02A902B2
:101C4300120CCC46A902120CCC7AA902120CCC0FAE
:101C5300AA02120CCC33AA02120CCC36AA02120C22
:101C6300CC39AA02120CCCBAAA02120CCCE7AA02F3
:101C7300120CCC07AB02120CCC6FAB02120CCC9E35
:101C8300AB02120CCCF59903120CCC069A03120C7E
:101C9300CC469A03120CCCD6B502120CCC27B60252
:101CA300120CCC1DB702120CCC53B702120CCC345D
:101CB300B902120CCC7AB902120CCCD0B902120CB4
:101CC300CC39BA02120CCC7CBB02120CCCBABC02CB
:101CD300120CCCDCBC02120CCC30BD02120CCCB406
:101CE300BD02120CCCF2D001120CCC12D101120C99
:101CF300CC2FD101120CCCF0D101120CCC39D20172
:101D0300120CCC9DD201120CCC02D301120CCCAA22
:101D1300D301120CCC52D401120CCC25D501120CD8
:101D2300CCD9D501120CCC1FD601120CCCB5DA01DB
:101D3300120CCCC9DC01120CCC08DD01120CCC84D2
:101D4300DD01120CCC7BDE01120CCCD6DF01120CB0
:101D5300CC9DE001120CCC73E101120CCCB4E20176
:101D6300120CCC01E301120CCC6CE301120CCC4F2E
:101D73009002120CCC1E9102120CCCA79102120CF1
:101D8300CC439202120CCCDD9202120CCC59940279
:101D9300120CCCAB9502120CCC3C9602120CCC6C00
:101DA3009802120CCC2D9902120CCCE39902120C5E
:101DB300CC4B9A02120CCCE19A02120CCC089C0276
:101DC300120CCCA79C02120CCCB69D02120CCCAA0E
:101DD3009C03120CCCB89C03120CCCC69C03120CB3
:101DE300CCA78403120CCC0A8503120CCC578503B1
:101DF300120CCCB48503120CCC168603120CCC0A3D
:101E0300F102120CCC68F102120CCC12F302120C88
:101E1300CCBDF302120CCCDECA02120CCCEFCA0208
:101E2300120CCC92CD02120CCC35D002120CCC8306
:101E33009A03120CCCCC9A03120CCCA49303120C6D
:101E4300CCE99303120CCC9E9403120CCC7F8A032F
:101E5300120CCC8D8A03120CCCCB9C03120CCC50ED
:101E63009903120CCC609903120CCC869903120CC3
:101E7300CCE79903120CCCD6FE02120CCCFDFE0269
:101E8300120CCC82FF02120CCCDFFF02120CCCDD51
:101E93009E03120CCC918F03120CCCFB8F03120CFC
:101EA300CC1B9003120CCC659003120CCCC2900394
:101EB300120CCCDE9C03120CCCE19C03120CCCE480
:101EC3009C03120CCCE79C03120CCCEA9C03120C6F
:101ED300CC53ED02120CCCCDED02120CCC9BEE02D6
:101EE300120CCC2DF002120CCC468C03120CCC83BA
:101EF3008C03120CCCA08C03120CCC288D03120C77
:101F0300CC958D03120CCC86D502120CCCD0D50205
:101F1300120CCC42D602120CCCFED602120CCC7997
:101F2300D702120CCC1BD902120CCC7ED902120C94
:101F3300CCC8D902120CCCD6D902120CCCE8D902E7
:101F4300120CCCFED902120CCC0CDA02120CCC22ED
:101F5300DA02120CCC4BD002120CCCA7D002120C1A
:101F6300CC7CD102120CCCB3D102120CCCDAD1024C
:101F7300120CCCF3D102120CCC11D202120CCCA055
:101F8300D202120CCC71D302120CCC11D402120C5B
:101F9300CCB4D402120CCC00D502120CCC43D50223
:101FA300120CCC988803120CCCCA8803120CCCDB1D
:101FB3008803120CCC238903120CCC568903120C10
:101FC300CC898903120CCCFD8903120CCC228A0321
:101FD300120CCCC0F302120CCCFAF302120CCC4458
:101FE300F402120CCC6CF402120CCCB1F402120CFD
:101FF300CCE6F402120CCC1EF502120CCC4BF5020B
:10200300120CCC71F502120CCCCCF502120CCCF4F0
:10201300F502120CCC7BF602120CCC93F602120CD6
:10202300CCA8F602120CCC75FF01120CCCC4FF0134
:10203300120CCCD2DE02120CCC2BE002120CCC38E8
:10204300E002120CCC49E002120CCC61E002120C4B
:10205300CCB8E002120CCC0DE102120CCCA0E102D0
:10206300120CCC22E202120CCC7BE202120CCC8FBB
:10207300E202120CCCA2E202120CCCAA9803120CBC
:10208300CCD39803120CCC009903120CCC289903DF
:10209300120CCCD9F902120CCCF8F902120CCC09AF
:1020A300FA02120CCC17FA02120CCC3BFA02120CF5
:1020B300CC4EFA02120CCC61FA02120CCC79FA0261
:1020C300120CCCD0FA02120CCC0EFB02120CCC3F39
:1020D300FB02120CCC91FB02120CCCE0FB02120CA3
:1020E300CC00FC02120CCC0EFC02120CCC23FC0222
:1020F300120CCC69FC02120CCCF59B03120CCC0223
:10210300F601120CCC3BF601120CCC63F601120C57
:10211300CC7AF601120CCC99F601120CCC03F70120
:10212300120CCC3BF701120CCC35FB01120CCC97F3
:10213300FC01120CCCD1FC01120CCC2BFD01120CB6
:10214300CC34FE01120CCC60FE01120CCC79FE01E2
:10215300120CCC8DFE01120CCCD6FE01120CCC322B
:10216300FF01120CCC46FF01120CCCF79003120CAA
:10217300CC0B9103120CCC319103120CCC54910370
:10218300120CCC7E9103120CCCAA9103120CCCC975
:102193009103120CCCFE9103120CCC219203120C6E
:1021A300CC3D9C03120CCCC1E202120CCCD5E20252
:1021B300120CCC03E402120CCC35E402120CCC5CFE
:1021C300E402120CCC84E402120CCC9DE402120C47
:1021D300CCD8E402120CCC42E502120CCC7EE50210
:1021E300120CCCCAE502120CCCFAE502120CCC1D7F
:1021F300E602120CCC028E03120CCC148E03120CCA
:10220300CC048F03120CCCFB9503120CCC55960314
:10221300120CCC959603120CCCD89603120CCC134B
:10222300EA02120CCC31EA02120CCC84EA02120C40
:10223300CCA3EA02120CCCCDEA02120CCCE9EA02DE
:10224300120CCCE9EB02120CCCF9EB02120CCC15FC
:10225300EC02120CCC29ED02120CCC36ED02120C5E
:10226300CC44ED02120CCCB5DA02120CCCCDDE025A
:10227300120CCC7D9C03120CCCF59A03120CCC06E9
:102283009B03120CCC008002120CCC1E8502120C94
:10229300CC9D5C00120CCC605C00120CCC255C0065
:1022A300120CCC015C00120CCCE65B00120CCC7659
:1022B3005B00120CCCA45A00120CCC195A00120C5D
:1022C300CCA85900120CCC895900120CCCF963002C
:1022D300120CCC976300120CCC775900120CCCC2B1
:1022E300D001120CCC7B6300120CCC2B6200120CBD
:1022F300CCA4D001120CCCC3CF01120CCC31CF0132
:10230300120CCCD7CD01120CCC8ACB01120CCC23EE
:10231300CB01120CCCE8C701120CCCC0C701120CC4
:10232300CC74C701120CCC51C701120CCC68C60186
:10233300120CCC10C601120CCC6CC401120CCC696B
:10234300C401120CCC61C301120CCC41C301120CA9
:10235300CC9AC201120CCC1DC101120CCCE4C001F9
:10236300120CCCB5C001120CCCCC6100120CCC8F7A
:102373006100120CCC186100120CCC2A6000120C04
:10238300CC186000120CCCB2C001120CCCA4C0015A
:10239300120CCC86C001120CCC75C001120CCCF40B
:1023A3005E00120CCC91BF01120CCC27BF01120CA2
:1023B300CCF4BE01120CCC9CBE01120CCC645E00AA
:1023C300120CCC0C8003120CCC6BBE01120CCC9201
:1023D300BB01120CCC9FBA01120CCC35BA01120C02
:1023E300CCF5B901120CCCE9B901120CCC5CB901E2
:1023F300120CCCAAB801120CCCD8B601120CCC4AE0
:10240300B401120CCC14B401120CCCB5B201120CF1
:10241300CC64B201120CCC91B101120CCCF8B00116
:10242300120CCCD1B001120CCCC15D00120CCC97B4
:10243300B001120CCCB8970300000080FBC2C73276
:10244300E4730001363601010001020100010301BA
:10245300000104010606050200000701003408011B
:10246300000F090401010D0100FF0E08000017020F
:102473000000190100FF1A0100011B0100FE1C01ED
:1024830000081D0200001F010001200100012102BC
:1024930000002301000F2402000026010001270190
:1024A3000008280200FF2A0100072B0102402C012B
:1024B30000002D0100012E0100012F0100FF30015A
:1024C3000B1C310800003A0100083B01000F2F01EB
:1024D300000001037103010301030103010301036D
:1024E300220302030103100300030003000300039C
:1024F3000003000300034203000324030603000355
:102503000003040312032503230325032303040306
:102513000403000300030003440300030003230335
:102523000003650321003503810300030503000352
:102533000003000303027102300160021102700202
:102543000102020202028002100261023A0041000B
:102553006302730272026202430200021302380032
:102563000002000204021202000200020002000242
:1025730004020402370037003C024402000239001F
:102583000002000265020002350281020002050218
:1025930082028302000201017101010101011101A3
:1025A30001013101010101018001100161013B00C1
:1025B30014006301730172016201430100011301FD
:1025C30006013D0135000401120100010001000173
:1025D300000104010401330133013C0144013201D0
:1025E3003600000100016501000135008101000191
:1025F30005018201830100010300710030016000C5
:1026030011007000310220035004800010006100AB
:1026130000001400630073007200620043000000B6
:102623001300060000000000040012000000000078
:102633000000000004000400370037003C0244009F
:10264300000000000000000065000000350081006C
:1026530000000500000083000000360001000600B2
:1026630000000F0000000000000000000000000058
:1026730003FFFF00000403FFFF0000FFFF0FF4014F
:102683000005C4040320000100000B00000000004B
:1026930000000003010F0000871D13004B1D010004
:1026A300871D0200091D03000F1D0400151D0500F1
:1026B3001B1D0600271D11003F1D1400451D15009D
:1026C300391DFFFF00000300030004000800100091
:1026D3001F003E007B00F600EC01D703AF075D0F40
:1026E300B91E713D000003EAF5E5D5D5C5B5A5953D
:1026F3009585857575656555554545353525251587
:102703001505C116F116C716CD16EB16DF16D91629
:10271300F716FD1603170F17D316BB16B5160AAB1C
:1027230014027514058714077B140C5D140D6914CA
:10273300FF00009C36063A703DD9404344AD47172D
:102743004B814EEA5100160F00000B150B020002DD
:10275300220F3200000600010203040506070809E0
:102763000A0B0C0D0E0FAB17BD17C3178B16C9172A
:1027730085169116231841184718291835182F184C
:1027830000034948424D1817250502000119161880
:1027930016161523030000383C3E363B3B352B43CE
:1027A3002C0C0E020B040B0A0708000F303017180D
:1027B3001921301B1D1F30303016181920231A1C05
:1027C3001E30E51609173B1815171B171718CF17D7
:1027D300D517E117DB170005150D091008040000D4
:1027E3000000000000BE040A0E00040015002808C3
:1027F3000C0A09050408040FC082C083E99003BAD8
:10280300F0E490036EF01221F59003CDE4F0A3F011
:102813009003BBF0A3F01215E31221FB90033DE4F8
:10282300F0A3F09003DFE07002A3E060099003DF00
:10283300124CA91224439027FAE493FA7902122244
:102843005502416B74F2120A47EAFEEBFF74805F94
:10285300F9E47001E960619003BAE0F91219738A2F
:10286300088B09EA7001EB60467B0080010BEB7576
:10287300F003A42421F8E5F03427F988828983E45E
:1028830093FA74FF6A6021850882850983E06A7080
:10289300DCAA08AB0988828983A3E493C0E07401AE
:1028A30093F583D082122443AA08AB09121967EE69
:1028B300FA74806FFB022A0C74105FF9E47001E96B
:1028C300601D1215058A088B09EA7001EB600A1274
:1028D3001469AA08AB09121967EEFA741080D4EED2
:1028E300A2E0501A900373E0640F700B7900121486
:1028F3003FE96003122A1874016EFAEF80B6542080
:1029030070030229D8750C00123CD17001EB7010D2
:102913007C027D007A207B009003BAE0F9121A8DC5
:102923007C0079047A007B001214E18A088B098009
:102933000D740188828983F0850A08850B09E508EF
:102943007002E509606D7C007904AA08AB091214D2
:10295300E18A0A8B0B750C01E508240412564F24F7
:10296300FFF0A3E034FF12584B7002A3E070C9E5F7
:10297300082409F8E5093400F9850882850983A349
:10298300A3A3A3A3A3A3A3A3A3E0640170A38508A4
:1029930082850983A3A3A3A3A3A3E0540470927421
:1029A3000688828983F07AB7850882850983122B8A
:1029B3004580851214B17C0079017A007B001214E2
:1029C300E1EA7001EB7009E50C70057A20124C32D4
:1029D30074200228FC74025FF9E47001E9600A12B2
:1029E30015DDEEFA74020228B674045FF9E470018F
:1029F300E96012124DDF124A427901123233EEFAC4
:102A030074040228B67A007B008005740312103028
:102A13007F06020D399014FF1240FB12145722C097
:102A230082C08374EA1210AA851882851983AA8248
:102A3300AB83794B12222B74081212C77402F07401
:102A4300091212C7AA82AB83795012222B74131274
:102A530012C7125100122249741602416874F71208
:102A63000A4774E11210AAEAFEEBFFEE7001EF6071
:102A730033851882851983AC82AD831215297406B8
:102A83001212C7E0601E74171212C7E0FD74011220
:102A930012C7E0FCEEFAEFFB79001222F1E96004C1
:102AA30079A4800279000240AF74F6120A47EAFE65
:102AB300EBFF8E828F83A3A3A3A3A3A3E054406061
:102AC3001B124CA5124E3760067AFF7BFF801A8ECD
:102AD300828F83124347FAA3E0FB800312154D74E0
:102AE300FE6A700374FF6B6041124CA5124C911285
:102AF30015A7E98E828F836006122B3EE4800512B0
:102B03002B3E7401F07C457D148E828F83124B190A
:102B130012224FE9F5087015EE7001EF6009790193
:102B2300EEFAEFFB1214BD024C977508CDAA088E7E
:102B3300828F83122B45E960DF80ECE0240D124580
:102B43002C22E0240C12452CE0F91214512274F6C5
:102B5300120A47E9FEEAFF7A0F7B00121961EA7055
:102B630001EB6019740C8A828B83F0EEA3A3F0EF60
:102B73008A828B83A3F0124D2779008034EEF912F9
:102B830014E78A088B09A808A909E87001E9601FFE
:102B9300740688828983A3A3A3A3A3A3A312562E97
:102BA300A3A3A3A3A3E0F9121409EEF91214C379A2
:102BB30010024CA0C082C083900373E0640F7018AE
:102BC300EA7001EB601290036EE0FC74086C600520
:102BD30074046C7003122BDE02416BEAFCEBFD7A8A
:102BE300017B009003BAE0F9121A8722124DFA64AE
:102BF3000222EE2409F8EF3400F9880A890B2274C3
:102C0300F2120A4774FD1210AA8A088B09EA2402F9
:102C1300F50CEB1246A8F91214E78A0A8B0BAE0ADD
:102C2300AF0BEE7001EF7003022D0B85088285094F
:102C330083A385820A85830BE064F16014E064CD8D
:102C4300600FE0641A600AE064E96005E064E17023
:102C53001C79001214BDE960148E828F83A3A3A391
:102C6300A3A3A3E04420F0A3E0F0022CF5850A829D
:102C7300850B83E0C0E074021212C7D0E0F0125457
:102C8300D4125850851882851983AA82AB837005A4
:102C930012137F800312158F850A82850B83E064EC
:102CA300F1604FE064CD604AE0641A6045E064E19E
:102CB3006040E064F0603B74021212C7E0FC74B73A
:102CC3006C602F122D17750A01780A121021ECF58A
:102CD3000A780A121021E508240CF582E509123757
:102CE300C71236D4FCA3E0FD8A828B831236EE1220
:102CF3001030EE2409122BEF70037406F0850C825A
:102D0300850D83E0F91214C31214B1901503122A2E
:102D13001B022A0E8E828F83124412E8FAE9FB22E9
:102D230074F5120A478A088B09750A00EA24091206
:102D330041E1FEE9FF8E828F83122DB47003750A81
:102D4300018E828F831249457003A3E06B7006E501
:102D53000AD2E1F50AE5082402FEE5093400FFE59D
:102D63000A60138E828F83E07006E50AD2E5800441
:102D7300E50AD2E6F50A1215A7E964017006E50A29
:102D8300D2E0F50A8E828F83E06017E508241DF5F3
:102D930082E5093400122DAA64016006E50AC2E047
:102DA300F50AA90A0250FB12434CE0F9121595E902
:102DB30022124E3B64022274E8120A4774DE121098
:102DC300AAEAFEEBFFEE2404124319E0601090150B
:102DD30001E07002A3E06006901501122A1BEE24A5
:102DE30002F50CEF124E1F74031212C7AC82AD83AF
:102DF3008508828509831236CAFAA3E0FB121529D6
:102E0300EE241B1240B974101212C7124A427409FD
:102E13001212C7E0601C741A1212C7E0FD74041288
:102E230012C7E0FC124B1379011222F1E96003028D
:102E330030A174031212C7AA82AB83121463E9F59B
:102E43000A74091212C7E0700E900356E06008E995
:102E5300A2E140030230A1EE2412F514EF3400F591
:102E630015EE242A125842EE242EF516EF3400F5FF
:102E730017EE242C1237C41233F1E0687003A3E079
:102E830069701E750B00780B121021780B1210213C
:102E9300851682851783E0F91230B61236EE1210CA
:102EA3003074061212C7E0FA90035CE06A60030212
:102EB30030A174091212C7E07003022F791230B6E1
:102EC300124B191216018A088B09A808A909E87080
:102ED30001E9700302301A74041212C71230ABFAFC
:102EE300A3E03400FB740D2AF582E43BF583E0FA9A
:102EF300E82404F508E9125845E82403F582E912A9
:102F030058566A601FEAF09087B8781012127985D4
:102F13000882850983E510F0A3E511F0A3E512F01B
:102F2300A3E513F07904E91212C71230ABFCA3E056
:102F330034008C82F583A3AA82AB831219558A0CC1
:102F43008B0D8C0E8D0F85088285098378101212E4
:102F5300797810790C12122C50030230A1908794C7
:102F6300780C121151850882850983125381A3E5D8
:102F73000EF0A3E50FF090036EE0FA74046A6008A4
:102F830074096A60030230A1E50AA2E54003023036
:102F93005C851682851783E0851882851983F0EE98
:102FA300242F125853C0E074011212C7D0E0F0EE80
:102FB3002430125853C0E074021212C7D0E0F074E8
:102FC300141212C7E064017028740E1212C7124063
:102FD300BF851482851583E0687003A3E0697011CF
:102FE300740C1212C7122DB4700774141212C7E4B2
:102FF300F0EE24241237C4120E2874041212C7AC44
:1030030082AD8374071212C7AA82AB83121385742D
:10301300041210300230A19003B3E0640160030294
:103023002F7974201212C712434764067009E50A08
:10303300A2E65003022F7974101212C7E064FF70E6
:1030430004A3E064FF6057EEFCEFFD74031212C7A4
:10305300AA82AB8312146F8045A2E65041742012FA
:1030630012C7124347FA74046A7018741A1212C70B
:10307300E06402702974031212C7AA82AB8312158B
:1030830083801B74076A7016741A1212C7E06404F3
:10309300700C74031212C7AA82AB8312157D7422BB
:1030A3001210307F10020D39E0FA850C82850D83F2
:1030B300E02A228508828509831243368514828596
:1030C30015832274F2120A47EAFEEBFF8C088D097E
:1030D300122BF579008882F583124B191214158A85
:1030E300828B83E5827002E583603DA3A3A3A3A340
:1030F300A3E054186032E508241BF582E509123772
:10310300C7120E2CE5082412F582E5091237C712FF
:103113000E2CEE2418F582EF1241DC123136121414
:10312300277404121030800879001231361213F11B
:10313300022A13850A82850B83124336EE240B126F
:1031430040F42274F6120A4774F71210AA8A088B05
:103153000990036EE0FA74036A600D74016A6008F3
:1031630074096A60030232258508828B83A3AE82C9
:10317300AF83E0600302320A7C007D007A027B00A9
:10318300122201E50824021232281240BF90035F85
:10319300124A427953122231790012323390036E6C
:1031A300E06409600990036C124B191215FB74015A
:1031B300124CC5740490036EF074011212C7AA82F4
:1031C300AB83794A12222B74011212C7AC82AD83EE
:1031D3007A647B0312221990035F1243327A037BD2
:1031E300001222019003621243327A047B001222FE
:1031F30001900359E0A2E35004D2F08002C2F0121E
:103203004CAD122A188018FC7D007A037B10122221
:10321300018E828F83E0F9123233E490036EF01251
:103223001493024C9BFAE5093400FB8A828B8322B8
:1032330090036C1240FB12139122C082C08390034F
:103243003DE07002A3E0704190036EE0120F0A00AC
:1032530003015F32056E32067D328C32900345E006
:103263007002A3E06076900345806B900341E070A9
:1032730002A3E06067900341805C900343E0700227
:10328300A3E06058900343804D90033DE07002A398
:10329300E06009123A3BFC74016C702379009003DF
:1032A300BB800909EA125283EB1237C7123F9C70A5
:1032B30001EB70EF9003BB124B1912138B801D743B
:1032C300026C70051215D180139003E1E07002A324
:1032D300E060099003E1124CA912244302416B748C
:1032E300F4120A4774FB1210AA8A088B097A0F7B1F
:1032F300001219618A0A8B0BAE0AAF0BEE7001EF55
:1033030070030233EC74028E828F83125101795061
:1033130012222B850882850983A385820885830968
:10332300E060030233D590036C125627700374FFD9
:1033330069602F74FE68700374FF696025851882C5
:10334300851983E0687003A3E069601674EA850851
:10335300828509831237007A6C7B037950122231FC
:1033630080708518828519831233F1124A427A5F7D
:103373007B03795312222B90035F124A3D7A627BBF
:1033830003794B12222B7A617B0379E112222B9072
:103393000373E0C3940F5022900361E0C0E0740212
:1033A3001212C7D0E0F074041212C77401F0740251
:1033B3001212C7AA82AB83122243750A00780A123B
:1033C3001021780A12102190151EE0F91236E51229
:1033D30010308508828509831236B5F07403900393
:1033E3006EF0EEFAEFFB124D2774050241D412443E
:1033F3001290036C2274EC120A4774ED1210AA8A1D
:10340300828B83A31236BAEA24081241E1FEE9FF54
:10341300851882851983AC82AD838E828F831236A1
:10342300D4FAA3E0FB12149F851882851983E070F8
:10343300708E828F83E0C3940B4066850882850972
:1034430083A3A3A3A3A3A3A3A3E064027053900342
:103453006EE0FAE5082410F510E5093400F511E5EE
:10346300082409124E1B74026A603B74066A6036B4
:1034730090033DE07002A3E06007123A3B640160F1
:103483005574086A600574046A701674021212C7D0
:10349300E0F974071212C7AC82AD83124B131214F6
:1034A300A5741302535290033DE07002A3E070260B
:1034B300750A00780A121021780A121021851082E9
:1034C3008511831236CAFCA3E0FD85088285098332
:1034D3001236EE1210309003BB1256939003BB12B8
:1034E300534AE508240DF50EE5093400F50F803045
:1034F3008E828F83E0F8A31236CA687003A3E06953
:1035030070128E828F83A3A3E0FA850E82850F83C8
:10351300E06A606B8E0A8F0BEE125283EF125690A5
:10352300EE7001EF70CA7A187B001219DF8A128BD2
:1035330013AE12AF13EE7001EF70030234A47C18C4
:103543001257C2124D3CEE240C1237C474FFF0E53F
:1035530008240B12564F1236AC12584AC41236AC1A
:10356300A3A3F09003BBE07002A3E070059003BB3C
:10357300800AE50A125283E50B1237C71254DA7434
:10358300011212C71236C4A3F074021212C7123604
:10359300C4F0850E82850F831236B5A3F0125668E8
:1035A300124861240DFAEF3400FB74021212C7E0D3
:1035B3006401600E74071212C7AC82AD8312221924
:1035C30080097C087D0079FF12194F74121212C70B
:1035D300E0C0E0EE24151237C4D0E01236F7FC90B9
:1035E300151EE0C39C40030234A412563DE50912A4
:1035F30037C7A3E05480F9E47001E97009900D2204
:10360300E070030234A47D00EE240CF8EF3400F9DB
:10361300EE240BFAEF3400FB9003ABE06402701D61
:103623008A828B83E0F50AC39C500D74051212C77E
:10363300E0C39405401B801AE50A6C7015740512EB
:1036430012C7E0C0E088828983E0FCD0E0C39C50CD
:10365300010D74061212C7E06035ED6025850882FE
:1036630085098312510FECF0A3ED1236F78A828B92
:1036730083F074051212C712433C74061212C7E09A
:10368300600D74018E828F83A3A3A3A3A3A3F074FD
:10369300041212C7E070030234A474018E828F8374
:1036A300A3A3A3A3A3F00234A4540F8E828F83A3F6
:1036B300A3221238C6A322A3A3E0F508A3E0F509C9
:1036C300221238C60248EFE0F9850C82850D83E0AB
:1036D30022E0F98A828B83A3A3A3A3A3A3A3A3A317
:1036E300E02290036C1243369003621240FB1215E2
:1036F3005F740222F0851082851183E022F07A5FE5
:103703007B03795312370B221222317A627B0379BE
:103713004B1222312274F0120A4774F81210AA8A4B
:103723000C8B0D8C0A8D0B890E851882851983AC41
:1037330082AD837583877582687408120F7CF50FD9
:10374300AC0CAD0D851882851983AA82AB83125305
:10375300937003750F019003BB8030AC0CAD0DEE7D
:10376300240DFAEF340012583E601A850882850949
:1037730083E0650E700F8E828F83E0650A7004A369
:10378300E0650B6032EE24161237C4124027700135
:10379300EF6024EE2402125842E50F70BE8E828F32
:1037A30083E0650A7004A3E0650B70D98508828500
:1037B3000983E0650E70CEEEFAEFFB024E03EE24B2
:1037C3000BF582EF1256852274F7120A479003BB5A
:1037D300124762800CEA241612568D1219E5EEFA8E
:1037E300EFFBEA7001EB70ED9003BBE4F0A3F00292
:1037F30040B474F1120A478A088B09ECFEEDFF8985
:103803000A8A828B831253898A828B831238C5F08A
:10381300EEF8EFF9A30EAF838A828B83A3A3E0C4F0
:1038230054F0FA88828983E04A1238D11238C612DA
:1038330038CCE0333354FCFA8E828F83E04A12385B
:10384300CCA3E033333354F8FA8E828F83E04AF00B
:1038530008EFF9A30EAF838508828B83A3A3A3A3E9
:10386300A3A3E0A2E0E492E013135480FA888289D0
:1038730083E04AF0E5082407F50CEB124E1F750EA2
:1038830000780C1210197C0812469C121030125347
:1038930069E508240F124E1B780C1210197C0312D1
:1038A300469C121030E50AC3940F4011E508241218
:1038B300F582E5091237C71236B5A3A3F07F0702D5
:1038C3000D39A3E08E828F83221238D1A322F08593
:1038D30008828B83A3A3A32274F1120A47EAFEEBA7
:1038E300FF890A8C088D098E828F83E08C828D83F9
:1038F30012484AAE82AF83E01249001239A7C412BC
:10390300490012399BE054038C828D831239A5A29E
:10391300E2E492E08C828D831239A4131313541FB3
:10392300124900A31239A4A2E7E492E08C828D83AA
:10393300A3A3A3A312399B8E0C8F0D750E00780CD5
:103943001210197C087D00E5082407123992121021
:10395300301253698E0C8F0D780C1210197C037D75
:1039630000E508240F123992121030E5082412F8EA
:10397300E5093400F9E50AC3940F400A8E828F8368
:10398300A3A3A3E08001E488828983F00238C0FA0C
:10399300E50934001246A122A3A312484E0EAF83B9
:1039A30022A3A3A3A3F002529674F4120A4774F954
:1039B3001210AAEAFEEBFF90033DE07002A3E06061
:1039C30010123A3B64027009EEFAEFFB1215CB803A
:1039D3006290036CE06E7003A3E06F70567401692C
:1039E30060097A807B0312539370487A007B02123A
:1039F3003CD57001EB703C90036F78081212798507
:103A03001882851983780812126A900375E0C0E062
:103A130074041212C7D0E0F074051212C77401F0D7
:103A230074061212C7740212510112135BE96098F3
:103A330012136174070241D490033D124539E02209
:103A430074F7120A478A828B83A3AE82AF83E0F9AD
:103A53001213A98E828F83E0FA74EB6A600574E116
:103A63006A7002E4F0122A1875080178081210210E
:103A73008E828F83E0F508780812102179001236C0
:103A8300E51210301214B10240B474F6120A4790D2
:103A930003CCE0701F7C0079017A007B001214E1F3
:103AA300EA7001EB600E8A828B83E07002A3E06010
:103AB3000312144B024CA0C082C083123F07401074
:103AC30079FF1214DBE9FA9027F3E493C39A5004C5
:103AD30079018002790002416B74EE120A478A0869
:103AE3008B09890D750E00EA2408F50AEB3400F5FD
:103AF3000B850A82F583E0F91214E78A108B11AE65
:103B030010AF11750C01EE7001EF6003023B9F854E
:103B13000882850983A3A3A3A3A3A3124332850A1F
:103B230082850B83124767124B191214CF8A0A8BB3
:103B33000BAE0AAF0BEE7001EF7003023CC98E822D
:103B43008F83A3A3A3A3E4F0A3F0E508240BFAE572
:103B530009125398C0E01237C1D0E0F01215ADEE50
:103B6300240C124C8A750E01EE2406F8EF123F1650
:103B7300E0547FF0A3E054FC123DAF540460030211
:103B83003C3190150712475B740778081211D68AE7
:103B9300828B83E04508F0A3E04509F0EE2406F8A4
:103BA300EF1241E3FCE9FD8C828D83124B19748083
:103BB3005AF50874035BF5097407780812125BE57C
:103BC30008F510EE2404F50AEF3400F50BEE240992
:103BD300125842E50D6060740285088285098312DC
:103BE30039A8240D124528E0A2E2500F90035A127F
:103BF30040BF850A82850B83124A42E51070030297
:103C03003C90747F5AFA74FC5BFB74FF2510F5102B
:103C130074FF3400F511740778101211D6E5104AB9
:103C2300F8E5114BF98C828D83124A42805FE044A0
:103C330080F0A3E0023B9EE5107005750C00804DFB
:103C4300EA5420601512195B8A10747F5510F874BA
:103C53005F28850A82850B83801BEA5410600E124D
:103C6300195B8A10740F5510F8740F80E4850A826B
:103C7300850B837401F0A3E4F0740485088285093D
:103C830083F0123CD17001EB7003124C6774016531
:103C93000E7036850A82850B83124332850882852E
:103CA3000983E0F9EEFAEFFB1214D5E9601BEE2469
:103CB3000C1237C4123F9C7001EB60031219E5EE3E
:103CC300FAEFFB1219E5750C00A90C024A267A20BB
:103CD3007B009003BAE0F9121A99EA2274F6120AE9
:103CE3004774F71210AA7E001214E7EA7001EB7012
:103CF30003023DAA8A828B83A3A3A3A3A3A3A3A3A3
:103D0300A3E064066003023DAA8A828B83A3A3A374
:103D1300A3A3A3A3E0FF8A828B83124533E0C0E011
:103D230074081212C7D0E0123DAF12434F124F274F
:103D3300124A421214F974085FF9E47001E96065EC
:103D43008518828519831243327A007B001214C9C5
:103D5300EA7001EB704F90036C1241E812225B7C16
:103D6300007D007A007B0080268E828F83E01240E4
:103D7300C37004A3E064FF602C90036C12433212FF
:103D83001F5BE9641A601E7C007D00EEFAEFFB12F4
:103D930014C98A088B09AE08AF09EE7001EF70C928
:103DA30079001222617E01EEF9024C9B123E65E01E
:103DB3002274F7120A47EA7001EB70059003CD8075
:103DC300068A828B83A3A3123F9C7001EB60288A2F
:103DD300828B83A3A3A3A3A3A3A3E05408F9E47052
:103DE30001E960DDEC7001ED60111243436C700377
:103DF300A3E06D70CC80047A007B000240B474F2BF
:103E0300120A47EAFEEBFF890A8C088D097A0E7BBA
:103E1300001219DFEA7001EB603AE48A828B83A314
:103E2300A3A3A3A3A3A3A3123E69E50A1240CFE56C
:103E330008F0A3E50912561DE4F0123E69A3A3128C
:103E43003E651254DAEA240CF582EB124329123E42
:103E53005AF0A3F0022A13A3123E5F22123E65A377
:103E6300A322F002322EA31240D3A3A32274F5128D
:103E73000A47EAFEEBFF890A8C088D09EE7001EF11
:103E830060567401650A701479011214DBE9FA9023
:103E930027F8E493C39A500F791180657404650A77
:103EA3007030123F0740F18E828F83A3A3A3A3A395
:103EB300A3A3A3A3E50A1248551258C5E4F0A3F03F
:103EC3009003CDE07002A3E09003CD60241240BFC5
:103ED300800A7402650A60CF79C18025E82402084C
:103EE30008E9123F16123FD17001E970EF8A828B05
:103EF300831254DA123CD17001EB7003124C6779D0
:103F0300000250FB79041214DBE9FA9027F6E493DC
:103F1300C39A221241E3FAE902322DC082C083E937
:103F2300FC79009003CD801D8A828B83A3A3A3A376
:103F3300A3A3A3A3A3E06C600574FF6C7001098ABB
:103F4300828B83A3A3123F9C7001EB70DB02416B56
:103F530074F7120A47EA7001EB70059003CD8006EF
:103F63008A828B83A3A3123F9C7001EB60248A8215
:103F73008B83A3A3A3A3A3A3A3A3A3E06970E1ECEF
:103F830060148A828B83E0240D125290A2E240D007
:103F930080047A007B000240B41240FBEA22C08214
:103FA300C0839003CD80068A828B83A3A3123F9C98
:103FB3007001EB60128A828B83A3A3A3A3A3A3A3A1
:103FC300A3E06970E280047A007B0002416B124433
:103FD30012E82274F1120A478A0A8B0B8C0C8D0D9E
:103FE300750800750900EA7001EB60319003CD801C
:103FF300068E828F83A3A31240277001EF601EAC4D
:104003000CAD0DEEFAEFFB850A82850B8312244378
:10401300E9640170DCEEF8EFF988088909AA08ABB6
:10402300090238C0E0FEA3E0FFEE2274F7120A474C
:104033009003CD1240BF7C007D008007E8FCE9FDC2
:104043001240BFE87001E9603AE82402F582E91200
:1040530037C7EA687002EB6970E2124B199003CD1F
:10406300125693E86E7002E96F70099003CDEAF07F
:10407300A3EB800EEAF8EBF98C828D83A3A3E8F01F
:10408300A3E9F0802C74F7120A47EAFEEBFFEE7007
:1040930001EF60161214F31240D9EA7001EB6003CA
:1040A3001219E5EEFAEFFB1219E58005741F1210E1
:1040B300307F01020D39F582EF1256851244122228
:1040C300FAA3E0FB8A828B83E064FF221240D322AF
:1040D300123E650248F08E828F83E0241C12452C29
:1040E3001241008E828F83124100EE240C1240F4A1
:1040F30022F582EF3400F583124762FB22124762F6
:10410300FB1219E522C082C083EAFCEBFDEC7001CF
:10411300ED70047905804CEC24FBF582ED34FFF55A
:1041230083E07002A3E07011EC24FFF8ED34FFF993
:1041330088828983E064FF600512196780D5900344
:10414300BA12433C9027F4E493F97ACF7B03121914
:1041530091E96401700B7A007B10124C6B7900803B
:104163000279048003121030D083D082020CBF7412
:10417300F4120A47A2AFE492E0F508C2AF9003CF6E
:104183001240277001EF603DEE24FBF582EF34FF10
:10419300F583E07002A3E07A007B109003BA600518
:1041A300124C6E8005E0F912199D750A00750B001B
:1041B300780A12101DEEFCEFFD7ACF7B0312198BE8
:1041C3007402121030E508A2E092AFEEFAEFFB8022
:1041D300031210307F04020D39124DFDF922F8EB62
:1041E3003400F9E822124336851882851983AA829E
:1041F300AB832274F0120A4774FC1210AAEAFEEB96
:10420300FF1214B7E960057911024314EE24021278
:104213004319124E376006EE2412124326EE24137E
:104223001258537003741EF0EE2411F8EF124E244B
:104233007019900DF0E0600D900356E0700D8E82C2
:104243008F83E07006E488828983F0EE24140808E3
:1042530008EF125652700C90034B12433C90034BE1
:10426300E004F0EE240FF50AEF3400F50B8E828F95
:1042730083E0640170171237C11243476402700D63
:10428300850A82850B83E04440F0A3E0F085188221
:10429300851983AC82AD83EEFAEFFB12151D8A0CF0
:1042A3008B0D850882850983124332EA7001EB6026
:1042B3005C8E828F83E0C0E074011212C7D0E0F0FD
:1042C30074021212C71254DA74011212C7858208DB
:1042D300858309780812101D850A82850B83120EC7
:1042E3002CEE240E125853F5087808121021740589
:1042F3001212C7E0F91215177405121030E9FE7493
:10430300106E700BAA0CAB0D1219E580027E10EE35
:10431300F97404024E05F508EF3400F509850882A7
:10432300F58322F582EF125685E4F02212568212AB
:10433300433622E0FCA3E0FD22E088828983F02259
:104343008A828B8312434EE022F583E0F8A3E0F5E3
:1043530083888222C082C08374DE1210AA8A828B71
:1043630083A3A3A3A31240BF740E1212C7E8F0A342
:10437300E912440B740C1212C7124404240DF58283
:10438300EB125856C0E0741A1212C7D0E0F0EA12CA
:10439300563FEB1240BC74201212C712440424157A
:1043A300F582EB125856C0E074081212C7D0E0F041
:1043B300EA241CF582EB1240BC74121212C7124A93
:1043C3004274FF851882851983F074011212C77431
:1043D300FFF074021212C774FFF09087B8120E2810
:1043E30074041212C7AC82AD8374071212C7AA8277
:1043F300AB831213857404121030790074220241C6
:1044030068E8F0A3E9F0EA22123E5F12441222E0C8
:10441300F8A3E0F92274EF120A4774F01210AA8A83
:104423000C8B0DECFEEDFF891074211212C7E0F521
:104433000F74221212C712534A74241212C712366F
:10444300BC750E107A1E7B001219DF74021212C79C
:10445300124C9174021212C7E07002A3E0700302BF
:10446300451C851882851983AA82AB837950124B28
:1044730009124B1974021212C7124533A3124C913D
:1044830074021212C7E0240B1245287402F01212B0
:10449300C71245337402F01212C7124CA91254DA30
:1044A30074021212C712502AE510F074021212C7D6
:1044B300E0240C124528E50FF074021212C7E02421
:1044C3001C12452812538174081212C7E50AF0A37F
:1044D300E50BF0740A1212C7E50FF085088285090F
:1044E30083C082C083740D1212C7AC82AD83D083A4
:1044F300D0827403120F7CF974021212C7AA82AB22
:10450300831214BDE964017005750E00800B7402FB
:104513001212C7124B191219E5A90E74101210309A
:104523007F09020D3912452C22F8A3E012593222D9
:10453300124539A3A322E0F8A3E0F5838882024859
:10454300F074EA120A47EAFEEBFF8C088D098E82AB
:104553008F83A385820A85830B7408F0EE2416F5F6
:104563000CEF1246A860097410850A82850B83F04C
:10457300EE2417F510EF3400F511851082F583E072
:10458300600A850A82850B83E02408F0EE2411F883
:10459300EF1256526005750E0E8003750E00EE2461
:1045A3000DF514EF3400F515850A82850B83E0853C
:1045B3001482851583FAE02A250E8C828D83125886
:1045C3004B6013900357E0F91222DFE9FA85088262
:1045D300850983E02AF0850882850983E0FAC3947C
:1045E3007540097508007509000246937B00125552
:1045F300887001EB7003024693EEFAEFFB1215236A
:10460300EA850882850983124C92EE2402F8124D42
:10461300E91246BDF0EE24040808124DE9A3A312E3
:1046230046BDA3A3F0EE24131246B3F0EE241412F6
:1046330046B3A3F07A08850C82850D83E0600FEE04
:10464300241812432FE50824081253407A108510CA
:1046530082851183E0600FEE241A12432F8A0CE542
:1046630008250C125340125850F510A3E0F51175AC
:1046730012007810121019851482851583E0FC7DD1
:1046830000124A2BE50E28FAE4391246A112103023
:10469300AA08AB097F0E020D397D00EEFAEFFB127B
:1046A30019437403223400F50D850C82F583E0224F
:1046B3001256821246C7A3A3A322A3A3125623A36F
:1046C3001246C722E0850882850983A3A3A3227427
:1046D300F6120A478A828B83E0FC90035C12475BE5
:1046E300740278081211D6E5084CFCAD09EA2412CD
:1046F300124755740678081211D6E5084CFCE509F3
:104703004DFDEA2411124755740978081211D6E5B4
:10471300094DFDEA2416124755740B78081211D679
:10472300E5094DFDEA2417124755740C7808121158
:10473300D6E5094DFD8A828B83A3A3A3A3A3A3126A
:10474300475B740A78081211D6ECFAE5094DFB02AF
:104753004CA0F582EB125685E0F50875090022E0BE
:10476300FAA3E022E0F98508828509832274F21214
:104773000A478A088B09ECFEEDFFE98E828F83F0EE
:10478300124A7DC0E0EE24111237C4D0E0124A77FA
:10479300C0E0EE24121237C4D0E012484AA882A91E
:1047A30083124A486010E5082408FAE5093400FB3F
:1047B300EE24131248688E828F83A3A3A3A3A3A31B
:1047C300A3A3E0601588828983E0FAE5082AFAE565
:1047D300093400FBEE2415124868EE24191243260F
:1047E300EE241B12432612584AF50AF50CE5082558
:1047F3000CF8E5093400F9EE241DFAEF3400FBEA66
:10480300FCEBFD8C828D831248612417FAEF340090
:10481300FB8A088B098E828F83E0C3950A8A828B79
:1048230083124855A3A3E0601B8A828B83E024F2A2
:10483300F0E8240EF8E9124A50FA850882850983C4
:10484300E0C39AF0022A1312484E22F08E828F831D
:10485300A32212485922F08E828F830248F2E8F095
:10486300A3E9F0EE22125682EAF0A3EB125623E0FC
:104873002408F02274F4120A478A088B09EA1248C2
:10488300F7F0EA1313543F124900A3A3A3F0EAC4B9
:1048930013131248F7A3A3F0E48C828D83A3A3A37D
:1048A300A3A3F08A0A8B0B7409780A12125BE50A38
:1048B3001248E7F0EC2418F582ED1243298A0A8B9B
:1048C3000B740B780A12125BE50A1248E2F0740CBF
:1048D300780812125BE5081248E2A3F00241D712EE
:1048E30048E7A32254018C828D838001A3A3A3A351
:1048F300A3A3A32254038C828D83A3A322540F8CDE
:10490300828D8322C082C08379009003561251782E
:10491300A3A3A3E0600FEC70268A828B83A3A3E09A
:10492300701D09801AEC60178A828B83A3A3A3A34B
:10493300A3A3A3A3A31249457003A3E06B70E302EF
:10494300416B1240FB90035FE06A2274EE120A4748
:104953008A088B09890CECFEEDFF124A7DC0E0EE5C
:1049630024111237C4D0E0124A77C0E0EE241212A9
:1049730037C4D0E012484A85820A85830B124A481D
:104983006010E5082408F8E5093400F9EE24131251
:104993004A668E828F83A3A3A3A3A3A3A3A3E060EA
:1049A30009124A2BEE2415124A66EEFAEFFB121592
:1049B30035E9F50D706B850A82850B83E0F50EF5FD
:1049C30010E5082510FAE5093400FBEE2417F8EF8B
:1049D3003400F988088909EE241DF8EF1241E3FC3D
:1049E300E9FD8E828F83A3A3A3A3A3A3E07012EA9E
:1049F300F8EBF98C828D83124A42E50CC3950E8045
:104A030019EA240EF8EB124A50FB850A82850B83C0
:104A1300E0FAE50CC39A24F2C39B850882850983D7
:104A2300F0A90D7F0A020D39850A82850B83E0F810
:104A3300E50828F8E5093400F922125672A3A3E821
:104A4300F0A3E9F02274081248590236E03400F961
:104A53008C828D83E8F0A3E9F0900357E0F91222EA
:104A6300DFE922125682E8F0A3E9F0850A82850B7A
:104A730083024872124E0D0236E08A828B83124003
:104A8300FB12152F850882850983A3A3124ABCE074
:104A9300F9EA8E828F83A3A3A3A3A3A3A3A3A31241
:104AA3004AC1124ABCA3A3E0F9EAF8EE240B12565A
:104AB30082E8124AC1A3A3E022E0FA0246C8F0A3A7
:104AC300E9124E1122C082C0837AD47B0379E212A9
:104AD300222B7AD47B0302416BC082C08390035F95
:104AE300124B1902416BC082C08374FE1210AA8557
:104AF3001882851983AA82AB83794B124B09124B17
:104B030019740202416812222B85188285198322A7
:104B1300850C82850D831240FB22C082C083794AB3
:104B230012222B02416B74F6120A479003DCE0FE5B
:104B330004F0EEF91214E7EA7001EB70EEEE60EBAD
:104B4300F9024CA074EE120A47EAFEEBFF8C088DC3
:104B530009890A74121212C7E0F50B74131212C7F3
:104B6300E0F50C750D00750E001216018A108B11FD
:104B7300AC10AD11EC7001ED7014E50C704DA90A89
:104B8300AC08AD09EEFAEFFB121607024C2DEC242C
:104B930002F8ED3400F9E50A601988828983E0FAA6
:104BA300850A08E5082AFAE4340013EA13F07003CF
:104BB3007401F0E50C6020E50B70108C828D83E0AE
:104BC300600914F064027003750E017401650C70C2
:104BD30035E50B7016802A90151EE0C0E0888289A7
:104BE30083E0FAD0E0C39A504180DD9003E3E00410
:104BF300F0C0E0901508E0FAD0E0C39A4008750DC4
:104C030001E49003E3F0E50E7004E50D601CE50D8F
:104C13006018900362E06E7003A3E06F700CEEFA0D
:104C2300EFFB79011213A3124C30024A267A017B5F
:104C3300009003BAE0F9121A9322C082C083740170
:104C43006A7001EB70077A01124C6980149014FFAB
:104C5300124C91EA7001EB6005122BDE8003124CBB
:104C63003002416B7A207B009003BAE0F912199766
:104C730022C082C083901501124C9102416BC08205
:104C8300C08390150380F1F582EF3400F583EAF0D9
:104C9300A3EBF022A908800574091210307F0202E9
:104CA3000D398E828F8312434E22A2F0E492E012DA
:104CB3004CBB795212223122851882851983F00266
:104CC30041F1124CBB794212223122AA82AB8312E8
:104CD30014997ABD7B0379451222312274F7120AA3
:104CE3004774ED1210AAE9FE9003B9125031124D28
:104CF3001674121212C7EE124D0B85188285198392
:104D0300124CCE74130240B1F09014A0E0F97CBDB4
:104D13007D03229014A0E0F97ABD7B0312149F2235
:104D2300AA08AB099003BAE0F912196D223400F511
:104D330083740122124D30F022A3A3A3A3A3A3A340
:104D4300A3A374FEF0A374FFF02274F4120A47EADB
:104D5300FEEBFF7A007B04124C34124DDF124A4201
:104D6300740990036EF01215418A088B09AC08ADE3
:104D730009EE24131237C4124B19125393640170B2
:104D83004D7A0F124DD47001EB604374028A828B0B
:104D930083F0EE241DF8EF12592E124B198A828BE1
:104DA30083A312517DE0FBEC850882850983A3A3CD
:104DB300F0A3EB12584B12434FA3A3A3124DED12D2
:104DC3004DF1FAA3E0FB794A122231124D2302413D
:104DD300D77B001219618A088B09EA2290033F12DC
:104DE300441290150322EF125932E0024769A3F0EF
:104DF300EE2415124DFA22F582EF3400F583E022FA
:104E030074081210307F08020D39124E1122F085FA
:104E130008828509830248F2F50CE5093400F50D93
:104E2300221256566401228E828F83A3A3A3A3A3C7
:104E3300A3A3A3A3124E3B22124762FB1215A7E9B9
:104E43002212510912159B2274F4120A4774F312A9
:104E530010AAEAFEEBFF7C0D7D00790085188285A0
:104E63001983AA82AB8312194FEE241D1237C41281
:104E73004CA9A3E0F854206008740C1212C7740103
:104E8300F0E854806008740B1212C77401F0E85400
:104E930040600A740A1212C77401F0800A740A127D
:104EA30012C7E064017005EE24138003EE2415128B
:104EB300432F74021212C7AA82AB83122219EE2463
:104EC3000BF8EF3400F9880889098882F583124FBB
:104ED30027124A42740A1212C7E064017034124E58
:104EE3002A703C12154D8A0A8B0BA80AA90B850858
:104EF30082850983E0687003A3E06970221215417B
:104F0300EAFCEBFD74021212C7AA82AB831253931D
:104F1300600D851882851983AA82AB8312139D7451
:104F23000D0241D4124412024B0C74F6120A477458
:104F3300F31210AA8A088B09ECFEEDFF7C0D7D00AD
:104F43007900851882851983AA82AB831257C6A379
:104F5300A3A3A3A3A3A3A3A3124F27E8F0A3E91238
:104F63004FB7FAA2E55008740B1212C77401F0EAA6
:104F7300A2E75008740A1212C77401F0EAA2E6EE1F
:104F8300500424138002241512432F74021212C7F3
:104F9300124FADA3A3E0C0E0740C1212C7D0E0120D
:104FA3005101121397740D024C9DAA82AB831222F6
:104FB30019024769F0EE241DF582EF340012434CC9
:104FC300A3E02274F7120A4774E11210AAEAFEEB77
:104FD300FF122D17EA2406F8EB125652A2E05044B2
:104FE30054FEF0A3E01250318A828B8312502AE0E0
:104FF300F98A828B83E0241CFAA3E012322B124B32
:105003001912153BE9701D741D1212C71243476430
:10501300047011851882851983AC82AD83EEFAEF93
:10502300FB1215890240AFE0241B12452C221250BB
:1050330039AC82AD8322F0024B0CE9FA7900740497
:105043006A600A740A6A600574036A700109020CD3
:10505300BF74F6120A4774208A828B83F07401A30B
:10506300A3F012134FEA7001EB600774018A828B7D
:1050730083F0024CA0C082C08374019003D1F0E995
:10508300A2E350037403F0E9A2E15004E0D2E2F09A
:1050930002416B74F6120A4779007C008A088B0977
:1050A3007808120CF3F8FF07C950C750C750C75010
:1050B300C750C050C450C950BD500C80097C0480F7
:1050C300050C80F67C089003D1E05C600309800343
:1050D300EC600109024CA074F6120A478A828B83A2
:1050E300E0700EA3123F9C7001EB60051223A580B4
:1050F300047A007B00024CA07F03020D39E41251B5
:105103000522125109221250390241F11243368EFF
:10511300828F83A3A30248EF74F2120A4774FD122D
:1051230010AA8A088B09ECFEEDFF890A750B01743E
:10513300011212C774041256447001EB6032EA1272
:10514300563FEB1240BC740388828983F0A3E50ABF
:10515300F0EE88828983A3A3F0EF88828983A3A3D7
:10516300123E5AE508F0A3E509F0121349E9F50BDD
:10517300A90B022A0E12517DA322E0FC8A828B83A3
:10518300A3A32274EC120A4774F51210AA8A0C8B9B
:105193000D89108C0A8D0B741F1212C7E0F5117460
:1051A300201212C7E0F50EA3E0F50F7E01EE1212F6
:1051B300C7740AF0E97007E511C333240AF08518B0
:1051C30082851983AA82AB8312159B8A088B09EA0D
:1051D3007001EB700302527C12568A7409125372E7
:1051E300451112538CAC0AAD0B12535AE510702DB6
:1051F3007C008023ECC333F8E433F9E50E28F8E5AB
:105203000F39F988828983125389888289831238F6
:10521300C5F0A30EAF830CECC3951140D7E508246A
:1052230017F582E509125288E508241AF582E50983
:10523300124C8D74031212C7AC82AD83AA0CAB0D52
:1052430012229DE96021E508125283E509124D37C8
:1052530074031212C7A882A983E5082418F582E50E
:10526300091237C7124A4285088285098312537F80
:10527300AA08AB09121349E9FEEEF9740B02535263
:105283002416F58222124D30F012154122FEA3E0BE
:105293003400FF8E828F83E02274EC120A478A0C5B
:1052A3008B0D89118C0E8D0F74141212C7E0F5103B
:1052B30074151212C712534A900D62E07002A3E0F4
:1052C3006078E510C333F508E433F509740E250857
:1052D300FAE43509FB1219618A128B13AE12AF136C
:1052E300EE7001EF605474D48E828F83F012537F7B
:1052F3008E828F83A3A3A3A3E511F0AC0EAD0FEEB3
:105303002405FAEF125343EE240D1237C4E510F0CF
:10531300850A0C850B0D750E00780C121019AC085C
:10532300AD09EE240EFAEF123995121030EEFAEFB2
:10533300FB900D62124CA9122443025355FAE5095E
:105343003400FB12221922E0F50AA3E0F50B221226
:1053530010307F0C020D39EEFAEFFB12536222126A
:10536300221912536922EE2408FEEF3400FF228E25
:10537300828F83F0A3E510C43354E022A3A3E50C8A
:10538300F0A3E50DF0221238C6F0A3AE82AF83225C
:10539300122213E92212539C223400FB8A828B834C
:1053A300E02274F6120A47E9FE7C007D007800795A
:1053B30000800BEC2508FCED3509FD12579A1258B5
:1053C300675041E8FAE9FBEA75F012A4FAAFF07509
:1053D300F012EBA42FFBEA24CAFAEB3410FB8A8207
:1053E3008B83A3A3A3A3E064FF60D0EA2410125429
:1053F300677002E50960C4EE60B98A828B83E4F0CA
:10540300A3F080B778007900800BEC2508FCED351C
:1054130009FD12579A12585A5043E8FAE9FBEA7504
:10542300F017A4FAAFF075F017EBA42FFBEA2444AE
:10543300FAEB3412FB8A828B83E064FE7004A3E0F0
:1054430064FF60CEEA24151254677002E50960C256
:10545300EE60B78A828B83E4F0A3F080B5ECFAEDBB
:10546300FB024CA0FAEB12539CF508A3E0F509E507
:10547300082274F6120A47EAFEEBFF9003D2801368
:1054830088828983E06E7003A3E06F603B88828922
:1054930083A3A3123FD17001E970E57A047B001264
:1054A30019DF8A088B09A808A909E87001E96018BF
:1054B300888289831254DA9003D21254CEA3A312A2
:1054C3004C919003D2124A42024CA01240FB025666
:1054D30063851882851983EEF0A3EFF02274F4122A
:1054E3000A477E009003D280070E88828983A3A394
:1054F300123FD17001E970F1EEC333FAE433FB12CA
:1055030055887001EB60787F009003D280248882F5
:105513008983124332EFC333FAE433FBE5082AF5F8
:1055230082E5093BF583ECF0A3EDF00F88828983D4
:10553300A3A3123FD17001E970D49003B51249457A
:105543007003A3E06B7808701612101DEEF50A784D
:105553000A1210217C807D0379001215BF8014127A
:10556300101DEEF50A780A1210217C807D03790064
:105573001215B97403121030AA08AB091219E512F7
:1055830013610241D71219DF024DD9C082C0838053
:10559300128A828B83A3A31240BF9003D2124A4282
:1055A3001219E59003D2123F9C7001EB70E30241A4
:1055B3006B74F6120A4790036C1256939003DD1234
:1055C30033F1124A427ADD7B037950122231900380
:1055D300DD12565B12160D9003DD125693900D6487
:1055E300E07002A3E060307A067B00121961EA7072
:1055F30001EB602374D58A828B83F0E4A3A3F07458
:10560300018A828B83A3A3A312561D1254DA900D31
:1056130064124CA9122443024CA0123E5FA3A3229E
:10562300F002566312441274FF682212563222A308
:10563300A3F088828983A3A3A322E508240BF58220
:1056430022124E44EA2208E93400F922F8E509124D
:10565300565622125932E022124336EEFAEFFB225B
:105663008882898322850C82850D8312567222E0FB
:10567300F8A3E0F90238C7F0EE240F12568222F5A0
:1056830082EF3400F58322EA240BF582EB12568570
:10569300E0FEA3E0FF2274F7120A477E008008EEC3
:1056A30012580A1215F50E9027F9E493FAEEC39AED
:1056B30040ED0240B474F7120A4778007900800382
:1056C30012579A9027F9E493FEC3E89EE994005099
:1056D3004CE8FEE9FFEE75F017A4FE85F00875F0BF
:1056E30017EFA42508FFEE2444FEEF1259386A7021
:1056F30003A3E06B70CA8E828F83A3A3A3A3A3A388
:10570300A3A3A3A3E06C7003A3E06D600A74FF6C12
:10571300700374FF6D70A9EEFAEFFB80047A007BCF
:10572300000240B474F6120A477CFF7DFF7AFE7BC9
:10573300FF1215E9EA7001EB705A7508007509004C
:105743008042E50875F017A4F8ACF075F017E50989
:10575300A42CF9E82444FEE93412FFEE240F125876
:10576300536008EE240E125853700E8A828B8312F4
:105773004B1912142DEEFAEFFBE5082401F508E5A9
:10578300091258459027F9E493F8C3E50898E50909
:10579300940040AE024CA0E8240102564974F7126B
:1057A3000A47EAFEEBFFEE7001EF600E1257C012DC
:1057B3004D458E828F83A3124D3C0240B47C177DEE
:1057C30000790012194F0238C774F7120A47EAFE2C
:1057D300EBFF7508008021E50812580A8A828B8343
:1057E300A3A3A3A3A3A3A3A3A3A3E06E7003A3E014
:1057F3006F60031215F505089027F9E493FAE5089D
:10580300C39A40D30240B475F017A42444FAE5F0D8
:105813003412FB2274F6120A471215E98A088B091F
:10582300A808A909E87001E9600AE8240DFAE93437
:1058330000FB80047A007B00024CA0FB025393F52B
:1058430008EF3400F50922A3125623E022EE240BBD
:10585300F582EF124DFD229027F9E493FAC3E89AFB
:10586300E99400229027EFE493FA740193FBC3E8D1
:105873009AE99B2274F0120A478A088B098C0A8DD5
:105883000B890C1258B87001EF60271257C01258D9
:10589300C5A3A3A3A3A3A3A3A3E50AF0A3E50B12A4
:1058A300567AE50C70027401F0EE240E1237C4121E
:1058B30058D0024E081215EF8A0E8B0FAE0EAF0FA3
:1058C300EE22E508F0A3E50912484EA3227401F085
:1058D300EE240D1256827402F02274F5120A478ADE
:1058E300088B09ECFEEDFF750A00800DEE6C70026B
:1058F300EF6D60031215F5050A9027F9E493FAE5B5
:105903000AC39A5021E50A12580AEA240A12592CAA
:10591300124332E5086C7003E5096D70CF88828904
:10592300831254DA80D10250FBF8EB12593222343D
:1059330000F90256633412025295C082C08374F890
:105943001210AA851882851983AC82AD837583876B
:105953007582507408120F7C851882851983AC8276
:10596300AD8312539364017004790080027901744A
:1059730008024168C082C0838A828B83E0D2E7F049
:10598300121C5B0271CAC082C083790012790F9026
:10599300032A127952C3EA9CEB9D5006125FE4601E
:1059A30001090271CA74F7120A47EA127949EB1224
:1059B3007BCB125BC2AEF075F00BEDA42EFD900312
:1059C3002CE02CFEA3E03DFFEA2403FCEB3400FDB6
:1059D300740169600574026970278A828B83A3123C
:1059E30079198E828F83A3127011740269701DEC72
:1059F300FAEDFB1222A3E97013E48E828F83F08009
:105A03000BEE2403FAEF3400FB1222A9EEFAEFFBAC
:105A13001222D90263F474F2120A478A088B09EA44
:105A2300240BF50CEB127BB179008A828B83E06047
:105A33006D890A890B805CE50A75F00BA4FAACF05A
:105A430075F00BE50B125DAC7046AE82AF83850833
:105A530082850983127D53126D29127B5AA3127119
:105A630082E5082403FCE5093400FDEE24030A0A59
:105A73000AEF3400FB1222A9850C82850D83125F85
:105A8300FFEEFAEFFB1222D9790190032A12795A19
:105A9300127BDC125DA4E50A9AE50B9B4099026D2B
:105AA3002474F1120A47EAFEEBFF740F1212C712B5
:105AB300697F750E01850882F583A385820C858332
:105AC3000DEE240BF8EF3400F9EC7001ED6030ECCF
:105AD300127949ED1270077901EEFAEFFB1222C138
:105AE300E5087002E5097003025B6F850C82850D82
:105AF30083127BB67902AA08AB091222C1806DEE2C
:105B03002403F50AEF127BE4E5087002E50960332C
:105B1300127947E509127007E5082403FAE5093409
