:020000040800F2
:10000000500B0020E5010008AF25000891230008EF
:10001000AD2500083D1400080D2D0008000000006B
:10002000000000000000000000000000F5270008AC
:100030002D15000800000000D1250008F727000852
:10004000FF010008FF010008FF010008FF01000890
:10005000FF010008FF010008FF010008FF01000880
:10006000FF010008FF010008FF010008FF01000870
:10007000FF010008FF010008FF010008FF01000860
:10008000FF010008FF010008FF010008FF01000850
:10009000FF010008FF010008FF010008FF01000840
:1000A000FF010008FF010008FF010008FF01000830
:1000B000FF010008FF010008FF010008FF01000820
:1000C000FF010008FF010008FF010008FF01000810
:1000D000FF0100086D2C0008A92C0008FF01000892
:1000E000FF010008FF010008FF010008FF010008F0
:1000F000FF010008FF010008FF010008FF010008E0
:10010000FF010008FF010008FF010008FF010008CF
:10011000FF010008FF010008FF010008FF010008BF
:10012000FF010008FF010008FF010008FF010008AF
:1001300000F002F800F047F80AA090E8000C8244B2
:100140008344AAF10107DA4501D100F03CF8AFF28F
:10015000090EBAE80F0013F0010F18BFFB1A43F0A5
:100160000103184794330000B4330000103A24BF51
:1001700078C878C1FAD8520724BF30C830C144BF0C
:1001800004680C607047000000230024002500264E
:10019000103A28BF78C1FBD8520728BF30C148BFEA
:1001A0000B607047662903F0DF80002070471FB5A1
:1001B00000F0E8FA04000020002102F02FFFE060C8
:1001C0001FBD10B510BD00F0F9FB1146FFF7EFFFA2
:1001D00002F090FE00F017FC03B4FFF7F2FF03BC3F
:1001E00002F0A9FD0948804709480047FEE7FEE7FD
:1001F000FEE7FEE7FEE7FEE7FEE7FEE7FEE7FEE7D7
:1002000004480549054A064B70470000612800086C
:100210003101000850050020500B0020500700203D
:1002200050070020704700000FB4044910B503AA1E
:10023000029800F095FA10BC5DF814FB1400002041
:100240002DE9F0410E460446002020622046E16878
:10025000884730B3252805D0D4E901219047206A8A
:10026000401CF2E7E168204600278847050018D0C7
:10027000A5F14100192802D820354FF40067324615
:10028000294620462760FFF78DFF40B1012804D0A2
:10029000F61D26F007060836D8E7361DD6E72846AD
:1002A000DAE7206ABDE8F0814FF000020429C0F0CF
:1002B000128010F0030C00F01B80CCF1040CBCF198
:1002C000020F18BF00F8012BA8BF20F8022BA1EBEA
:1002D0000C0100F00DB85FEAC17C24BF00F8012BCF
:1002E00000F8012B48BF00F8012B70474FF00002C7
:1002F00000B5134694469646203922BFA0E80C501C
:10030000A0E80C50B1F12001BFF4F7AF090728BFF6
:10031000A0E80C5048BF0CC05DF804EB890028BF72
:1003200040F8042B08BF704748BF20F8022B11F09B
:10033000804F18BF00F8012B704770477047704717
:10034000704770472DE9FF4F0C461E464FF0FF37B0
:100350008BB0D2E90001DDF860800A908A46C1F3D3
:100360000A5505B93D46002108464FF00000BAF194
:10037000000F00F4400005DA00EB80004FF440016C
:1003800001EA50004FEA9059B9F1010F00DDB9467A
:100390000A9850EA4A000ED044F61050A5F2FF35F4
:1003A00045432F14B8F1000F1ED07542291E1EDDE3
:1003B000C9F100021CE0B8F1010F4FF0000001D0BC
:1003C000302103E0F24305E02154401CB042FBDB46
:1003D00030460022002121540B99C1F80880C1E960
:1003E00000200FB0BDE8F08FBD1B6D1CDEE74A4654
:1003F00000DA694206A800F067FA06AB93E8070046
:1004000003AB83E8070050460A9900F045FB8DE8EE
:100410000700A0F500501F3800900398002D0ADD5A
:1004200042F21F014A460844002303A9039068468C
:1004300000F0AEFD09E0A0F500504A461F38002349
:1004400003A90390684600F0B8FD8DE8070000049A
:10045000000C03D04FF0FF30410800E01046B8F127
:10046000000F03D00022009215461EE0751E05D431
:1004700000F08CF9303262556D1EF9D5B346012279
:10048000084302D000227F1C04E02078302801D1EC
:1004900000227F1E002A099784D01DE0112D07DA63
:1004A00000F074F9303262556D1C50EA0102F5D14A
:1004B000084302D00098C8B10EE00021681E05E094
:1004C000235C625C63542254401E491C8142F7DB6A
:1004D000AB46A81B401E0990002004F80B000B98A7
:1004E000099AC0F80880C0E9002B7AE711264FF07E
:1004F000000857E72DE9F04F88460446D21D22F048
:10050000070191B0D1E90001CDE90A0102F0FFFB3A
:1005100002460B98C00F01D02D2007E0206881070C
:1005200001D52B2002E0202101EAC000032A099016
:1005300001D0072A05DB03464146204600F084F936
:100540000BE12078800601D5E06900E00620B8F1D3
:10055000650F814606D0B8F1660F18D0B8F1670F65
:1005600070D131E00020B9F1110F009001DB1123AF
:1005700001E009F101030AAA01A90CA8FFF7E2FEB4
:10058000DDE90C70002609F10105834647E00120F2
:100590004B4600904FF000470AAA01A90CA8FFF7AC
:1005A000D1FEDDE90DB00C995D46002610B909F1C8
:1005B00001000D18B9EB050003D4C0F1FF3609F1B5
:1005C0000105A5EB09002BE0B9F1010F01DA4FF0AD
:1005D00001090020B9F1110F0090484601DD1123F7
:1005E00000E003460AAA01A90CA8FFF7ABFEDDE96B
:1005F0000C704D4600268346207800070AD4AB4590
:1006000000DA5D4601A8012D04DD411911F8011C35
:10061000302907D04F4502DA17F1040F04DA012020
:1006200082460FE06D1EEEE7002F02DCED1B3E441C
:1006300003E0781CA84200DD7D1CB81B00F1010A14
:100640004FF000472078000703D4AA4501DB4FF0A4
:10065000FF3A0021B7F1004F0DF143088DF8431028
:1006600024D002202B23002F01DA7F422D230A21E0
:10067000021EA0F1010000DC5FB197FBF1FC97FBCB
:10068000F1F201FB1C7C17460CF1300C08F801CD8F
:10069000EEE7A8F1010003702188090501D5452185
:1006A00000E06521A0F1010800F8011C09980FA9DC
:1006B000A1EB0807FF1D00B10120411901EBEA7011
:1006C000A1693844081A401EA0612078C00602D4EF
:1006D0002046AFF30080099828B1D4E90121904762
:1006E000206A401C20622078C00622D52046AFF345
:1006F00000801EE0002E04DBB34502DD01A8805D12
:1007000000E03020D4E901219047206A401C20629B
:10071000761CAAF101005FEA000A0AD100F032F863
:10072000C0680168405CD4E901219047206A401C00
:100730002062281EA5F10105DCDC07E0D4E90121D7
:1007400018F8010B9047206A401C2062381EA7F160
:100750000107F3DC2046AFF30080032011B041E62F
:10076000074B70B50D467B4400F05BF80446284605
:1007700000F01CF910B14FF0FF3070BD204670BD85
:1007800073270000004870471005002030B5B0F115
:100790000A024FEA900E71F100034EEA817EB0EB3F
:1007A0000E0061EB91014FEA101E4EEA017E10EB44
:1007B0000E0041EB11114FEA102E4EEA016E10EBC4
:1007C0000E0041EB11214FEA104E4EEA014E10EBA4
:1007D0000E0041EB1141401841F100014FEAD000F9
:1007E00040EA41704FEAD10110EB80054FEA8104E5
:1007F00044EA907444EB01046D1944EB0404521B69
:10080000A3414FF0000348BF0A3200D530BD401C61
:1008100041F1000130BD000001694A1C0261087805
:10082000704700B58FB0CDE9013100210591054930
:100830007944CDE9031011466846FFF701FD0FB07A
:1008400000BD0000E5FFFFFF2DE9F0411F46044613
:1008500003260168072A01F4006004DB08B116A52D
:1008600005E016A503E008B115A500E015A521F0E7
:1008700010002060A069C01EA0610FB1401EA061E1
:100880002046AFF300804FB1D4E9012138469047AC
:10089000206A401C2062C01C206206E0206AFAE741
:1008A000D4E9012115F8010B9047761EF8D22046B5
:1008B000AFF30080BDE8F0814E414E006E616E00E6
:1008C000494E4600696E66002DE9F047814616469E
:1008D0008AB0354878440DC88DE80D003248784418
:1008E000801C03AC0DC884E80D0041F69B30084421
:1008F000372190FBF1F290FBF1F5A5F1800501FBAA
:1009000012041B3C02D56442012000E00020DFF805
:1009100098A080460027FA44AAF1BE0A0EE0E0073C
:100920000AD03246684607EB470101230AEB8101F2
:1009300000F043FB8DE8070064107F1C002CEED113
:10094000194F7F44AE3F19E0E80715D007EB0410BC
:100950000DF1180A90E80E008AE80E00C068F04217
:1009600001D1981908903246012306A903A800F086
:1009700024FB03AB83E807006D10641C002DE3D15A
:100980004FF0010332466946B8F1000F03A802D0C8
:1009900000F0FEFA01E000F010FBC9E90001C9F81F
:1009A00008200AB0BDE8F087082C0000007B00F0AA
:1009B0008000704700487047F00400207546FFF73C
:1009C000F9FFAE4605006946534620F0070085460C
:1009D00018B020B5FFF714FCBDE820404FF000062A
:1009E0004FF000074FF000084FF0000B21F0070117
:1009F000AC46ACE8C009ACE8C009ACE8C009ACE85A
:100A0000C0098D46704710B50446AFF300802046FC
:100A1000BDE81040FFF7E0BB4FF0013C50F8042B5D
:100A200051F8043B9A4221D1A2EB0C03934313EA01
:100A3000CC1317D150F8042B51F8043B9A4215D12E
:100A4000A2EB0C03934313EACC130BD150F8042B05
:100A500051F8043B9A4209D1A2EB0C03934313EAE9
:100A6000CC13DBD04FF00000704700BFD01A01BAA2
:100A7000B1FA81F101F0180122FA01F0CB40C1F185
:100A80002001DBB2C0B2C01A2CFA01F3D11A914393
:100A900011EAC311E6D170475FEA400C08BF91F03C
:100AA000000F4FEA8C234FEAC12243EA51514FEA2B
:100AB0001C5018BF00F5F0404FEA300018BF41F05D
:100AC00000415FEA6C5C00F02980BCF1FF3F08BF89
:100AD00040F080407047130C06BF12044FF0100C1A
:100AE0004FF0000C130E04BF12020CF1080C130F90
:100AF00004BF12010CF1040C930F04BF92000CF11F
:100B0000020CD30F04BF52000CF1010C11464FF040
:100B10000002A0F11F00A0EB0C00704711F0004F85
:100B200008BF704731F000413FF4D5AF0B0C06BF52
:100B300009044FF0100C4FF0000C0B0E04BF09021B
:100B40000CF1080C0B0F04BF09010CF1040C8B0F06
:100B500004BF89000CF1020CCB0F04BF49000CF15B
:100B6000010CCCF12003A0EB0C0022FA03F302FAF3
:100B70000CF241EA030100F10100704720F07F4CC4
:100B800080EA030023F07F47ACEB070303F57C53B7
:100B900000F0004003F1FF032DE980494FEA154BB7
:100BA00009B44FEA144325EA0B4E24EA03480FF236
:100BB000042606EB132749083E785FEA320203FB5E
:100BC0000667C7F5000707FB06F64FEA54374FEAFA
:100BD000D64606F1020607FB066CCCF1005C4FEA34
:100BE0001C472CEA074C07FB06F40CFB06F504EB4C
:100BF00015464FEA961634BF00204FF000404FEAEA
:100C0000D13706FB07FC4FEA1C4C0CFB0BF7D21B41
:100C100003FB0CF761EB07010CFB0EF7B0EB074091
:100C200072EB17420CFB08F734BFA2EB0742B2EBA2
:100C3000074261EB17414FEA0C444FEA910706FB6C
:100C400007FC4FEA1C4C0CFB0BF7B0EBC74072EBF8
:100C5000573203FB0CF734BFA2EBC742B2EBC742DB
:100C600061EB57310CFB0EF7B0EBC70072EB57721C
:100C70000CFB08F734BFA2EBC702B2EBC70261EB73
:100C80005771039F4FEA816141EA921104EBCC0452
:100C90004FEAD1374FEA826206FB07FC42EA901224
:100CA0004FEA80604FEA1C4C0CFB0BF7D21B03FB96
:100CB0000CF761EB07010CFB0EF7B0EB074072EB92
:100CC00017420CFB08F734BFA2EB0742B2EB074216
:100CD00061EB17414FEA8C554FEA910704EB9C24D6
:100CE00006FB07FC4FEA1C4C0CFB0BF7B0EBC740B4
:100CF00072EB573203FB0CF734BFA2EBC742B2EBE7
:100D0000C74261EB57310CFB0EF7B0EBC70072EB3B
:100D100057720CFB08F734BFA2EBC702B2EBC70255
:100D200061EB577115EB4C254FEA816141EA921155
:100D30004FEA82624FEAD13742EA901206FB07FC83
:100D400044F100044FEA80604FEA1C4C0CFB0BF7A7
:100D5000D21B03FB0CF761EB07010CFB0EF7B0EBAA
:100D6000074072EB17420CFB08F734BFA2EB0742B7
:100D7000B2EB074261EB174115EB1C154FEA8131CD
:100D800041EA92414FEA823242EA90424FEA803091
:100D90004FEA0C7644F1000448EA03434EEA0B485C
:100DA0004FF0000EB2EB080C71EB030724BF624654
:100DB00039464EEB0E0E4FF0000B001852414941E0
:100DC0004BEB0B0BB2EB080C71EB03077BF1000B49
:100DD00024BF624639464EEB0E0E4FF0000B001852
:100DE000524149414BEB0B0BB2EB080C71EB030783
:100DF0007BF1000B24BF624639464EEB0E0E51EAE2
:100E0000020718BF46F0010616EB0E7655F10002F8
:100E100054F1000103D5BDE88901BDE80088BDE8B3
:100E20008901BDE80048B619524141EB0101A3F127
:100E30000103704780807F7E7D7C7B7A797877762E
:100E400076757473727171706F6E6E6D6C6C6B6AA7
:100E50006A69686867666665646463636261616045
:100E6000605F5F5E5E5D5D5C5C5B5B5A5A595958C2
:100E7000585757565655555554545353525252512C
:100E8000515050504F4F4F4E4E4D4D4D4C4C4C4B82
:100E90004B4B4A4A4A4949494848484747474746C9
:100EA0004646454545444444444343434342424205
:100EB00042414141002B9C4630D477002BD01CB5D9
:100EC0004FEA370703B44FF010004FF01001BAF1AA
:100ED000000F06D0BCF1000FDCBF40F0080040F06E
:100EE00008014FF000000FBCBDE810400BF1010BF2
:100EF000BBF1010F08BF5FEA170722BF12F1010221
:100F000011F101014FF0004143F1000300F00040F6
:100F100043EA00007047F9D35708D0E746EA06468F
:100F200013F1400F4FEA16461FDD13F1200FDFBF0C
:100F300016430A46002120335B42BED0C3F120078E
:100F400046EA064602FA07F74FEA164646EA070659
:100F5000C3F1200722FA03F201FA07F721FA03F19D
:100F60004FF0000342EA0702A7E746EA020646EA14
:100F700006464FEA164646EA0106BCBF46EA064662
:100F8000360C4FF000034FF000024FF0000194E7E1
:100F90002DE9804C9A46934670B491E8380007C812
:100FA00031EA400C48BF34EA430C03D5FFF7E6FDB5
:100FB000FFF780FFF0BCBDE8008C2DE9804C9A461D
:100FC000934670B491E8380007C810F0804F08BF0E
:100FD00013F0804F03D100F005F8FFF76BFFF0BC72
:100FE000BDE8008C20F07F4780EA030023F07F4CAF
:100FF00007EB0C03A3F57C5300F00040A3F1FE03C4
:1010000092F0000F00F0B38095F0000F00F07780B1
:101010002DE901494FEA11404FEA144621EA004800
:1010200000FB06FC24EA064708FB06F607FB08F867
:1010300000FB07F718EB06484CEB164C4FEA124B37
:1010400018EB07484FEA15464CEB174022EA0B4EC7
:101050000BFB06FC25EA06470EFB06F607FB0EFE19
:101060000BFB07F71EEB064E4CEB164C4FF0000641
:101070001EEB074E4CEB174B18EB0B0840F1000032
:1010800018EB0E0B58EB000840F100008F1A4FF0E0
:1010900000013CBFC943661B14BFB5EB040C002123
:1010A0003CBFC943F61B4FEA17444EEA8E0E27EAAF
:1010B00004454FEA1C4704FB07622CEA074C05FB7A
:1010C00007F70CFB05F604FB0CFC16EB074642EB9E
:1010D000174216EB0C4642EB1C421BEB060658EB84
:1010E0000202414146EA9E0601D5BDE80189B619D2
:1010F000524141EB0101A3F10103BDE801894FEA2F
:1011000014454FEA114724EA054621EA074C05FB3E
:1011100007F406FB07F70CFB06F105FB0CFC11EBD3
:10112000074144EB17444FEA124711EB0C4144EBE3
:101130001C4422EA074C05FB07F206FB07F70CFBF1
:1011400006F605FB0CFC16EB074642EB174216EBC6
:101150000C4642EB1C456A1854F1000148BF704729
:10116000B619524141EB0101A3F10103704795F01B
:10117000000F37D04FEA11424FEA144721EA0246E6
:1011800024EA074C02FB07F106FB07F70CFB06F409
:1011900002FB0CFC14EB074441EB17414FEA1547E7
:1011A00014EB0C4441EB1C4125EA074C02FB07F50C
:1011B00006FB07F70CFB06F602FB0CFC16EB0746DA
:1011C00045EB174516EB0C4645EB1C42121951F145
:1011D000000148BF7047B619524141EB0101A3F12C
:1011E000010370474FEA14454FEA114724EA0546C8
:1011F00021EA074C05FB07F106FB07F70CFB06F29B
:101200004FF0000605FB0CFC12EB074241EB1741C7
:1012100012EB0C4251EB1C4148BF7047921841EB56
:101220000101A3F1010370472DE9F0411C46154669
:101230000F46064601F052F9304601F01DF901F063
:1012400089F9D8B9384601F017F901F083F901F0AE
:1012500045F946F0010001F00FF901F07BF958B1B2
:101260000CE0012C01D9012000E0002001F0CAF8B7
:10127000641E05F8010BE4B2002CF2D1BDE8F04188
:1012800001F04AB970B514460E46054601F026F93C
:10129000284601F0F1F801F05DF950B9304601F04F
:1012A000EBF801F057F920B9207801F0E5F801F0EA
:1012B00051F9BDE8704001F02FB900002DE9F0416F
:1012C00088B0012027218DF814008DF818101D48D2
:1012D000A0218DF81010816941F0080181618069B9
:1012E000012400F00800079080260227CDE9006461
:1012F000DFF85480CDE902476946404600F022F904
:101300004025CDE90054CDE902476946404600F04A
:1013100019F90D4810300660056005AAF221EC208D
:10132000FFF7B0FF06AAF421EC20FFF7ABFF04AAF9
:10133000F521EC20FFF7A6FF01F018FE08B0BDE88C
:10134000F081000000100240000C01407FB52D4AE2
:10135000111D081D01F0E2FD2A4C303C606B01F0CC
:101360008BFD01F08BFF284D294601F0A5FE606240
:10137000A06B01F031FD01F099FF294601F09CFEC0
:10138000A062206B01F0EEFC01F090FF6FF009010C
:1013900002F01EF8E062A06A01F050FF010A8DF829
:1013A00004108DF80500606A01F054FE02460B46F9
:1013B00016A0FEF739FFA06A01F04CFE02460B466C
:1013C00016A0FEF731FFE06A01F044FE02460B462C
:1013D00016A0FEF729FF42F60104204600F046F869
:1013E00060B901A80090144802232246C188204613
:1013F00001F072F9002001900290039004B00120E6
:1014000070BD0000500000200000C84254454D50FF
:10141000203A202566446567430D0A005052455323
:1014200053203A2025666850610D0A002048554D2A
:10143000203A25660D0A200084020020FEE770B5E0
:1014400000220E46144610B10EB1054609E04FF6D3
:10145000FF7070BD295D90B201F06EFC641C02B299
:10146000A4B2B442F6DB90B270BD00002DE9F047A3
:10147000DFF8AC900126DFF8AC80D9F80010B1F5A8
:10148000004F05D088F8036098F80300BDE8F087A6
:101490002549002788F803700A7ACB7902EB0322EA
:1014A000824233D1A1F5D2750879287188794B79B8
:1014B000444600EB0320E8802A81887A4A7A00EBD0
:1014C00002206881C87A28730C2003E00A5C2B187C
:1014D000401C5A70A0802A7B80B20C328242F5D820
:1014E000297B1148104A0C300D32085C8A5C0C31A3
:1014F00002EB0020A5F8D6000B48FFF7A0FFE08024
:10150000B5F8D610814203D0E67001E088F8036098
:10151000C8210548FEF7EAFEC9F80070B4E70000EC
:101520000C0000201800002028040020704731B56E
:1015300000F004F9044600F001F90099001B88420C
:10154000F9D338BD2DE9F84FDFF8BC91002309F13C
:10155000040A0AF1040B1C464FF00F080BF1040EAD
:1015600001270A68A7403A40BA4272D1DFF89CC10D
:101570004D68A5EB0C0665452BD00DDC032D34D052
:1015800005DC35B3012D19D0022D2FD11BE0112D13
:1015900016D0122D2AD119E0B6F5881F19D006DC15
:1015A000B6F5803F15D0B6F5801F1FD111E0B6F516
:1015B000001F0ED0B6F5041F18D10AE0CB6815E065
:1015C000CB681B1D12E0CB6808330FE0CB680C33EF
:1015D0000CE08B682BB1012B4FF0080303D047615F
:1015E00004E0042302E0076100E00023FF2A01D8A1
:1015F000064601E000F104064FEA840501D9A5F191
:101600002005376808FA05FC27EA0C0703FA05F5F8
:1016100047EA050737604D68ED006ED53C4DAE6971
:1016200046F00106AE61AD6924F0030605F0010540
:101630000095384D7719BE68A5072D0F08FA05FCEF
:1016400026EA0C06DFF8D0C0604503D14FF0000C4D
:1016500025E052E0DFF8C4C0604502D14FF0010C34
:101660001DE0DFF8BCC0604502D14FF0020C16E06F
:10167000DFF8B0C0604502D14FF0030C0FE0DFF897
:10168000A8C0604502D14FF0040C08E0DFF89CC010
:10169000604502D14FF0050C01E04FF0060C0CFA4A
:1016A00005FC4CEA060CC7F808C04D68D9F8006084
:1016B000ED034D4601D5164300E096432E604D687C
:1016C000DAF80060AD03554601D5164300E09643B5
:1016D0002E604D68DBF80060ED025D4601D51643D3
:1016E00000E096432E604D68DEF80060AD0275465E
:1016F00001D5164300E096432E60641C102CFFF4C5
:101700002FAFBDE8F88F0000000401400000111069
:10171000001002400000014000080140000C0140A0
:10172000001001400014014000180140001C01405D
:101730000AB1016170470904FBE700000148006835
:10174000704700000400002002480168491C016045
:101750007047000004000020074810B5016841F000
:1017600010010160032000F047F80F2000F006F898
:1017700000F015F8002010BD0020024010B504460E
:1017800000F00CF94FF47A71B0FBF1F000F049FC75
:1017900000222146501E00F00FF8002010BD7047B7
:1017A00000F01F02012191404009800000F1E0207B
:1017B000C0F8001170470000F0B40E4B1B68C3F373
:1017C0000223C3F10704042C00D904241D1D072D96
:1017D00001D2002300E0DB1E012606FA04F56D1E8F
:1017E0000D409D409E40761E164045EA0601F0BC25
:1017F00000F0DEBE0CED00E0064A00F007011068C4
:101800004FF6FF03184040EA0120034908431060E7
:10181000704700000CED00E00000FA052DE9F047EC
:10182000DFF8688104460E46D8F8000000F0070093
:10183000B0420CD2D8F8001021F007013143C8F8AB
:101840000010D8F8000000F00700B04273D12078F3
:101850004F4F800705D57868A16820F0F000084355
:1018600078602078C00755D06068012201280CD02C
:10187000022828D0022393FAA3F1B1FA81F141F0B2
:101880002001490904D0396803E04FF40033F2E73E
:10189000796A93FAA3F3B3FA83F303F01F039A4030
:1018A000114248D0796821F0030101437960FFF7C4
:1018B00045FF0546606841F2883101280CD00228B6
:1018C000894615D022E04FF00073D4E7FFF736FFCA
:1018D000411B494501D916E089467868C0F381006B
:1018E0000128F3D116E0FFF729FF411B49450AD82B
:1018F0007868C0F381000228F5D10BE0FFF71EFFE6
:10190000411B494502D90320BDE8F087786810F0F3
:101910000C0FF3D1D8F80010404601F00701B14296
:101920000BD9016821F0070131430160006800F024
:101930000700B04201D00120E6E72078400705D536
:101940007868E16820F4E060084378602078000758
:1019500006D57868216920F4605040EAC1007860BB
:1019600000F052F87968F02292FAA2F201F0F00148
:10197000B2FA82F2D140074A515CC8400649086079
:101980000F20FFF7FBFE0020BEE700000020024012
:10199000001002404C34000800000020014800689C
:1019A00070470000000000200848094900684968A5
:1019B0004FF4E06292FAA2F201F4E061B2FA82F22C
:1019C000D140044A515CC84070470000000000202C
:1019D000001002405C340008084809490068496862
:1019E0004FF4605292FAA2F201F46051B2FA82F21C
:1019F000D140044A515CC8407047000000000020FC
:101A0000001002405C34000810B519A085B00FC862
:101A10008DE80F001AA01B4B0068049059681A4803
:101A200001F00C02042A1DD0082A1BD14FF47014B7
:101A300094FAA4F401F47012B4FA84F4E240C903F5
:101A40001DF8022010D559684FF4003393FAA3F320
:101A500001F40031B3FA83F3D94004AB595CB0FB15
:101A6000F1F0504305B010BD08485043FAE70000BC
:101A700002030405060708090A0B0C0D0E0F1010CF
:101A8000010200000010024000127A0000093D002F
:101A90002DE9F84F04460078FE4EC0074FF00105CF
:101AA0007FD070684FF40038C0F38100012807D060
:101AB0007068C0F3810002281BD17068C00318D57C
:101AC00098FAA8F0B0FA80F040F02000400901D068
:101AD000306800E0706A98FAA8F1B1FA81F101F07B
:101AE0001F0105FA01F108425BD06068002879D037
:101AF00057E06068B0F5803F0BD010B1B0F5A02F73
:101B000011D0306820F480303060306820F48020BC
:101B100002E0306840F480303060606818B3FFF74E
:101B20000DFE074609E0306840F480203060F0E7A1
:101B3000FFF704FEC01B642870D898FAA8F0B0FA2A
:101B400080F040F02000400901D0306800E0706A69
:101B500098FAA8F1B1FA81F101F01F0105FA01F13B
:101B60000842E5D01DE0FFF7E9FD074604E0FFF776
:101B7000E5FDC01B6428DFD898FAA8F0B0FA80F021
:101B800040F02000400901D0306800E0706A98FA07
:101B9000A8F1B1FA81F101F01F0105FA01F1084243
:101BA000E5D12078DFF8F08280074FF0000A4FF08F
:101BB00002075AD570684FF0F80B10F00C0F07D0E1
:101BC0007068C0F3810002281CD17068C00319D46A
:101BD00097FAA7F0B0FA80F040F02000400902D058
:101BE000306801E08AE0706A97FAA7F1B1FA81F1F2
:101BF00001F01F0105FA01F108422BD020690128EC
:101C00007CD127E0206988B395FAA5F0B0FA80F07E
:101C100048F82050FFF792FD814606E04DE1FFF7BE
:101C20008DFDA0EB0900022886D897FAA7F0B0FA3C
:101C300080F040F02000400901D0306800E0706A78
:101C400097FAA7F1B1FA81F101F01F0105FA01F14C
:101C50000842E4D030689BFAABF220F0F8016069EA
:101C6000B2FA82F290400143316025E0FFE795FA35
:101C7000A5F1B1FA81F148F821A0FFF75FFD814697
:101C800005E0FFF75BFDA0EB09000228CCD897FA2E
:101C9000A7F0B0FA80F040F02000400901D0306891
:101CA00000E0706A97FAA7F1B1FA81F101F01F0123
:101CB00005FA01F10842E4D1207800076DD5A0694A
:101CC000B8B395FAA5F0B0FA80F008EB8000C0F840
:101CD0008054FFF733FD814605E0FFF72FFDA0EBB1
:101CE00009000228A0D897FAA7F0B0FA80F040F0D7
:101CF0006000B5EB501F02D130680CE063E197FA49
:101D0000A7F0B0FA80F040F06000B7EB501F01D1AF
:101D1000306A00E0706A97FAA7F1B1FA81F101F038
:101D20001F0105FA01F21042D7D00120FFF7FFFB97
:101D300033E0FFE795FAA5F1B1FA81F108EB8101F3
:101D4000C1F880A4FFF7FAFC814605E0FFF7F6FC36
:101D5000A0EB0900022899D897FAA7F0B0FA80F012
:101D600040F06000B5EB501F01D130680BE097FAEE
:101D7000A7F0B0FA80F040F06000B7EB501F01D13F
:101D8000306A00E0706A97FAA7F1B1FA81F101F0C8
:101D90001F0105FA01F21042D8D12078400763D51F
:101DA000F06940F08050F061F069DFF8F0B000F0C9
:101DB00080500090DBF8001041F48071CBF80010E7
:101DC000FFF7BCFC814605E0FFF7B8FCA0EB09007B
:101DD000642872D8DBF80000C005F5D5E06801285A
:101DE0000AD008B1052813D0306A20F00100306213
:101DF000306A20F0040002E0306A40F001003062F6
:101E0000E06841F2883B80B3FFF798FC81460AE026
:101E1000306A40F004003062EEE7FFF78FFCA0EB81
:101E20000901594549D897FAA7F0B0FA80F040F077
:101E30004000B5EB501F01D130680BE097FAA7F0D6
:101E4000B0FA80F040F04000B7EB501F01D1306A8B
:101E500000E0706A97FAA7F1B1FA81F101F01F0270
:101E600005FA02F10842D8D033E0FFE7FFF766FC3D
:101E7000814605E0FFF762FCA0EB090159451CD83B
:101E800097FAA7F0B0FA80F040F04000B5EB501F91
:101E900008D105E0001002400000424200700040FE
:101EA00030680CE097FAA7F0B0FA80F040F04000FC
:101EB000B7EB501F02D1306A01E08AE0706A97FAEE
:101EC000A7F1B1FA81F101F01F0205FA02F108420F
:101ED000D0D1E06998B37168C1F38101022972D051
:101EE00002284FF080714FF0007B50460AD091FAE3
:101EF000A1F1B1FA81F148F82100FFF71FFC044677
:101F00005F4669E08A4691FAA1F1B1FA81F1C146D2
:101F100048F82100FFF712FCA84607465D4604E09A
:101F2000FFF70CFCC01B022853D895FAA5F0B0FAB5
:101F300080F040F02000400902D0306801E060E00D
:101F4000706A95FAA5F1B1FA81F101F01F0208FA61
:101F500002F10842E4D1206AB0F5803F05D17068F3
:101F6000A16820F4003008437060D4E908010843F8
:101F7000716821F47411084370609AFAAAF0B0FAFB
:101F800080F0474649F82080FFF7D8FB044604E07C
:101F9000FFF7D4FB001B02281BD895FAA5F0B0FA76
:101FA00080F040F02000400901D0306800E0706A05
:101FB00095FAA5F1B1FA81F101F01F0107FA01F1DB
:101FC0000842E5D01DE01EE0FFF7B8FB001B022829
:101FD00002D90320BDE8F88F97FAA7F0B0FA80F095
:101FE00040F02000400901D0306800E0706A97FAA4
:101FF000A7F1B1FA81F101F01F0105FA01F10842E0
:10200000E2D10020E6E70120E4E74FF0E0210428D8
:10201000086903D020F004000861704740F0040014
:10202000FAE710B5401EB0F1807F01D3012010BD4A
:102030004FF0E02460610F21601700F0B9FA002032
:10204000A06107202061002010BD704738B504460C
:1020500000680168C268C1F3000102F4807221B116
:102060001AB1E16B41F00101E1630168C1F3400283
:10207000416901F0010122B119B1E26B42F00402A1
:10208000E2630268C2F3800222B119B1E26B42F04E
:102090000202E2630268C2F3C00222B119B1E16B2D
:1020A00041F00801E1630168C068C1F3401100F02C
:1020B000200019B110B1204600F050FC20680168E2
:1020C000C068C1F3C01100F0800019B110B1204602
:1020D00000F050FD21680868CA68C0F3801002F063
:1020E0004002012568B162B1CA68204622F0400270
:1020F000CA6094F83910322910D080F8395000F0B5
:1021000046F9E06B002808D020680168406800901C
:1021100084F839502046FFF798FF38BD222180F817
:102120003910ECE770B5040004D094F839000025AC
:1021300010B106E0012070BD84F83850204600F050
:1021400021F8022084F839002068C16821F4005188
:10215000C160204600F056FC2068016921F49041DE
:1021600001612068416921F02A0141612068C1684C
:1021700041F40051C160E563012084F8390000207A
:1021800070BD0000F0B50068304F002530490222D4
:10219000012303262F4C85B0B8422CD1886940F02A
:1021A00004008861886900F004000490886940F4A4
:1021B00080408861886900F480400490886940F01C
:1021C00001008861886900F00100049048158DE8DD
:1021D0004D0069462046FFF7B5F92115CDE90015F8
:1021E00069462046FFF7AEF92520FFF7D9FA01220C
:1021F0001146252026E0184FB84225D1886940F0C5
:1022000004008861886900F004000490C86940F403
:102210000030C861C869694600F4003004900420A9
:102220008DE84D002046FFF78DF90821CDE9001516
:1022300069462046FFF786F92620FFF7B1FA022209
:1022400001212620FFF7B8FA05B0F0BD00380140A3
:1022500000100240000801400044004090F839306E
:10226000012B01D0122B2BD131B32AB390F8383087
:10227000012B25D0012380F8383081628285C28508
:102280000021C16390F83920122A17D0222280F849
:10229000392080F838100168CA6842F48072CA6038
:1022A00001684A6942F001024A610068C16841F070
:1022B0002001C16000207047012070473222E6E70C
:1022C0000220704770472DE9F047044690F8390026
:1022D00099460D46012801D0222856D125B31AB3BC
:1022E00094F83800012850D0012684F8386000277F
:1022F000E76394F83900222819D0122084F83900B5
:10230000A284E2844FF48058E08C4B46401EE08467
:10231000A0684FF0000240454FF08001204613D1E5
:1023200000F05BFC08BB04E00120BDE8F087322030
:10233000E4E728882168C0F308004860206908B1F4
:102340006D1C08E0AD1C06E000F047FC68B9216890
:1023500015F8010B4860E08C0028D5D14B460022CF
:102360004021204600F039FC08B10320DDE794F855
:102370003900322805D084F8396084F8387000209C
:10238000D3E7222084F83900F7E70220CDE7704731
:10239000FEE7000070B50C4C402525600A48143853
:1023A000016821F070410160016841F04051016015
:1023B00080202060022000F087FD201F05600220A1
:1023C00000F082FD256070BD140C014070B50C4E0C
:1023D000402434600A481438016821F070410160DB
:1023E000016841F0405101608020351F28600220C3
:1023F00000F06AFD2C60022000F066FD346070BDC4
:10240000140C01402DE9F04782461A480024016867
:1024100021F070410160016841F000410160154FF9
:102420004026DFF8509014372546A7F1040809F13B
:1024300008093E60022000F047FDC8F80060600611
:10244000040ED9F80000000601D5641CE4B2012096
:1024500000F03AFD6D1CEDB2082DEAD3BAF1000F81
:1024600004D0FFF797FF2046BDE8F087FFF7AEFFE7
:10247000F9E70000000C01402DE9F0470546164839
:10248000016821F070410160016841F04051016034
:10249000114E40271436376000244FF08009A6F112
:1024A00004082806484602D5C8F8000000E030605D
:1024B0006806050E022000F007FDC8F80070022033
:1024C00000F002FD3760022000F0FEFC641CE4B264
:1024D000082CE6D3BDE8F087000C014070B50D482C
:1024E000016821F070410160016841F040510160D4
:1024F000084880261030066040250560042000F062
:10250000E3FC044C14342660042000F0DDFC25605C
:1025100070BD0000000C014070B50D48016821F04D
:1025200070410160016841F0405101600848402657
:102530001430066080250560042000F0C5FC044CC2
:1025400010342660042000F0BFFC256070BD000040
:10255000000C014070B514480024016821F070415E
:102560000160016841F0004101600F4E802010368B
:102570003060012000F0A8FC40253560012000F00B
:10258000A3FC0948083007E0641CE4B2FA2C03D924
:10259000FFF7C2FF012070BD01680906F4D40248AC
:1025A00014300560002070BD000C0140FEE770474C
:1025B0000907090E002806DA00F00F0000F1E020FC
:1025C00080F8141D704700F1E02080F80014704777
:1025D0007047000030B5104885B0816941F00401B2
:1025E000816180694FF4807400F004000490012040
:1025F000CDE900400220094D039069462846FEF7C8
:10260000A1FF002221462846FFF792F800F0D6F8F5
:1026100000F04EF905B030BD001002400008014046
:10262000F0B52A49012503264A78294F0023294C71
:102630004FF0020CE12803D1042A01D24D7012E0C0
:10264000012A04D0022A07D0032A09D00AE0E2288E
:1026500008D181F801C006E0E32803D14E7002E002
:10266000E42817D04B708A78002A1DD02268C72A28
:1026700002D90B708B7023602268B854521C226000
:10268000EA2810D00A78012A0FD0022A12D0032A91
:1026900014D019E0E1223A70E2227A70E322BA7093
:1026A00026608D70E8E70D70F0BDEB280CD181F845
:1026B00000C0F0BDEC2807D10E70F0BDED2803D1AD
:1026C0004FF4004020608B700B70F0BD18000020AC
:1026D000280400200C0000202DE9F0411E4613467E
:1026E0002C4F069A0D46002404F1E1013955641C73
:1026F000A4B2042CF8D3284C2179FF2901D300215E
:102700002171C9B23971491C2171010A7971B871FD
:10271000280AF8713D72180A7872BB72FE720C209A
:1027200006F10C0105E0131813F80C3C3B54401C57
:1027300080B28842F7D31748FEF781FEA4F8D6008E
:10274000020AB91906F10E050A7348732C1D04E03C
:10275000A81BDC3078556D1CADB2A542F8D3012220
:102760000E4E150229463046FEF7E2FF052000F026
:1027700019F84FF47A73224606490948FFF7A3FD7A
:10278000052000F00FF829463046BDE8F041002250
:10279000FEF7CEBF60030020A80100200008014022
:1027A0006000002000224FF4165304E00021491C71
:1027B0009942FCD3521C8242F8D3704770B50B4C3F
:1027C0000948002520602571E580258165812573F4
:1027D000C82104F10D00FDF767FDA4F8D6500448A8
:1027E000C4F8D80070BD0000E4E3E2E184020020F8
:1027F000EDECEBEA7047FEF7A7BF30B58FB00224CF
:102800000120049000941020059000254FF46010E2
:10281000CDE9085007946846FFF73AF900B1FEE7A2
:102820000AA90F2081E831004FF48060CDE90D0541
:1028300002210AA8FEF7F2FF00B1FEE7FFF7AEF8AB
:102840004FF47A71B0FBF1F0FFF7EBFB0420FFF7D8
:10285000DCFB00221146501EFEF7AEFF0FB030BD6C
:102860000F4810B5016841F00101016041680D4A4F
:102870001140416001680C4A11400160016821F477
:1028800080210160416821F4FE0141604FF41F0185
:102890008160FFF7B2FF05494FF00060086010BD8E
:1028A000001002400000FFF8FFFFF6FE08ED00E018
:1028B00070B50B4C0948002520602571E580258105
:1028C00065812573C82104F10D00FDF7EDFCA4F826
:1028D000D6500448C4F8D80070BD0000E4E3E2E13B
:1028E000A8010020EDECEBEA0B4910B5094AC1E95B
:1028F000002000208860C860086188610C20486161
:102900000846FFF70FFCBDE81040012203490248CA
:10291000FFF7A4BC0038014060000020090000203F
:102920000C4910B50A4AC1E9002000208860C8603F
:102930000C220861C1E90520C8610846FFF7F2FBD7
:10294000BDE81040012204490248FFF787BC00009F
:1029500000440040680100200A00002010B590F8F3
:102960003910222903D0322901D0022010BD8168FC
:10297000B1F5805F11D00169002901681FD0496855
:1029800001F07F03816A4A1C82620B70C18D491E6F
:102990000904090CC18518D02FE00269816A002A58
:1029A0000268526805D0D2B20A80816A491C8162ED
:1029B000ECE7C2F308020A80816A891CF7E74A68DB
:1029C000816A4B1C83620A70E0E70168CA6822F0E2
:1029D0002002CA6090F83910322910D00168CA6804
:1029E00022F48072CA6001684A6922F001024A61D9
:1029F000012180F83910FFF765FC002010BD12217D
:102A0000F7E700002DE9F041044600680169E2683B
:102A100021F4405111430161A168206901436069BB
:102A200001432068C26841F20C639A430A43C260C2
:102A300020684169A26921F44071114341614C4908
:102A400020686426322788423CD1FEF7C5FF00EBA0
:102A5000C00101EB001061688900B0FBF1F5FEF7E1
:102A6000BBFF00EBC00101EB00106168B8468900B4
:102A7000B0FBF1F0B0FBF6F06FF01801484305EB46
:102A8000800107EB0110B0FBF6F000F0F005FEF757
:102A9000A3FF00EBC00101EB001061688900B0FBEF
:102AA000F1F0B0FBF6F005EB0015FEF795FF00EB3B
:102AB000C00101EB001061688900B0FBF1F7FEF77F
:102AC0008BFF3BE0FEF770FF00EBC00101EB001055
:102AD00061688900B0FBF1F5FEF766FF00EBC0010D
:102AE00001EB00106168B8468900B0FBF1F0B0FB63
:102AF000F6F06FF01801484305EB800107EB011079
:102B0000B0FBF6F000F0F005FEF74EFF00EBC00161
:102B100001EB001061688900B0FBF1F0B0FBF6F04A
:102B200005EB0015FEF740FF00EBC00101EB0010C4
:102B300061688900B0FBF1F7FEF736FF00EBC001DA
:102B400001EB001061688900B0FBF1F0B0FBF6F01A
:102B50006FF01801484307EB800108EB0110B0FB50
:102B6000F6F0216800F00F0028448860BDE8F0818D
:102B70000038014090F83910122903D0322901D0D1
:102B8000022070478168B1F5805F016A0BD04A1C52
:102B90000262026809785160C18C491E0904090C5F
:102BA000C1840ED017E009880268C1F308015160A2
:102BB00001690029016A02D0491C0162ECE7891C05
:102BC000FBE70168CA6822F08002CA600068C16839
:102BD00041F04001C160002070472DE9F0471D46DB
:102BE00090460F460446FEF7A9FD06465FEA080038
:102BF0004FF000094FF0010808D030E0681C05D004
:102C000095B1FEF79BFD801BA8420DD82068006897
:102C100037EA0000F2D127E0681C20D025B1FEF78A
:102C20008DFD801BA8421AD92068C16821F080015F
:102C3000C1602068C16821F02001C1602068C168BE
:102C400021F48071C1602068416921F00101416176
:102C500084F8398084F838900320BDE8F087206834
:102C6000006837EA0000D7D00020F6E70B4810B51F
:102C700000680068C04380060AD409480068094912
:102C8000C0B208704968B1F5004F01D0FFF7C8FC29
:102C9000BDE810400148FFF7D9B9000060000020EE
:102CA0000438014008000020154830B4006800686E
:102CB000C04380061BD413480068134AC1B2906811
:102CC000030414D444044FF0000304D50A290DD1A1
:102CD00040F4004011E00D290DD0094DC0F30D0462
:102CE000C83D401C29559060C72800D9936030BC6E
:102CF0000348FFF7ABB940F480409060F7E700006D
:102D0000680100200444004008000020FEE749005C
:102D100050EAC12018BF04204A0D18BF40F001003E
:102D200040F2FF72B2EB515F08BF40F00200012891
:102D300008BF05207047704710B580EA01200022C7
:102D400041F221034FF6FF71040403D583EA4000EA
:102D500080B201E001EA4000521C92B2082AF3D38B
:102D600010BD00001B4910B5CB8B8003A0EB0350B6
:102D7000CA6BB1F92030A2F5963203FB120091F92B
:102D8000023091F90140534362434FF400449B12D7
:102D900004EBE2225343A20102EBA322B1F91C305F
:102DA00000F580405A4302F50052C013921350437D
:102DB000C213524391F90010D2114A43B0EB2210D2
:102DC00000D500204FF0C851884200DD08460013AE
:102DD00010BD00002000002030B52549254BCA6BEE
:102DE000B1F9145003EB620293105B43DC126C43A5
:102DF000B1F912505B13554304EB45040D8AA4103E
:102E000004EB0544B1F90E506B43DD10B1F90C3001
:102E1000534305EB630292144B8902F500425A4377
:102E2000D2130DD0C0F58010A0EB243040F635430E
:102E30005843B0F1004F05D24000B0FBF2F004E07F
:102E4000002030BDB0FBF2F04000C2085243B1F99F
:102E50001A30520B5A43B1F91840121383086343D6
:102E6000B1F9161002EB6332114400EB211030BDB2
:102E7000200000200006FFFF0C4A10B59188C31007
:102E8000A3EB4103C1EB2010B2F906404043B2F975
:102E9000081063430013DB12484303EBA030D063F8
:102EA00000EB80008030001210BD000020000020E8
:102EB00000224FF4165304E00021491C9942FCD330
:102EC000521C8242F8D37047002204E00021491CC2
:102ED0000A29FCD3521C8242F8D3704704490A687D
:102EE0005206FCD5024AC1B2121D116070470000A3
:102EF00000440040FEF730FCFFF76CFBFEF7DEF904
:102F00004FF4E1342046FFF7EFFC2046FFF708FDC1
:102F1000FEF71CFA6420FFF7CBFFF9E77CB51646F5
:102F20000D46044608236A46F721EC20FEF77CF99B
:102F30009DF800009DF8021002039DF8010042EA8E
:102F4000001040EA111020609DF803009DF8041065
:102F5000000340EA01109DF8051040EA11102860B6
:102F6000BDF8060040BA30607CBD000000B589B0F5
:102F700018236A468821EC20FEF756F90123A12187
:102F8000EC2006AAFEF750F90723E121EC200DF111
:102F90001902FEF749F92048BDF800108180BDF8FC
:102FA0000210C180BDF804100181BDF806104181F6
:102FB000BDF808108181BDF80A10C181BDF80C1060
:102FC0000182BDF80E104182BDF810108182BDF85B
:102FD0001210C182BDF814100183BDF81610418390
:102FE0009DF818100170BDF8191081839DF81B1011
:102FF00041709DF81D109DF81C300A4663F31F12A6
:10300000C2839DF81E20120142EA111101849DF82D
:103010001F10817009B000BD2000002010B50029EC
:103020000AD00878002807D005487844FDF7F4FC5A
:10303000002801D0002010BD0248784410BD0000D7
:10304000EE040000E60400000808A0F500114FEAB5
:103050003101704743004FEAD30C4FEA3C0C434028
:103060001FBF40070CF1605113F0FE4F70471CF07A
:10307000006F03D100200CF0004170470CF00043BA
:1030800043EA507010B540EACC0000F022F900BFCE
:10309000000000924FEA0001FFF7D6BF4FF0004159
:1030A0004FF00000A1F5002170470000014800F03A
:1030B0005DB900BF0000C07F4FF47F0C1CEAD01246
:1030C0001EBF1CEAD11392EA0C0F93EA0C0F00F01A
:1030D000858090EA010F48BF42F4807240F4000CF2
:1030E00041F400002CF07F4120F07F4000B5814288
:1030F000A2EB03020FF2081CACEB504EC0F1000033
:103100009EF800E04FEA4E0E00FB0EFC38BF49006F
:103110004FEA2C1C02F5FA020CFB0EF34FEACE1E0E
:103120004FEA112C4FEAC1210EEB635E42EB2242C3
:103130000EFB0CFC4FEA1C5300FB03114FEA112C51
:103140004FEA01310EFB0CFC4FEADC4C00FB0C118A
:10315000C14228BF09184CEB03335DF804EB10EBB8
:10316000410143EBC250B2F57C0F38BF704729D5FF
:1031700012F0F00F1CBF00F1C04000F0004070479B
:10318000008182838485868788898B8C8D8E8F9140
:103190009293959697999A9C9D9FA0A2A3A5A7A864
:1031A000AAACAEB0B2B3B5B7B9BCBEC0C2C5C7C990
:1031B000CCCED1D4D7D9DCDFE2E6E9ECF0F3F7FAF4
:1031C000FE0000004FEA400C0CF1807CBCF17E4F09
:1031D00028BF7047B0F1C04000F0C1B890EA010FBD
:1031E0000CEAD11348BF42F48072624538BF634590
:1031F00007D213F47F0F16D080EA010000F00040E0
:10320000704710B500F065F8097EFC3E00F005B887
:1032100080EA010000F00040704780EA010000F001
:10322000004000F09CB812F47F0F04BF02487047C2
:1032300080EA010000F093B80000C07FC10DD1F119
:103240009E0206DB4FEA002343F0004323FA02F01C
:103250007047004207D54FEA4001B1F1FE4F02D25C
:103260004FF00000704710B500F033F84992248009
:10327000002070476FEA20007047000010F0004106
:1032800048BF4042B0FA80F310FA03F2C3F19D0345
:103290000BD051EAC35101EB1220530638BF7047DF
:1032A00000F1010008BF20F001007047B0FA80F380
:1032B00010FA03F2C3F19D030AD0D90501EB1220E5
:1032C000530638BF704700F1010008BF20F001002D
:1032D00070470EF1020E2EF0030E5EF8044B2442EE
:1032E00004D44FEA4102B2F17F4F11D84FEA4003B4
:1032F000B3F17F4F0CD80ED14FEAD07CB2F17F4FA3
:103300000CEB4C0C0CF1020C08BF4CEBD17C04E034
:103310004FF0080C01E04FEAD17C0CEB4C0324FA8F
:1033200003F404F00704B4F1040C06D20EEB840C91
:10333000BDE810404CF0010C6047DFE80CF00708D6
:1033400002024FF00040A0F5800010BD0846420088
:1033500018BFD2F1807288BF00F0004010BDFF217D
:1033600041EAD050C0057047FDF7C4B80CF00F0318
:10337000092B08BF082000F051800A2B0BD0082B26
:1033800018BF704708BF1CF0400F0AD04FF0000074
:103390004FF0000170471CF0400F18BF4FF0004085
:1033A00070471CF0100F08D020F0704300F07F42EF
:1033B00042EAD3014FEA4370704700F0604021F0C9
:1033C0007F4242EA000201F07F4040EA727070479B
:1033D0004FF0FF0212EAD0521CBF92F0FF038B4263
:1033E000C2BFD14200EBC1507047002A0AD0002B67
:1033F0000BD0002900F00040A4BF40F0FE4040F494
:103400000000704700F00040704743024FF00B0C83
:1034100018BF4CF0806C7FF449AE70471CF4801FDD
:1034200011D01CF4E02F03D06FEACC314900704773
:103430004FF04050EFF3008222F0704242EA000267
:1034400082F3008870474FF00000704700000000D2
:103450000000000001020304060708090000000044
:103460000102030402400000000000A00000000070
:1034700005400000000000C8000000000C400000F3
:103480000000409C00000000194000000020BCBE6D
:103490000000000034400000BFC91B8E0000000483
:1034A000B5400000504BCFD06607E2CF01000000CE
:1034B0006C4100003E8251AADFEEA73401000000FB
:1034C000D9420000DCB5A0E23A301F97FFFFFFFFB2
:1034D000B4450000FD25A0C8E9A3C14FFFFFFFFFD1
:1034E000FF3F00000000008000000000FF3F0000E0
:1034F00000000080000000003435000800000020BB
:10350000600000006C010008943500086000002095
:10351000F00A0000880100081C00000043000000C1
:10352000F8FFFFFF0C0000000E0000000F0000007D
:103530002E0000000090D0030000000000000000FA
:10354000000000000000000000000000000000007B
:10355000000000000000000000000000000000006B
:10356000000000000000000000000000000000005B
:10357000000000000000000000000000000000004B
:10358000000000000000000000000000000000003B
:043590000000000037
:0400000508000131BD
:00000001FF
