:020000040000FA
:030000000200DB20
:10007B0002021600000080FB12010BB90003020004
:10008B00C5E4900200780379018002F0A3D8FCD973
:10009B00FA900202AA82AB8390010E780B79018051
:1000AB0015E493A3AC82AD838A828B83F0A3AA82DF
:1000BB00AB838C828D83D8E9D9E77582B1758305C3
:1000CB0074001200ED75827E75830074001200EDD2
:1000DB0075D0007581BF751000751102759F0002F8
:1000EB000083C09FF59FE473D09F22D083D082C042
:1000FB009FE493C0E0740193C0E0740293F59F22D8
:10010B007901220101F4010000010000001200F648
:10011B006706001200F6A504001200F6B6040012E2
:10012B0000F63802001200F64C02001200F68F04A3
:10013B00001200F60F06001200F6580600C3E796F1
:10014B000809E7960809E7960809E79622E0FAA35B
:10015B00E0FBA3E0FCA3E0FD222510C582C0E0E597
:10016B001134FFC583C0E0E510C3958224F810AFAE
:10017B00088583118582108008858311858210D2B2
:10018B00AFCEF0A3E520F0A37808E608F0A3DEFAE3
:10019B00EFF0A3E58124FAF8E608F0A3E608F0A354
:1001AB00E608F0A30808E608F0A3E608F0A315811B
:1001BB001581D0E0FED0E0F8158115811581E8C0DE
:1001CB00E0EEC0E022851183851082E0A3FEE0A360
:1001DB00F5207808E0A3F608DFFAE0A3FFE0A3C060
:1001EB00E0E0A3C0E0E0A3C0E0E0A3C0E0E0A3C078
:1001FB00E010AF08858210858311800885821085F9
:10020B008311D2AFD083D0820200F3C0E0C0D0C044
:10021B0082C083900202E060069002027400F053E9
:10022B008ADFC2EBD083D082D0D0D0E032C082C084
:10023B008343FF01120136120130D083D0820200BA
:10024B00F3D2A0D2A0D2A0D2A0C2A0C2A0C2A0C200
:10025B00A0C2A0C2A0C2A0C2A0D2A0D2A0D2A0D243
:10026B00A0C2A0C2A0C2A0C2A0C2A0C2A0C2A0C273
:10027B00A0D2A0D2A0D2A0D2A0C2A0C2A0C2A0C223
:10028B00A0C2A0C2A0C2A0C2A0D2A0D2A0D2A0D213
:10029B00A0C2A0C2A0C2A0C2A0C2A0C2A0C2A0C243
:1002AB00A0D2A0D2A0D2A0D2A0C2A0C2A0C2A0C2F3
:1002BB00A0C2A0C2A0C2A0C2A0D2A0D2A0D2A0D2E3
:1002CB00A0C2A0C2A0C2A0C2A0C2A0C2A0C2A0C213
:1002DB00A0D2A0D2A0D2A0D2A0C2A0C2A0C2A0C2C3
:1002EB00A0C2A0C2A0C2A0C2A0D2A0D2A0D2A0D2B3
:1002FB00A0C2A0C2A0C2A0C2A0C2A0C2A0C2A0C2E3
:10030B00A0D2A0D2A0D2A0D2A0C2A0C2A0C2A0C292
:10031B00A0C2A0C2A0C2A0C2A0D2A0D2A0D2A0D282
:10032B00A0C2A0C2A0C2A0C2A0C2A0C2A0C2A0C2B2
:10033B00A0D2A0D2A0D2A0D2A0C2A0C2A0C2A0C262
:10034B00A0C2A0C2A0C2A0C2A0D2A0D2A0D2A0D252
:10035B00A0C2A0C2A0C2A0C2A0C2A0C2A0C2A0C282
:10036B00A0D2A0D2A0D2A0D2A0C2A0C2A0C2A0C232
:10037B00A0C2A0C2A0C2A0C2A0D2A0D2A0D2A0D222
:10038B00A0C2A0C2A0C2A0C2A0C2A0C2A0C2A0C252
:10039B00A0D2A0D2A0D2A0D2A0C2A0C2A0C2A0C202
:1003AB00A0C2A0C2A0C2A0C2A0D2A0D2A0D2A0D2F2
:1003BB00A0C2A0C2A0C2A0C2A0C2A0C2A0C2A0C222
:1003CB00A0D2A0D2A0D2A0D2A0D2A0D2A0D2A0D292
:1003DB00A0C2A0C2A0C2A0C2A0D2A0D2A0D2A0D2C2
:1003EB00A0D2A0D2A0D2A0D2A0C2A0C2A0C2A0C2B2
:1003FB00A0D2A0D2A0D2A0D2A0D2A0D2A0D2A0D262
:10040B00A0C2A0C2A0C2A0C2A0D2A0D2A0D2A0D291
:10041B00A0D2A0D2A0D2A0D2A0C2A0C2A0C2A0C281
:10042B00A0D2A0D2A0D2A0D2A0D2A0D2A0D2A0D231
:10043B00A0C2A0C2A0C2A0C2A0D2A0D2A0D2A0D261
:10044B00A0D2A0D2A0D2A0D2A0C2A0C2A0C2A0C251
:10045B00A0D2A0D2A0D2A0D2A0D2A0D2A0D2A0D201
:10046B00A0C2A0C2A0C2A0C2A0D2A0D2A0D2A0D231
:10047B00A0D2A0D2A0D2A0D2A0C2A0C2A0C2A0C221
:10048B00A00200F3C082C083C2A0900208120158E0
:10049B0012013CD083D0820200F343FD0C43FEC01B
:1004AB00D282D283D296D2970200F374F7120164F0
:1004BB00EAFEEBFF900203E014600F14604314603C
:1004CB00761470030205780205ACC2829002081202
:1004DB00015812013C900200E02401F0A3E034002B
:1004EB00F0900200C3E09EA3E09F4012D2829002E4
:1004FB00037402F09002007400F0A37400F0020584
:10050B00ACC28390020812015812013C900200E029
:10051B002401F0A3E03400F0900200C3E09EA3E0BE
:10052B009F407ED2839002037403F090020074000C
:10053B00F0A37400F0806AC297900208120158125F
:10054B00013C900200E02401F0A3E03400F09002A3
:10055B0000C3E09EA3E09F4048D29790020374042F
:10056B00F09002007400F0A37400F08034C29690F7
:10057B00020812015812013C900200E02401F0A382
:10058B00E03400F0900200C3E09EA3E09F4012D243
:10059B00969002037401F09002007400F0A37400B3
:1005AB00F07F010201D012014212011E120118123A
:1005BB00012A8041C282C283C296C2979002041262
:1005CB00015812013CD282D283D296D29790020468
:1005DB0012015812013CC282C283C296C29790028A
:1005EB000412015812013CD282D283D296D2979038
:1005FB0002027401F0900202E060B97AF47B0112FE
:10060B00012480F174F01201648A0C8B0D8C0E8D19
:10061B000F7A007B008019E82401F8E93400F9C354
:10062B00E89417E9940240EFEA2401FAEB3400FB5B
:10063B008A088B09E4F50AF50B780C790812014846
:10064B0050067800790080D77F080201D053C6BFCF
:10065B00E59EA2E640FA53C6B80200F3439A104354
:0A066B008D20438C20D2AF0200F373
:04000005000000DB1C
:00000001FF
