:020000040000FA
:030000000200AB50
:10004B000201E500000080FB1200DBB90003020097
:10005B0095E4900200780579018002F0A3D8FCD9D1
:10006B00FA900204AA82AB839000DE780A790180B1
:10007B0015E493A3AC82AD838A828B83F0A3AA820F
:10008B00AB838C828D83D8E9D9E775827E75830526
:10009B0074001200BD75824E75830074001200BD92
:1000AB0075D0007581BF751000751102759F000228
:1000BB000053C09FF59FE473D09F22D083D082C0A2
:1000CB009FE493C0E0740193C0E0740293F59F2208
:1000DB0079012201F4010000010000001200C67238
:1000EB0004001200C68304001200C60502001200B1
:1000FB00C61902001200C65C04001200C63D0600C1
:10010B001200C6E505001200C62E0600C3E79608CE
:10011B0009E7960809E7960809E79622E0FAA3E0B3
:10012B00FBA3E0FCA3E0FD222510C582C0E0E51196
:10013B0034FFC583C0E0E510C3958224F810AF08E7
:10014B008583118582108008858311858210D2AF3B
:10015B00CEF0A3E520F0A37808E608F0A3DEFAEFD3
:10016B00F0A3E58124FAF8E608F0A3E608F0A3E68D
:10017B0008F0A30808E608F0A3E608F0A31581151C
:10018B0081D0E0FED0E0F8158115811581E8C0E043
:10019B00EEC0E022851183851082E0A3FEE0A3F57B
:1001AB00207808E0A3F608DFFAE0A3FFE0A3C0E0A5
:1001BB00E0A3C0E0E0A3C0E0E0A3C0E0E0A3C0E0A8
:1001CB0010AF088582108583118008858210858386
:1001DB0011D2AFD083D0820200C3C0E0C0D0C082A6
:1001EB00C08353AFFE900202E02401F0A3E0340081
:1001FB00F0D083D082D0D0D0E032C082C08343FF16
:10020B00011200FF1200F9D083D0820200C3D2A0EA
:10021B00D2A0D2A0D2A0C2A0C2A0C2A0C2A0C2A093
:10022B00C2A0C2A0C2A0D2A0D2A0D2A0D2A0C2A073
:10023B00C2A0C2A0C2A0C2A0C2A0C2A0C2A0D2A093
:10024B00D2A0D2A0D2A0C2A0C2A0C2A0C2A0C2A063
:10025B00C2A0C2A0C2A0D2A0D2A0D2A0D2A0C2A043
:10026B00C2A0C2A0C2A0C2A0C2A0C2A0C2A0D2A063
:10027B00D2A0D2A0D2A0C2A0C2A0C2A0C2A0C2A033
:10028B00C2A0C2A0C2A0D2A0D2A0D2A0D2A0C2A013
:10029B00C2A0C2A0C2A0C2A0C2A0C2A0C2A0D2A033
:1002AB00D2A0D2A0D2A0C2A0C2A0C2A0C2A0C2A003
:1002BB00C2A0C2A0C2A0D2A0D2A0D2A0D2A0C2A0E3
:1002CB00C2A0C2A0C2A0C2A0C2A0C2A0C2A0D2A003
:1002DB00D2A0D2A0D2A0C2A0C2A0C2A0C2A0C2A0D3
:1002EB00C2A0C2A0C2A0D2A0D2A0D2A0D2A0C2A0B3
:1002FB00C2A0C2A0C2A0C2A0C2A0C2A0C2A0D2A0D3
:10030B00D2A0D2A0D2A0C2A0C2A0C2A0C2A0C2A0A2
:10031B00C2A0C2A0C2A0D2A0D2A0D2A0D2A0C2A082
:10032B00C2A0C2A0C2A0C2A0C2A0C2A0C2A0D2A0A2
:10033B00D2A0D2A0D2A0C2A0C2A0C2A0C2A0C2A072
:10034B00C2A0C2A0C2A0D2A0D2A0D2A0D2A0C2A052
:10035B00C2A0C2A0C2A0C2A0C2A0C2A0C2A0D2A072
:10036B00D2A0D2A0D2A0C2A0C2A0C2A0C2A0C2A042
:10037B00C2A0C2A0C2A0D2A0D2A0D2A0D2A0C2A022
:10038B00C2A0C2A0C2A0C2A0C2A0C2A0C2A0D2A042
:10039B00D2A0D2A0D2A0D2A0D2A0D2A0D2A0C2A0D2
:1003AB00C2A0C2A0C2A0D2A0D2A0D2A0D2A0D2A0E2
:1003BB00D2A0D2A0D2A0C2A0C2A0C2A0C2A0D2A0E2
:1003CB00D2A0D2A0D2A0D2A0D2A0D2A0D2A0C2A0A2
:1003DB00C2A0C2A0C2A0D2A0D2A0D2A0D2A0D2A0B2
:1003EB00D2A0D2A0D2A0C2A0C2A0C2A0C2A0D2A0B2
:1003FB00D2A0D2A0D2A0D2A0D2A0D2A0D2A0C2A072
:10040B00C2A0C2A0C2A0D2A0D2A0D2A0D2A0D2A081
:10041B00D2A0D2A0D2A0C2A0C2A0C2A0C2A0D2A081
:10042B00D2A0D2A0D2A0D2A0D2A0D2A0D2A0C2A041
:10043B00C2A0C2A0C2A0D2A0D2A0D2A0D2A0D2A051
:10044B00D2A0D2A0D2A0C2A0C2A0C2A0C2A00200C1
:10045B00C3C082C083C2A090020912012712010BF4
:10046B00D083D0820200C343FD0C43FEC0D282D2A4
:10047B0083D296D2970200C374F7120133EAFEEBD4
:10048B00FF900204E014600F146043146076147044
:10049B0003020545020579C2829002091201271257
:1004AB00010B900200E02401F0A3E03400F0900275
:1004BB0000C3E09EA3E09F4012D28290020474021C
:1004CB00F09002007400F0A37400F0020579C2836F
:1004DB0090020912012712010B900200E02401F097
:1004EB00A3E03400F0900200C3E09EA3E09F407EA7
:1004FB00D2839002047403F09002007400F0A37492
:10050B0000F0806AC29790020912012712010B902A
:10051B000200E02401F0A3E03400F0900200C3E0FD
:10052B009EA3E09F4048D2979002047404F090027F
:10053B00007400F0A37400F08034C296900209128C
:10054B00012712010B900200E02401F0A3E034001C
:10055B00F0900200C3E09EA3E09F4012D29690025F
:10056B00047401F09002007400F0A37400F07F019A
:10057B0002019F1201111200E71200F31201057A1A
:10058B00F47B011200ED900202C3E09488A3E09487
:10059B001340ECC282C283C296C29790020512012D
:1005AB002712010BD282D283D296D29790020512D8
:1005BB00012712010BC282C283C296C29790020519
:1005CB0012012712010BD282D283D296D2979002BC
:1005DB00027400F0A37400F080A574F01201338A4A
:1005EB000C8B0D8C0E8D0F7A007B008019E824018B
:1005FB00F8E93400F9C3E89417E9940240EFEA24D0
:10060B0001FAEB3400FB8A088B09E4F50AF50B7849
:10061B000C790812011750067800790080D77F08F3
:10062B0002019F53C6BFE59EA2E640FA53C6B8022D
:10063B0000C375DA7D75DB0043E504D2B9D2DED297
:07064B00AF75E40E0200C3CD
:04000005000000AB4C
:00000001FF
