:020000040800F2
:10000000880A0020CD010008591300084912000891
:10001000D5120008A1020008E51C0008000000003D
:10002000000000000000000000000000B315000800
:10003000A3020008000000007B130008831A0008D8
:10004000E7010008E7010008E7010008E7010008F0
:10005000E7010008E7010008E7010008E7010008E0
:10006000E7010008E7010008E7010008E7010008D0
:10007000E7010008E7010008E7010008E7010008C0
:10008000E7010008E7010008E7010008E7010008B0
:10009000E7010008E7010008E7010008E7010008A0
:1000A000E7010008E7010008E7010008E701000890
:1000B000E7010008E7010008E7010008E701000880
:1000C000E7010008E7010008E7010008E701000870
:1000D000E7010008551C0008A11C0008E701000802
:1000E000E7010008E7010008E7010008E701000850
:1000F000E7010008E7010008E7010008E701000840
:10010000E7010008E7010008E7010008E70100082F
:10011000E7010008E7010008E7010008E70100081F
:10012000E7010008E7010008E7010008E70100080F
:1001300000F002F800F03AF80AA090E8000C8244BF
:100140008344AAF10107DA4501D100F02FF8AFF29C
:10015000090EBAE80F0013F0010F18BFFB1A43F0A5
:10016000010318477020000090200000103A24BFBF
:1001700078C878C1FAD8520724BF30C830C144BF0C
:1001800004680C607047000000230024002500264E
:10019000103A28BF78C1FBD8520728BF30C148BFEA
:1001A0000B6070471FB51FBD10B510BD00F045F8BE
:1001B0001146FFF7F7FF01F0A3FD00F063F803B469
:1001C000FFF7F2FF03BC01F08EFD000009488047F5
:1001D00009480047FEE7FEE7FEE7FEE7FEE7FEE729
:1001E000FEE7FEE7FEE7FEE704480549054A064B41
:1001F00070470000F91A0008310100088804002047
:10020000880A00208806002088060020704730B544
:1002100005460B462A4613F8014B12F8010B08B1AC
:10022000A042F8D01CB1002802D06D1CF1E728468E
:1002300030BD7047704770477047754600F02CF826
:10024000AE4605006946534620F00700854618B0C3
:1002500020B5FFF7C9FFBDE820404FF000064FF082
:1002600000074FF000084FF0000B21F00701AC46EB
:10027000ACE8C009ACE8C009ACE8C009ACE8C0090A
:100280008D46704710B50446AFF300802046BDE8A8
:100290001040FFF794BF000000487047240400207E
:1002A000FEE770472DE9F04105460E46012001F0BA
:1002B00000FA0021242001F0A3FAF721112001F017
:1002C0009FFA3146222001F09BFA00210E2001F016
:1002D00097FA00210D2001F093FA124F002202211B
:1002E000384600F028F9802001F000F9002405E0EC
:1002F000287801F0FBF8641CE4B26D1CB442F7D31B
:1003000001220221384600F016F94021084601F08A
:1003100077FA0021412001F073FABDE8F041032093
:1003200001F0C7B90008014031B500F009F90446F1
:1003300000F006F90099001B8842F9D338BD00008F
:100340002DE9F84FDFF8BC91002309F1040A0AF106
:10035000040B1C464FF00F080BF1040E01270A682E
:10036000A7403A40BA4272D1DFF89CC14D68A5EB74
:100370000C0665452BD00DDC032D34D005DC35B3E0
:10038000012D19D0022D2FD11BE0112D16D0122DC9
:100390002AD119E0B6F5881F19D006DCB6F5803FE2
:1003A00015D0B6F5801F1FD111E0B6F5001F0ED095
:1003B000B6F5041F18D10AE0CB6815E0CB681B1D09
:1003C00012E0CB6808330FE0CB680C330CE08B688D
:1003D0002BB1012B4FF0080303D0476104E0042345
:1003E00002E0076100E00023FF2A01D8064601E091
:1003F00000F104064FEA840501D9A5F1200537680C
:1004000008FA05FC27EA0C0703FA05F547EA050791
:1004100037604D68ED006ED53C4DAE6946F0010683
:10042000AE61AD6924F0030605F001050095384D75
:100430007719BE68A5072D0F08FA05FC26EA0C06F9
:10044000DFF8D0C0604503D14FF0000C25E052E04A
:10045000DFF8C4C0604502D14FF0010C1DE0DFF8A9
:10046000BCC0604502D14FF0020C16E0DFF8B0C00E
:10047000604502D14FF0030C0FE0DFF8A8C06045E3
:1004800002D14FF0040C08E0DFF89CC0604502D1B7
:100490004FF0050C01E04FF0060C0CFA05FC4CEA9D
:1004A000060CC7F808C04D68D9F80060ED034D464A
:1004B00001D5164300E096432E604D68DAF80060DF
:1004C000AD03554601D5164300E096432E604D68B6
:1004D000DBF80060ED025D4601D5164300E096436F
:1004E0002E604D68DEF80060AD02754601D51643FA
:1004F00000E096432E60641C102CFFF42FAFBDE883
:10050000F88F0000000401400000111000100240AC
:100510000000014000080140000C014000100140B3
:100520000014014000180140001C01408068084090
:1005300000D0012070470AB1016170470904FBE750
:1005400001480068704700000C0000200248016864
:10055000491C0160704700000C000020074810B5DE
:10056000016841F010010160032000F03BF80F200A
:1005700000F006F800F015F8002010BD0020024041
:1005800010B5044600F000F94FF47A71B0FBF1F0B9
:1005900000F0D7FD00222146501E00F003F8002095
:1005A00010BD7047F0B40E4B1B68C3F30223C3F1B8
:1005B0000704042C00D904241D1D072D01D200239B
:1005C00000E0DB1E012606FA04F56D1E0D409D407D
:1005D0009E40761E164045EA0601F0BC00F0BDBE06
:1005E0000CED00E0064A00F0070110684FF6FF032B
:1005F000184040EA0120034908431060704700009A
:100600000CED00E00000FA052DE9F047DFF8688105
:1006100004460E46D8F8000000F00700B0420CD2A5
:10062000D8F8001021F007013143C8F80010D8F8BD
:10063000000000F00700B04273D120784F4F8007D0
:1006400005D57868A16820F0F0000843786020782C
:10065000C00755D06068012201280CD0022828D09C
:10066000022393FAA3F1B1FA81F141F02001490983
:1006700004D0396803E04FF40033F2E7796A93FA63
:10068000A3F3B3FA83F303F01F039A40114248D057
:10069000796821F0030101437960FFF751FF0546B6
:1006A000606841F2883101280CD00228894615D0B3
:1006B00022E04FF00073D4E7FFF742FF411B4945AA
:1006C00001D916E089467868C0F381000128F3D18A
:1006D00016E0FFF735FF411B49450AD87868C0F39B
:1006E00081000228F5D10BE0FFF72AFF411B4945A5
:1006F00002D90320BDE8F087786810F00C0FF3D121
:10070000D8F80010404601F00701B1420BD901684A
:1007100021F0070131430160006800F00700B0429A
:1007200001D00120E6E72078400705D57868E16828
:1007300020F4E060084378602078000706D57868E8
:10074000216920F4605040EAC100786000F022F88E
:100750007968F02292FAA2F201F0F001B2FA82F284
:10076000D140074A515CC840064908600F20FFF796
:1007700007FF0020BEE700000020024000100240FA
:10078000C4210008040000200148006870470000F0
:100790000400002010B519A085B00FC88DE80F0027
:1007A0001AA01B4B0068049059681A4801F00C020B
:1007B000042A1DD0082A1BD14FF4701494FAA4F413
:1007C00001F47012B4FA84F4E240C9031DF8022067
:1007D00010D559684FF4003393FAA3F301F40031B4
:1007E000B3FA83F3D94004AB595CB0FBF1F050434A
:1007F00005B010BD08485043FAE7000002030405A5
:10080000060708090A0B0C0D0E0F1010010200005C
:100810000010024000127A0000093D002DE9F84F57
:1008200004460078FE4EC0074FF001057FD0706887
:100830004FF40038C0F38100012807D07068C0F37E
:10084000810002281BD17068C00318D598FAA8F05F
:10085000B0FA80F040F02000400901D0306800E09C
:10086000706A98FAA8F1B1FA81F101F01F0105FA56
:1008700001F108425BD06068002879D057E06068D9
:10088000B0F5803F0BD010B1B0F5A02F11D030687B
:1008900020F480303060306820F4802002E030683E
:1008A00040F480303060606818B3FFF749FE0746B7
:1008B00009E0306840F480203060F0E7FFF740FE48
:1008C000C01B642870D898FAA8F0B0FA80F040F005
:1008D0002000400901D0306800E0706A98FAA8F161
:1008E000B1FA81F101F01F0105FA01F10842E5D0EA
:1008F0001DE0FFF725FE074604E0FFF721FEC01BC1
:100900006428DFD898FAA8F0B0FA80F040F0200010
:10091000400901D0306800E0706A98FAA8F1B1FA95
:1009200081F101F01F0105FA01F10842E5D12078BB
:10093000DFF8F08280074FF0000A4FF002075AD527
:1009400070684FF0F80B10F00C0F07D07068C0F310
:10095000810002281CD17068C00319D497FAA7F04F
:10096000B0FA80F040F02000400902D0306801E089
:100970008AE0706A97FAA7F1B1FA81F101F01F01DC
:1009800005FA01F108422BD0206901287CD127E02B
:10099000206988B395FAA5F0B0FA80F048F82050A5
:1009A000FFF7CEFD814606E04DE1FFF7C9FDA0EB64
:1009B0000900022886D897FAA7F0B0FA80F040F034
:1009C0002000400901D0306800E0706A97FAA7F172
:1009D000B1FA81F101F01F0105FA01F10842E4D0FA
:1009E00030689BFAABF220F0F8016069B2FA82F24B
:1009F00090400143316025E0FFE795FAA5F1B1FA97
:100A000081F148F821A0FFF79BFD814605E0FFF743
:100A100097FDA0EB09000228CCD897FAA7F0B0FA0E
:100A200080F040F02000400901D0306800E0706A9A
:100A300097FAA7F1B1FA81F101F01F0105FA01F16E
:100A40000842E4D1207800076DD5A069B8B395FAC3
:100A5000A5F0B0FA80F008EB8000C0F88054FFF7F2
:100A60006FFD814605E0FFF76BFDA0EB0900022852
:100A7000A0D897FAA7F0B0FA80F040F06000B5EB8C
:100A8000501F02D130680CE063E197FAA7F0B0FA8A
:100A900080F040F06000B7EB501F01D1306A00E0F9
:100AA000706A97FAA7F1B1FA81F101F01F0105FA16
:100AB00001F21042D7D00120FFF736FC33E0FFE708
:100AC00095FAA5F1B1FA81F108EB8101C1F880A492
:100AD000FFF736FD814605E0FFF732FDA0EB090088
:100AE000022899D897FAA7F0B0FA80F040F0600099
:100AF000B5EB501F01D130680BE097FAA7F0B0FAC0
:100B000080F040F06000B7EB501F01D1306A00E088
:100B1000706A97FAA7F1B1FA81F101F01F0105FAA5
:100B200001F21042D8D12078400763D5F06940F037
:100B30008050F061F069DFF8F0B000F08050009074
:100B4000DBF8001041F48071CBF80010FFF7F8FCDF
:100B5000814605E0FFF7F4FCA0EB0900642872D899
:100B6000DBF80000C005F5D5E06801280AD008B11F
:100B7000052813D0306A20F001003062306A20F07E
:100B8000040002E0306A40F001003062E06841F2A7
:100B9000883B80B3FFF7D4FC81460AE0306A40F01E
:100BA00004003062EEE7FFF7CBFCA0EB09015945EA
:100BB00049D897FAA7F0B0FA80F040F04000B5EBC2
:100BC000501F01D130680BE097FAA7F0B0FA80F01F
:100BD00040F04000B7EB501F01D1306A00E0706A6E
:100BE00097FAA7F1B1FA81F101F01F0205FA02F1BB
:100BF0000842D8D033E0FFE7FFF7A2FC814605E0CA
:100C0000FFF79EFCA0EB090159451CD897FAA7F005
:100C1000B0FA80F040F04000B5EB501F08D105E07D
:100C200000100240000042420070004030680CE0BA
:100C300097FAA7F0B0FA80F040F04000B7EB501FF1
:100C400002D1306A01E08AE0706A97FAA7F1B1FA3E
:100C500081F101F01F0205FA02F10842D0D1E069EA
:100C600098B37168C1F38101022972D002284FF054
:100C700080714FF0007B50460AD091FAA1F1B1FA91
:100C800081F148F82100FFF75BFC04465F4669E00C
:100C90008A4691FAA1F1B1FA81F1C14648F82100E2
:100CA000FFF74EFCA84607465D4604E0FFF748FC08
:100CB000C01B022853D895FAA5F0B0FA80F040F096
:100CC0002000400902D0306801E060E0706A95FAC7
:100CD000A5F1B1FA81F101F01F0208FA02F1084210
:100CE000E4D1206AB0F5803F05D17068A16820F496
:100CF000003008437060D4E908010843716821F4AA
:100D00007411084370609AFAAAF0B0FA80F047466E
:100D100049F82080FFF714FC044604E0FFF710FCBC
:100D2000001B02281BD895FAA5F0B0FA80F040F01D
:100D30002000400901D0306800E0706A95FAA5F102
:100D4000B1FA81F101F01F0107FA01F10842E5D083
:100D50001DE01EE0FFF7F4FB001B022802D9032070
:100D6000BDE8F88F97FAA7F0B0FA80F040F02000C5
:100D7000400901D0306800E0706A97FAA7F1B1FA33
:100D800081F101F01F0105FA01F10842E2D10020D2
:100D9000E6E70120E4E770B5040004D094F85100C0
:100DA000002510B106E0012070BD84F850502046A7
:100DB00000F02EF8022084F851002068016821F02C
:100DC00040010160D4E901010843D4E90312114351
:100DD000084361690843218B01F400710843E1690C
:100DE0000843216A0843A16A084321680860A06992
:100DF000042101EA1040616A0843216848602168C3
:100E0000E06A08616565012084F85100002070BD2A
:100E100010B50068154986B0884224D1144881690C
:100E200041F480518161816901F4805104918169AB
:100E300041F00401816180690E4C00F004000490CF
:100E4000A0200090022001900320039069462046D4
:100E5000FFF776FA40210091002101910291694645
:100E60002046FFF76DFA06B010BD000000300140CB
:100E700000100240000801402DE9F8430026DDF88B
:100E800020800446ADF8006090F85100012803D09E
:100E900094F8510022287DD169B162B15BB194F818
:100EA0005000012876D0012784F8507094F8510042
:100EB000012803D005E00120BDE8F883322084F842
:100EC00051006665A263A387E3872163A386E38657
:100ED000A664E664A06A4FF40055A84209D12068D0
:100EE000016821F4005101602068016841F400515B
:100EF000016020680168490603D4016841F040019F
:100F00000160E0684FF48271B0F5006F606807D04F
:100F1000002867D088426ED1E08E012862D06AE056
:100F200020B188420CD1E08E012809D1206B2168C4
:100F30000088C860206B801C2063E08E401EE08625
:100F4000E08E80B9A06AA84244D12068016841F4CB
:100F5000805101603EE02068C068A16B0880A06BF2
:100F6000801CA0639EE0434600220221204600F040
:100F7000D1FA002874D1206B21680088C860206BEA
:100F8000801C2063E08E401E0004000CE08609D126
:100F9000A06A00E0C7E0A84204D12068016841F4DB
:100FA00080510160434600220121204600F0B2FA40
:100FB00000286FD12068C068A16B0880A06B801CDE
:100FC000A063E08F401EE087E08E0028CBD16068F0
:100FD00000286AD1434600220121204600F09AFAF7
:100FE000F0BBB8E7206B411C216321680078C86022
:100FF000E08E401EE086E08E98B9A06AA84204D137
:101000002068016841F480510160434600220121BB
:10101000204600F07FFA18BB2068C068A16B0870FA
:1010200040E0434600220221204600F073FAB8B99E
:10103000206B411C216321680078C860E08E401E4F
:101040000004000CE08607D1A06AA84204D1206801
:10105000016841F48051016000224346012100E013
:1010600018E0204600F056FAA0B92068C168A06BCD
:10107000421CA2630170E08F401EE087E08E0028D2
:10108000CFD1606888B9434600220121204600F094
:1010900041FA08B103200FE72068C168A06B421C29
:1010A000A2630170E08F401EE087A06AA84210D1C1
:1010B000434600220121204600F02CFA18B1606D51
:1010C00040F002000FE02068C068ADF80000BDF8F5
:1010D0000000434601228021204600F01BFA20B187
:1010E000606D40F010006065D4E784F85170A06A2C
:1010F000A84214D120688168C943C9060FD4616D24
:1011000041F002016165016821F40051016020682D
:10111000016841F40051016084F85060CBE684F826
:1011200050600020C8E60220C6E64FF0E021042807
:10113000086903D020F004000861704740F0040003
:10114000FAE710B5401EB0F1807F01D3012010BD39
:101150004FF0E02460610F21601700F0FEF80020DE
:10116000A06107202061002010BD704738B50446FB
:1011700000680168C268C1F3000102F4807221B105
:101180001AB1E16B41F00101E1630168C1F3400272
:10119000416901F0010122B119B1E26B42F0040290
:1011A000E2630268C2F3800222B119B1E26B42F03D
:1011B0000202E2630268C2F3C00222B119B1E16B1C
:1011C00041F00801E1630168C068C1F3401100F01B
:1011D000200019B110B1204600F0B6FC206801686B
:1011E000C068C1F3C01100F0800019B110B12046F1
:1011F00000F0FDFC21680868CA68C0F3801002F0A6
:101200004002012568B162B1CA68204622F040025E
:10121000CA6094F83910322910D080F8395000F0A3
:1012200012F8E06B002808D0206801684068009040
:1012300084F839502046FFF798FF38BD222180F806
:101240003910ECE770477047FEE7000038B50F49EA
:101250000446886940F008008861886900F0080049
:101260000090886940F004008861886900F00400FB
:10127000009000F00FF800F0DDFA00F00FFB2046C0
:1012800000F098F902490020487138BD0010024072
:10129000100000200E4810B50C4901604FF4827117
:1012A000416000218160C1604FF400720161C0E9BA
:1012B00005122022C0E90721416281620A21C16230
:1012C000FFF769FD002800D0FEE710BD00300140A7
:1012D0002C000020FEE700000C4800B5816985B0B5
:1012E00041F0040181618069694600F004000490C6
:1012F0000420009000200190012002900320039020
:101300000348FFF71DF805B000BD000000100240C3
:10131000000801400E4810B5816986B041F0040113
:10132000816180690B4C00F004000490082000905B
:101330000120019002900320039069462046FEF7A9
:10134000FFFF012208212046FFF7F5F806B010BD87
:10135000001002400008014070470907090E0028EC
:1013600006DA00F00F0000F1E02080F8141D70474D
:1013700000F1E02080F80014704770472DE9F0413B
:10138000404C414DDFF80481207886B04FF4004690
:10139000E0B16088401C80B26080B0F5FA7F12D363
:1013A000002767806078E8B3012857D002280AD167
:1013B000002231464046FFF7BEF801221821284698
:1013C000FFF7B9F8677006B0BDE8F081304A012038
:1013D0002070916941F001019161916901F0010171
:1013E00004912C494B6823F0E06343F000734B6099
:1013F000916941F008019161916901F0080104913E
:10140000916941F00401916191690190029048F263
:10141000180401F0040103200094CDE9030169469A
:10142000284600E012E0FEF78BFF6946474640463B
:101430000096FEF785FF012221462846FFF77BF83C
:10144000012231463846FFF776F8BCE7002210212A
:101450002846FFF770F80122082107E00022082142
:101460002846FFF768F8012248F210012846FFF7E6
:1014700062F8012231464046FFF75DF86078401C73
:101480006070A0E708000020000C01400008014047
:10149000001002400000014070B50D460446FFF701
:1014A0004FF82168884205D3FFF74AF828442060A6
:1014B000012070BD002070BD10B5012000F0F9F8CA
:1014C0009F21112000F09CF9FF21242000F098F9C1
:1014D0000021402000F094F90021412000F090F913
:1014E000BDE81040052000F0E4B8000001B582B06E
:1014F00064200090012301AA02A90448FFF7BCFC64
:10150000034908719DF804000EBD00002C00002066
:10151000100000202DE9F0471D4690460F46044676
:10152000FFF70EF806465FEA08004FF000084FF498
:10153000005A4FF0010926D034E0681C23D025B1B1
:10154000FEF7FEFF801BA8421DD92068416821F0EC
:10155000E00141602068016821F040010160A06A5B
:10156000504509D12068016821F4005101602068CC
:10157000016841F40051016084F8519084F8508072
:101580000320BDE8F0872068806837EA0000D4D1E6
:101590000DE0681C06D0002DD7D0FEF7D1FF801BD0
:1015A000A842D2D82068806837EA0000F1D0002035
:1015B000E7E7704710B50446002000F07AF8802075
:1015C00000F032F8012000F074F80021402000F013
:1015D00017F90021412000F013F9204600F08AF8A5
:1015E000104CE07800F0B0F8207800F0C5F8607892
:1015F00000F027F8012000F069F8A07800F0AFF8BB
:10160000002000F02DF8FF2000F06FF840F2FF30CE
:1016100000F0C2F8012000F030F8BDE81040FFF7FC
:101620004BBF00001000002010B50446012000F060
:10163000CDF800F07F012143BDE81040012000F00B
:10164000DFB810B504461D2000F0C0F800F0F1002E
:1016500040EA4400C1B2BDE810401D2000F0D0B8FF
:1016600010B504461D2000F0B1F800F0FE01214342
:10167000BDE810401D2000F0C3B810B50446262078
:1016800000F0A4F800F0F70040EAC400C1B2BDE8E1
:101690001040262000F0B4B810B50446312000F008
:1016A00095F800F0F8012143BDE81040312000F02A
:1016B000A7B810B50446012000F088F800F0F80142
:1016C0002143BDE81040012000F09AB810B504464F
:1016D0001E2000F07BF800F0FB0040EA8400C1B25D
:1016E000BDE810401E2000F08BB80146222000F01B
:1016F00087B80000104910B5484300F0F8FC0F4AC5
:101700000F4B00F06FFB00F0C5FC0E4901F109041E
:10171000C860A070010A6170C0F307412170062003
:1017200000F06EF86178072000F06AF8A178BDE853
:101730001040082000F064B840420F0014AE47E1AA
:101740007A844E401000002010B584214D2000F016
:1017500057F8CF21BDE81040092000F051B810B56E
:1017600004461D2000F032F864F31F10C1B2BDE83A
:1017700010401D2000F044B810B504460320FFF7C8
:101780008BFF1E2000F022F864F31F10C1B2BDE8E9
:1017900010401E2000F034B870B504461E2000F042
:1017A00015F805461F2000F011F8032101EA142165
:1017B00005F0FC000843C1B2E4B21E2000F020F89E
:1017C0002146BDE870401F2000F01AB870B50B4DDF
:1017D0000446002202212846FEF7ADFE04F07F00F9
:1017E000FFF784FEFF20FFF781FE0446012202215D
:1017F0002846FEF7A0FE204670BD0000000801400C
:1018000070B50B4D0E460446002202212846FEF715
:1018100092FE44F08000FFF769FE3046FFF766FE57
:101820002846BDE8704001220221FEF784BE000078
:101830000008014070B5164886B0816941F0080182
:101840008161816901F008010491816941F004011D
:1018500081618069012400F0040001940325029451
:10186000CDE903500B4E694630460095FEF768FD02
:10187000012203213046FEF75EFE01A9002081E827
:101880003100694604480094FEF75AFD06B070BD69
:101890000010024000080140000C014010B50A4C45
:1018A000002201212046FEF746FEC82000F01CFA67
:1018B000012211462046FEF73EFEBDE810404FF4DF
:1018C000FA7000F011BA00000008014070B505463A
:1018D0001220FFF77BFF584C4106A07146D51E2011
:1018E000FFF774FFE071400728D500210D20FFF7B6
:1018F00087FF1320FFF76AFF504E6071002202211C
:101900003046FEF718FE0020FFF7F0FD6079F92859
:1019100001D9F9206071002006E0FF20FFF7E6FD05
:10192000217A6854207A401C20726179C0B28842C2
:10193000F3D3012202213046FEF7FDFD0120FFF71F
:10194000B8FE9F211120FFF75BFFFF212420FFF746
:1019500057FF00214020FFF753FF00214120FFF7F0
:101960004FFF0520FFF7A5FE01255FE0010717D512
:101970000120FFF79EFE9F211120FFF741FFFF216D
:101980002420FFF73DFF00214020FFF739FF002111
:101990004120FFF735FF0520FFF78BFE022545E0CC
:1019A00041072DD5C0074FF0010016D0FFF781FE8B
:1019B0009F211120FFF724FFFF212420FFF720FFA4
:1019C00002214020FFF71CFF00214120FFF718FFF4
:1019D0000520FFF76EFE032528E0FFF76AFEFF21D2
:1019E0001120FFF70DFF00214020FFF709FF002124
:1019F0004120FFF705FF0020FFF75BFE042515E0FF
:101A00000120FFF756FE9F211120FFF7F9FEFF216D
:101A10002420FFF7F5FE02214020FFF7F1FE002110
:101A20004120FFF7EDFE0520FFF743FEFF211220C6
:101A3000FFF7E6FE284670BD1000002000080140B8
:101A400070B500254FF4FA74FEF72CFC08E0012075
:101A5000FEF76AFC641EA4B21220FFF7B7FE05462B
:101A6000280701D4002CF2D16420FEF75DFCFFF7BB
:101A700023FD0A20FEF758FC0CB1012070BD0020A8
:101A800070BD10B5FFF77AFCBDE81040FEF75EBDF3
:101A900030B58FB0022401200490009410200590EE
:101AA00000254FF46010CDE9085007946846FEF712
:101AB000B5FE00B1FEE70AA90F2081E831004FF41E
:101AC0008060CDE90D0502210AA8FEF79DFD00B159
:101AD000FEE7FEF759FE4FF47A71B0FBF1F0FFF725
:101AE00030FB0420FFF721FB00221146501EFEF7B9
:101AF00059FD0FB030BD00000F4810B5016841F02E
:101B00000101016041680D4A1140416001680C4AC1
:101B100011400160016821F480210160416821F4D5
:101B2000FE0141604FF41F018160FFF7B1FF0549DD
:101B30004FF00060086010BD001002400000FFF888
:101B4000FFFFF6FE08ED00E010B590F839102229ED
:101B500003D0322901D0022010BD8168B1F5805F29
:101B600011D00169002901681FD0496801F07F0385
:101B7000816A4A1C82620B70C18D491E0904090CDE
:101B8000C18518D02FE00269816A002A0268526874
:101B900005D0D2B20A80816A491C8162ECE7C2F3A7
:101BA00008020A80816A891CF7E74A68816A4B1C2F
:101BB00083620A70E0E70168CA6822F02002CA6006
:101BC00090F83910322910D00168CA6822F4807266
:101BD000CA6001684A6922F001024A61012180F865
:101BE0003910FFF72FFB002010BD1221F7E790F806
:101BF0003910122903D0322901D0022070478168A0
:101C0000B1F5805F016A0BD04A1C02620268097854
:101C10005160C18C491E0904090CC1840ED017E023
:101C200009880268C1F30801516001690029016A4D
:101C300002D0491C0162ECE7891CFBE70168CA6815
:101C400022F08002CA600068C16841F04001C160B2
:101C5000002070470F4800680068C043800615D414
:101C60000D4801680D4A0B4B5068C83B1954401C85
:101C7000506002280AD9184410F8021C0D2905D119
:101C800010F8010C0A2801D1012010700148FFF75B
:101C90006DBA00004C0100200438014020000020F3
:101CA0000C4800680068C043800610D40A480068E9
:101CB0000A4AC1B29068030409D4B0F5167F03D272
:101CC000074B1954401C01E040F40040906001486B
:101CD000FFF74CBAE4030020044400402000002039
:101CE0008C010020FEE77047002242F6681304E0F2
:101CF0000021491C9942FCD3521C8242F8D3704700
:101D00008EB0002501240D95FEF728FC40F2B1109D
:101D1000FFF79CFAFFF7FEFAFFF7DEFA4220FFF723
:101D200055FD2B4E2B4F1228707011D10022082127
:101D30003846FEF700FC4FF4FA784046FEF7F4FA16
:101D4000012208213846FEF7F6FB4046FEF7ECFA82
:101D500004213846FEF7EAFB00B90DB304213846EA
:101D6000FEF7E4FB00B1002564210DA8FFF794FB0A
:101D70000028EDD01220FFF729FD30700028E7D0B1
:101D8000FF28E5D06846FFF7A1FD0128E0D112A1A8
:101D90006846FEF73CFA0028DAD084B100220FE052
:101DA0000A20FEF7C1FA04213846FEF7BFFB0028DF
:101DB000DAD101250A2108A0FFF742FED4E701226B
:101DC00008213846FEF7B7FBC4F10100C4B2BFE7F3
:101DD0000000002000080140746F67676C65206C8C
:101DE000656400002DE9C04130B4DFF8A0C23CEAD0
:101DF000111418BF3CEA131400F0EC8081EA0305CB
:101E00001CEA111444EAD57418BF1CEA131500F03B
:101E1000C780A4EB05044FF0004545EAC12145EA1F
:101E2000C32341EA505143EA525304F17F7499426B
:101E300004F500344FEAC0204FEAC22208BF9042A6
:101E400000F09C804FEA13650FF24016765D4FEA72
:101E5000134506FB05F7C7F1807706FB07F74FEA46
:101E6000D737A7FB03687642C8F58038A7FB06CEB4
:101E700038BFA8F1010807FB08E64FF0000EA6FBEB
:101E8000028CE6FB03CEDCF1000CCEF1004E38BF35
:101E9000AEF1010EA6FB0C584FF000074FF0000505
:101EA000E6FB0E87A1FB08C6A0FB07CE16EB0E06CD
:101EB00045F10005E1FB076515F1E04E7EBFA4F595
:101EC00080345FEA46066D4116F1800745F1000552
:101ED0004FEA17274FEA066647EA0567A6F1DE468E
:101EE000B6F1805F4FEA15251FD9384624F0010C62
:101EF00005EBC471BCF1FE6F01EB0C1102D8F0BC14
:101F0000BDE8008124425CBF01F5801E9EEAC47FCB
:101F100002D4F0BCBDE80081244238D4F0BCA1F169
:101F2000C041BDE8004100F047B94FEAD22242EA81
:101F300043524FEAD323A7FB02864FEAD02040EA60
:101F4000415007FB03661EEA0E0F4FEAD12105FB45
:101F5000026658BFA6EB0056B6EB00564FEA520E8B
:101F60004EEAC37E18EB0E0E56EB530EBDD518EBA2
:101F700002085E417F1C55F10005B6E74FF480155D
:101F80004FF000074FF000064FF00008ADE7F0BC3F
:101F90004FF0000001F1C04101F00041BDE80081B7
:101FA00011EA0C1F0CEA131500D00CE013EA0C1F09
:101FB00000F025804FF00000F0BC81EA030101F041
:101FC0000041BDE80081F0BCBDE8004181EA0301A9
:101FD00000F0F2B8F0BCBDE8004170B500F09EF82A
:101FE000097EFC3E00F007B881EA03014FF00000D3
:101FF00001F00041704781EA030100F0DDB8F0BC58
:10200000BDE800414FF0000021497047FFFDFBF99A
:10201000F7F5F4F2F0EEEDEBE9E8E6E4E3E1E0DE1B
:10202000DDDBDAD8D7D5D4D3D1D0CFCDCCCBCAC88D
:10203000C7C6C5C4C2C1C0BFBEBDBCBBBAB9B8B7B4
:10204000B6B5B4B3B2B1B0AFAEADACABAAA9A8A8A7
:10205000A7A6A5A4A3A3A2A1A09F9F9E9D9C9C9B75
:102060009A99999897979695959493939291919020
:102070008F8F8E8E8D8C8C8B8B8A898988888787B1
:102080008685858484838382828181800000FF0726
:102090000000F87F4FEA1153A3F58063D3F11E03CC
:1020A000A8BFD3F1200C08DB4FF0004242EAC12266
:1020B00052EA505232FA03F0704709420BD4102B07
:1020C000C4BF0020704703F5787CBCF1FF3F05D00A
:1020D0004FF0FF3070474FF00000704770B500F0D0
:1020E0001DF800BF4992248000207047F0E710F0EF
:1020F000004248BF4042B0FA80F310FA03F10AD020
:10210000C3F11D0303F580634FEA415002EB035214
:1021100002EBD12170474FF0000070470EF1020E24
:102120002EF0030E5EF8046B364205D4012A43EB11
:10213000030515F5001F12D8012841EB010C1CF511
:10214000001F0CD80ED14FEAD17C15F5001F0CEB07
:102150004C0C0CF1020C08BF4CEBD37C04E04FF0AC
:10216000080C01E04FEAD37C0CEB4C0526FA05F68F
:1021700006F00706B6F1040C06D20EEB860CBDE89D
:1021800070404CF0010C6047DFE80CF0090B0202D4
:102190004FF000414FF00000A1F5002170BD19463D
:1021A0001046012851EB010418BFD4F5001484BF78
:1021B000002001F0004170BD0808A0F500114FEAB1
:1021C000310170470000000000000000010203041C
:1021D00006070809F4210008000000202C00000078
:1021E0006C010008202200082C0000205C0A00007E
:1021F00088010008000000000090D0030000F401F6
:10220000000000000B02070700000000006C8000C7
:1022100000000000000000000000000000000000BE
:0400000508000131BD
:00000001FF
