:020000040000FA
:030000000200AB50
:03001300020ED406
:03001B00020F3F92
:10004B00020E8A00000080FB1200DBB900030200E5
:10005B0095E4900200784C79058002F0A3D8FCD986
:10006B00FA90064BAA82AB839000DE781B79028054
:10007B0015E493A3AC82AD838A828B83F0A3AA820F
:10008B00AB838C828D83D8E9D9E77582B2758330C7
:10009B0074001200BD75824E75830074001200BD92
:1000AB0075D0007581BF751000751102759F000228
:1000BB000053C09FF59FE473D09F22D083D082C0A2
:1000CB009FE493C0E0740193C0E0740293F59F2208
:1000DB0079012201000000E4E3E2E1EDECEBEA251B
:1000EB00642564253034640032000000C800000031
:1000FB002C010000000000000E06000041540D0A08
:10010B00004F4B0041542B43574D4F44453D330D4E
:10011B000A0041542B43574A41503D2247756573A2
:10012B00745F46706761222C2266706761313233CF
:10013B00343536220D0A0041542B43495053544158
:10014B0052543D22544350222C223138332E323319
:10015B00302E34302E3430222C313831310D0A0010
:10016B0041542B4349504D4F44453D310D0A0041FD
:10017B00542B43495053454E440D0A002A32313318
:10018B003934312330303031237769666973616DCF
:10019B00706C652A001700000000170000000017A4
:1001AB0000303132333435363738394142434445E8
:1001BB004600286E756C6C20706F696E74657229C1
:1001CB00003F3F3F000000807F0000803FF9021599
:1001DB0050B743BA510000204100E7DB2E0000A0CE
:1001EB004010000000080000000A0000001200C6CA
:1001FB00AC2A001200C6C02A001200C6032D001242
:10020B0000C6B11F001200C6CA1F001200C63B2059
:10021B00001200C6AC20001200C6BF22001200C69E
:10022B00E823001200C60126001200C66226001247
:10023B0000C6CA26001200C6CF30001200C6012726
:10024B00001200C61E27001200C6F127001200C6BE
:10025B00FC27001200C63428001200C6DE2800124C
:10026B0000C6FE28001200C60929001200C641294B
:10027B00001200C69329001200C6192D001200C6E9
:10028B00692E001200C67F2E001200C6BA2F001274
:10029B0000C60330001200C66730001200C61A2FCA
:1002AB00001200C6442F001200C69430001200C684
:1002BB001230001200C6620F001200C6801400C07C
:1002CB0008C3E096F50808A3E096420808A3E09659
:1002DB00420808A3E0964208A2D265D033E5087025
:1002EB0001D3D00822C3E7960809E7960809E796D9
:1002FB000809E79622C3E09608A3E09608A3E096C8
:10030B0008A3E09622080808E630E711120B4C12FE
:10031B000328080808C64480C6181818221818188D
:10032B00E9799EC608CAC608CBC608CCC6C37020DE
:10033B007996CACBCC7019798ECBCC70137986CCCD
:10034B00700EF9802ACA33CACB33CBCC33CC3319DA
:10035B0030E7F2CCCBCA3350147004EA30E00DE432
:10036B00CA3ACACB3BCBCC3CCC500209C3E913C62F
:10037B00CC182313C6CB18C6CA18C6F9221203C849
:10038B0020F01430E72B74FFFCFBFA747F8022E41F
:10039B00FCFBFA7480801AB48008BC00F2BB00EF3F
:1003AB00800F50EBF9E4C39AFAE49BFBE49CFCE46A
:1003BB0099C6CC18C6CB18C6CA18C6F922E4C9C64A
:1003CB0008CAC608CBC6D3330308CCC63392F0C3D6
:1003DB00947F402E94184019C9B90704CACBCC227C
:1003EB005025C309CA33CACB33CBCC33CC33D9F466
:1003FB0022F4600DC9CCC313CB13CBCA13CAD9F6E5
:10040B00CC22E4FCFBFA2214FCFBFA22E6C33318E1
:10041B00461846184622E7C333194719471947228E
:10042B00181818E6084608700AE608C3337005E684
:10043B0033F4220822191919E7094709700AE70949
:10044B00C3337005E733F4220922E6084608C313C9
:10045B004608336002E633F422E7094709C3134722
:10046B0009336002E733F422120455602512046449
:10047B0060201204177003020421080808E7667055
:10048B00101819E766700A1819E76670041819E74F
:10049B006622F422120455601C12046460171204C5
:1004AB001770071204217001D322C0D012042170DF
:1004BB0006D0D0B322C32233D0D0501430E0F6C3D1
:1004CB00E7960809E7960809E7960809E796B32225
:1004DB0020E0D5E6970809E6970809E6970809E6AC
:1004EB0097B322120455601B120464601612041792
:1004FB007007120421600CB322C0D01204217005C6
:10050B00D0D022C32233D0D0501330E0EBC3E796C8
:10051B000809E7960809E7960809E7962220E0E420
:10052B00E6970809E6970809E6970809E697220077
:10053B00120455604F1204646012E7548066F61281
:10054B00042B7011120421703B090909F4F618F6FB
:10055B0018F618F622120440701512041708080832
:10056B0060EAE6447FF618768018E4F618F6221255
:10057B00041760161204217012E4F608F608F60848
:10058B00E65480F609090918181822EAC0E0EBC0F6
:10059B00E0ECC0E0EDC0E0E687F0A4FBACF008E6D1
:1005AB0087F0A42CFCE435F0FA1809E687F0A42CAC
:1005BB004B60027401CA35F0FCE433FB09E687F0AB
:1005CB00D2F7A42CCB35F0FC1908E687F0A42BCC82
:1005DB0035F0FBE433FD0819E687F0D2E7A42C4A8B
:1005EB00CB35F0CD3400FC09E687F0D2E7A42DCC57
:1005FB0035F0FDE433FA0918E687F0D2F7A42CCDD9
:10060B0035F0CA3400FC08E687F0D2E7D2F7A42A0B
:10061B00CC35F07A7E20E70B0ACB33CBCD33CDCC68
:10062B0033CC33CB3350147004ED30E00ED2F1E405
:10063B00CD3DCDCC3CCC3B5005DA05C2F1EB547F24
:10064B00C63308E63392F0FBE73309E733C39A501E
:10065B002D2B70190C0D4C4D70151806E608C33375
:10066B00700D20F10AA2F013F6E418800B4024E47D
:10067B00F630F002768018F618F618F68024D33B85
:10068B0014501074FFA2F013F6187680E418F618C5
:10069B00F6800FA2F013F618E63303F618ECF618F3
:1006AB00EDF6D0E0FDD0E0FCD0E0FBD0E0FA22127A
:1006BB0004646046120455603DE9687008F618F64C
:1006CB0018F618F622748067F71206EE09090974FA
:1006DB008067F722120455601D1204647005191906
:1006EB0019801A12042B701F120440C37003E667A3
:1006FB003319191940071818182208080874FFF63F
:10070B0018F618F618F6221204406017120421701E
:10071B002192F01204177019501720F014080808D2
:10072B00090909E7F61819E7F61819E7F61819E792
:10073B00F62212041760E6E869701F0808E62480A9
:10074B00F608E436F618547FB47F0CE65480600745
:10075B00F6E418F618F622181822E9C6CC08C6CD0E
:10076B0008C6CE08C6CFC0E0E8C0E0EAC0E0EBC0E8
:10077B00E009E9F809E7FA09E7FBE6F918E6F8C337
:10078B00EC98ED99EE9AEBC2E7F5F0EFC2E795F036
:10079B00500E600CEBCFFBEACEFAE9CDF9E8CCF8C2
:1007AB00EAA2E7D2E7FAEB33FB13F5F0EEA2E7D2BE
:1007BB00E7FEEF33FFC5F013A2E730E601B313C535
:1007CB00F0C3C0E0C0F07F00C39BFB605B9418607C
:1007DB000C401AD0E023F9D0E0F80208BD8AF0E90A
:1007EB00486003D2F0E4AFF0FAF9F8803BEB30E469
:1007FB000D89F0EA6003D2F0E4AFF0F9CAF8EB3000
:10080B00E30D88F0EF6002D2F0AFF0E4CAC9F8EB69
:10081B0054076014FBC3EA13FAE913F9E813F8EF72
:10082B00135002D2E0FFDBEDD0E0C0E030E739C37C
:10083B00E49FFFF5F0EC98FC42F0ED99FD42F0EEF1
:10084B009AFE42F0D0E0F9D0E0F8E5F0607AE923C7
:10085B00F9EE20E742D8028067C3EF33FFEC33FC9D
:10086B00ED33FDEE33FE80EAEC28FCED39FDEE3A7C
:10087B00FED0E023F9D0E0F84002801BC3EE13FE5C
:10088B00ED13FDEC13FCEF135002D2E0FF08B800A0
:10089B00067F7F74FF802EEF3350178CF020F00211
:1008AB0060100CBC000C0DBD00080EBE000408E867
:1008BB0060DFE933E813FFEE2313FE4F4D4C800846
:1008CB00E95480FFE4FEFDFCEE33EF33F47004FCDF
:1008DB00FD7E80D0E0FBD0E0FAD0E0F8D0E0CFC6D0
:1008EB0018CEC618CDC618CCC6F922120455700402
:1008FB0018181822120464700D74FFF61819F618E4
:10090B0019F61819F622E7548066F6120417700FC1
:10091B0012042170F014F608F608F608F680D112CE
:10092B000421700CF608F608768008E6447F80EC0C
:10093B00120443700C12042E60BFE65480F6E48060
:10094B00BB12042E700519191980A5E869700C7675
:10095B003F18768018F618F6E8F922E6CDC0E018B5
:10096B00ECC0E0E633CD33CDD313F6E719FCE71932
:10097B001933CC33C3947F400ECD9D502408E654DD
:10098B0080F6E418F6800FF4043D14501408E64486
:10099B007FF6187680E418F618F6D0E0FCD0E0FD70
:1009AB0022CCD313CCFD18E4C6CBC0E018E4C6CAE6
:1009BB00C0E00808ED08C633E613F618E433C67535
:1009CB00F003C3CA97CA09CB97CB199C40047D0887
:1009DB00802EBD0003020A9F16B6FF0506060816F9
:1009EB0018C3CA33CACB33CB33CA27CA09CB37CBCD
:1009FB00193CC37D08803E187D0820E75CC633C6D2
:100A0B00CA33CACB33CB33DDF1D5F0EB30E77BCA3E
:100A1B0097CA09CB974ACB199C406F4B7025E620A0
:100A2B00E0218066187D08C3CA97CA09CB97CB19FA
:100A3B009CD3C633C6CA33CACB33CB3350C9DDE7DD
:100A4B00D5F0E1D3E4C636C608C636C608C636C6E8
:100A5B0008C636C61818188031C3CA97CA09CB976F
:100A6B00CB199CB34097C633C6CA33CACB33CB33EF
:100A7B00DD34D5F02EC6A2E0C640C8CA27CA09CBC2
:100A8B0037194A70BECB3CB480B90808E63308E688
:100A9B0033601F181818D0E0FAD0E0FBD0E0FCD080
:100AAB00E0FD22187D08CA27CA09CB37CB193CD3E6
:100ABB00808013F618E4B67F11F618B6FF0EF61801
:100ACB00C60470D20808768080CAF618F618F6802D
:100ADB00C5E4CFC0E0E4CEC0E0E4CDC0E0E4CCC0E0
:100AEB00E075F020C3E633F608E633F608E633F696
:100AFB0008E633F6181818EC33FCED33FDEE33FE35
:100B0B00EF33FFC3EC9709ED9709EE9709EF9719B0
:100B1B001919400FFFEC97FC09ED97FD09EE97FEB5
:100B2B00191906D5F0BEECF709EDF709EEF709EF49
:100B3B00F7191919D0E0FCD0E0FDD0E0FED0E0FFB2
:100B4B0022181818E4C396F608E496F608E496F60D
:100B5B0008E496F6226016080808C6C313C618C622
:100B6B0013C618C613C618C613C6D5E0EA22E0266C
:100B7B00F008A3E036F008A3E036F008A3E036F067
:100B8B0022E0F608A3E0F608A3E0F608A3E0F622BD
:100B9B00E6F008A3E6F008A3E6F008A3E6F022E0EF
:100BAB00FAA3E0FBA3E0FCA3E0FD22EAF0A3EBF049
:100BBB00A3ECF0A3EDF022CAC0E0E6F0A308DAFA4A
:100BCB00D0E0FA22CAC0E0E0A3C582CCC582C583BF
:100BDB00CDC583F0A3C582CCC582C583CDC583DAD1
:100BEB00E6D0E0CA22C3E498F8E499F9120C3180FC
:100BFB0026C3E49AFAE49BFBE920E7E9120C31E403
:100C0B0098F8E499F922C3E498F8E499F9120C31B5
:100C1B00E498F8E499F9C3E49AFAE49BFB22EB20FD
:100C2B00E7CFE920E7E0B90010BB0008E88AF084C1
:100C3B00F8AAF022E4FBC8FA22EB70227B10C8332F
:100C4B00C8C933C9335007C39AC3DBF280069A5025
:100C5B00012ADBEAC833F4C8C933F4C9FA2275F0A8
:100C6B0008E4C833C8C933C933C99AC99B5004C9EE
:100C7B002AC93BD5F0ECFBC833F4C8E4C9FA2225EA
:100C8B001010AF08F510400215118008F510400246
:100C9B001511D2AF22C0D0251010AF08F51050029D
:100CAB0005118008F51050020511D2AFD0D02225C6
:100CBB0010F58210AF08F510400215118008F510E1
:100CCB0040021511D2AF851183222510F582E43530
:100CDB0011F58322E4732510C582C0E0E51134FFC2
:100CEB00C583C0E0E510C3958224F810AF08858357
:100CFB00118582108008858311858210D2AFCEF0CA
:100D0B00A3E520F0A37808E608F0A3DEFAEFF0A342
:100D1B00E58124FAF8E608F0A3E608F0A3E608F06C
:100D2B00A30808E608F0A3E608F0A315811581D007
:100D3B00E0FED0E0F8158115811581E8C0E0EEC02A
:100D4B00E022851183851082E0A3FEE0A3F52078D5
:100D5B0008E0A3F608DFFAE0A3FFE0A3C0E0E0A3FE
:100D6B00C0E0E0A3C0E0E0A3C0E0E0A3C0E010AFB0
:100D7B00088582108583118008858210858311D2A6
:100D8B00AFD083D0820200C3C0D02510C582C0E093
:100D9B00E51134FFC583C0E0E510C3958224F31041
:100DAB00AF08858311858210800885831185821099
:100DBB00D2AFC8F0A3E9F0A3EAF0A3EBF0A3790854
:100DCB00E709F0A3D8FAECF0A3EDF0A3EEF0A3EF54
:100DDB00F0A3D0E0F0A3D0E0F0A3D0E0F0A3E520A7
:100DEB00F0A3E5F0F0A322851183851082E0C0E02B
:100DFB00A3E0F9A3E0FAA3E0FBA37808E0F608A3CD
:100E0B00DFFAE0FCA3E0FDA3E0FEA3E0FFA3E0C05C
:100E1B00E0A3E0C0E0A3E0F5D0A3E0F520A3E0A3BE
:100E2B00F5F010AF0885831185821080088583113A
:100E3B00858210D2AFD082D083D0E0F8D0E032746C
:100E4B000280027401C0E0F404120CBAD0E0120B61
:100E5B00C22274028000CCC0E0EDC0E0E510C39C60
:100E6B00CCAD1150011D10AF068C108D1180068C6E
:100E7B00108D11D2AF120BCFD0E0FDD0E0FC22C011
:100E8B00E0C0D0E8C0E0C008C009C00AC00BC082F7
:100E9B00C08390064B7808120B8C90055278081281
:100EAB000B7990064B7808120B8C9005567808122C
:100EBB000B7953AFFED083D082D00BD00AD009D0A0
:100ECB0008D0E0F8D0D0D0E032C0E074F2120D932D
:100EDB00C28B900624E05400F8A3E05480F9E84953
:100EEB00704D90055BE06007A9C112024C8040E594
:100EFB00C1C0E0900624E054FFF8A3E0543FF9741E
:100F0B005C28F582740539F583D0E0F0900624E077
:100F1B002401F0A3E03400F0900624C3E094C8A3AE
:100F2B00E09400400A9006247400F0A37400F07F54
:100F3B0001020DF2C0E074F2120D93C28F900644C1
:100F4B00E05400F8A3E05480F9E8497005A9F912C0
:100F5B0002227F01020DF274F0120CE174FD120CEF
:100F6B008A7402120CD5E9F08A088B098C0A8D0B56
:100F7B007415120CD5E0FEA3E0FF8510828511835A
:100F8B00E4F0A3F08E828F83A3AA82AB8390073DFC
:100F9B00780C120B8C7808790C12047370188E82F3
:100FAB008F837469121441746EF0A37466F0A30AF4
:100FBB000AAB830213DC7808790812047360118E74
:100FCB00828F83746E1214417461F0A3746E80DD92
:100FDB00900741780C120B8C7808790C12049F50F7
:100FEB000302108C90066C780C120B8C7808790C21
:100FFB0012047360030210E07417120CD5E0700337
:10100B00021122851082851183C082C08374131252
:10101B000CD5121E7FD083D08212141A502C85103F
:10102B0082851183C3E094FCA3E094FFA2D265D028
:10103B003340177402120CD5E4121F53F9741312B8
:10104B000CD5C3E098F0A3E099F07413120CD512F1
:10105B0014377418120CD5E0700302111F74171299
:10106B000CD5E4021121900745780C120B8C7808F3
:10107B00790C1208F6851082851183E0240A121F61
:10108B0090900749780C120B8C7808790C12049FFE
:10109B0040D490074D780C120B8C7808790C120405
:1010AB009F400302100390074D780C120B8C7808AD
:1010BB00790C1208F6121F8780D8900745780C120E
:1010CB000B8C7808790C12053A851082851183E018
:1010DB0024F612143A900751780C120B8C7808797D
:1010EB000C1204EE40D4900741780C120B8C78084C
:1010FB00790C1204EE400302100390074D780C128A
:10110B000B8C7808790C12053A85108285118312A5
:10111B00143780D27401F07402120CD5E060077A98
:10112B00007B0002122E121426507D8E828F837448
:10113B0030F0EAFEEBFF7413120CD5E0FCA3E0FDDC
:10114B00EC4D70087418120CD5E0600B8E828F83F7
:10115B00742EF0A30EAF837A007B0080118E828FEA
:10116B008374301214627413120CD5121437EA24E0
:10117B00FF1AEB34FFFB85108285118312140E507E
:10118B000B7413120CD5121E834970D185108285F6
:10119B00118374FFC39CF874FF9DF912141A50034A
:1011AB000212FC7A0102112C851082851183121E0A
:1011BB007FC3E498FAE499FB806985080C85090DD7
:1011CB00850A0E850B0F780C120388AC0CE50D33DA
:1011DB0095E0F50EF50F780C1203107808790C12C8
:1011EB0006BA90074D780C120B8C7808790C120507
:1011FB003AEC12145CEAF8EBF9E824010AE9340042
:10120B00FBE849701E7413120CD5121E834970082B
:10121B007418120CD5E0600B8E828F83742EF0A3A2
:10122B000EAF837413120CD512140E508D900755FC
:10123B00780C120B8C7808790C12049F4003021265
:10124B00FC7C01EE24FFF8EF34FFF97415120CD57A
:10125B00E0F508A3E0F50988828983E0642E60102D
:10126B00E02CF0643A70077430F07C0180027C0053
:10127B00E8FAE9FBEA24FF18EB34FFF9C3E5089A17
:10128B00E5099B40D2ECA2E050677402120CD5E04A
:10129B006036EEF8EF800A1213F9E824FF18E934F0
:1012AB00FFF9C3E50898E5099950181213E6E064B5
:1012BB002E70E4E824FEF582E934FFF5831213F374
:1012CB00F980D7121F87801E8E828F83A3AE82AFC9
:1012DB0083EEF8EF80061213E61213F3F9C3E50859
:1012EB0098E5099940F07415120CD5121E9E7431B5
:1012FB00F07417120CD5E07005801A1EAF83EE2424
:10130B00FFF582EF34FFF583E0643060EEE0642E8E
:10131B0070031EAF837402120CD5E070030213D856
:10132B0012145EA3A9831214268E828F8350147419
:10133B002DF00EE9FF851082851183121EC7121442
:10134B004F8006742BF00EE9FF7C007D00EE240A23
:10135B00FEEF3400FFEC24010CED3400FD12140001
:10136B00120C29EA12145C121400120C29121469C3
:10137B004970E2C3EC9402ED121E3040D8ECFAED4A
:10138B00FBC3E49CF8E49DF9EE28F582EF39F58375
:10139B00E0C0E0C3E49AF8E49BF9EE28F8EF39F9E2
:1013AB00E82CF8E93DF9E824F5F582E934FFF583FB
:1013BB00D0E0F0EC24FF1CED34FFFDC3EC9401ED09
:1013CB00121E3050BCEE24F6FEEF34FFFFEEFAEFA8
:1013DB00FB7403120CA07F08020D4DE824FFFAE901
:1013EB0034FFFB8A828B83221213F918EB22E088DD
:1013FB00828983F022851082851183121ED47A0A8A
:10140B007B0022C3E09AA3E09BA2D265D03322C318
:10141B00E098A3E099A2D265D03322851082851182
:10142B0083C3A3E09400A2D265D03322E024FFF063
:10143B00A3E034FFF022F0EAFEEBFF8E828F8322D3
:10144B00A3E03400F9851082851183E8F0A3E9F05D
:10145B002224308E828F83F0A3AE82AF832285103D
:10146B008285118312147322E8F0A3E9F0851082B0
:10147B00851183E02274F0120CE174B0120C8A8592
:10148B001082851183121F397418120CD5ECF0A33E
:10149B00EDF0740F120CD5E4F0A380227460120CE3
:1014AB00D5121E6F7404120CD5E0F97418120CD5FA
:1014BB00121E9E120CDF740F120CD5121E38F01276
:1014CB001EB2FA121F72120CD5EAF074256A601064
:1014DB00E070C9740F120CD5121E6F74500213DE1C
:1014EB00121EB264257019851082851183E02401C8
:1014FB000812144B7460120CD5121E6F792580AB39
:10150B00740E120CD5E4F0740D120CD5E4F0740CBF
:10151B00120CD5E4F07405120CD5E4F0741E120C09
:10152B00D5A882A9837402120CD580157405120CF0
:10153B00D5E070077405120CD5EAF0851082851181
:10154B008312146F121E66121EF9FA24E060DD245A
:10155B00FD601724F860DD24FE600624FD600F801B
:10156B0011740C120CD5E00480D0740D80F5740E40
:10157B0080F1121EF9642A705B7462120CD5121F73
:10158B0004FB8A828B83E0FCA3E0FD740A120CD56A
:10159B00ECF0A3EDF0EA24020A0AEB3400FB7462D0
:1015AB00120CD5121F31740A120CD512142C501FA9
:1015BB00740A120CD5121E6FC3E49AFAE49BFB74E7
:1015CB000A120CD5121F39740C120CD5E004F01250
:1015DB001450804A740A120CD5E4F0A3802D740ABF
:1015EB00120CD5121E8375F00AA4F8AAF075F00A36
:1015FB00E9A42AF9E50828F8E439F9E824D0F8E950
:10160B0034FFF9740A120CD5121F97121F53F5836E
:10161B008882E0F50874D02508C3940A40C0740C86
:10162B00120CD5E06007740E120CD5E4F0121EB24A
:10163B00642E60030216CB851082851183E0240192
:10164B0008A3E03400F9121469121EA3E0642A7097
:10165B002C7462120CD5121EB8F8A3E0F98882899B
:10166B0083E0FEA3E0FFE824020808E93400F974E4
:10167B0062120CD5121EEC121F97F080477E007F72
:10168B0000851082851183121EC174D02508C39466
:10169B000A5031EE75F00AA4FEA8F075F00AEFA41B
:1016AB0028FFE5082EF8E43FF9E824D0FEE934FFE3
:1016BB00FF851082851183E02401F812144B80C141
:1016CB007EFF7FFF7A00851082851183121E618554
:1016DB001082851183E0FBA3E0F5838B82E024B4B9
:1016EB00600824E4600524FC70040A121450121ED6
:1016FB00B2FB121F72120CD5EBF07003021CD62436
:10170B00BB7003021B9C24FE7003021B7E24EF7034
:10171B00030218C824F570030217CD1470030219C5
:10172B006D147003021B9C147003021B9A1470033C
:10173B00021B7E24FE700302196D24FB60241470BF
:10174B00030218B81470030218C824FD70030218A2
:10175B000624FE70030218C824FD70030218C80289
:10176B001CE27462120CD5121F2B120CD5121456DC
:10177B00EAA2E0740F5033120CD5E0FCA3E0FD336A
:10178B0095E0FE7406120CD5121F0CECF0A3EDF0D5
:10179B00A3EEF0A3F07462120CD5121F13120CD52A
:1017AB00121EECE8F0A3E90214C9120CD5121E7F2D
:1017BB007406120CD5121F04F5838A82E8F0A3E994
:1017CB0080D27462120CD5121F0CE0C0E0741E1292
:1017DB000CD5D0E0F07462120CD5121F13120CD57D
:1017EB00121EEC121456741F120CD5A882A9837406
:1017FB0012120CD5E8F0A3E9021CF97462120CD595
:10180B00121F2B120CD51214567406120CD5121F64
:10181B002B120CD5E02402FAA3E03400FB74621205
:10182B000CD5121F317402120CD5121456E84970E4
:10183B000C7402120CD5742AF0A37407F0121E2E2E
:10184B0050047E107F277408120CD5E4F0A3800897
:10185B007408120CD5121E38F07402120CD5121E1D
:10186B007F88828983A3AA82AB837402120CD51260
:10187B001F3988828983E0600A7408120CD5121E06
:10188B008840CD7402120CD5121E4F7412120CD557
:10189B001214567408120CD5121EC7F97412120CBE
:1018AB00D5E028F8A3E039F974020217FC740D1285
:1018BB000CD5E06008EE4F70047E017F007462125D
:1018CB000CD5121F2B120CD5121F7F120CD5E064F6
:1018DB007070387406120CD5121F21120CD5121F02
:1018EB005A120CD5E02402121EE3120CD5121EEC78
:1018FB00121456900759120BAA741A120CD5120B0C
:10190B00B67405120CD5E4F00219FDEAA2E07406D8
:10191B00501B120CD5121E9E120BAA7414120CD54E
:10192B00120BB67406120CD5E024048012120CD5DF
:10193B00121F21120CD5121F5A120CD5E0240212C1
:10194B001EE3120CD5121EEC121F7F120CD5E06495
:10195B006F700590075D809EE064757096900761CF
:10196B0080947462120CD5121F2B120CD5121456C4
:10197B00EAA2E074065016120CD5121E9E780812BD
:10198B000B8C7406120CD5E02404F8801B120CD5BA
:10199B00121EC1A3E0F5093395E0F50AF50B7406A9
:1019AB00120CD5E024020808121EE4120CD5121FEB
:1019BB0067120CD57808120B9B90066C78081202F4
:1019CB00CA40217405120CD5742DF07414120CD569
:1019DB007808120B8C7808120B4F7414120CD578F4
:1019EB0008120B9B900761120BAA741A120CD512DA
:1019FB000BB6744F120CD5A882A9837402120CD5A6
:101A0B001214567412120CD5121F6A120CD57808C8
:101A1B00120B8CE5084509450A450B600974111238
:101A2B000CD5740180067411120CD5E4F0EE4F70D6
:101A3B0008E0A2E04003021AF17402120CD5121E48
:101A4B0098120CD5121F6A120CD5780C120B8C74D1
:101A5B001A120CD57808120B8C780C7908120ADC48
:101A6B0074192508F58274073509F583E0C0E07415
:101A7B0002120CD5121E9ED0E0F07414120CD57805
:101A8B000C120B8C741A120CD57808120B8C780C68
:101A9B007908120ADC7414120CD5780C120B9B7497
:101AAB0014120CD57808120B8CE5084509450A452C
:101ABB000B7086121E2E502E740E120CD5E0602663
:101ACB007405120CD5E06004D2F08002C2F0740AE7
:101ADB00120CD5121E41800E7402120CD5121F4B24
:101AEB00120CD5121EAB7402120CD5121E4F744F72
:101AFB00120CD5C082C0837402120CD5121E6FD08B
:101B0B0083D082E582C39AFAE5839BFBC3EA9EEB03
:101B1B00121E9140C3740D120CD5E07003021CFA17
:101B2B007411120CD5E0A2E04003021CFA740412EB
:101B3B000CD5E064786005E06458701E1213F9E868
:101B4B0024FF18E934FFF97402120CD5121F4B1243
:101B5B000CD5121E9E7430021CF9E0646F600302F8
:101B6B001CFA7402120CD5121EFF64307003021C97
:101B7B00FA80D47408120CD57401F0A3E4F0740449
:101B8B00120CD5E024FEF0EE4F700F7E018012E4B4
:101B9B00F07408120CD5E4F0A3F0121E2E50047E44
:101BAB00067F007462120CD5121F2B120CD5121467
:101BBB00567406120CD5121E9E780C120B8C7406E2
:101BCB00120CD5E02404121EE3120CD5121F67125F
:101BDB000CD5780C120B9B90066C7808120B8C783A
:101BEB000C79081204EE50227405120CD5742DF0EA
:101BFB007414120CD57808120B8CE50BB2E7F50BAD
:101C0B007414120CD57808120B9B740A120CD51293
:101C1B001E7F741E120CD5E58228F8E58339F97402
:101C2B0002120CD5121456740D120CD5E0F508786F
:101C3B0008120E4E7409120CD5E0F5087808120E36
:101C4B004E7404120CD5120E5D8E088F0978081293
:101C5B000E4A740A120CD5E0F9741A120CD5120B39
:101C6B00AA1202BE7406120CA07412120CD5121F0B
:101C7B0039740E120CD5E060767405120CD5E06049
:101C8B0004D2F08002C2F0740A120CD5121E4174F9
:101C9B0012120CD5C082C0837402120CD5121E7F97
:101CAB00D083D082E0C398F8A3E099F9C3E89EE90A
:101CBB00121E91503A7402120CD5121E98120CD5AA
:101CCB00121F4B120CD5121EAB80C48510828511CE
:101CDB0083121E5812144F7402120CD57439F0A3D0
:101CEB007407F07412120CD5743CF0A37407F074E3
:101CFB0012120CD5C082C0837402120CD5121E7F37
:101D0B00D083D082E0C398FEA3E099FF740A120C33
:101D1B00D5121E88500A7408120CD5E4F0A380303B
:101D2B007405120CD5E06004D2F08002C2F0740A84
:101D3B00120CD5E0C39EF8A3E09FF9A2F0E433FAAE
:101D4B00E89AF8E99400F97408120CD5E8F0A3E9C5
:101D5B00F0740C120CD5E0702B80197460120CD53A
:101D6B00121E75120CD5121E9E120CDF740F120C64
:101D7B00D5121F8D7408120CD5121F3F120CD512E1
:101D8B00142C50D77405120CD5E060507460120CF3
:101D9B00D5121E6F7405120CD5E0F97418120CD500
:101DAB00121E9E120CDF802C7460120CD5121E6F4B
:101DBB007402120CD5121EB8F97418120CD5121E1F
:101DCB009E120CDF7402120CD5121E617402120CDF
:101DDB00D5121456740F120CD5121F8DEE24FF1E44
:101DEB00EF34FFFFC3121E3050BE740C120CD5E043
:101DFB0070030214CA7408120CD5121F3F120CD5B3
:101E0B0012142C50030214CA7460120CD5121E75D6
:101E1B00120CD5121E9E120CDF740F120CD5121F52
:101E2B008D80D2C3EF9400A2D265D03322E024017F
:101E3B00F0A3E0340022A2F0E433F8E098FEA3E034
:101E4B009400FF22121E5322121E58F922E024FF87
:101E5B00F8A3E034FF22E0121E66222401F8A3E06F
:101E6B003400F922E0FAA3E0FB22E0FAA3E0FB79CD
:101E7B0020741822121ED422121ED4E822C3E09E14
:101E8B00A3E0121E91229FA2D265D03322121E53C1
:101E9B00740222121EA222E0F8A3E0F583888222AC
:101EAB00121EA27430F022851082851183121EBC83
:101EBB0022121EDAE022121EBCF50822121ED4C317
:101ECB00E498F8E49922121EDAE0F8A3E0F922E094
:101EDB00F8A3E0F583888222F8A3E03400F974625A
:101EEB0022121EF022E0FAA3E0F5838A82228510EB
:101EFB0082851183121EF0E022121EF0E0FAA3E09D
:101F0B0022121EBC121EA322121EBC2402F8A3E036
:101F1B003400F9746222121ED1E8FAE9FB74142220
:101F2B00121ED1740622E0FCA3E0F5838C82EAF04A
:101F3B00A3EBF022E024FFF0A3E034FFF0740822BF
:101F4B00E8F0A3E9F0740222121477F8A3E022EA76
:101F5B00F0A3EBF0A3E4F0A3F0740622121EF0E85A
:101F6B00F0A3E9F0741422851082851183E024011B
:101F7B0008121FA5E8F0A3E9F074042285108285EE
:101F8B001183E02401F0A3E03400F0221214732437
:101F9B0001F8121FA5E8F0A3E922A3E03400F985AC
:101FAB00108285118322C082C08353F47F43FE08C5
:101FBB00C293120216120210D083D0820200C37495
:101FCB00F6120CE190064F120BAA900390120BB66F
:101FDB009003947400F09003957400F0A37400F0D8
:101FEB009003977400F0A37400F09003997400F0C1
:101FFB00A37400F090039B7400F07508C87509007A
:10200B007808120E4A7C007D007A9C7B031202A09A
:10201B007402120CA09004647400F0A37400F0908E
:10202B000653120BAA900466120BB67F02020D4DDB
:10203B0074F6120CE190064F120BAA90046A120B65
:10204B00B690046E7400F090046F7400F0A37400EB
:10205B00F09004717400F0A37400F090047374009A
:10206B00F0A37400F09004757400F07508C875093E
:10207B00007808120E4A7C007D007A767B041202EF
:10208B00A07402120CA090053E7400F0A37400F033
:10209B00900653120BAA900540120BB67F02020D4D
:1020AB004D74F4120CE1E9FE740C120CD5E0F50A38
:1020BB00A3E0F50B740E120CD5E0F8A3E0F9900534
:1020CB00447400F0A37400F08033900544E0F508ED
:1020DB00A3E0F509E50824E1C0E0900544E0240005
:1020EB00F508A3E03402F509850882850983D0E061
:1020FB00F0900544E02401F0A3E03400F090054497
:10210B00C3E09404A3E0940040C0900394E0C39414
:10211B00FF40069003947400F0900394E090020447
:10212B00F0900394E02401F08A088B09E4E509F5AB
:10213B0008E508900205F0EA900206F0ECFAEDFBD8
:10214B00E4EBFA900207F0EC900208F0AA0AAB0B52
:10215B00E4E50BAA0BE50B900209F0E50A90020AE5
:10216B00F0EE90020BF0900544740CF0A37400F0A9
:10217B00803A900544E0FAA3E0FBE82AFAE93BFB3E
:10218B00EA24F4F582EB34FFF583E0C0E0900544DC
:10219B00E02400FAA3E03402FB8A828B83D0E0F0C8
:1021AB00900544E02401F0A3E03400F09005448E48
:1021BB0008750900E508240CFAE5093400FBC3E0B7
:1021CB009AA3E09B40AC8E08750900E508240CFC33
:1021DB00E5093400FD7A007B02120234900464EAB4
:1021EB00F0A3EBF0900464E0F8A3E0F9E4E9F8C0A5
:1021FB00E08E08750900740C2508F5827402350908
:10220B00F583D0E0F0900464E0F8A3E0F9E8C0E0D7
:10221B008E08750900740D2508F58274023509F5D1
:10222B0083D0E0F08E08750900E508240EF8E50967
:10223B003400F9900544E8F0A3E9F08030900544B0
:10224B00E0F8A3E0F9E824F2C39E24EAC0E090058D
:10225B0044E02400F8A3E03402F988828983D0E0BB
:10226B00F0900544E02401F0A3E03400F090054425
:10227B008E08750900E5082412F8E5093400F9C346
:10228B00E098A3E09940B6D2937A057B0012023A0C
:10229B008E08750900E5082412FCE5093400FD7A67
:1022AB00007B021202707A057B0012023AC2937F06
:1022BB0004020D4DC082C08374E16970089005471C
:1022CB007401F08061900547E06401700D74E26960
:1022DB0070089005477402F0804C900547E064024B
:1022EB00700D74E36970089005477403F0803790A4
:1022FB000547E06403702974E46970249002C87484
:10230B00E1F09002C974E2F09002CA74E3F0900617
:10231B00447403F0A37400F09005487401F0800638
:10232B009005477400F0900548E070030223E1909C
:10233B000644C3E094C7A3E094004016900546748E
:10234B0000F09005487400F09006447400F0A374FC
:10235B0000F0E9C0E0900644E024C8FAA3E03402A0
:10236B00FB8A828B83D0E0F0900644E02401F0A33B
:10237B00E03400F074EA6970089005467401F0804F
:10238B0055900546E06401700D74EB69700890057B
:10239B00467402F08040900546E06402700D74ECC8
:1023AB006970089005467403F0802B900546E06435
:1023BB0003701D74ED6970189006447400F0A374DB
:1023CB0080F09005487400F09005467400F080068C
:1023DB009005467400F0D083D0820200C374F612CD
:1023EB000CE1900644E064007004A3E06480600399
:1023FB000225F190054B7400F09002CFE0F87900C4
:10240B00E875F000A4C8ACF075F001A42CFC75F0D5
:10241B0000E9A42CF99002D0E0FC7D00E82CF8E94F
:10242B003DF9EA687002EB6960030225C49002CCA7
:10243B00E090046EF09002CDE0F87900E875F000C2
:10244B00A4C8AAF075F001A42AFA75F000E9A42A31
:10245B00F99002CEE0FA7B00E82AF8E93BF9900408
:10246B006FE8F0A3E9F09002CFE0F87900E875F09F
:10247B0000A4C8AAF075F001A42AFA75F000E9A42B
:10248B002AF99002D0E0FA7B00E82AF8E93BF990B0
:10249B000471E8F0A3E9F09002D1E0F87900E87557
:1024AB00F000A4C8AAF075F001A42AFA75F000E9AF
:1024BB00A42AF99002D2E0FA7B00E82AF8E93BF96A
:1024CB00900473E8F0A3E9F09002D3E0900475F068
:1024DB00900549740CF0A37400F08032900549E02C
:1024EB0024C8F8A3E03402F988828983E0C0E09025
:1024FB000549E0246AF8A3E03404F988828983D083
:10250B00E0F0900549E02401F0A3E03400F09005E1
:10251B0049C082C083900475E0F87900240CF8E977
:10252B003400F9D083D082C3E098A3E09940AD90FA
:10253B000475E0F8790074D428F582740239F583B8
:10254B00E0F87900E875F000A4C8AAF075F001A4D2
:10255B002AFA75F000E9A42AF990053EE8F0A3E900
:10256B00F0900475E0F8790074D528F5827402397F
:10257B00F583E0F8790090053EE028F0A3E039F010
:10258B00900475E0F87900240CFCE93400FD7AC85E
:10259B007B0212023490054CEAF0A3EBF090054C51
:1025AB00E0F8A3E0F990053EE0687003A3E06960F2
:1025BB000E90054B7401F0800690054B7401F0757D
:1025CB0008C87509007808120E4A7C007D007AC88D
:1025DB007B021202A07402120CA09006447400F04D
:1025EB00A37400F0800690054B7401F090054BE04E
:1025FB00F97F02020D4DC082C083E9FC7D00E4CC63
:10260B00FDEC6AFAED6BFB90054E7400F0A37400C1
:10261B00F08013EAC333FAEB33FB90054EE0240151
:10262B00F0A3E03400F090054EC3E09408A3E094CF
:10263B0000501DEA5400FCEB5480FDEC4D60D4EAD5
:10264B00C333FAEB33FBEA6421FAEB6410FB80CA69
:10265B00D083D0820200C374F4120CE18A088B0978
:10266B00ECFEEDFF7A007B00E50845096004EE4FB8
:10267B0070067AFF7BFF80429005507400F0A374C4
:10268B0000F0802B900550E0F8A3E0F9E50828F561
:10269B0082E50939F583E0F912022E8A0A8B0BAA1F
:1026AB000AAB0B900550E02401F0A3E03400F0904E
:1026BB000550C3E09EA3E09F40CA7F04020D4D7CF2
:1026CB00007D00780079007C007D008019E82401F2
:1026DB00F8E93400F9C3E89480E9942540EFEC2441
:1026EB0001FCED3400FDC3EC9AED9B5006780079AC
:1026FB000080E20200C375F10075F30C75C2D8754A
:10270B00C50B43C4804386C0C2E9C28BD2AAD2AFE9
:10271B000200C3C082C08390063FE0700D74436912
:10272B00700890063F7401F0802B90063FE0640127
:10273B00701D74476970189006247401F0A374001F
:10274B00F09006407401F090055C7441F0800690A7
:10275B00063F7400F0900640E070030227EA9006F3
:10276B0024C3E094C7A3E09400401690063E740087
:10277B00F09006407400F09006247400F0A37400EF
:10278B00F0E9C0E0900624E0245CFAA3E03405FBFA
:10279B008A828B83D0E0F0900624E02401F0A3E042
:1027AB003400F090063EE0700D745369700890068B
:1027BB003E7401F0802990063EE0601D74576970ED
:1027CB00189006247400F0A37480F09006407400F7
:1027DB00F090063E7400F0800690063E7400F0D038
:1027EB0083D0820200C389C1A2E950FCC2E9020076
:1027FB00C374F6120CE1EAFEEBFF8C088D09801214
:10280B008E828F83E0F91202528E828F83A3AE8267
:10281B00AF83A808A909E824FFF508E934FFF509F7
:10282B00E84970DC7F02020D4D74F0120CE18A084E
:10283B008B098C0E8D0F7410120CD5E0F50AA3E0EA
:10284B00F50B7E007F00AA08AB091202B2EA9006D4
:10285B0041F0750CC8750D00780C120E4A7C007D8A
:10286B00007A5C7B051202A07402120CA090064148
:10287B00E0FC7D00AA08AB091202589006427400D6
:10288B00F0A37400F0800C900642E02401F0A3E06A
:10289B003400F0900642C3E0950AA3E0950B50205C
:1028AB00900660120BAA120294AC0EAD0F7A5C7BF1
:1028BB00051202B88A088B09AE08AF09EE4F60C744
:1028CB009006247400F0A37400F0EEFAEFFB7F087F
:1028DB00020D4D75FF4075F10043F33075FAD87555
:1028EB00FC0B75FB8075F8C0C2EAC28FD2ABD2AFBE
:1028FB000200C389F9A2EA50FCC2EA0200C374F6D3
:10290B00120CE1EAFEEBFF8C088D0980128E828F90
:10291B0083E0F912026A8E828F83A3AE82AF83A803
:10292B0008A909E824FFF508E934FFF509E849701F
:10293B00DC7F02020D4DC082C0837A017B1F120225
:10294B0028E9703D90046FE064017004A3E0641605
:10295B00702F900476E0900626F0900477E09006B6
:10296B0027F0900479E0F87900E4C8F9900478E056
:10297B00FA7B00E82AF8E93BF990063CE8F0A3E97A
:10298B00F0D083D0820200C374F4120CE190055294
:10299B00C082C0839006647808120B8CD083D082DF
:1029AB0078081203004036900646E0703075082810
:1029BB007509067808120E4A750800750911780812
:1029CB00120E4A79047C017D117A017B1F12021CC5
:1029DB007404120CA09006467401F0805C900552B2
:1029EB00C082C0839006687808120B8CD083D0828B
:1029FB0078081203004042900646E06401703A7575
:102A0B00085A7509057808120E4A750830750916AB
:102A1B007808120E4A79007C017D167A017B1F1211
:102A2B00021C7404120CA09006467400F090066C05
:102A3B00120BAA900552120BB6900556C082C0839A
:102A4B009006707808120B8CD083D0827808120312
:102A5B0000404990063C120E5D900627E0F5087584
:102A6B0009007808120E4A900626E0F50875090051
:102A7B007808120E4A7C577D067A327B061202AC1E
:102A8B007406120CA07C087D007A327B0612025869
:102A9B0090066C120BAA900556120BB67F04020D12
:102AAB004DC082C08343FF011202041201FED0838A
:102ABB00D0820200C3D2A0D2A0D2A0D2A0C2A0C208
:102ACB00A0C2A0C2A0C2A0C2A0C2A0C2A0D2A0D2CB
:102ADB00A0D2A0D2A0C2A0C2A0C2A0C2A0C2A0C2BB
:102AEB00A0C2A0C2A0D2A0D2A0D2A0D2A0C2A0C28B
:102AFB00A0C2A0C2A0C2A0C2A0C2A0C2A0D2A0D29B
:102B0B00A0D2A0D2A0C2A0C2A0C2A0C2A0C2A0C28A
:102B1B00A0C2A0C2A0D2A0D2A0D2A0D2A0C2A0C25A
:102B2B00A0C2A0C2A0C2A0C2A0C2A0C2A0D2A0D26A
:102B3B00A0D2A0D2A0C2A0C2A0C2A0C2A0C2A0C25A
:102B4B00A0C2A0C2A0D2A0D2A0D2A0D2A0C2A0C22A
:102B5B00A0C2A0C2A0C2A0C2A0C2A0C2A0D2A0D23A
:102B6B00A0D2A0D2A0C2A0C2A0C2A0C2A0C2A0C22A
:102B7B00A0C2A0C2A0D2A0D2A0D2A0D2A0C2A0C2FA
:102B8B00A0C2A0C2A0C2A0C2A0C2A0C2A0D2A0D20A
:102B9B00A0D2A0D2A0C2A0C2A0C2A0C2A0C2A0C2FA
:102BAB00A0C2A0C2A0D2A0D2A0D2A0D2A0C2A0C2CA
:102BBB00A0C2A0C2A0C2A0C2A0C2A0C2A0D2A0D2DA
:102BCB00A0D2A0D2A0C2A0C2A0C2A0C2A0C2A0C2CA
:102BDB00A0C2A0C2A0D2A0D2A0D2A0D2A0C2A0C29A
:102BEB00A0C2A0C2A0C2A0C2A0C2A0C2A0D2A0D2AA
:102BFB00A0D2A0D2A0C2A0C2A0C2A0C2A0C2A0C29A
:102C0B00A0C2A0C2A0D2A0D2A0D2A0D2A0C2A0C269
:102C1B00A0C2A0C2A0C2A0C2A0C2A0C2A0D2A0D279
:102C2B00A0D2A0D2A0C2A0C2A0C2A0C2A0C2A0C269
:102C3B00A0C2A0C2A0D2A0D2A0D2A0D2A0D2A0D219
:102C4B00A0D2A0D2A0C2A0C2A0C2A0C2A0D2A0D229
:102C5B00A0D2A0D2A0D2A0D2A0D2A0D2A0C2A0C2F9
:102C6B00A0C2A0C2A0D2A0D2A0D2A0D2A0D2A0D2E9
:102C7B00A0D2A0D2A0C2A0C2A0C2A0C2A0D2A0D2F9
:102C8B00A0D2A0D2A0D2A0D2A0D2A0D2A0C2A0C2C9
:102C9B00A0C2A0C2A0D2A0D2A0D2A0D2A0D2A0D2B9
:102CAB00A0D2A0D2A0C2A0C2A0C2A0C2A0D2A0D2C9
:102CBB00A0D2A0D2A0D2A0D2A0D2A0D2A0C2A0C299
:102CCB00A0C2A0C2A0D2A0D2A0D2A0D2A0D2A0D289
:102CDB00A0D2A0D2A0C2A0C2A0C2A0C2A0D2A0D299
:102CEB00A0D2A0D2A0D2A0D2A0D2A0D2A0C2A0C269
:102CFB00A0C2A0C2A00200C3C082C083C2A0900623
:102D0B004B120BAA120294D083D0820200C374F62A
:102D1B00120CE143FE6053F47F53FE7F53F67FC2E8
:102D2B009590064B120BAA120294D29590070D1296
:102D3B000BAA12028E7508147509007808120E4A38
:102D4B007C797D067A747B0612025E7402120CA0EB
:102D5B008A088B09E508450960DB900711120BAA5D
:102D6B0012028E75081E7509007808120E4A7C79BE
:102D7B007D067A7C7B0612025E7402120CA08A0816
:102D8B008B09E508450960DB75082C750901780886
:102D9B00120E4A7C797D067A8A7B0612025E7402D9
:102DAB00120CA08A088B09E508450960DB90071512
:102DBB00120BAA12028E75083C7509007808120EC8
:102DCB004A7C797D067AAF7B0612025E7402120C86
:102DDB00A08A088B09E508450960DB75083C750975
:102DEB00007808120E4A7C797D067AD87B0612028F
:102DFB005E7402120CA08A088B09E508450960DB9A
:102E0B0075081E7509007808120E4A7C797D067AC2
:102E1B00E77B0612025E7402120CA08A088B09E58E
:102E2B0008450960DB75081E7509007808120E4A03
:102E3B007C477D067AF47B0612025E7402120CA0AC
:102E4B008A088B09E508450960DB90066C120BAA12
:102E5B0012028E90055B7401F07F02020D4DC08251
:102E6B00C083C29690064B120BAA120294D083D049
:102E7B00820200C374F0120CE18A088B098C0A8D54
:102E8B000B9006487417F0A37400F08024D296D2EE
:102E9B0096D296D296C296C296C296C296C296C247
:102EAB0096C296C296900648E024FFF0A3E034FF4A
:102EBB00F0900648C3E09400A3E09400A2D265D042
:102ECB0033404485080C85090D850A0E850B0F9040
:102EDB000648E0F8A3E0F9E8780C120B60E50C5417
:102EEB000190064AF090064AE0640170A0D296D297
:102EFB0096D296D296D296D296D296D296C296C2A7
:102F0B0096C296C296809E1202887F08020D4DC013
:102F1B0082C0838A828B83122FB1E9F08A828B83E2
:102F2B00E02401FCA3E03400FD8A828B83ECF0A348
:102F3B00EDF0D083D0820200C374F6120CE174FC66
:102F4B00120C8A7402120CD5EAF0A3EBF0ECFAED3A
:102F5B00FB740E120CD5A882A98385108285118370
:102F6B00E8F0A3E9F08510828511838582088583BB
:102F7B00097808120E4A7404120CD58582088583D1
:102F8B00097808120E4A7CA67D021202C474041240
:102F9B000CA07402120CD5122FB1E4F07404120CB5
:102FAB00A07F02020D4DE0F8A3E0F5838882227426
:102FBB00F0120CE18A0C8B0D8C0E8D0F7A007B00BE
:102FCB008019E82401F8E93400F9C3E89417E9946F
:102FDB000240EFEA2401FAEB3400FB8A088B09E488
:102FEB00F50AF50B780C79081202F0500678007987
:102FFB000080D77F08020D4D53C6BFE59EA2E64069
:10300B00FA53C6B80200C374F6120CE18C828D839E
:10301B00E0700B80428A828B83A3AA82AB838A8265
:10302B008B83E0602E7E007F008008EE24010EEF84
:10303B003400FFEC2EF8ED3FF9EA2EF582EB3FF56D
:10304B0083E0F50888828983E0650870C8A3E07087
:10305B00DA80047A007B007F02020D4D74F7120CAC
:10306B00E17409120CD5E0F8A3E0F98A828B838016
:10307B0003ECF0A3E8FEE9FFEE24FF18EF34FFF9B1
:10308B00EE4F70ED7F01020D4DC082C0838A828BA3
:10309B00838001A3E070FCE582C39AFAE5839BFB76
:1030AB00D083D0820200C312029A1201F812020AD4
:1030BB0012024612026412028212024012027C12A7
:1030CB00027680F875DA7D75DB0043E504D2B9D260
:0930DB00DED2AF75E40E0200C361
:04000005000000AB4C
:00000001FF
