:020000040800F2
:10000000400B0020DD010008B31C00086D1C000837
:10001000B11C0008A9050008052400080000000024
:10002000000000000000000000000000CF1F0008DA
:10003000AF0A000800000000D51C0008D11F00080E
:10004000F7010008F7010008F7010008F7010008B0
:10005000F7010008F7010008F7010008F7010008A0
:10006000F7010008F7010008F7010008F701000890
:10007000F7010008F7010008F7010008F701000880
:10008000F7010008F7010008F7010008F701000870
:10009000F7010008F7010008F7010008F701000860
:1000A000F7010008F7010008F7010008F701000850
:1000B000F7010008F7010008F7010008F701000840
:1000C000F7010008F7010008F7010008F701000830
:1000D000F70100087D230008B5230008F701000898
:1000E000F7010008F7010008F7010008F701000810
:1000F000F7010008F7010008F7010008F701000800
:10010000F7010008F7010008F7010008F7010008EF
:10011000F7010008F7010008F7010008F7010008DF
:10012000F7010008F7010008F7010008F7010008CF
:1001300000F002F800F042F80AA090E8000C8244B7
:100140008344AAF10107DA4501D100F037F8AFF294
:10015000090EBAE80F0013F0010F18BFFB1A43F0A5
:10016000010318471824000038240000103A24BF67
:1001700078C878C1FAD8520724BF30C830C144BF0C
:1001800004680C607047000000230024002500264E
:10019000103A28BF78C1FBD8520728BF30C148BFEA
:1001A0000B607047782900F0A580732900F09881D2
:1001B000002070471FB51FBD10B510BD00F0C2F97B
:1001C0001146FFF7F7FF02F047F900F0E0F903B43A
:1001D000FFF7F2FF03BC02F01BF90000094880475B
:1001E00009480047FEE7FEE7FEE7FEE7FEE7FEE719
:1001F000FEE7FEE7FEE7FEE704480549054A064B31
:10020000704700003D200008310100084005002033
:10021000400B0020400700204007002070470000EE
:100220000FB4044910B503AA029800F05DF910BCA0
:100230005DF814FB1C0000202DE9F0410E46044639
:10024000002020622046E168884730B3252805D089
:10025000D4E901219047206A401CF2E7E16820467A
:1002600000278847050018D0A5F14100192802D8B9
:1002700020354FF400673246294620462760FFF7B5
:1002800091FF40B1012804D0F61D26F0070608367C
:10029000D8E7361DD6E72846DAE7206ABDE8F081C0
:1002A00070B50C460546012A05D02878800600D591
:1002B000EA69002302E0012305E05B1C934202D2BD
:1002C000E05C0028F9D1A869E618C01AA861286A7C
:1002D000184428622846AFF3008004E0D5E90121E4
:1002E00014F8010B9047B442F8D32846AFF30080CE
:1002F00070BD000070B504460D4621461068AFF38E
:1003000000802188090502D50F4A7A4402E00E4A8E
:100310007A440E32002104F1240305E000F00F06B8
:100320000009965D5E54491C0028F7D1207800230F
:10033000000704D5702D02D009B1022311322046E6
:10034000BDE8704000F061B84522000030B50546B8
:100350000B462A4613F8014B12F8010B08B1A042D4
:10036000F8D01CB1002802D06D1CF1E7284630BD42
:100370004FF000020429C0F0128010F0030C00F0CE
:100380001B80CCF1040CBCF1020F18BF00F8012B4C
:10039000A8BF20F8022BA1EB0C0100F00DB85FEA1A
:1003A000C17C24BF00F8012B00F8012B48BF00F8E6
:1003B000012B70474FF0000200B513469446964655
:1003C000203922BFA0E80C50A0E80C50B1F1200168
:1003D000BFF4F7AF090728BFA0E80C5048BF0CC016
:1003E0005DF804EB890028BF40F8042B08BF704774
:1003F00048BF20F8022B11F0804F18BF00F8012BE6
:10040000704770477047704770472DE9F0470D46B9
:1004100099469246044600F124080168880604D5EE
:10042000E06921F01001216000E00120A84201DD17
:10043000471B00E00027A1697A1902EB0900081A9E
:10044000A0612078C00602D42046AFF300800026C9
:1004500008E0D4E901211AF806009047206A401C00
:10046000761C20624E45F4DB2078C0060AD5204673
:10047000AFF3008006E0D4E9012130209047206AE4
:10048000401C2062381EA7F10107F4DC07E0D4E924
:10049000012118F805009047206A401C2062281EA0
:1004A000A5F10105F3DC2046AFF3008020780006BB
:1004B00002D50220BDE8F0870120FBE710B54369B3
:1004C00013B1AFF3008001E0FFF7EAFE012010BD99
:1004D000127800F124010A7000224A700122EDE72F
:1004E00011684FF0FF32E9E7074B70B50D467B44CA
:1004F00000F011F80446284600F020F810B14FF043
:10050000FF3070BD204670BD4F1F000001694A1CBE
:1005100002610878704700B58FB0CDE90131002144
:10052000059105497944CDE9031011466846FFF766
:1005300083FE0FB000BD0000E5FFFFFF007B00F071
:1005400080007047754600F02BF8AE4605006946FE
:10055000534620F00700854618B020B5FFF74CFE43
:10056000BDE820404FF000064FF000074FF00008B4
:100570004FF0000B21F00701AC46ACE8C009ACE835
:10058000C009ACE8C009ACE8C0098D46704710B599
:100590000446AFF300802046BDE81040FFF717BEC9
:1005A00000487047E0040020FEE700002DE9F0411C
:1005B000124F15460E46044600221021384600F020
:1005C0007EFB0E48083001684906FCD4C034E0B216
:1005D00001F096FC00BF00BF00BF002405E0FF2033
:1005E00001F08EFC3055641CE4B2AC42F7D33846BF
:1005F000BDE8F0410122102100F061BB000801407C
:100600002DE9F041134F15460E46044600221021F5
:10061000384600F054FB0F480830016801F04001F3
:100620004906FAD44034E0B201F06AFC00BF00BFD2
:1006300000BF002404E0305D01F062FC641CE4B201
:10064000AC42F8D33846BDE8F0410122102100F059
:1006500036BB00000008014010B500F067F83220FA
:1006600001F0E4FE3A2000F0FFF9BDE8104001205F
:1006700001F0DCBE0B4800B5816985B041F0040192
:1006800081618069694600F00400049003200090B5
:1006900000200190022002900390034800F014FA19
:1006A00005B000BD001002400008014010B501F087
:1006B000DFFAFFF7DFFF1B4C00221021204600F07D
:1006C000FEFA4FF4FA7001F0B1FE642001F0AEFEC4
:1006D000144908310A6802F040025006FAD4C820D2
:1006E00001F0A4FE01221021204600F0E8FA0E4895
:1006F00000F026F9642001F099FE00F017F83A2086
:1007000000F0B2F9012001F091FE3B2000F0ACF9BD
:10071000012001F08BFE00F0E9F8BDE8104000F088
:1007200005B80000000801402425000810B5362057
:1007300000F09AF9BDE810404FF47A7001F076BEEF
:1007400010B5342000F090F9BDE810404FF4FA6085
:1007500001F06CBE70B5114D0446002210212846F0
:1007600000F0ADFA0D4908310A6802F04000400679
:10077000FAD48034E0B201F0C3FB00BF00BF00BF79
:10078000FF2001F0BDFB044600BF00BF00BF0122F7
:100790001021284600F093FA204670BD0008014061
:1007A00070B50B4C00221021204600F088FA084951
:1007B00008310A685206FCD43D2001F0A1FB054631
:1007C00001221021204600F07AFA284670BD000070
:1007D00000080140F8B5374E0F4605460221304665
:1007E00000F068FA002860D0334C02212078C01C49
:1007F0002070304600F05EFA002856D002213046C4
:1008000000F058FA0028F9D1012001F002FE012081
:1008100001F0FFFD1421294800F040F9012269464A
:100820003B20FFF7C3FE9DF8000040063ED03F206E
:10083000FFF790FF8DF8000028709DF80020142A23
:1008400013D839463F20FFF7B1FEFFF7A9FFA0708C
:100850003A2000F009F9642001F0E8FDFFF770FF8D
:10086000FFF79EFFA07001241BE03A2000F0FCF887
:100870000A2001F0DBFDFFF793FFA070014610A0F6
:10088000FFF7CEFCFFF75CFFFFF78AFFA070014681
:100890000EA0FFF7C5FC09490FA0491CFFF7C0FCDB
:1008A0000024012001F0B5FD2046F8BDFFF7D4FE7D
:1008B000F6E700000008014020000020740400203A
:1008C0007374617465323D25780D0A007374617428
:1008D000653A25780D0A00006743433235303052BF
:1008E000784275663D25730D0A0000000122024919
:1008F0003E20FFF785BE00002300002070B50F4C9E
:100900000D46064600221021204600F0D8F90B487B
:100910000830016801F040014906FAD4304601F080
:10092000EFFA00BF00BF00BF284601F0E9FA2046F9
:10093000BDE870400122102100F0C1B9000801405B
:1009400010B50446C17A0B20A41DFFF7D7FFA1798B
:100950000C20FFF7D3FFE1790D20FFF7CFFF217ABD
:100960000E20FFF7CBFF617A0F20FFF7C7FFA17AB8
:100970001020FFF7C3FFE17A1120FFF7BFFF217BB3
:100980001220FFF7BBFF617B1320FFF7B7FFA17BAE
:100990001420FFF7B3FF21790A20FFF7AFFFE17BB7
:1009A0001520FFF7ABFFE17E2120FFF7A7FF217F96
:1009B0002220FFF7A3FFA17C1820FFF79FFFE17C17
:1009C0001920FFF79BFF217D1A20FFF797FF617D1C
:1009D0001B20FFF793FFA17D1C20FFF78FFFE17D18
:1009E0001D20FFF78BFF617F2320FFF787FFA17F8B
:1009F0002420FFF783FFE17F2520FFF77FFF94F896
:100A000020102620FFF77AFF94F823102920FFF703
:100A100075FF94F826102C20FFF770FF94F827102C
:100A20002D20FFF76BFF94F828102E20FFF766FFAC
:100A300014F8061C0020FFF761FF14F8041C0220C4
:100A4000FFF75CFF61780720FFF758FFA1780820C7
:100A5000FFF754FFE1780920FFF750FF2178BDE848
:100A600010400620FFF74ABF70B50B4C0546002228
:100A70001021204600F023F9074908310A68500682
:100A8000FCD4284601F03CFA00BF01222046BDE814
:100A90007040102100F013B90008014000221346F5
:100AA00002E08354521CD2B28A42FAD37047704794
:100AB00031B500F009F9044600F006F90099001B71
:100AC0008842F9D338BD00002DE9F84FDFF8BC911A
:100AD000002309F1040A0AF1040B1C464FF00F0829
:100AE0000BF1040E01270A68A7403A40BA4272D1BE
:100AF000DFF89CC14D68A5EB0C0665452BD00DDCDD
:100B0000032D34D005DC35B3012D19D0022D2FD1A2
:100B10001BE0112D16D0122D2AD119E0B6F5881F31
:100B200019D006DCB6F5803F15D0B6F5801F1FD171
:100B300011E0B6F5001F0ED0B6F5041F18D10AE07B
:100B4000CB6815E0CB681B1D12E0CB6808330FE0C3
:100B5000CB680C330CE08B682BB1012B4FF00803F2
:100B600003D0476104E0042302E0076100E00023B2
:100B7000FF2A01D8064601E000F104064FEA840589
:100B800001D9A5F12005376808FA05FC27EA0C070A
:100B900003FA05F547EA050737604D68ED006ED5A5
:100BA0003C4DAE6946F00106AE61AD6924F0030626
:100BB00005F001050095384D7719BE68A5072D0F82
:100BC00008FA05FC26EA0C06DFF8D0C0604503D120
:100BD0004FF0000C25E052E0DFF8C4C0604502D1C0
:100BE0004FF0010C1DE0DFF8BCC0604502D14FF0B2
:100BF000020C16E0DFF8B0C0604502D14FF0030CE4
:100C00000FE0DFF8A8C0604502D14FF0040C08E007
:100C1000DFF89CC0604502D14FF0050C01E04FF0B9
:100C2000060C0CFA05FC4CEA060CC7F808C04D6827
:100C3000D9F80060ED034D4601D5164300E0964318
:100C40002E604D68DAF80060AD03554601D51643B5
:100C500000E096432E604D68DBF80060ED025D46D3
:100C600001D5164300E096432E604D68DEF8006023
:100C7000AD02754601D5164300E096432E60641C14
:100C8000102CFFF42FAFBDE8F88F000000040140E6
:100C90000000111000100240000001400008014057
:100CA000000C0140001001400014014000180140F8
:100CB000001C01408068084000D0012070470AB144
:100CC000016170470904FBE70148006870470000B4
:100CD0000800002002480168491C016070470000BC
:100CE00008000020074810B5016841F010010160BC
:100CF000032000F047F80F2000F006F800F015F888
:100D0000002010BD0020024010B5044600F00CF990
:100D10004FF47A71B0FBF1F000F021FE0022214681
:100D2000501E00F00FF8002010BD704700F01F02A9
:100D3000012191404009800000F1E020C0F800113D
:100D400070470000F0B40E4B1B68C3F30223C3F1DD
:100D50000704042C00D904241D1D072D01D20023F3
:100D600000E0DB1E012606FA04F56D1E0D409D40D5
:100D70009E40761E164045EA0601F0BC00F09ABF80
:100D80000CED00E0064A00F0070110684FF6FF0383
:100D9000184040EA012003490843106070470000F2
:100DA0000CED00E00000FA052DE9F047DFF868815E
:100DB00004460E46D8F8000000F00700B0420CD2FE
:100DC000D8F8001021F007013143C8F80010D8F816
:100DD000000000F00700B04273D120784F4F800729
:100DE00005D57868A16820F0F00008437860207885
:100DF000C00755D06068012201280CD0022828D0F5
:100E0000022393FAA3F1B1FA81F141F020014909DB
:100E100004D0396803E04FF40033F2E7796A93FABB
:100E2000A3F3B3FA83F303F01F039A40114248D0AF
:100E3000796821F0030101437960FFF745FF05461A
:100E4000606841F2883101280CD00228894615D00B
:100E500022E04FF00073D4E7FFF736FF411B49450E
:100E600001D916E089467868C0F381000128F3D1E2
:100E700016E0FFF729FF411B49450AD87868C0F3FF
:100E800081000228F5D10BE0FFF71EFF411B494509
:100E900002D90320BDE8F087786810F00C0FF3D179
:100EA000D8F80010404601F00701B1420BD90168A3
:100EB00021F0070131430160006800F00700B042F3
:100EC00001D00120E6E72078400705D57868E16881
:100ED00020F4E060084378602078000706D5786841
:100EE000216920F4605040EAC100786000F052F8B7
:100EF0007968F02292FAA2F201F0F001B2FA82F2DD
:100F0000D140074A515CC840064908600F20FFF7EE
:100F1000FBFE0020BEE7000000200240001002405F
:100F20000C250008040000200148006870470000FC
:100F30000400002008480949006849684FF4E0624D
:100F400092FAA2F201F4E061B2FA82F2D140044ACC
:100F5000515CC840704700000400002000100240AF
:100F60001C25000808480949006849684FF4605288
:100F700092FAA2F201F46051B2FA82F2D140044A2C
:100F8000515CC8407047000004000020001002407F
:100F90001C25000810B519A085B00FC88DE80F00FA
:100FA0001AA01B4B0068049059681A4801F00C0203
:100FB000042A1DD0082A1BD14FF4701494FAA4F40B
:100FC00001F47012B4FA84F4E240C9031DF802205F
:100FD00010D559684FF4003393FAA3F301F40031AC
:100FE000B3FA83F3D94004AB595CB0FBF1F0504342
:100FF00005B010BD08485043FAE70000020304059D
:10100000060708090A0B0C0D0E0F10100102000054
:101010000010024000127A0000093D002DE9F84F4F
:1010200004460078FE4EC0074FF001057FD070687F
:101030004FF40038C0F38100012807D07068C0F376
:10104000810002281BD17068C00318D598FAA8F057
:10105000B0FA80F040F02000400901D0306800E094
:10106000706A98FAA8F1B1FA81F101F01F0105FA4E
:1010700001F108425BD06068002879D057E06068D1
:10108000B0F5803F0BD010B1B0F5A02F11D0306873
:1010900020F480303060306820F4802002E0306836
:1010A00040F480303060606818B3FFF70DFE0746EB
:1010B00009E0306840F480203060F0E7FFF704FE7C
:1010C000C01B642870D898FAA8F0B0FA80F040F0FD
:1010D0002000400901D0306800E0706A98FAA8F159
:1010E000B1FA81F101F01F0105FA01F10842E5D0E2
:1010F0001DE0FFF7E9FD074604E0FFF7E5FDC01B33
:101100006428DFD898FAA8F0B0FA80F040F0200008
:10111000400901D0306800E0706A98FAA8F1B1FA8D
:1011200081F101F01F0105FA01F10842E5D12078B3
:10113000DFF8F08280074FF0000A4FF002075AD51F
:1011400070684FF0F80B10F00C0F07D07068C0F308
:10115000810002281CD17068C00319D497FAA7F047
:10116000B0FA80F040F02000400902D0306801E081
:101170008AE0706A97FAA7F1B1FA81F101F01F01D4
:1011800005FA01F108422BD0206901287CD127E023
:10119000206988B395FAA5F0B0FA80F048F820509D
:1011A000FFF792FD814606E04DE1FFF78DFDA0EBD4
:1011B0000900022886D897FAA7F0B0FA80F040F02C
:1011C0002000400901D0306800E0706A97FAA7F16A
:1011D000B1FA81F101F01F0105FA01F10842E4D0F2
:1011E00030689BFAABF220F0F8016069B2FA82F243
:1011F00090400143316025E0FFE795FAA5F1B1FA8F
:1012000081F148F821A0FFF75FFD814605E0FFF777
:101210005BFDA0EB09000228CCD897FAA7F0B0FA42
:1012200080F040F02000400901D0306800E0706A92
:1012300097FAA7F1B1FA81F101F01F0105FA01F166
:101240000842E4D1207800076DD5A069B8B395FABB
:10125000A5F0B0FA80F008EB8000C0F88054FFF7EA
:1012600033FD814605E0FFF72FFDA0EB09000228C2
:10127000A0D897FAA7F0B0FA80F040F06000B5EB84
:10128000501F02D130680CE063E197FAA7F0B0FA82
:1012900080F040F06000B7EB501F01D1306A00E0F1
:1012A000706A97FAA7F1B1FA81F101F01F0105FA0E
:1012B00001F21042D7D00120FFF7FAFB33E0FFE73D
:1012C00095FAA5F1B1FA81F108EB8101C1F880A48A
:1012D000FFF7FAFC814605E0FFF7F6FCA0EB0900FA
:1012E000022899D897FAA7F0B0FA80F040F0600091
:1012F000B5EB501F01D130680BE097FAA7F0B0FAB8
:1013000080F040F06000B7EB501F01D1306A00E080
:10131000706A97FAA7F1B1FA81F101F01F0105FA9D
:1013200001F21042D8D12078400763D5F06940F02F
:101330008050F061F069DFF8F0B000F0805000906C
:10134000DBF8001041F48071CBF80010FFF7BCFC13
:10135000814605E0FFF7B8FCA0EB0900642872D8CD
:10136000DBF80000C005F5D5E06801280AD008B117
:10137000052813D0306A20F001003062306A20F076
:10138000040002E0306A40F001003062E06841F29F
:10139000883B80B3FFF798FC81460AE0306A40F052
:1013A00004003062EEE7FFF78FFCA0EB090159451E
:1013B00049D897FAA7F0B0FA80F040F04000B5EBBA
:1013C000501F01D130680BE097FAA7F0B0FA80F017
:1013D00040F04000B7EB501F01D1306A00E0706A66
:1013E00097FAA7F1B1FA81F101F01F0205FA02F1B3
:1013F0000842D8D033E0FFE7FFF766FC814605E0FE
:10140000FFF762FCA0EB090159451CD897FAA7F039
:10141000B0FA80F040F04000B5EB501F08D105E075
:1014200000100240000042420070004030680CE0B2
:1014300097FAA7F0B0FA80F040F04000B7EB501FE9
:1014400002D1306A01E08AE0706A97FAA7F1B1FA36
:1014500081F101F01F0205FA02F10842D0D1E069E2
:1014600098B37168C1F38101022972D002284FF04C
:1014700080714FF0007B50460AD091FAA1F1B1FA89
:1014800081F148F82100FFF71FFC04465F4669E040
:101490008A4691FAA1F1B1FA81F1C14648F82100DA
:1014A000FFF712FCA84607465D4604E0FFF70CFC78
:1014B000C01B022853D895FAA5F0B0FA80F040F08E
:1014C0002000400902D0306801E060E0706A95FABF
:1014D000A5F1B1FA81F101F01F0208FA02F1084208
:1014E000E4D1206AB0F5803F05D17068A16820F48E
:1014F000003008437060D4E908010843716821F4A2
:101500007411084370609AFAAAF0B0FA80F0474666
:1015100049F82080FFF7D8FB044604E0FFF7D4FB2E
:10152000001B02281BD895FAA5F0B0FA80F040F015
:101530002000400901D0306800E0706A95FAA5F1FA
:10154000B1FA81F101F01F0107FA01F10842E5D07B
:101550001DE01EE0FFF7B8FB001B022802D90320A4
:10156000BDE8F88F97FAA7F0B0FA80F040F02000BD
:10157000400901D0306800E0706A97FAA7F1B1FA2B
:1015800081F101F01F0105FA01F10842E2D10020CA
:10159000E6E70120E4E770B5040004D094F85100B8
:1015A000002510B106E0012070BD84F8505020469F
:1015B00000F02EF8022084F851002068016821F024
:1015C00040010160D4E901010843D4E90312114349
:1015D000084361690843218B01F400710843E16904
:1015E0000843216A0843A16A084321680860A0698A
:1015F000042101EA1040616A0843216848602168BB
:10160000E06A08616565012084F85100002070BD22
:1016100030B500681C4985B0884233D11B488169C8
:1016200041F480518161816901F4805104918169A3
:1016300041F0040181618069154D00F004000490BF
:10164000A0200090022001240190694603942846BE
:10165000FFF73AFA00214020CDE9000102916946E6
:101660002846FFF731FA1020CDE900040320CDE928
:10167000024069462846FFF727FA01221021284632
:10168000FFF71DFB05B030BD0030014000100240E7
:10169000000801402DE9F8430026DDF820800446CB
:1016A000ADF8006090F85100012803D094F8510083
:1016B00022287DD169B162B15BB194F85000012854
:1016C00076D0012784F8507094F85100012803D097
:1016D00005E00120BDE8F883322084F851006665FA
:1016E000A263A387E3872163A386E386A664E664F7
:1016F000A06A4FF40055A84209D12068016821F47E
:10170000005101602068016841F4005101602068C7
:101710000168490603D4016841F040010160E068B6
:101720004FF48271B0F5006F606807D0002867D071
:1017300088426ED1E08E012862D06AE020B18842F2
:101740000CD1E08E012809D1206B21680088C86087
:10175000206B801C2063E08E401EE086E08E80B906
:10176000A06AA84244D12068016841F48051016018
:101770003EE02068C068A16B0880A06B801CA0635D
:101780009EE0434600220221204600F0D1FB0028C3
:1017900074D1206B21680088C860206B801C206396
:1017A000E08E401E0004000CE08609D1A06A00E033
:1017B000C7E0A84204D12068016841F4805101606B
:1017C000434600220121204600F0B2FB00286FD1E1
:1017D0002068C068A16B0880A06B801CA063E08FAC
:1017E000401EE087E08E0028CBD1606800286AD1D7
:1017F000434600220121204600F09AFBF0BBB8E7E7
:10180000206B411C216321680078C860E08E401E77
:10181000E086E08E98B9A06AA84204D120680168E9
:1018200041F480510160434600220121204600F02E
:101830007FFB18BB2068C068A16B087040E043467E
:1018400000220221204600F073FBB8B9206B411C36
:10185000216321680078C860E08E401E0004000CFF
:10186000E08607D1A06AA84204D12068016841F44B
:101870008051016000224346012100E018E020462B
:1018800000F056FBA0B92068C168A06B421CA2639F
:101890000170E08F401EE087E08E0028CFD16068A5
:1018A00088B9434600220121204600F041FB08B1DF
:1018B00003200FE72068C168A06B421CA26301707F
:1018C000E08F401EE087A06AA84210D14346002264
:1018D0000121204600F02CFB18B1606D40F00200A1
:1018E0000FE02068C068ADF80000BDF80000434676
:1018F00001228021204600F01BFB20B1606D40F0EA
:1019000010006065D4E784F85170A06AA84214D131
:1019100020688168C943C9060FD4616D41F0020196
:101920006165016821F4005101602068016841F49B
:101930000051016084F85060CBE684F850600020CC
:10194000C8E60220C6E64FF0E0210428086903D06B
:1019500020F004000861704740F00400FAE710B579
:10196000401EB0F1807F01D3012010BD4FF0E02474
:1019700060610F21601700F09DF90020A061072031
:101980002061002010BD704738B50446006801682A
:10199000C268C1F3000102F4807221B11AB1E16B97
:1019A00041F00101E1630168C1F34002416901F0C6
:1019B000010122B119B1E26B42F00402E263026854
:1019C000C2F3800222B119B1E26B42F00202E2637B
:1019D0000268C2F3C00222B119B1E16B41F0080103
:1019E000E1630168C068C1F3401100F0200019B143
:1019F00010B1204600F082FB20680168C068C1F386
:101A0000C01100F0800019B110B1204600F082FC36
:101A100021680868CA68C0F3801002F040020125FE
:101A200068B162B1CA68204622F04002CA6094F8E8
:101A30003910322910D080F8395000F016F9E06BD7
:101A4000002808D0206801684068009084F8395068
:101A50002046FFF798FF38BD222180F83910ECE7C7
:101A600070B5040004D094F83900002510B106E0E8
:101A7000012070BD84F83850204600F021F8022083
:101A800084F839002068C16821F40051C160204603
:101A900000F088FB2068016921F490410161206811
:101AA000416921F02A0141612068C16841F4005177
:101AB000C160E563012084F83900002070BD00009A
:101AC0002DE9F04780460068474B0121474A002531
:101AD000474C0226032786B04FF4806998422ED1E6
:101AE000A06940F00400A061A06900F00400049027
:101AF000A06940F48040A061A06900F48040049097
:101B0000A06940F00100A061A069039700F0010006
:101B1000049048020090CDE9016169469246104662
:101B2000FEF7D2FFCDE9009569465046FEF7CCFF9F
:101B30002520FFF7FBF801221146252029E02D4B37
:101B4000984228D1A06940F00400A061A06900F08B
:101B500004000490E06940F40030E061E06903971C
:101B600000F40030049004200090CDE90161694642
:101B700092461046FEF7A8FF0820CDE90005694609
:101B80005046FEF7A1FF2620FFF7D0F802220121E0
:101B90002620FFF7D7F81849D8F8000088421FD14F
:101BA000E06940F48020E061E06900F48020049066
:101BB000A06940F00800A061A069104C00F0080086
:101BC000CDE90370CDE9009669462046FEF77CFF1B
:101BD000E014CDE90005694620460295FEF774FF42
:101BE00006B0BDE8F0870000003801400008014061
:101BF000001002400044004000480040000C01403A
:101C000090F83930012B01D0122B2BD131B32AB3EC
:101C100090F83830012B25D0012380F838308162CC
:101C20008285C2850021C16390F83920122A17D01D
:101C3000222280F8392080F838100168CA6842F4FE
:101C40008072CA6001684A6942F001024A61006814
:101C5000C16841F02001C160002070470120704739
:101C60003222E6E70220704770477047FEE7000027
:101C70000E4810B50C4901604FF48271416000219B
:101C80008160C1604FF400720161C0E90512302229
:101C9000C0E90721416281620721C162FFF77BFC35
:101CA000002800D0FEE710BD00300140880400206D
:101CB000FEE770470907090E002806DA00F00F005A
:101CC00000F1E02080F8141D704700F1E02080F85A
:101CD000001470477047000010B50122D103054879
:101CE000FEF7EDFF0122BDE8104018210248FEF783
:101CF000E6BF000000080140000C0140F0B521489B
:101D000085B0816941F001018161816901F00101C2
:101D100004911D494A6822F0E06242F000724A6074
:101D2000816941F008018161816901F00801049134
:101D3000816941F0040181618069144E00F0040062
:101D40000490012001900290032048F218040390AF
:101D5000694600943046FEF7B7FE0D4F4FF400453C
:101D6000694638460095FEF7AFFE0122214630460F
:101D7000FEF7A5FF012229463846FEF7A0FF05B071
:101D8000F0BD00000010024000000140000C0140C6
:101D90000008014010B5094C002208212046FEF73A
:101DA0008EFF012248F210012046FEF788FF012233
:101DB000BDE81040D1030248FEF781BF000C01408E
:101DC0000008014030B5104885B0816941F0040138
:101DD000816180694FF4807400F004000490012058
:101DE000CDE900400220094D039069462846FEF7E0
:101DF0006BFE002221462846FEF761FF00F064F8E2
:101E000000F044F905B030BD001002400008014068
:101E1000F0B52A49012503264A78294F0023294C89
:101E20004FF0020CE12803D1042A01D24D7012E0D8
:101E3000012A04D0022A07D0032A09D00AE0E228A6
:101E400008D181F801C006E0E32803D14E7002E01A
:101E5000E42817D04B708A78002A1DD02268C72A40
:101E600002D90B708B7023602268B854521C226018
:101E7000EA2810D00A78012A0FD0022A12D0032AA9
:101E800014D019E0E1223A70E2227A70E322BA70AB
:101E900026608D70E8E70D70F0BDEB280CD181F85D
:101EA00000C0F0BDEC2807D10E70F0BDED2803D1C5
:101EB0004FF4004020608B700B70F0BD0C000020D0
:101EC000EC0200201800002070B50B4C09480025DA
:101ED00020602571E580258165812573C82104F185
:101EE0000D00FEF745FAA4F8D6500448C4F8D8000F
:101EF00070BD0000E4E3E2E148010020EDECEBEA14
:101F000001B582B00A2000F091FA4FF47A70009087
:101F1000012301AA02A90448FFF7BCFB034948704A
:101F20009DF804000EBD0000880400202000002061
:101F30002DE9F0471D4690460F460446FEF7C4FEC5
:101F400006465FEA08004FF000084FF4005A4FF0D1
:101F5000010926D034E0681C23D025B1FEF7B4FE79
:101F6000801BA8421DD92068416821F0E001416032
:101F70002068016821F040010160A06A504509D144
:101F80002068016821F4005101602068016841F473
:101F90000051016084F8519084F850800320BDE81E
:101FA000F0872068806837EA0000D4D10DE0681C13
:101FB00006D0002DD7D0FEF787FE801BA842D2D8CE
:101FC0002068806837EA0000F1D00020E7E770471A
:101FD000FEF780BE30B58FB002240120049000943B
:101FE0001020059000254FF46010CDE908500794AB
:101FF0006846FFF713F800B1FEE70AA90F2081E851
:1020000031004FF48060CDE90D0502210AA8FEF7EA
:10201000CBFE00B1FEE7FEF787FF4FF47A71B0FB0D
:10202000F1F0FFF79CFC0420FFF78DFC0022114625
:10203000501EFEF787FE0FB030BD00000F4810B5F0
:10204000016841F00101016041680D4A11404160A1
:1020500001680C4A11400160016821F4802101608F
:10206000416821F4FE0141604FF41F018160FFF7D8
:10207000B1FF05494FF00060086010BD001002403C
:102080000000FFF8FFFFF6FE08ED00E070B50B4C16
:102090000948002520602571E5802581658125732B
:1020A000C82104F10D00FEF763F9A4F8D6500448E6
:1020B000C4F8D80070BD0000E4E3E2E16C00002049
:1020C000EDECEBEA0B4910B5094AC1E9002000200C
:1020D0008860C860086188610C2048610846FFF785
:1020E000BFFCBDE81040012203490248FFF788BD4C
:1020F00000380140B40300201400002010B590F80F
:102100003910222903D0322901D0022010BD816864
:10211000B1F5805F11D00169002901681FD04968BD
:1021200001F07F03816A4A1C82620B70C18D491ED7
:102130000904090CC18518D02FE00269816A002AC0
:102140000268526805D0D2B20A80816A491C816255
:10215000ECE7C2F308020A80816A891CF7E74A6843
:10216000816A4B1C83620A70E0E70168CA6822F04A
:102170002002CA6090F83910322910D00168CA686C
:1021800022F48072CA6001684A6922F001024A6141
:10219000012180F83910FFF767FD002010BD1221E2
:1021A000F7E700002DE9F041044600680169E268A4
:1021B00021F4405111430161A16820690143606924
:1021C00001432068C26841F20C639A430A43C2602B
:1021D00020684169A26921F44071114341614C4971
:1021E00020686426322788423CD1FEF7BBFE00EB14
:1021F000C00101EB001061688900B0FBF1F5FEF74A
:10220000B1FE00EBC00101EB00106168B846890027
:10221000B0FBF1F0B0FBF6F06FF01801484305EBAE
:10222000800107EB0110B0FBF6F000F0F005FEF7BF
:1022300099FE00EBC00101EB001061688900B0FB62
:10224000F1F0B0FBF6F005EB0015FEF78BFE00EBAE
:10225000C00101EB001061688900B0FBF1F7FEF7E7
:1022600081FE3BE0FEF766FE00EBC00101EB0010D3
:1022700061688900B0FBF1F5FEF75CFE00EBC00180
:1022800001EB00106168B8468900B0FBF1F0B0FBCB
:10229000F6F06FF01801484305EB800107EB0110E1
:1022A000B0FBF6F000F0F005FEF744FE00EBC001D5
:1022B00001EB001061688900B0FBF1F0B0FBF6F0B3
:1022C00005EB0015FEF736FE00EBC00101EB001038
:1022D00061688900B0FBF1F7FEF72CFE00EBC0014E
:1022E00001EB001061688900B0FBF1F0B0FBF6F083
:1022F0006FF01801484307EB800108EB0110B0FBB9
:10230000F6F0216800F00F0028448860BDE8F081F5
:102310000038014090F83910122903D0322901D039
:10232000022070478168B1F5805F016A0BD04A1CBA
:102330000262026809785160C18C491E0904090CC7
:10234000C1840ED017E009880268C1F3080151600A
:1023500001690029016A02D0491C0162ECE7891C6D
:10236000FBE70168CA6822F08002CA600068C168A1
:1023700041F04001C1600020704700000A4810B5DC
:1023800000680068C043800609D40848006808490E
:10239000C0B24968B1F5004F01D0FFF739FDBDE883
:1023A00010400148FFF7F0BAB403002004380140A0
:1023B00014000020054800680068C043800601D46E
:1023C000034800680148FFF7DFBA0000340400202A
:1023D000044400400A4910B5084AC1E90020002021
:1023E00088600C22C860C1E904028861C86108469F
:1023F000FFF736FB002800D0FEE710BD0048004084
:10240000F4030020FEE70520401EC0B2FCD2704756
:10241000704700B54FF47A71002200FB01F302E02F
:10242000FFF7F1FF521C9A42FAD300BD00B50346F4
:10243000002202E0FFF7E7FF521C9A42FAD300BDE8
:1024400004490A685206FCD5024AC1B2121D116045
:102450007047000000480040FEF744FCFFF7B2FC64
:102460004FF4E1342046FFF72DFE2046FFF7B2FF80
:10247000FEF71CF9FEF764F914A0FDF7D1FEFFF793
:102480003DFCFEF78DF916490870014615A0FDF7D1
:10249000C7FE13481649401CFEF79CF90128F8D1E5
:1024A000134914A0FDF7BCFE14A11148FDF74EFF1F
:1024B00010B1FFF76FFCECE712A10D48FDF746FFE6
:1024C0000028E6D0FFF708FCE3E70000636332353D
:1024D0003030205258204D6F64650D0A0000000016
:1024E000000000205374617475733A25780D0A005A
:1024F0004C0000203D3D25730D0A00006C656420F2
:102500006F6E00006C6564206F666600000000005E
:102510000000000001020304060708090000000093
:1025200001020304062E0606D391FF0445000009AC
:10253000005D93B12D3B7322F8470000181D1CC7A6
:1025400000B2000000B610EA0A00110000590000B5
:1025500088310B30313233343536373839414243E4
:102560004445464030580030313233343536373800
:102570003961626364656640307800009C2500081C
:10258000000000204C0000006C010008E825000855
:102590004C000020F40A0000880100080000000040
:1025A0000090D003000000000000000000000000C8
:1025B000000000000000000000000000000000FB20
:1025C000FE000000000000063132333435360000D2
:1025D00000000000000000000000000000000000FB
:0825E0000000000000000000F3
:0400000508000131BD
:00000001FF
