:020000040800F2
:10000000880A0020CD010008551300084912000895
:10001000D1120008A1020008B91C0008000000006D
:10002000000000000000000000000000AF15000804
:10003000A30200080000000077130008571A000808
:10004000E7010008E7010008E7010008E7010008F0
:10005000E7010008E7010008E7010008E7010008E0
:10006000E7010008E7010008E7010008E7010008D0
:10007000E7010008E7010008E7010008E7010008C0
:10008000E7010008E7010008E7010008E7010008B0
:10009000E7010008E7010008E7010008E7010008A0
:1000A000E7010008E7010008E7010008E701000890
:1000B000E7010008E7010008E7010008E701000880
:1000C000E7010008E7010008E7010008E701000870
:1000D000E7010008291C0008751C0008E70100085A
:1000E000E7010008E7010008E7010008E701000850
:1000F000E7010008E7010008E7010008E701000840
:10010000E7010008E7010008E7010008E70100082F
:10011000E7010008E7010008E7010008E70100081F
:10012000E7010008E7010008E7010008E70100080F
:1001300000F002F800F03AF80AA090E8000C8244BF
:100140008344AAF10107DA4501D100F02FF8AFF29C
:10015000090EBAE80F0013F0010F18BFFB1A43F0A5
:1001600001031847601C0000801C0000103A24BFE7
:1001700078C878C1FAD8520724BF30C830C144BF0C
:1001800004680C607047000000230024002500264E
:10019000103A28BF78C1FBD8520728BF30C148BFEA
:1001A0000B6070471FB51FBD10B510BD00F045F8BE
:1001B0001146FFF7F7FF01F08DFD00F063F803B47F
:1001C000FFF7F2FF03BC01F078FD0000094880470B
:1001D00009480047FEE7FEE7FEE7FEE7FEE7FEE729
:1001E000FEE7FEE7FEE7FEE704480549054A064B41
:1001F00070470000CD1A0008310100088804002073
:10020000880A00208806002088060020704730B544
:1002100005460B462A4613F8014B12F8010B08B1AC
:10022000A042F8D01CB1002802D06D1CF1E728468E
:1002300030BD7047704770477047754600F02CF826
:10024000AE4605006946534620F00700854618B0C3
:1002500020B5FFF7C9FFBDE820404FF000064FF082
:1002600000074FF000084FF0000B21F00701AC46EB
:10027000ACE8C009ACE8C009ACE8C009ACE8C0090A
:100280008D46704710B50446AFF300802046BDE8A8
:100290001040FFF794BF000000487047280400207A
:1002A000FEE770472DE9F04105460E46012001F0BA
:1002B000FCF90021242001F08DFAF721112001F032
:1002C00089FA3146222001F085FA00210E2001F042
:1002D00081FA00210D2001F07DFA124F0022022147
:1002E000384600F028F9802001F0FEF8002405E0EF
:1002F000287801F0F9F8641CE4B26D1CB442F7D31D
:1003000001220221384600F016F94021084601F08A
:1003100061FA0021412001F05DFABDE8F0410320BF
:1003200001F0C3B90008014031B500F009F90446F5
:1003300000F006F90099001B8842F9D338BD00008F
:100340002DE9F84FDFF8BC91002309F1040A0AF106
:10035000040B1C464FF00F080BF1040E01270A682E
:10036000A7403A40BA4272D1DFF89CC14D68A5EB74
:100370000C0665452BD00DDC032D34D005DC35B3E0
:10038000012D19D0022D2FD11BE0112D16D0122DC9
:100390002AD119E0B6F5881F19D006DCB6F5803FE2
:1003A00015D0B6F5801F1FD111E0B6F5001F0ED095
:1003B000B6F5041F18D10AE0CB6815E0CB681B1D09
:1003C00012E0CB6808330FE0CB680C330CE08B688D
:1003D0002BB1012B4FF0080303D0476104E0042345
:1003E00002E0076100E00023FF2A01D8064601E091
:1003F00000F104064FEA840501D9A5F1200537680C
:1004000008FA05FC27EA0C0703FA05F547EA050791
:1004100037604D68ED006ED53C4DAE6946F0010683
:10042000AE61AD6924F0030605F001050095384D75
:100430007719BE68A5072D0F08FA05FC26EA0C06F9
:10044000DFF8D0C0604503D14FF0000C25E052E04A
:10045000DFF8C4C0604502D14FF0010C1DE0DFF8A9
:10046000BCC0604502D14FF0020C16E0DFF8B0C00E
:10047000604502D14FF0030C0FE0DFF8A8C06045E3
:1004800002D14FF0040C08E0DFF89CC0604502D1B7
:100490004FF0050C01E04FF0060C0CFA05FC4CEA9D
:1004A000060CC7F808C04D68D9F80060ED034D464A
:1004B00001D5164300E096432E604D68DAF80060DF
:1004C000AD03554601D5164300E096432E604D68B6
:1004D000DBF80060ED025D4601D5164300E096436F
:1004E0002E604D68DEF80060AD02754601D51643FA
:1004F00000E096432E60641C102CFFF42FAFBDE883
:10050000F88F0000000401400000111000100240AC
:100510000000014000080140000C014000100140B3
:100520000014014000180140001C01408068084090
:1005300000D0012070470AB1016170470904FBE750
:1005400001480068704700000C0000200248016864
:10055000491C0160704700000C000020074810B5DE
:10056000016841F010010160032000F03BF80F200A
:1005700000F006F800F015F8002010BD0020024041
:1005800010B5044600F000F94FF47A71B0FBF1F0B9
:1005900000F0D7FD00222146501E00F003F8002095
:1005A00010BD7047F0B40E4B1B68C3F30223C3F1B8
:1005B0000704042C00D904241D1D072D01D200239B
:1005C00000E0DB1E012606FA04F56D1E0D409D407D
:1005D0009E40761E164045EA0601F0BC00F0BBBE08
:1005E0000CED00E0064A00F0070110684FF6FF032B
:1005F000184040EA0120034908431060704700009A
:100600000CED00E00000FA052DE9F047DFF8688105
:1006100004460E46D8F8000000F00700B0420CD2A5
:10062000D8F8001021F007013143C8F80010D8F8BD
:10063000000000F00700B04273D120784F4F8007D0
:1006400005D57868A16820F0F0000843786020782C
:10065000C00755D06068012201280CD0022828D09C
:10066000022393FAA3F1B1FA81F141F02001490983
:1006700004D0396803E04FF40033F2E7796A93FA63
:10068000A3F3B3FA83F303F01F039A40114248D057
:10069000796821F0030101437960FFF751FF0546B6
:1006A000606841F2883101280CD00228894615D0B3
:1006B00022E04FF00073D4E7FFF742FF411B4945AA
:1006C00001D916E089467868C0F381000128F3D18A
:1006D00016E0FFF735FF411B49450AD87868C0F39B
:1006E00081000228F5D10BE0FFF72AFF411B4945A5
:1006F00002D90320BDE8F087786810F00C0FF3D121
:10070000D8F80010404601F00701B1420BD901684A
:1007100021F0070131430160006800F00700B0429A
:1007200001D00120E6E72078400705D57868E16828
:1007300020F4E060084378602078000706D57868E8
:10074000216920F4605040EAC100786000F022F88E
:100750007968F02292FAA2F201F0F001B2FA82F284
:10076000D140074A515CC840064908600F20FFF796
:1007700007FF0020BEE700000020024000100240FA
:10078000B41D000804000020014800687047000004
:100790000400002010B519A085B00FC88DE80F0027
:1007A0001AA01B4B0068049059681A4801F00C020B
:1007B000042A1DD0082A1BD14FF4701494FAA4F413
:1007C00001F47012B4FA84F4E240C9031DF8022067
:1007D00010D559684FF4003393FAA3F301F40031B4
:1007E000B3FA83F3D94004AB595CB0FBF1F050434A
:1007F00005B010BD08485043FAE7000002030405A5
:10080000060708090A0B0C0D0E0F1010010200005C
:100810000010024000127A0000093D002DE9F84F57
:1008200004460078FE4EC0074FF001057FD0706887
:100830004FF40038C0F38100012807D07068C0F37E
:10084000810002281BD17068C00318D598FAA8F05F
:10085000B0FA80F040F02000400901D0306800E09C
:10086000706A98FAA8F1B1FA81F101F01F0105FA56
:1008700001F108425BD06068002879D057E06068D9
:10088000B0F5803F0BD010B1B0F5A02F11D030687B
:1008900020F480303060306820F4802002E030683E
:1008A00040F480303060606818B3FFF749FE0746B7
:1008B00009E0306840F480203060F0E7FFF740FE48
:1008C000C01B642870D898FAA8F0B0FA80F040F005
:1008D0002000400901D0306800E0706A98FAA8F161
:1008E000B1FA81F101F01F0105FA01F10842E5D0EA
:1008F0001DE0FFF725FE074604E0FFF721FEC01BC1
:100900006428DFD898FAA8F0B0FA80F040F0200010
:10091000400901D0306800E0706A98FAA8F1B1FA95
:1009200081F101F01F0105FA01F10842E5D12078BB
:10093000DFF8F08280074FF0000A4FF002075AD527
:1009400070684FF0F80B10F00C0F07D07068C0F310
:10095000810002281CD17068C00319D497FAA7F04F
:10096000B0FA80F040F02000400902D0306801E089
:100970008AE0706A97FAA7F1B1FA81F101F01F01DC
:1009800005FA01F108422BD0206901287CD127E02B
:10099000206988B395FAA5F0B0FA80F048F82050A5
:1009A000FFF7CEFD814606E04DE1FFF7C9FDA0EB64
:1009B0000900022886D897FAA7F0B0FA80F040F034
:1009C0002000400901D0306800E0706A97FAA7F172
:1009D000B1FA81F101F01F0105FA01F10842E4D0FA
:1009E00030689BFAABF220F0F8016069B2FA82F24B
:1009F00090400143316025E0FFE795FAA5F1B1FA97
:100A000081F148F821A0FFF79BFD814605E0FFF743
:100A100097FDA0EB09000228CCD897FAA7F0B0FA0E
:100A200080F040F02000400901D0306800E0706A9A
:100A300097FAA7F1B1FA81F101F01F0105FA01F16E
:100A40000842E4D1207800076DD5A069B8B395FAC3
:100A5000A5F0B0FA80F008EB8000C0F88054FFF7F2
:100A60006FFD814605E0FFF76BFDA0EB0900022852
:100A7000A0D897FAA7F0B0FA80F040F06000B5EB8C
:100A8000501F02D130680CE063E197FAA7F0B0FA8A
:100A900080F040F06000B7EB501F01D1306A00E0F9
:100AA000706A97FAA7F1B1FA81F101F01F0105FA16
:100AB00001F21042D7D00120FFF736FC33E0FFE708
:100AC00095FAA5F1B1FA81F108EB8101C1F880A492
:100AD000FFF736FD814605E0FFF732FDA0EB090088
:100AE000022899D897FAA7F0B0FA80F040F0600099
:100AF000B5EB501F01D130680BE097FAA7F0B0FAC0
:100B000080F040F06000B7EB501F01D1306A00E088
:100B1000706A97FAA7F1B1FA81F101F01F0105FAA5
:100B200001F21042D8D12078400763D5F06940F037
:100B30008050F061F069DFF8F0B000F08050009074
:100B4000DBF8001041F48071CBF80010FFF7F8FCDF
:100B5000814605E0FFF7F4FCA0EB0900642872D899
:100B6000DBF80000C005F5D5E06801280AD008B11F
:100B7000052813D0306A20F001003062306A20F07E
:100B8000040002E0306A40F001003062E06841F2A7
:100B9000883B80B3FFF7D4FC81460AE0306A40F01E
:100BA00004003062EEE7FFF7CBFCA0EB09015945EA
:100BB00049D897FAA7F0B0FA80F040F04000B5EBC2
:100BC000501F01D130680BE097FAA7F0B0FA80F01F
:100BD00040F04000B7EB501F01D1306A00E0706A6E
:100BE00097FAA7F1B1FA81F101F01F0205FA02F1BB
:100BF0000842D8D033E0FFE7FFF7A2FC814605E0CA
:100C0000FFF79EFCA0EB090159451CD897FAA7F005
:100C1000B0FA80F040F04000B5EB501F08D105E07D
:100C200000100240000042420070004030680CE0BA
:100C300097FAA7F0B0FA80F040F04000B7EB501FF1
:100C400002D1306A01E08AE0706A97FAA7F1B1FA3E
:100C500081F101F01F0205FA02F10842D0D1E069EA
:100C600098B37168C1F38101022972D002284FF054
:100C700080714FF0007B50460AD091FAA1F1B1FA91
:100C800081F148F82100FFF75BFC04465F4669E00C
:100C90008A4691FAA1F1B1FA81F1C14648F82100E2
:100CA000FFF74EFCA84607465D4604E0FFF748FC08
:100CB000C01B022853D895FAA5F0B0FA80F040F096
:100CC0002000400902D0306801E060E0706A95FAC7
:100CD000A5F1B1FA81F101F01F0208FA02F1084210
:100CE000E4D1206AB0F5803F05D17068A16820F496
:100CF000003008437060D4E908010843716821F4AA
:100D00007411084370609AFAAAF0B0FA80F047466E
:100D100049F82080FFF714FC044604E0FFF710FCBC
:100D2000001B02281BD895FAA5F0B0FA80F040F01D
:100D30002000400901D0306800E0706A95FAA5F102
:100D4000B1FA81F101F01F0107FA01F10842E5D083
:100D50001DE01EE0FFF7F4FB001B022802D9032070
:100D6000BDE8F88F97FAA7F0B0FA80F040F02000C5
:100D7000400901D0306800E0706A97FAA7F1B1FA33
:100D800081F101F01F0105FA01F10842E2D10020D2
:100D9000E6E70120E4E770B5040004D094F85100C0
:100DA000002510B106E0012070BD84F850502046A7
:100DB00000F02EF8022084F851002068016821F02C
:100DC00040010160D4E901010843D4E90312114351
:100DD000084361690843218B01F400710843E1690C
:100DE0000843216A0843A16A084321680860A06992
:100DF000042101EA1040616A0843216848602168C3
:100E0000E06A08616565012084F85100002070BD2A
:100E100010B50068154986B0884224D1144881690C
:100E200041F480518161816901F4805104918169AB
:100E300041F00401816180690E4C00F004000490CF
:100E4000A0200090022001900320039069462046D4
:100E5000FFF776FA40210091002101910291694645
:100E60002046FFF76DFA06B010BD000000300140CB
:100E700000100240000801402DE9F8430026DDF88B
:100E800020800446ADF8006090F85100012803D09E
:100E900094F8510022287DD169B162B15BB194F818
:100EA0005000012876D0012784F8507094F8510042
:100EB000012803D005E00120BDE8F883322084F842
:100EC00051006665A263A387E3872163A386E38657
:100ED000A664E664A06A4FF40055A84209D12068D0
:100EE000016821F4005101602068016841F400515B
:100EF000016020680168490603D4016841F040019F
:100F00000160E0684FF48271B0F5006F606807D04F
:100F1000002867D088426ED1E08E012862D06AE056
:100F200020B188420CD1E08E012809D1206B2168C4
:100F30000088C860206B801C2063E08E401EE08625
:100F4000E08E80B9A06AA84244D12068016841F4CB
:100F5000805101603EE02068C068A16B0880A06BF2
:100F6000801CA0639EE0434600220221204600F040
:100F7000CFFA002874D1206B21680088C860206BEC
:100F8000801C2063E08E401E0004000CE08609D126
:100F9000A06A00E0C7E0A84204D12068016841F4DB
:100FA00080510160434600220121204600F0B0FA42
:100FB00000286FD12068C068A16B0880A06B801CDE
:100FC000A063E08F401EE087E08E0028CBD16068F0
:100FD00000286AD1434600220121204600F098FAF9
:100FE000F0BBB8E7206B411C216321680078C86022
:100FF000E08E401EE086E08E98B9A06AA84204D137
:101000002068016841F480510160434600220121BB
:10101000204600F07DFA18BB2068C068A16B0870FC
:1010200040E0434600220221204600F071FAB8B9A0
:10103000206B411C216321680078C860E08E401E4F
:101040000004000CE08607D1A06AA84204D1206801
:10105000016841F48051016000224346012100E013
:1010600018E0204600F054FAA0B92068C168A06BCF
:10107000421CA2630170E08F401EE087E08E0028D2
:10108000CFD1606888B9434600220121204600F094
:101090003FFA08B103200FE72068C168A06B421C2B
:1010A000A2630170E08F401EE087A06AA84210D1C1
:1010B000434600220121204600F02AFA18B1606D53
:1010C00040F002000FE02068C068ADF80000BDF8F5
:1010D0000000434601228021204600F019FA20B189
:1010E000606D40F010006065D4E784F85170A06A2C
:1010F000A84214D120688168C943C9060FD4616D24
:1011000041F002016165016821F40051016020682D
:10111000016841F40051016084F85060CBE684F826
:1011200050600020C8E60220C6E64FF0E021042807
:10113000086903D020F004000861704740F0040003
:10114000FAE710B5401EB0F1807F01D3012010BD39
:101150004FF0E02460610F21601700F0FCF80020E0
:10116000A06107202061002010BD704738B50446FB
:1011700000680168C268C1F3000102F4807221B105
:101180001AB1E16B41F00101E1630168C1F3400272
:10119000416901F0010122B119B1E26B42F0040290
:1011A000E2630268C2F3800222B119B1E26B42F03D
:1011B0000202E2630268C2F3C00222B119B1E16B1C
:1011C00041F00801E1630168C068C1F3401100F01B
:1011D000200019B110B1204600F0A0FC2068016881
:1011E000C068C1F3C01100F0800019B110B12046F1
:1011F00000F0E7FC21680868CA68C0F3801002F0BC
:101200004002012568B162B1CA68204622F040025E
:10121000CA6094F83910322910D080F8395000F0A3
:1012200012F8E06B002808D0206801684068009040
:1012300084F839502046FFF798FF38BD222180F806
:101240003910ECE770477047FEE700000E4808B51C
:10125000816941F008018161816901F00801009113
:10126000816941F004018161806900F0040000900F
:1012700000F00EF800F0C8FA00F0FAFA00F098F961
:1012800002490020487108BD0010024010000020F3
:101290000E4810B50C4901604FF482714160002185
:1012A0008160C1604FF400720161C0E90512202223
:1012B000C0E90721416281620A21C162FFF76BFD2B
:1012C000002800D0FEE710BD0030014030000020B3
:1012D000FEE700000C4800B5816985B041F00401CB
:1012E00081618069694600F0040004900420009048
:1012F0000020019001200290032003900348FFF793
:101300001FF805B000BD00000010024000080140B9
:101310000E4810B5816986B041F004018161806991
:101320000B4C00F004000490082000900120019074
:1013300002900320039069462046FFF701F801223E
:1013400008212046FFF7F7F806B010BD0010024054
:101350000008014070470907090E002806DA00F06E
:101360000F0000F1E02080F8141D704700F1E0202C
:1013700080F80014704770472DE9F041404C414D12
:10138000DFF80481207886B04FF40046E0B1608831
:10139000401C80B26080B0F5FA7F12D300276780CE
:1013A0006078E8B3012857D002280AD100223146DC
:1013B0004046FFF7C0F8012218212846FFF7BBF886
:1013C000677006B0BDE8F081304A01202070916955
:1013D00041F001019161916901F0010104912C49F1
:1013E0004B6823F0E06343F000734B60916941F078
:1013F00008019161916901F008010491916941F03E
:101400000401916191690190029048F2180401F081
:10141000040103200094CDE903016946284600E059
:1014200012E0FEF78DFF6946474640460096FEF7FC
:1014300087FF012221462846FFF77DF80122314629
:101440003846FFF778F8BCE7002210212846FFF75E
:1014500072F80122082107E0002208212846FFF740
:101460006AF8012248F210012846FFF764F80122C9
:1014700031464046FFF75FF86078401C6070A0E797
:1014800008000020000C014000080140001002404C
:101490000000014070B50D460446FFF751F8216881
:1014A000884205D3FFF74CF828442060012070BD26
:1014B000002070BD10B5012000F0F7F89F21112029
:1014C00000F088F9FF21242000F084F90021402059
:1014D00000F080F90021412000F07CF9BDE81040C7
:1014E000052000F0E2B8000001B582B06420009051
:1014F000012301AA02A90448FFF7BEFC03490871B1
:101500009DF804000EBD00003000002010000020F7
:101510002DE9F0471D4690460F460446FFF710F8A8
:1015200006465FEA08004FF000084FF4005A4FF0FB
:10153000010926D034E0681C23D025B1FFF700F85C
:10154000801BA8421DD92068416821F0E00141605C
:101550002068016821F040010160A06A504509D16E
:101560002068016821F4005101602068016841F49D
:101570000051016084F8519084F850800320BDE848
:10158000F0872068806837EA0000D4D10DE0681C3D
:1015900006D0002DD7D0FEF7D3FF801BA842D2D8AB
:1015A0002068806837EA0000F1D00020E7E7704744
:1015B00010B5002000F079F8802000F031F801200B
:1015C00000F073F80021402000F004F900214120D0
:1015D00000F000F900F08AF8104CE07800F098F87C
:1015E000207800F0B2F8607800F027F8012000F0D1
:1015F00069F8A07800F09CF8002000F02DF8FF209A
:1016000000F06FF840F2FF3000F0AFF8012000F07A
:1016100030F8BDE81040FFF74DBF0000100000207B
:1016200010B50446012000F0BBF800F07F01214313
:10163000BDE81040012000F0CDB810B504461D20D3
:1016400000F0AEF800F0F10040EA4400C1B2BDE89D
:1016500010401D2000F0BEB810B504461D2000F05B
:101660009FF800F0FE012143BDE810401D2000F06E
:10167000B1B810B50446262000F092F800F0F7004B
:1016800040EAC400C1B2BDE81040262000F0A2B874
:1016900010B50446312000F083F800F0F801214332
:1016A000BDE81040312000F095B810B50446012087
:1016B00000F076F800F0F8012143BDE81040012069
:1016C00000F088B810B504461E2000F069F800F05C
:1016D000FB0040EA8400C1B2BDE810401E2000F0CB
:1016E00079B80146222000F075B8000010B5074C0B
:1016F0000620217800F06EF86178072000F06AF883
:10170000A178BDE81040082000F064B8190000205E
:1017100010B5044687214D2000F05CF803490920EC
:10172000095DBDE8104000F055B800001C00002025
:1017300010B504461D2000F033F864F31F10C1B249
:10174000BDE810401D2000F045B810B50446032048
:10175000FFF79EFF1E2000F023F864F31F10C1B2B4
:10176000BDE810401E2000F035B870B504461E20BC
:1017700000F016F805461F2000F012F8032101EAD8
:10178000142105F0FC000843C1B2E4B21E2000F0B1
:1017900021F82146BDE870401F2000F01BB8000072
:1017A00070B50B4D0446002202212846FEF7C3FE09
:1017B00004F07F00FFF798FEFF20FFF795FE044638
:1017C000012202212846FEF7B6FE204670BD000029
:1017D0000008014070B50B4D0E4604460022022160
:1017E0002846FEF7A8FE44F08000FFF77DFE304655
:1017F000FFF77AFE2846BDE8704001220221FEF77D
:101800009ABE00000008014070B5164886B0816994
:1018100041F008018161816901F008010491816949
:1018200041F0040181618069012400F00400019409
:1018300003250294CDE903500B4E694630460095CE
:10184000FEF77EFD012203213046FEF774FE01A95A
:10185000002081E83100694604480094FEF770FDDD
:1018600006B070BD0010024000080140000C0140AD
:1018700010B50A4C002201212046FEF75CFEC8206C
:1018800000F01CFA012211462046FEF754FEBDE886
:1018900010404FF4FA7000F011BA00000008014047
:1018A00070B505461220FFF77BFF584C4106A0712A
:1018B00046D51E20FFF774FFE071400728D50021B0
:1018C0000D20FFF787FF1320FFF76AFF504E60716E
:1018D000002202213046FEF72EFE0020FFF704FE14
:1018E0006079F92801D9F9206071002006E0FF2015
:1018F000FFF7FAFD217A6854207A401C2072617942
:10190000C0B28842F3D3012202213046FEF713FE13
:101910000120FFF7CAFE9F211120FFF75BFFFF2187
:101920002420FFF757FF00214020FFF753FF00213D
:101930004120FFF74FFF0520FFF7B7FE01255FE0CD
:10194000010717D50120FFF7B0FE9F211120FFF7F7
:1019500041FFFF212420FFF73DFF00214020FFF73A
:1019600039FF00214120FFF735FF0520FFF79DFEDD
:10197000022545E041072DD5C0074FF0010016D0E4
:10198000FFF793FE9F211120FFF724FFFF21242062
:10199000FFF720FF02214020FFF71CFF002141201C
:1019A000FFF718FF0520FFF780FE032528E0FFF76B
:1019B0007CFEFF211120FFF70DFF00214020FFF7E3
:1019C00009FF00214120FFF705FF0020FFF76DFE12
:1019D000042515E00120FFF768FE9F211120FFF785
:1019E000F9FEFF212420FFF7F5FE02214020FFF73A
:1019F000F1FE00214120FFF7EDFE0520FFF755FE27
:101A0000FF211220FFF7E6FE284670BD10000020DF
:101A10000008014070B500254FF4FA74FEF742FC4F
:101A200008E00120FEF780FC641EA4B21220FFF73C
:101A3000B7FE0546280701D4002CF2D16420FEF73A
:101A400073FCFFF737FD0A20FEF76EFC0CB1012096
:101A500070BD002070BD10B5FFF78EFCBDE81040D2
:101A6000FEF774BD30B58FB00224012004900094BD
:101A70001020059000254FF46010CDE90850079420
:101A80006846FEF7CBFE00B1FEE70AA90F2081E809
:101A900031004FF48060CDE90D0502210AA8FEF760
:101AA000B3FD00B1FEE7FEF76FFE4FF47A71B0FBB5
:101AB000F1F0FFF746FB0420FFF737FB0022114649
:101AC000501EFEF76FFD0FB030BD00000F4810B57F
:101AD000016841F00101016041680D4A1140416017
:101AE00001680C4A11400160016821F48021016005
:101AF000416821F4FE0141604FF41F018160FFF74E
:101B0000B1FF05494FF00060086010BD00100240B1
:101B10000000FFF8FFFFF6FE08ED00E010B590F8BA
:101B20003910222903D0322901D0022010BD81684A
:101B3000B1F5805F11D00169002901681FD04968A3
:101B400001F07F03816A4A1C82620B70C18D491EBD
:101B50000904090CC18518D02FE00269816A002AA6
:101B60000268526805D0D2B20A80816A491C81623B
:101B7000ECE7C2F308020A80816A891CF7E74A6829
:101B8000816A4B1C83620A70E0E70168CA6822F030
:101B90002002CA6090F83910322910D00168CA6852
:101BA00022F48072CA6001684A6922F001024A6127
:101BB000012180F83910FFF745FB002010BD1221EC
:101BC000F7E790F83910122903D0322901D002200A
:101BD00070478168B1F5805F016A0BD04A1C0262D0
:101BE000026809785160C18C491E0904090CC1843E
:101BF0000ED017E009880268C1F30801516001693D
:101C00000029016A02D0491C0162ECE7891CFBE74C
:101C10000168CA6822F08002CA600068C16841F0A9
:101C20004001C160002070470F4800680068C04351
:101C3000800615D40D4801680D4A0B4B5068C83B0F
:101C40001954401C506002280AD9184410F8021C8C
:101C50000D2905D110F8010C0A2801D101201070BE
:101C60000148FFF783BA000050010020043801400A
:101C7000240000200C4800680068C043800610D48F
:101C80000A4800680A4AC1B29068030409D4B0F552
:101C9000167F03D2074B1954401C01E040F400406A
:101CA00090600148FFF762BAE80300200444004056
:101CB0002400002090010020FEE77047002242F639
:101CC000681304E00021491C9942FCD3521C824253
:101CD000F8D370478EB0002501240D95FEF73EFC29
:101CE000FFF7B4FAFFF714FBFFF7F4FA4220FFF70F
:101CF00057FD2B4E2B4F1228707011D10022082156
:101D00003846FEF718FC4FF4FA784046FEF70CFB15
:101D1000012208213846FEF70EFC4046FEF704FB80
:101D200004213846FEF702FC00B90DB30421384601
:101D3000FEF7FCFB00B1002564210DA8FFF7AAFB0C
:101D40000028EDD01220FFF72BFD30700028E7D0DF
:101D5000FF28E5D06846FFF7A3FD0128E0D112A1D6
:101D60006846FEF754FA0028DAD084B100220FE06A
:101D70000A20FEF7D9FA04213846FEF7D7FB0028DF
:101D8000DAD101250A2108A0FFF744FED4E7012299
:101D900008213846FEF7CFFBC4F10100C4B2BFE70B
:101DA0000000002000080140746F67676C65206CBC
:101DB0006564000000000000000000000102030450
:101DC00006070809E41D000800000020300000009C
:101DD0006C010008141E000830000020580A0000A2
:101DE00088010008000000000090D0030000F4010A
:101DF000000000000B02070700000000006C8000DC
:101E00008080808386898C8F0000000000000000A5
:041E100000000000CE
:0400000508000131BD
:00000001FF
