:020000040000FA
:0300000002007B80
:10001B000209EE00000080FB1200ABB900030200E6
:10002B0065E4900200788279038002F0A3D8FCD9B2
:10003B00FA900481AA82AB839000AE78B1790780E5
:10004B0015E493A3AC82AD838A828B83F0A3AA823F
:10005B00AB838C828D83D8E9D9E77582597583136D
:10006B00740012008D75821E758300740012008D52
:10007B0075D0007581BF751000751102759F000258
:10008B000023C09FF59FE473D09F22D083D082C002
:10009B009FE493C0E0740193C0E0740293F59F2238
:1000AB00790122010000007777772E7374657069F0
:1000BB006F742E636F6D00000000000000000000E5
:1000CB000000000000000000000000000000000025
:1000DB000000000000000000FE0222DA0640209023
:1000EB000C030C9020400000FF0810080780601FD5
:1000FB00000000FF00000002020202C2B28E8282E8
:10010B008282828202020008040201FF40404040CA
:10011B00404040FF000000403C10FF101020108FAB
:10012B007808F808F80000020602FF0101044221DA
:10013B00184681403F000002FE9292FE0200101111
:10014B0016F01413100000101F0808FF0481413132
:10015B000D030D3141810000000000000000000084
:10016B0000000000000000000000F800000000008C
:10017B000000333000000000100C06100C060000CD
:10018B000000000000000040C07840C07840000430
:10019B003F04043F040400007088FC08300000009A
:1001AB001820FF211E0000F008F000E018000000EE
:1001BB00211C031E211E0000F00888700000001E89
:1001CB002123241927211010160E00000000000017
:1001DB0000000000000000000000E0180402000016
:1001EB000000071820400000020418E00000000087
:1001FB0040201807000000404080F0804040000283
:10020B0002010F01020200000000F00000000001DB
:10021B0001011F010101000000000000000000802F
:10022B00B0700000000000000000000000000000A3
:10023B0001010101010101000000000000000000AC
:10024B003030000000000000000000806018040047
:10025B006018060100000000E010080810E0000024
:10026B000F102020100F00001010F80000000000ED
:10027B0020203F2020000000700808088870000034
:10028B0030282422213000003008888848300000B4
:10029B0018202020110E000000C02010F8000000D4
:1002AB00070424243F240000F8088888080800006D
:1002BB0019212020110E0000E01088881800000082
:1002CB000F112020110E0000380808C83808000054
:1002DB0000003F00000000007088080888700000D4
:1002EB001C222121221C0000E010080810E0000055
:1002FB0000312222110F00000000C0C000000000DE
:10030B000000303000000000000080000000000002
:10031B0000806000000000000080402010080000FA
:10032B0001020408102000404040404040400004BF
:10033B0004040404040400000810204080000000A2
:10034B0020100804020100007048080808F00000A3
:10035B0000003036010000C030C828E810E000076C
:10036B0018272423140B000000C038E000000020E5
:10037B003C23020227382008F88888887000002068
:10038B003F202020110E00C0300808080838000755
:10039B001820202010080008F808080810E000209A
:1003AB003F202020100F0008F88888E80810002054
:1003BB003F20202320180008F88888E80810002028
:1003CB003F200003000000C0300808083800000779
:1003DB00182020221E020008F808000008F8082048
:1003EB003F210101213F20000808F8080800000008
:1003FB0020203F2020000000000808F8080800C05B
:10040B008080807F00000008F888C0281808002032
:10041B003F20012638200008F808000000000020CB
:10042B003F20202020300008F8F800F8F8080020C2
:10043B003F003F003F200008F830C00008F80820BC
:10044B003F200007183F00E01008080810E0000FDD
:10045B0010202020100F0008F808080808F00020D2
:10046B003F210101010000E01008080810E0000F17
:10047B0018242438504F0008F8888888887000208A
:10048B003F2000030C30200070880808083800005B
:10049B0038202121221C00180808F8080818000031
:1004AB0000203F2000000008F808000008F80800B2
:1004BB001F202020201F000878880000C838080063
:1004CB000007380E010000F80800F80008F80003D8
:1004DB003C0700073C030008186880806818082058
:1004EB00302C03032C30200838C800C83808000013
:1004FB0000203F2000000010080808C83808002022
:10050B0038262120201800000000FE020202000005
:10051B0000007F40404000000C30C0000000000095
:10052B000000010638C00000020202FE00000000BD
:10053B004040407F00000000000402020204000063
:10054B000000000000000000000000000000008020
:10055B008080808080808000020204000000000008
:10056B000000000000000000008080808000000080
:10057B0019242222223F2008F8008080000000006E
:10058B003F112020110E0000000080808000000031
:10059B000E112020201100000000808088F8000040
:1005AB000E112020103F2000008080808000000072
:1005BB001F222222221300008080F08888881800D6
:1005CB0020203F20200000000080808080800000E1
:1005DB006B94949493600008F80080808000002056
:1005EB003F210000203F2000809898000000000071
:1005FB0020203F2020000000000080989800000081
:10060B00C08080807F000008F80000808080002080
:10061B003F24022D302000000808F80000000000E5
:10062B0020203F2020000080808080808080002060
:10063B003F20003F20003F80800080808000002012
:10064B003F210000203F20000080808080000000C0
:10065B001F202020201F0080800080800000008051
:10066B00FFA12020110E0000000080808080000080
:10067B000E112020A0FF80808080008080800020D1
:10068B00203F21200001000000808080808000003E
:10069B0033242424241900008080E0808000000093
:1006AB0000001F20200000808000000080800000E0
:1006BB001F202020103F2080808000008080800041
:1006CB00010E300806010080800080008080800FC2
:1006DB00300C030C300F0000808000808080000005
:1006EB0020312E0E312000808080000080808080A1
:1006FB00818E701806010000808080808080000051
:10070B0021302C2221300000000000807C020200EE
:10071B00000000003F404000000000FF0000000010
:10072B00000000FF0000000002027C8000000000BF
:10073B0040403F00000000000601010202040400DB
:10074B0000000000000000F4010000E4E3E2E1ED32
:10075B00ECEBEA120096640D00120096780D001275
:10076B000096BB0F00120096110A00120096350A74
:10077B0000120096590A00120096810A0012009688
:10078B00BD0A00120096F30A00120096AC0B001281
:10079B000096A10C001200962A0D00120096F5117E
:1007AB0000120096FE11001200960712001200961E
:1007BB001012001200961C12001200963D1200122D
:1007CB0000965E1200120096D10F00120096EA0FEF
:1007DB00001200965B1000120096CC1000120096CF
:1007EB00391300120096B41200120096FD1200127B
:1007FB0000960C1300C3E7960809E7960809E796DD
:10080B000809E79622E0FAA3E0FBA3E0FCA3E0FDD6
:10081B0022EAF0A3EBF0A3ECF0A3EDF022CAC0E0C8
:10082B00E6F0A308DAFAD0E0FA22C0D0251010AF18
:10083B0008F510500205118008F51050020511D271
:10084B00AFD0D0222510F58210AF08F5104002155D
:10085B00118008F51040021511D2AF8511832225A6
:10086B0010F582E43511F583222510C582C0E0E531
:10087B001134FFC583C0E0E510C3958224F810AF97
:10088B00088583118582108008858311858210D29B
:10089B00AFCEF0A3E520F0A37808E608F0A3DEFACC
:1008AB00EFF0A3E58124FAF8E608F0A3E608F0A33D
:1008BB00E608F0A30808E608F0A3E608F0A3158104
:1008CB001581D0E0FED0E0F8158115811581E8C0C7
:1008DB00E0EEC0E022851183851082E0A3FEE0A349
:1008EB00F5207808E0A3F608DFFAE0A3FFE0A3C049
:1008FB00E0E0A3C0E0E0A3C0E0E0A3C0E0E0A3C061
:10090B00E010AF08858210858311800885821085E1
:10091B008311D2AFD083D082020093C0D02510C5F3
:10092B0082C0E0E51134FFC583C0E0E510C39582BA
:10093B0024F310AF088583118582108008858311FD
:10094B00858210D2AFC8F0A3E9F0A3EAF0A3EBF0D5
:10095B00A37908E709F0A3D8FAECF0A3EDF0A3EE26
:10096B00F0A3EFF0A3D0E0F0A3D0E0F0A3D0E0F041
:10097B00A3E520F0A3E5F0F0A32285118385108277
:10098B00E0C0E0A3E0F9A3E0FAA3E0FBA37808E062
:10099B00F608A3DFFAE0FCA3E0FDA3E0FEA3E0FF73
:1009AB00A3E0C0E0A3E0C0E0A3E0F5D0A3E0F52016
:1009BB00A3E0A3F5F010AF088583118582108008A2
:1009CB00858311858210D2AFD082D083D0E0F8D04E
:1009DB00E03274028000C0E0F40412084FD0E01241
:1009EB00082822C0E074F2120926C28F90047FE01F
:1009FB005400F8A3E05480F9E8497005A9F91207EF
:100A0B00E27F0102098574F7120874E9FE1207BE32
:100A1B0079781207CAE979401207CAE9EEF9120789
:100A2B00CAE91207C47F010208E074F7120874E9DF
:100A3B00FE1207BE79781207CAE979001207CAE9D4
:100A4B00EEF91207CAE91207C47F010208E074F736
:100A5B00120874E9FEEAFF74B02FF9120776EEC4A0
:100A6B00540F4410F9120776740F5E4401F9120704
:100A7B00767F010208E074F7120874E9FE7508002E
:100A8B00800EEEF91207700FEFC3948040F4050847
:100A9B00E508C39408501674B02508F91207767947
:100AAB000112077679101207767F0080DB7F010237
:100ABB0008E074F71208747F00800D79001207703C
:100ACB000EEEC3948040F40FEFC39408501574B02E
:100ADB002FF9120776790112077679101207767EB5
:100AEB000080DE7F010208E0C082C083900B2512DC
:100AFB0008101207EE79AE12077679001207767995
:100B0B00101207767940120776798112077679CF22
:100B1B0012077679A112077679C812077679A61291
:100B2B00077679A8120776793F12077679D31207E1
:100B3B0076790012077679D51207767980120776C7
:100B4B0079D912077679F112077679DA1207767965
:100B5B001212077679DB1207767940120776792025
:100B6B001207767902120776798D120776791412AD
:100B7B00077679A412077679A612077679AF120752
:100B8B007679001207827A00790012077C79FF12BE
:100B9B0007827900120782120788D083D082020065
:100BAB009374F0120874E9FEEAFF8C0E8D0F750C2E
:100BBB00007508007509008047E50CA80C7900E862
:100BCB0075F010A4C8AAF075F000A42AFA75F010FD
:100BDB00E9A42AF985080A750B00E8250AF8E93516
:100BEB000BF9743D28F582740539F583E0F912078A
:100BFB00700508E508C3940840BF74082EFE05096C
:100C0B0085090A750B00E50E250AF582E50F350BF4
:100C1B00F583E0607C85090A750B00E50E250AF566
:100C2B0082E50F350BF583E024E0F50CEEC39479E8
:100C3B0040037E000FEFFAEEF912077C7508008077
:100C4B003AE50CA80C7900E875F010A4C8AAF07569
:100C5B00F000A42AFA75F010E9A42AF985080A75A0
:100C6B000B00E8250AF8E9350BF9743528F5827481
:100C7B000539F583E0F91207700508E508C39408F8
:100C8B0040BF74012FFAEEF912077C750800020BB6
:100C9B00FE7F080208E074F412087489088A0A8B34
:100CAB000B750900E50BAE0B7F00EE75F020A4CEA3
:100CBB00A8F075F000A428F875F020EFA428FFAA7F
:100CCB000AA90812077C750900801974952EF58204
:100CDB0074043FF583E0F9120770EE2401FEEF3444
:100CEB0000FF0509E509C3941040E07401250AFAD9
:100CFB00A90812077C750900801974952EF582746A
:100D0B00043FF583E0F9120770EE2401FEEF340087
:100D1B00FF0509E509C3941040E07F040208E0C019
:100D2B0082C0837B017A02791E12079A7B027A02B8
:100D3B00793212079A7B037A02794612079A7B045F
:100D4B007A02795A12079A7C857D047A0479031208
:100D5B000794D083D082020093C082C08343FF01EB
:100D6B0012076A120764D083D082020093D2A0D2FA
:100D7B00A0D2A0D2A0C2A0C2A0C2A0C2A0C2A0C238
:100D8B00A0C2A0C2A0D2A0D2A0D2A0D2A0C2A0C208
:100D9B00A0C2A0C2A0C2A0C2A0C2A0C2A0D2A0D218
:100DAB00A0D2A0D2A0C2A0C2A0C2A0C2A0C2A0C208
:100DBB00A0C2A0C2A0D2A0D2A0D2A0D2A0C2A0C2D8
:100DCB00A0C2A0C2A0C2A0C2A0C2A0C2A0D2A0D2E8
:100DDB00A0D2A0D2A0C2A0C2A0C2A0C2A0C2A0C2D8
:100DEB00A0C2A0C2A0D2A0D2A0D2A0D2A0C2A0C2A8
:100DFB00A0C2A0C2A0C2A0C2A0C2A0C2A0D2A0D2B8
:100E0B00A0D2A0D2A0C2A0C2A0C2A0C2A0C2A0C2A7
:100E1B00A0C2A0C2A0D2A0D2A0D2A0D2A0C2A0C277
:100E2B00A0C2A0C2A0C2A0C2A0C2A0C2A0D2A0D287
:100E3B00A0D2A0D2A0C2A0C2A0C2A0C2A0C2A0C277
:100E4B00A0C2A0C2A0D2A0D2A0D2A0D2A0C2A0C247
:100E5B00A0C2A0C2A0C2A0C2A0C2A0C2A0D2A0D257
:100E6B00A0D2A0D2A0C2A0C2A0C2A0C2A0C2A0C247
:100E7B00A0C2A0C2A0D2A0D2A0D2A0D2A0C2A0C217
:100E8B00A0C2A0C2A0C2A0C2A0C2A0C2A0D2A0D227
:100E9B00A0D2A0D2A0C2A0C2A0C2A0C2A0C2A0C217
:100EAB00A0C2A0C2A0D2A0D2A0D2A0D2A0C2A0C2E7
:100EBB00A0C2A0C2A0C2A0C2A0C2A0C2A0D2A0D2F7
:100ECB00A0D2A0D2A0C2A0C2A0C2A0C2A0C2A0C2E7
:100EDB00A0C2A0C2A0D2A0D2A0D2A0D2A0C2A0C2B7
:100EEB00A0C2A0C2A0C2A0C2A0C2A0C2A0D2A0D2C7
:100EFB00A0D2A0D2A0D2A0D2A0D2A0D2A0C2A0C277
:100F0B00A0C2A0C2A0D2A0D2A0D2A0D2A0D2A0D266
:100F1B00A0D2A0D2A0C2A0C2A0C2A0C2A0D2A0D276
:100F2B00A0D2A0D2A0D2A0D2A0D2A0D2A0C2A0C246
:100F3B00A0C2A0C2A0D2A0D2A0D2A0D2A0D2A0D236
:100F4B00A0D2A0D2A0C2A0C2A0C2A0C2A0D2A0D246
:100F5B00A0D2A0D2A0D2A0D2A0D2A0D2A0C2A0C216
:100F6B00A0C2A0C2A0D2A0D2A0D2A0D2A0D2A0D206
:100F7B00A0D2A0D2A0C2A0C2A0C2A0C2A0D2A0D216
:100F8B00A0D2A0D2A0D2A0D2A0D2A0D2A0C2A0C2E6
:100F9B00A0C2A0C2A0D2A0D2A0D2A0D2A0D2A0D2D6
:100FAB00A0D2A0D2A0C2A0C2A0C2A0C2A002009395
:100FBB00C082C083C2A09004811208101207EED029
:100FCB0083D082020093C082C08353F47F43FE0818
:100FDB00C2931207DC1207D6D083D082020093741F
:100FEB00F6120874900B291208109002C812081CF4
:100FFB009002CC7400F09002CD7400F0A37400F05A
:10100B009002CF7400F0A37400F09002D17400F042
:10101B00A37400F09002D37400F07508C875090032
:10102B0078081209DD7C007D007AD47B021207FA66
:10103B00740212083590039C7400F0A37400F090B6
:10104B000B2D12081090039E12081C7F020208E061
:10105B0074F6120874900B291208109003A2120850
:10106B001C9003A67400F09003A77400F0A3740007
:10107B00F09003A97400F0A37400F09003AB74001C
:10108B00F0A37400F09003AD7400F07508C87509F7
:10109B000078081209DD7C007D007AAE7B03120715
:1010AB00FA74021208359004767400F0A37400F001
:1010BB00900B2D12081090047812081C7F02020866
:1010CB00E0C082C08374E169700890047D7401F004
:1010DB00806190047DE06401700D74E2697008908A
:1010EB00047D7402F0804C90047DE06402700D74FA
:1010FB00E369700890047D7403F0803790047DE001
:10110B006403702974E469702490020074E1F09018
:10111B00020174E2F090020274E3F090047F740316
:10112B00F0A37400F090047E7401F0800690047DAF
:10113B007400F090047EE070030211EE90047FC304
:10114B00E094C7A3E09400401690047C7400F090E8
:10115B00047E7400F090047F7400F0A37400F0E937
:10116B00C0E090047FE02400FAA3E03402FB8A8203
:10117B008B83D0E0F090047FE02401F0A3E03400F7
:10118B00F074EA69700890047C7401F08055900447
:10119B007CE06401700D74EB69700890047C740240
:1011AB00F0804090047CE06402700D74EC69700870
:1011BB0090047C7403F0802B90047CE06403701D1E
:1011CB0074ED69701890047F7400F0A37480F09034
:1011DB00047E7400F090047C7400F0800690047C14
:1011EB007400F0D083D08202009353F33F43FDC0D1
:1011FB0002009353F3BF43FD4002009353F37F432D
:10120B00FD8002009353F37F53FD7F538F7F0200CA
:10121B0093C082C0831207B21207ACD287D287D297
:10122B0086D286C287C287C286C286D083D082020C
:10123B000093C082C0831207B21207ACC286C2866B
:10124B00C287C287D286D286D287D287D083D082FA
:10125B0002009374F7120874E9FF1207AC1207B27D
:10126B0078008011C287C287D286D286C286C28698
:10127B00EFC333FF08E8C39408500BEFA2E750E429
:10128B00D287D28780E21207B8D286D286A2875045
:10129B00047E0180027E00C286C2861207B2D2870C
:1012AB00D287EEF97F010208E074F01208748A0C01
:1012BB008B0D8C0E8D0F7A007B008019E82401F8C2
:1012CB00E93400F9C3E89417E9940240EFEA2401EA
:1012DB00FAEB3400FB8A088B09E4F50AF50B780C62
:1012EB00790812080050067800790080D77F080231
:1012FB0008E053C6BFE59EA2E640FA53C6B802000B
:10130B009374F7120874740912086AE0F8A3E0F9F1
:10131B008A828B838003ECF0A3E8FEE9FFEE24FFC7
:10132B0018EF34FFF9EE4F70ED7F010208E075FF07
:10133B004075F10043F33075FAD875FC0B75FB80E3
:10134B0075F8C0C2EAC28FD2ABD2AF0200931207BC
:10135B00F412075E1207D01207E81207A612078EC7
:05136B001207A080FB49
:040000050000007B7C
:00000001FF
