:020000040800F2
:10000000F8100220D9020008AF230008CD1700081D
:10001000AD2300088D060008ED2E0008000000004A
:10002000000000000000000000000000F9250008AA
:100030007507000800000000B12300089D26000895
:10004000F3020008F3020008F3020008F3020008BC
:10005000F3020008F3020008F3020008F3020008AC
:10006000F3020008F3020008F3020008F30200089C
:10007000F3020008F3020008F3020008F30200088C
:10008000F3020008F3020008F3020008F30200087C
:10009000F3020008F3020008F3020008F30200086C
:1000A000F3020008F3020008F3020008F30200085C
:1000B000F3020008F3020008F3020008F30200084C
:1000C000F3020008F3020008F3020008F30200083C
:1000D000F3020008F3020008F3020008F30200082C
:1000E00079070008F3020008F3020008F302000891
:1000F000F3020008F3020008F3020008F30200080C
:10010000F3020008F3020008F3020008F3020008FB
:10011000F3020008F3020008F3020008F3020008EB
:10012000F3020008F3020008F3020008F3020008DB
:10013000F3020008F3020008F3020008F3020008CB
:10014000F3020008F3020008F3020008F3020008BB
:10015000F3020008F3020008F3020008F3020008AB
:10016000F3020008F3020008F3020008F30200089B
:10017000F3020008F3020008F30200080000000088
:10018000F3020008F302000801290008F302000846
:10019000F3020008F3020008F3020008F30200086B
:1001A000F3020008F3020008F3020008F30200085B
:1001B000F3020008F3020008F3020008F30200084B
:1001C000F3020008F302000800000000F302000838
:1001D000F3020008F3020008F3020008F30200082B
:1001E000F3020008F3020008F3020008F30200081B
:1001F000F3020008F302000800F002F800F05CF8D7
:100200000AA090E8000C82448344AAF10107DA4571
:1002100001D100F051F8AFF2090EBAE80F0013F067
:10022000010F18BFFB1A43F001031847602D0000AF
:10023000802D00000A444FF0000C10F8013B13F031
:10024000070408BF10F8014B1D1108BF10F8015B2F
:10025000641E05D010F8016B641E01F8016BF9D122
:1002600013F0080F1EBF10F8014BAD1C0C1B09D179
:100270006D1E58BF01F801CBFAD505E014F8016BEB
:1002800001F8016B6D1EF9D59142D6D3704700007D
:100290000023002400250026103A28BF78C1FBD88F
:1002A000520728BF30C148BF0B6070471FB502F02E
:1002B0005CFE1FBD10B510BD00F0B8F81146FFF789
:1002C000F5FF02F03FFE00F0EAF803B4FFF7F2FF9B
:1002D00003BC02F00CFE00000948804709480047B3
:1002E000FEE7FEE7FEE7FEE7FEE7FEE7FEE7FEE7E6
:1002F000FEE7FEE704480549054A064B7047000043
:10030000A1260008F9010008F80A0220F8100220CE
:10031000F80C0220F80C0220704700000FB40449CA
:1003200010B503AA029800F053F810BC5DF814FB56
:10033000100002204FF000020429C0F0128010F0DB
:10034000030C00F01B80CCF1040CBCF1020F18BFB1
:1003500000F8012BA8BF20F8022BA1EB0C0100F044
:100360000DB85FEAC17C24BF00F8012B00F8012B17
:1003700048BF00F8012B70474FF0000200B513464C
:1003800094469646203922BFA0E80C50A0E80C50B5
:10039000B1F12001BFF4F7AF090728BFA0E80C5066
:1003A00048BF0CC05DF804EB890028BF40F8042B5F
:1003B00008BF704748BF20F8022B11F0804F18BFCC
:1003C00000F8012B70477047704770477047000076
:1003D000074B70B50D467B4400F011F804462846E3
:1003E00000F020F810B14FF0FF3070BD204670BD16
:1003F0004F2B000001694A1C02610878704700B564
:100400008FB0CDE901310021059105497944CDE94D
:1004100003101146684600F02EF80FB000BD000032
:10042000E5FFFFFF007B00F080007047754600F09D
:100430003FF8AE4605006946534620F00700854662
:1004400018B020B5FFF756FFBDE820404FF000067A
:100450004FF000074FF000084FF0000B21F00701AC
:10046000AC46ACE8C009ACE8C009ACE8C009ACE8EF
:10047000C0098D4670472DE9F04106460024D6E9B3
:100480000170F5688046304603E04146B847641C79
:100490003046A8470028F8D12046BDE8F08110B5C5
:1004A0000446AFF300802046BDE81040FFF70DBFC3
:1004B00000487047980A02202DE9F047DFF8D880FD
:1004C00088B0002681464FF6FF7A6F4600224046EC
:1004D0004FF4006100F065FB484601F0CFFB0122BC
:1004E0004046110200F05DFB002240464FF480714F
:1004F00000F057FB00252C46404601220AEA44043E
:10050000110200F04EFB002240464FF4807100F0D3
:1005100048FB0821404600F03FFB002818BF44F08C
:100520000104681CC5B20C2DE6D301224046D1025D
:1005300000F037FB701C27F8164086B20F2EC5D38B
:10054000002101F1010C1FFA8CF00F280DD237F8B1
:10055000112037F810309A4284BF27F8113027F85D
:100560001020401C80B20F28F1D31FFA8CF10E2905
:10057000E7D30021052037F81020401C80B2114439
:1005800089B20A28F7D34CF6CD4008B001FB00F041
:10059000800CBDE8F0870000000002402DE9F04724
:1005A000DFF8E4901C4615460E46002207464FF43D
:1005B00080614FF02A08484600F0F3FA404601F007
:1005C0005DFB01224846C7F30728910200F0E9FAD3
:1005D000404601F053FB01224846FFB2910200F071
:1005E000E0FA384601F04AFB01224846C5F30727E6
:1005F000910200F0D6FA384601F040FB012248464D
:10060000EDB2910200F0CDFA284601F037FB2B2520
:10061000484600224FF4806100F0C3FA284601F0FA
:100620002DFB01224846C6F30725910200F0B9FAD6
:10063000284601F023FB01224846F5B2910200F062
:10064000B0FA284601F01AFB01224846C4F30725F8
:10065000910200F0A6FA284601F010FB012248465C
:10066000E4B2910200F09DFA204601F007FB2C2431
:10067000484600224FF4806100F093FA2046BDE81E
:10068000F04701F0FBBA000000180240FEE700222C
:1006900070B40028944614BF00294FF6FF70C4BF01
:1006A00041F221044FF6FF7504BF70BC70471ADD9C
:1006B00010F80C6092B24FF0000382EA062212F4A6
:1006C000004F1ABF84EA420292B205EA420203F1E5
:1006D00001039BB2082BF2D30CF101031FFA83FC38
:1006E00012B28C45E4DB70BC90B2704770B4BFF3BB
:1006F0004F8FBFF36F8F1A4900200860194D29688A
:1007000041F400312960BFF34F8FBFF36F8F16495B
:100710000860BFF34F8F081F006843F6FF76134A47
:10072000C0F34E3CC0F3C90406EA4C11204641EA2E
:1007300080731360401EFAD2BCF1010CF4D2BFF3F7
:100740004F8F286840F480302860BFF34F8FBFF38D
:100750006F8F0748016841F00401016070BC704769
:1007600050EF00E014ED00E084ED00E060EF00E009
:100770009CEF00E07047000004480178002904BFA6
:10078000012101704FF4805000F0D8B80406022017
:1007900010484DF804ED87B0016841F00101016097
:1007A0000068694600F0010005904FF48050009009
:1007B0000948019001200290084800F0CBF801227E
:1007C0002820114600F03CFA282000F02CFA07B04F
:1007D0005DF804FB303802400000111000000240B8
:1007E0004DF804ED83B0B0B101284FF4FC6120D086
:1007F00002282AD003281CBF03B05DF804FB0320A5
:100800006223AF22CDE900104E217D2000F02AF8AE
:1008100003B05DF804FB00214FF478406223CDE97A
:100820000001AF224E217D2000F01CF803B05DF8DE
:1008300004FB01206223AF22CDE900104E217D2070
:1008400000F010F803B05DF804FB02206223AF2231
:10085000CDE900104E217D2000F004F803B05DF8D2
:1008600004FB0000F8B5054617460E46DDE9060410
:100870000090284601F02EF91E490020C880781B00
:100880001D4981FB0012A2EBE2714A19B11CACB107
:10089000012C1CD0022C23D0032C18BFF8BD174A02
:1008A00001B089B2012382FB002015A2A0EBE07009
:1008B0002844BDE8F04080B201F0BAB901B090B26E
:1008C00089B2BDE8F04001230FA201F0B1B901B037
:1008D00090B289B2BDE8F04001230CA201F0A8B9A2
:1008E00001B090B289B2BDE8F040012308A201F046
:1008F0009FB900000406022056555555ABAAAA2AF6
:1009000054687265650000004F4646004F6E6500F2
:1009100054776F0090F83510022903D0802141658B
:1009200001207047052180F835100068016821F02A
:1009300001010160002070477047000004490A6807
:10094000024208BF704710B50860FFF7F5FF10BD01
:10095000143C01402DE9F84FDFF830920022DFF817
:1009600028820F2709F1040A4FF0010E0B680EFAD6
:1009700002F52B40AB4240F00181D1F804C0BCF13C
:10098000020F18BFBCF1120F15D14FEAD20C00EBC9
:100990008C0CDCF820604FEA42744FEAD46407FA0A
:1009A00004FB26EA0B06D1F810B00BFA04F444EA73
:1009B0000604CCF8204006684FEA420C91F804B0D7
:1009C0004FF003040BF0030B04FA0CF40BFA0CFBCE
:1009D00026EA04064BEA060606604E68012E18BF9A
:1009E000022E03D0112E18BF122E14D18668D1F812
:1009F0000CB026EA04060BFA0CFB4BEA06068660EE
:100A0000466826EA05050E79C6F3001606FA02F6D0
:100A100046EA05054560C56825EA04048D6805FABF
:100A20000CFC4CEA040CC0F80CC0D1F804C01CF05B
:100A3000805F7CD0D8F800C04CF4804CC8F800C06F
:100A4000D8F800C00CF4804CCDF800C022F0030CA4
:100A50000CF1804505F59835D5F808C84FEA827441
:100A60004FEA147407FA04F62CEA0606A0F1804C4B
:100A7000BCF5003C48D0A0F1804CBCF5013C08BF5F
:100A80004FF0010C40D0A0F1804CBCF5023C08BFF7
:100A90004FF0020C38D0A0F1804CBCF5033C08BFED
:100AA0004FF0030C30D0A0F1804CBCF5043C08BFE3
:100AB0004FF0040C28D0A0F1804CBCF5053C08BFD9
:100AC0004FF0050C20D0A0F1804CBCF5063C08BFCF
:100AD0004FF0060C18D0A0F1804CBCF5073C08BFC5
:100AE0004FF0070C10D0A0F1804CBCF5083C08BFBB
:100AF0004FF0080C08D0A0F1804CBCF5093C0CBFAD
:100B00004FF0090C4FF00A0C0CFA04FC4CEA060CEE
:100B1000C5F808C8D9F800C04C682CEA030C14F4D6
:100B2000803F18BF4CEA030CC9F800C000E025E084
:100B3000DAF800C04C682CEA030C14F4003F18BF2C
:100B40004CEA030CCAF800C0114CD4F800C04D6840
:100B50002CEA030C15F4801F18BF4CEA030CC4F8F0
:100B600000C00C4CD4F800C04D682CEA030C15F4FE
:100B7000001F18BF4CEA030CC4F800C0521C102A16
:100B8000FFF4F4AEBDE8F88F44380240003C014069
:100B9000083C01400C3C01400069084018BF01209E
:100BA0007047002A08BF0904816170470148006846
:100BB000704700000400022002480168491C0160DF
:100BC00070470000040002200B4810B5016841F492
:100BD00000710160052000F065F80F2000F00EF8AC
:100BE00000F020F80923022219214FF4D87001F0F7
:100BF00005FD002010BD0000003C024010B5044679
:100C000007484FF47A720068B0FBF2F000F0BAFBCC
:100C100000222146501E00F013F8002010BD0000F5
:100C2000000002207047012200F01F0102FA01F1CA
:100C30004009800000F1E020C0F80011704700007A
:100C4000174B4DF8044D1B68C3F30223C3F1070C87
:100C5000BCF1040F88BF4FF0040C1C1D072C34BFDF
:100C60000023DB1E012404FA0CFCACF1010C0CEA9D
:100C70000101994004FA03F35B1E1A401143002856
:100C80004FEA0111B8BF00F00F0000F1E020B4BF3F
:100C900080F8141D80F800145DF8044B70470000C4
:100CA0000CED00E0074A00F0070011684FF6FF0363
:100CB000194041EA002040F0FD7040F08060106073
:100CC000704700000CED00E01C4838B5016841F0A9
:100CD0008051016000681A4C00F08050009020683C
:100CE00040F480302060FFF761FF0546606810F433
:100CF000803F09D1FFF75AFF401BB0F57A7F14D827
:100D0000606810F4803FF5D0206840F40030206027
:100D1000FFF74CFF0546606810F4003F0BD1FFF76A
:100D200045FF401BB0F57A7F01D9032038BD6068CC
:100D300010F4003FF3D0002038BD000040380240DE
:100D4000007000402DE9F047DFF8688104460D4649
:100D5000D8F8000000F00F00A8420CD2D8F800002C
:100D600020F00F002843C8F80000D8F8000000F079
:100D70000F00A84270D120784F4F10F0020F05D01D
:100D80003868A16820F0F00008433860207810F03F
:100D9000010F4ED060684949012820D00968022817
:100DA00022D011F0020F57D0396821F00301084317
:100DB0003860FFF7FBFE0646606841F2883901287B
:100DC00016D00228386800F00C0021D0F8B1FFF7E7
:100DD000EDFE801B484528D90320BDE8F08709684F
:100DE00011F4003FE0D137E011F0007FDCD133E0B7
:100DF000386800F00C0004281BD0FFF7D7FE801BDA
:100E00004845E9D8386800F00C000428F5D110E016
:100E100008280ED0FFF7CAFE801B4845DCD838688A
:100E200000F00C000828F5D103E0386810F00C0F32
:100E3000CDD1D8F8000000F00F00A8420FD9D8F8A3
:100E4000000020F00F002843C8F80000D8F8000088
:100E500000F00F00A84202D00120BDE8F087207802
:100E600010F0040F05D03868E16820F4E050084322
:100E70003860207810F0080F06D03868216920F417
:100E8000604040EAC100386000F04EF83968F02256
:100E900092FAA2F201F0F001B2FA82F2D140084ACD
:100EA000515CC840074908600F20FFF7A7FE0020EB
:100EB000BDE8F087003C024008380240003802409C
:100EC000742F0008000002200848094900680968DA
:100ED0004FF4E05292FAA2F201F4E051B2FA82F237
:100EE000D140044A515CC840704700000000022015
:100EF00008380240842F000808480949006809683A
:100F00004FF4604292FAA2F201F46041B2FA82F226
:100F1000D140044A515CC8407047000000000220E4
:100F200008380240842F00082148006810F00C01A6
:100F3000204808BF7047DFF880C0042904BF60461E
:100F40007047082918BF70474DF8044D1B4A1168B7
:100F5000136801F03F0113F4800F47F6C0730BD004
:100F6000BCFBF1F01168194093FAA3F3B3FA83F3D1
:100F7000D94000FB01F00AE0B0FBF1F01168194024
:100F800093FAA3F3B3FA83F3D94000FB01F011689D
:100F90004FF440325DF8044B92FAA2F201F4403172
:100FA000B2FA82F2D140491C4900B0FBF1F070471F
:100FB000083802400024F40040787D0104380240E3
:100FC0002DE9F84FDFF8A88304460078A8F104075C
:100FD00010F0010FA7F104055AD0D8F8000000F076
:100FE0000C00042809D0D8F8000000F00C000828F4
:100FF0000CD1386810F4800F08D0286810F4003F36
:1010000046D06068002800F0AF8141E06068B0F52C
:10101000803F04BF286840F480300AD010B1B0F59A
:10102000A02F11D0286820F480302860286820F490
:10103000802028606068D0B1FFF7B8FD06462868B8
:1010400010F4003F08D023E0286840F48020286096
:10105000286840F48030ECE7FFF7A8FD801B642887
:1010600000F22581286810F4003FF5D010E0FFF76A
:101070009DFD0646286810F4003F09D0FFF796FD55
:10108000801B642800F21381286810F4003FF5D11A
:10109000207810F0020F50D0D8F800004FF0F80977
:1010A00010F00C0F18D0D8F8000000F00C00082841
:1010B00004BF386810F4800F0ED0E068002828685C
:1010C00028D040F001002860FFF770FD0646286830
:1010D00010F0020F09D011E0286810F0020F1CBFB9
:1010E000E06801280AD000F03FB9FFF75FFD801BE0
:1010F00002287DD8286810F0020FF6D0286899FAE7
:10110000A9F22169B2FA82F220F0F8009140084376
:10111000286012E020F001002860FFF747FD064636
:10112000286810F0020F08D0FFF740FD801B02284E
:101130005ED8286810F0020FF6D1207810F0080F62
:1011400033D0DFF8309260690028D9F8000016D05B
:1011500040F00100C9F80000FFF728FD0646D9F865
:10116000000010F0020F20D1FFF720FD801B0228A5
:101170003ED8D9F8000010F0020FF5D015E020F0AD
:101180000100C9F80000FFF711FD0646D9F800007C
:1011900010F0020F09D0FFF709FD801B022827D8A5
:1011A000D9F8000010F0020FF5D1207810F0040FEC
:1011B00063D07148016841F08051016000686F4E52
:1011C00000F080500090306840F480703060FFF78D
:1011D000EDFC8146306810F4807F0BD1FFF7E6FC10
:1011E000A0EB0900642862D8306810F4807F00E02A
:1011F0005DE0F3D0A068624E012804BF306840F083
:10120000010009D008B1052813D0306820F0010092
:101210003060306820F004003060A06841F2883A05
:10122000D0B1FFF7C3FC8146306810F0020F08D040
:1012300023E0306840F004003060306840F0010086
:10124000EAE7FFF7B3FCA0EB090050452FD8306860
:1012500010F0020FF5D010E0FFF7A8FC81463068CF
:1012600010F0020F09D0FFF7A1FCA0EB09005045D8
:101270001DD8306810F0020FF5D1A069E8B3D8F896
:10128000001001F00C0108296ED00228286820F017
:10129000807028600ED0FFF789FC0446286810F0A3
:1012A000007F5ED0FFF782FC001B022855D9032087
:1012B000BDE8F88FFFF77AFC0646286810F0007F3B
:1012C00008D0FFF773FC801B0228F0D8286810F0C4
:1012D000007FF6D1D4E9070147F6C0724FF0FF3323
:1012E00092FAA2F20843616AB2FA82F29140A26ACB
:1012F00003EB52024FF4403300E032E093FAA3F3E1
:10130000B3FA83F39A4011434FF070620843E16AE5
:1013100092FAA2F2B2FA82F291404FF0E042084310
:10132000216B92FAA2F2B2FA82F29140084338603D
:10133000286840F080702860FFF738FC0446286871
:1013400010F0007F0DD1FFF731FC001B0228AED852
:10135000286810F0007FF6D003E0286810F0007FC6
:10136000A0D10020BDE8F88F0120BDE8F88F000073
:101370000838024074380240403802400070004093
:1013800070380240401EB0F1807F24BF01207047BA
:101390004FF0E0214861F020044A82F8140D00204B
:1013A0008861072008610020704700000FE000E01E
:1013B0007047000070B501680446C8690A688B6808
:1013C00010F00F0F4FF0200551D040F2011C13EA2E
:1013D0000C0F7DD010F0010F18BF12F4807F07D0E2
:1013E0004FF0010CC1F820C0E16E41F00101E1664F
:1013F00010F0020F18BF13F0010F08D0D4F800C08E
:101400000221CCF82010E16E41F00401E16610F0F9
:10141000040F18BF13F0010F08D0D4F800C0042146
:10142000CCF82010E16E41F00201E16610F0080FE7
:101430000CD002F0200103F00103194306D0236809
:1014400008211962E16E41F00801E166E16E0029B0
:1014500008BF70BD10F0200F1EBF12F0200F2046F5
:1014600001F075FBE06E10F0080F10D10AE010F0EB
:10147000200F18BF12F0200F39D02046BDE8704071
:1014800001F065BB2068806810F0400F29D020680B
:10149000016821F4907101602068816821F00101E8
:1014A000816084F86A502068816811F0400F14D080
:1014B000816821F040018160606E70B12F49016543
:1014C000606EFFF727FA002808BF70BD606E00E06D
:1014D0000DE0016DBDE8704008472046FFF768FF4A
:1014E00070BD2046FFF764FF0020E06670BD10F07D
:1014F000800F18BF12F0800F2FD094F869002128B8
:1015000018BF70BDB4F85200A0B1A068B0F5805FFC
:1015100004BF20690028E06C16D000F10101E164ED
:10152000216800788862B4F85200A0F10100A4F8A4
:10153000520070BD086820F08000086020680168D3
:1015400041F04001016070BD0088C0F3080088626E
:10155000E06C00F10200E064E5E710F0400F14BF1A
:1015600012F0400F70BD20460A6822F040020A6067
:1015700084F8695000F029F970BD00003B2B000889
:10158000002804BF0120704710B5044690F8690098
:1015900028B9002084F86800204600F029F82420AB
:1015A00084F869002068016821F00101016020468B
:1015B00001F00EFB012808BF10BD606A00281CBFA7
:1015C000204601F01DFA2068416821F490414160F5
:1015D0002068816821F02A0181602068016841F05B
:1015E000010101602046BDE8104001F076BA00001C
:1015F0004DF804ED006887B0A0F18041B1F5F041ED
:101600001CBF07B05DF804FB1548016841F02001DC
:101610000160006800F0200005901248016841F068
:10162000804101600068694600F080400590C0205C
:1016300000900220019000200290032003900820D7
:1016400004900948FFF786F95220FFF7ECFA0322CD
:1016500001215220FFF7F4FA07B05DF804FB000007
:1016600030380240403802400014024090F86A309E
:10167000202B49D1002912BF002A0120704790F881
:101680006830012B40D0012380F868304165A0F814
:101690005820A0F85A20FF228168B1F5805F05D05C
:1016A0007F2351B1B1F1805F0CD012E001690029B4
:1016B00008BF40F2FF1102D109E0016909BBA0F89F
:1016C0005C2006E00169002918BF3F2119D0A0F86D
:1016D0005C100021C166222280F86A2080F8681020
:1016E00001680A6842F480720A6001688A6842F000
:1016F00001028A600068016841F020010160002059
:101700007047A0F85C30E4E70220704770472DE98D
:10171000F843044690F869001E4691460D4620287D
:1017200050D1002D12BFB9F1000F0120BDE8F883A0
:1017300094F86800012845D0012084F8680000274B
:10174000E766212084F86900FFF730FAA4F850908A
:101750008046A4F852900022B4F8520080214346FB
:10176000401EA4F852002046009601F085FBB8B94F
:10177000A068B0F5805F04BF2069002813D02168FD
:1017800015F8010B8862B4F852000028E3D14346F3
:1017900002464FF040012046009601F06DFB48B133
:1017A0000320BDE8F883216835F8020BC0F3080078
:1017B0008862E8E7202084F86900002084F86870D7
:1017C000BDE8F8830220BDE8F8837047FEE700001B
:1017D0002DE9F04FDFF8E4A283B09AF8000000286A
:1017E00019BF0025B64C03B0BDE8F08FA11CB4486A
:1017F00000F0DFFD0028F9D04FF4967001F088FB6F
:1018000001A9684600F0D5FD0028F9D02088BDF870
:101810000010884204D16088BDF80410884201D0CD
:10182000002DE3D021880126CAF80810022760881D
:101830000024A1F52C6C40F2DE2BDC454CF218653F
:101840004FF4FC694FF0030840F2917340F66902CF
:10185000CAF80C003CBF834290421BD28AF8026057
:10186000B22350229E211E20CDE90096FEF7FAFFFA
:10187000B2238C229E215A20CDE90057FEF7F2FFB9
:10188000B223C8229E219620CDE90058FEF7EAFF38
:1018900000F00EB9A1F5DE6C40F2CF2BDC453CBF69
:1018A0008342904218D28AF80270B2238C229E2181
:1018B0005A20CDE90097FEF7D5FFB22350229E2192
:1018C0001E20CDE90056FEF7CDFFB223C8229E218F
:1018D0009620CDE900581FE0A1F26A3CBCF52C7FB0
:1018E0003CBF834290421BD28AF80280B223C822B6
:1018F0009E219620CDE90098FEF7B4FFB223502236
:101900009E211E20CDE90056FEF7ACFFB2238C22AB
:101910009E215A20CDE90057FEF7A4FF00F0C8B879
:10192000A1F6A81340F2773C63454BF6404B40F6D6
:1019300045223CBF8242B0F5386F72D29AF802005D
:1019400030B1012812D002281ED003282AD036E058
:101950000020FEF745FF002341F2103241F2013131
:1019600041F20150009400F0CDFD28E00120FEF787
:1019700037FF002341F2113241F2013141F20150AF
:10198000009400F0BFFD1AE00220FEF729FF0023BB
:1019900041F2213241F2013141F20150009400F054
:1019A000B1FD0CE00320FEF71BFF002341F23132B2
:1019B00041F2013141F20150009400F0A3FD8AF898
:1019C0000240B22350229E211E20CDE90056FEF790
:1019D00049FFB2238C229E215A20CDE90057FEF701
:1019E00041FFB223C8229E219620CDE90058FEF780
:1019F00039FFF923CDF800905F22DC21232000F08D
:101A000069F8F923CDF800B0C322DC21872000F06B
:101A100061F80123E2213A202AA200F009F947E007
:101A2000FFE7A1F28A3140F27E3399423CBF824205
:101A3000B0F5386F3CD200208AF80240FEF7D0FEA5
:101A4000002341F2103241F2013141F20150009481
:101A500000F058FDB22350229E211E20CDE90056F1
:101A6000FEF700FFB2238C229E215A20CDE90057B9
:101A7000FEF7F8FEB223C8229E219620CDE9005839
:101A8000FEF7F0FEF923CDF80090C322DC21872079
:101A900000F020F8F923CDF800B05F22DC212320EC
:101AA00000F018F80123E2213A2006A200F0C0F865
:101AB0008AF8004003B0BDE8F08F00000406022061
:101AC000140602204F4E20202020202020202020FD
:101AD0004F4646002DE9F05F994617460D4682466F
:101AE0000A9EFEF75BFD4D459ABFDFF83CB0C6F39A
:101AF0000728BDE8F09F5446BA450ED80122584643
:101B00009102FFF74EF8404600F0B8F8F0B200F04E
:101B1000B5F8601C84B2BC42F0D9681C85B24D4552
:101B2000E9D9BDE8F09F0000001802402DE9FF5FF1
:101B300081463C48B9F1E00F1C46B0F8068099BFD9
:101B40000198B0F5987F04B0BDE8F09FA2F12000A5
:101B500000F0FF0A019809F1070200F10F030146A6
:101B60004846FEF71BFDDFF8C0B0002C4FF0000721
:101B700008BFDFF8B09024D12C4807EB0A110025EC
:101B8000445C14F0010F12BFA9F80680B9F80400F4
:101B9000A9F80600B9F80660012258469102FFF73D
:101BA00000F8300A00F06AF8F0B200F067F8681C3C
:101BB0006408C5B2082DE4D3781CC7B2102FDBD35C
:101BC00029E01A4807EB0A110024455C019800EB54
:101BD000070B15F0010F15D009EB040080B21FFAB6
:101BE0008BF102460B46FEF7D9FC0E48012291020A
:101BF000C6880D48FEF7D5FF300A00F03FF8F0B276
:101C000000F03CF8601C6D08C4B2082CE1D3781CCD
:101C1000C7B2102FD5D30348A0F8068004B0BDE8A2
:101C2000F09F000004060220001802401400022069
:101C30002DE9F041044610781F46154600280E464F
:101C400008BFBDE8F081E02C03D906F1100086B290
:101C50000024B6F5987F84BF002426462A783B46A8
:101C600031462046FFF762FF04F1080084B215F800
:101C7000010F0028E7D1BDE8F081000070B5134DD9
:101C80000446134E0020687014F0800F05D0012226
:101C900030461146FEF785FF04E000223046012160
:101CA000FEF77FFF002230464FF48071FEF779FF88
:101CB000012230461102FEF774FF6006040E6878B8
:101CC000401CC0B268700828DED370BD0406022034
:101CD0000000024070B5FF4C002240212046FEF774
:101CE00060FF0A2001F004F9012220464021FEF79E
:101CF00058FF0A2001F0FCF8F74D0022A1142846F5
:101D0000FEF74FFFCB24284600222915FEF749FF96
:101D10002046FFF7B3FF0122284639249102FEF73F
:101D200040FF2046FFF7AAFF012228462C249102FB
:101D3000FEF737FF2046FFF7A1FF012228460024C7
:101D40009102FEF72EFF2046FFF798FF012228465A
:101D500034249102FEF725FF2046FFF78FFF012272
:101D6000284602249102FEF71CFF2046FFF786FF5B
:101D7000CF24284600222915FEF713FF2046FFF73F
:101D80007DFF0122284600249102FEF70AFF20462B
:101D9000FFF774FF01222846C1249102FEF701FFDC
:101DA0002046FFF76BFF0122284630249102FEF700
:101DB000F8FE2046FFF762FFE82428460022291596
:101DC000FEF7EFFE2046FFF759FF01222846852443
:101DD0009102FEF7E6FE2046FFF750FF012228465B
:101DE00000249102FEF7DDFE2046FFF747FF0122A7
:101DF000284678249102FEF7D4FE2046FFF73EFFE6
:101E0000EA24284600222915FEF7CBFE2046FFF7DC
:101E100035FF0122284600249102FEF7C2FE20462B
:101E2000FFF72CFF012228469102FEF7BAFE20465A
:101E3000FFF724FFED24284600222915FEF7B1FE06
:101E40002046FFF71BFF0122284664249102FEF77B
:101E5000A8FE2046FFF712FF012228460324910224
:101E6000FEF79FFE2046FFF709FF012228461224B5
:101E70009102FEF796FE2046FFF700FF012228465A
:101E800081249102FEF78DFE2046FFF7F7FEF7242E
:101E9000284600222915FEF784FE2046FFF7EEFEB5
:101EA0000122284620249102FEF77BFE2046FFF700
:101EB000E5FEC024284600222915FEF772FE2046C2
:101EC000FFF7DCFE0122284623249102FEF769FE7B
:101ED0002046FFF7D3FEC124284600222915FEF72D
:101EE00060FE2046FFF7CAFE012228461024910218
:101EF000FEF757FE2046FFF7C1FEC5242846002204
:101F00002915FEF74EFE2046FFF7B8FE01222846AF
:101F10003E249102FEF745FE2046FFF7AFFE012268
:101F2000284628249102FEF73CFE2046FFF7A6FE35
:101F3000C724284600222915FEF733FE2046FFF766
:101F40009DFE0122284686249102FEF72AFE2046A5
:101F5000FFF794FE3624284600222915FEF721FEBD
:101F60002046FFF78BFE0122284648249102FEF707
:101F700018FE2046FFF782FE3A2428460022291543
:101F8000FEF70FFE2046FFF779FE01222846552472
:101F90009102FEF706FE2046FFF770FEB1242846A8
:101FA00000222915FEF7FDFD2046FFF767FE0122FE
:101FB000284600249102FEF7F4FD2046FFF75EFE5E
:101FC0000122284618249102FEF7EBFD2046FFF778
:101FD00055FEB624284600222915FEF7E2FD2046CC
:101FE000FFF74CFE0122284608249102FEF7D9FD96
:101FF0002046FFF743FE0122284682249102FEF785
:10200000D0FD2046FFF73AFE012228462724910200
:10201000FEF7C7FD2046FFF731FEF22428460022D6
:102020002915FEF7BEFD2046FFF728FE01222846AF
:1020300000249102FEF7B5FD2046FFF71FFE26247F
:10204000284600222915FEF7ACFD2046FFF716FEB4
:10205000012428462246A102FEF7A3FD2046FFF7F1
:102060000DFEE024284600222915FEF79AFD2046A1
:10207000FFF704FE012228460F249102FEF791FD8E
:102080002046FFF7FBFD0122284631249102FEF78E
:1020900088FD2046FFF7F2FD012228462B249102FD
:1020A000FEF77FFD2046FFF7E9FD012228460C24BC
:1020B0009102FEF776FD2046FFF7E0FD012228465B
:1020C0000E249102FEF76DFD2046FFF7D7FD082490
:1020D000012203E00000024000180240910228465D
:1020E000FEF75FFD2046FFF7C9FD012228464E247A
:1020F0009102FEF756FD2046FFF7C0FD012228465B
:10210000F1249102FEF74DFD2046FFF7B7FD0122B5
:10211000284637249102FEF744FD2046FFF7AEFD26
:102120000122284607249102FEF73BFD2046FFF7D7
:10213000A5FD0122284610249102FEF732FD20461B
:10214000FFF79CFD0122284603249102FEF729FD9A
:102150002046FFF793FD012228460E249102FEF748
:1021600020FD2046FFF78AFD01222846092491021E
:10217000FEF717FD2046FFF781FD012228460024C7
:102180009102FEF70EFD2046FFF778FDE124284678
:1021900000222915FEF705FD2046FFF76FFD0122FD
:1021A000284600249102FEF7FCFC2046FFF766FD5E
:1021B000012228460E249102FEF7F3FC2046FFF789
:1021C0005DFD0122284614249102FEF7EAFC204618
:1021D000FFF754FD0122284603249102FEF7E1FC9B
:1021E0002046FFF74BFD0122284611249102FEF7FD
:1021F000D8FC2046FFF742FD012228460724910221
:10220000FEF7CFFC2046FFF739FD01222846312496
:102210009102FEF7C6FC2046FFF730FD012228465A
:10222000C1249102FEF7BDFC2046FFF727FD0122E5
:10223000284648249102FEF7B4FC2046FFF71EFD15
:102240000122284608249102FEF7ABFC2046FFF746
:1022500015FD012228460F249102FEF7A2FC20461C
:10226000FFF70CFD012228460C249102FEF799FC91
:102270002046FFF703FD0122284631249102FEF794
:1022800090FC2046FFF7FAFC0122284636249102F2
:10229000FEF787FC2046FFF7F1FC012228460F24B9
:1022A0009102FEF77EFC2046FFF7E8FC2A24284630
:1022B00000222915FEF775FC2046FFF7DFFC0122FE
:1022C000284600249102FEF76CFC2046FFF7D6FC5E
:1022D000012228469102FEF764FC2046FFF7CEFC5F
:1022E000012228469102FEF75CFC2046FFF7C6FC5F
:1022F00001222846EF249102FEF753FC2046FFF707
:10230000BDFC2B24284600222915FEF74AFC204656
:10231000FFF7B4FC0122284600249102FEF741FC9D
:102320002046FFF7ABFC012228469102FEF739FC5C
:102330002046FFF7A3FC012428462246A102FEF70F
:1023400030FC2046FFF79AFC012228463F249102E8
:10235000FEF727FC2046FFF791FC112428460022B7
:102360002915FEF71EFC2046FFF788FC3C2000F0F4
:10237000BFFD2924284600222915FEF712FC20461D
:10238000FFF77CFC2C24284600222915FEF709FCC7
:102390002046FFF773FC04484FF6FF7181804FF42D
:1023A0007841C18070BD000004060220FEE770473E
:1023B00070472DE9F04186B00D460646D020FEF765
:1023C0007BF807469020FEF777F800244FF00108CD
:1023D000642F29BF64282246ADF81470ADF80000C0
:1023E00028BF4246002A3ED0D020FEF765F80746B7
:1023F0009020FEF761F8642F28BF642804D3444678
:10240000ADF80C70ADF804006CB3BDF80C30BDF83D
:10241000142093429CBF03F11400824205D39A42D8
:102420009CBF02F1140083421DD2BDF80440BDF8E8
:1024300000C0A44524BF04F11400604505D8A4459C
:102440009CBF0CF1140084420DD2D018400830809B
:10245000BDF80000BDF8041008444008288006B00C
:102460000120BDE8F08106B00020BDE8F081000049
:102470001F48F0B5016887B041F020010160006895
:1024800000241C4D694600F0200005904FF4807038
:1024900000900120039401902846FEF75BFA002289
:1024A0002846A915FEF77DFB144DC821124F05F1F2
:1024B0000D002F602C71EC802C816C812C73FDF74A
:1024C00039FF0F4EC821A5F8D640C5F8D860DC3DCD
:1024D00005F10D002F602C71EC802C816C812C7328
:1024E000FDF728FFA5F8D640C5F8D86007B0F0BDC5
:1024F0003038024000140240E4E3E2E12C080220FC
:10250000EDECEBEA2DE9F041374D1C464FF0000CA5
:10251000069E0CF1E10305F80C30E03B1FFA83FC4A
:10252000BCF1040FF5D3314F3B79FF2B24BF0023BF
:102530003B71DBB22B715B1C3B71030A6B71A871A1
:10254000080AE871100A297204F10C0168720C2063
:10255000AA720C29EC7207D9321812F80C2C2A54E2
:10256000401C80B28142F7D81F48FEF790F8291925
:10257000A7F8D600020A0A73487304F10E00021D80
:10258000904206D2011BDC312954401C80B290429B
:10259000F8D3174D012211022846FEF702FB05224F
:1025A00000200021491CB1F5165FFBD3401C90426E
:1025B000F7D30D494FF47A730E4804F11202FFF776
:1025C000A6F8052200200021491CB1F5165FFBD3B7
:1025D000401C9042F7D32846BDE8F04100224FF45A
:1025E0008071FEF7DEBA00000809022050070220C1
:1025F00000140240E006022070470000DFF894C09B
:1026000010B594B0DCF8004044F08054CCF80040A1
:10261000DCF800C00CF0805CCDF848C0DFF878C072
:10262000DCF8004044F44044CCF80040DCF800C042
:1026300002240CF4404CCDF848C04FF0010CCDF80A
:1026400000C04FF4803CCDF804C04FF4800CCDE9BD
:102650000810CDE90A23CDE9064C6846FEF7B0FC28
:1026600000B1FEE7FEF730FB00B1FEE70F20CDE939
:102670000D0400200F904FF4A05010904FF48050A4
:10268000119007210DA8FEF75DFB002804BF14B0D0
:1026900010BDFEE74038024000700040FEF78CBAE3
:1026A0001048016841F4700101600F48016841F071
:1026B000010101600D4A00211160026822F410221C
:1026C00022F080720260031D094A1A60026822F437
:1026D0008022026007480160580607490860FEF73B
:1026E00005B8000088ED00E00038024008380240DC
:1026F000103000240C38024008ED00E02B482DE992
:10270000F047016886B041F001010160016801F005
:1027100001010591016841F0400101600068002459
:102720000126DFF88C9000F04000059002256946F4
:102730004FF480584846CDE90254CDE90086FEF7B3
:1027400009F9DFF870A040F24110CDE90006CDE9AB
:10275000025469465046FEF7FDF8032769460820F3
:10276000CDE90004CDE902475046FEF7F3F86802D0
:102770006946CDE90006CDE902544846FEF7EAF87D
:10278000A8026946CDE90006CDE902545046FEF79D
:10279000E1F8CDF80080694603975046CDE9014540
:1027A000FEF7D8F806B0BDE8F087000030380240E8
:1027B00000180240000002402DE9F04300214FF0D4
:1027C0000108CF2740F23F13EF22084683B0FDF700
:1027D000E5FEDFF8DC90002600244546012248464D
:1027E0009102FEF7DEF92846FFF748FA01223D463E
:1027F00048469102FEF7D5F92846FFF73FFA601CDC
:1028000084B2B4F5A07FE8D3701C86B2F02EE3D377
:10281000284C1E2101234FF6FF7527A20846E580AC
:10282000FFF706FA012350211E2029A2FFF700FA24
:102830000020FDF7D5FF0123E58082211E2027A27D
:10284000FFF7F6F901204CF21864B2235022CDE9CB
:1028500000409E211E20FEF705F80220B2238C22A4
:10286000CDE900409E215A20FDF7FCFF0320B22352
:10287000C822CDE900409E219620FDF7F3FFF92301
:102880004BF640445F220094DC212320FFF722F91D
:10289000F9230094C322DC218720FFF71BF903B042
:1028A0000123E221BDE8F0433A2011A2FFF7C0B9AD
:1028B000001802400406022046616E20436F6E74C9
:1028C000726F6C204578706572696D656E7400007A
:1028D00046616E2053746174653A000046616E2053
:1028E000476561722041646A7573746D656E74002A
:1028F0004F4E202020202020202020204F46460020
:10290000174830B40068C06910F0200F22D0154875
:102910000068154AC1B21170506810F4004F19D107
:1029200010F4804F4FF0000305D00A2908BF40F48F
:10293000004013D00DE00D2908BF40F480400DD0B9
:102940000A4CC0F30D0C401CC72804F80C10506052
:1029500000D9536030BC0248FEF72CBD5060F9E747
:10296000E006022024780040080002201806022019
:102970001649154A10B5C1E9002000208860C860DA
:102980000C220861C1E90520C8610846FEF7F8FD80
:102990000F4901220D48FEF769FE0E4C012211027B
:1029A0002046FEF7FEF8052000F0A2FA0AA0FDF787
:1029B000B5FC052000F09CFA00222046A115BDE8D8
:1029C0001040FEF7EEB8000000780040E00602205C
:1029D0000900022000140240BBB6D3ADCAB9D3C36C
:1029E000B7E4B3B2CCD7BCFE2D2D544654CFD4CAD5
:1029F000BEC6C1C4A3BFE9CAB5D1E90D0A00000033
:102A000090F8241011F0010F06D001684A68836A1B
:102A100022F400321A434A6090F8241011F0020F99
:102A200006D001684A68C36A22F480321A434A60B9
:102A300090F8241011F0040F06D001684A68036B67
:102A400022F480221A434A6090F8241011F0080FF3
:102A500006D001684A68436B22F400421A434A6078
:102A600090F8241011F0100F06D001688A68836B6B
:102A700022F480521A438A6090F8241011F0200F3B
:102A800006D001688A68C36B22F400521A438A6038
:102A900090F8241011F0400F11D001684A68036CBF
:102AA00022F480121A434A60016CB1F5801F06D1EE
:102AB00001684A68436C22F4C0021A434A6090F8E5
:102AC000241011F0800F08BF704701684A68806CBD
:102AD00022F40022104348607047F8B500260446EF
:102AE000C666FEF763F80746206800686FF07E450B
:102AF00010F0080F08D000223B464FF4001120468A
:102B0000009500F0B9F968B92068006810F0040F6A
:102B10000AD000223B464FF480012046009500F089
:102B2000ABF908B10320F8BD202084F8690084F8CF
:102B30006A00002084F86860F8BD10B5806B002141
:102B4000A0F85A10A0F85210FEF732FC10BD10B5D4
:102B5000B0F85C2090F86A300168222B05D08869B3
:102B600040F008008861022010BD8368B3F5805FE3
:102B700004BF0369002B23D0496A01EA0202416DB8
:102B800001F1010343650A70B0F85A10A1F1010187
:102B90000904090CA0F85A101CBF002010BD0168E0
:102BA0000A6822F490720A6001688A6822F00102C1
:102BB0008A60202180F86A10FEF7A8FD002010BD71
:102BC000436D496A11401980416D891C4165DBE7FD
:102BD00070B5044680681021002223691546D4F898
:102BE0001CC01843636943EA0C0303432068D0F810
:102BF00000C09D4E0CEA060C4CEA030303602068FB
:102C00004368D4F80CC023F4405343EA0C034360F8
:102C1000236AA06903432068D0F808C02CF4306C04
:102C20004CEA030383602068904BA0F1804CBCF514
:102C3000883C23D0A0F1804CBCF5884C29D0A0F171
:102C4000804CBCF5904C2FD0A0F1804CBCF5984C3A
:102C500035D0A0F1804CBCF5A04C3BD0A0F1804C0D
:102C6000BCF58A3C44D0A0F1804CBCF5F04C4FD070
:102C7000A0F1804CBCF5F84C58D06CE01B6813F008
:102C8000030343D0012B63D0022B5FD0032B61D011
:102C900061E01B6813F00C0356D0042B58D0082BAE
:102CA00054D00C2B56D056E01B6813F030034BD099
:102CB000102B4DD0202B49D0302B4BD04BE01B6834
:102CC00013F0C00340D0402B42D0802B3ED0C02B0D
:102CD00040D040E01B6813F4407335D0B3F5807FDB
:102CE00036D0B3F5007F31D0B3F5407F32D032E03B
:102CF0001B6813F4406309D0B3F5806F28D0B3F597
:102D0000006F23D0B3F5406F24D024E0012122E0EE
:102D10001B6813F4405317D0B3F5805F18D0B3F598
:102D2000005F13D0B3F5405F14D014E01B6813F4B8
:102D3000404309D0B3F5804F0AD0B3F5004F05D01A
:102D4000B3F5404F06D006E0002104E0022102E086
:102D5000042100E00821E369B3F5004F08D00929F8
:102D60007FD2DFE801F046525E7E677E7E7E740091
:102D7000092935D2DFE801F0050F19342134343444
:102D80002B00FEF7A1F84100606801EB5001B1FB98
:102D9000F0F082B225E0FEF7AFF84100606801EB89
:102DA0005001B1FBF0F082B21BE06068304901EBEA
:102DB0005001B1FBF0F082B213E0FEF7B5F841002C
:102DC000606801EB5001B1FBF0F082B209E060688D
:102DD0004FF4803101EB5001B1FBF0F082B200E022
:102DE000012522F00F00C2F3420108432168C860A8
:102DF00038E0FEF769F80146606801EB5001B1FB6D
:102E0000F0F0216880B2C8602CE0FEF775F801464A
:102E1000606801EB5001B1FBF0F0216880B2C8603E
:102E200020E06168134A02EB5102B2FBF1F189B272
:102E3000C16017E0FEF778F80146606801EB5001C9
:102E4000B1FBF0F0216880B2C8600BE009E0616876
:102E50004FF4004202EB5102B2FBF1F189B2C160C2
:102E600000E00125284670BDF369FFEF903802406D
:102E70000048E8010024F4002DE9F0410446006810
:102E80001E461746069D8846C06931EA00000CBF01
:102E900001200020B84226D1B5F1FF3F1AD025B15C
:102EA000FDF784FE801BA84214D32068016821F43A
:102EB000D07101602068816821F0010181602020CB
:102EC00084F8690084F86A00002084F86800032010
:102ED000BDE8F0812068C06938EA00000CBF01201D
:102EE0000020B842D8D00020BDE8F081FEE770474E
:102EF000002300288CBF054A70470021491C9142DD
:102F0000FCD35B1C8342F8D370470000AFAD0100D7
:102F10000022002898BF70470021491C8C29FCD34F
:102F2000521C8242F8D3704704490A6812F0400FDD
:102F3000FBD0034AC1B21160704700001C7800400A
:102F400028780040FDF740FEFFF7D8FBFEF7C2FEF1
:102F5000FFF78EFA4FF4E130FFF70AFDFFF72CFC84
:102F6000FDF716FCFEF734FCFCE74FF04070E1EE95
:102F7000100A704700000000000000000102030476
:102F8000060708090000000001020304AC2F000836
:102F9000000002201806000034020008B0320008C9
:102FA00018060220E00A0000900200081103242401
:102FB000F44A080121331818E5486C241228082423
:102FC00024247F12121204392F280C1C2A2A0A0CDE
:102FD0001828282A2A1C3611500C22251515152AC6
:102FE00058545454221A0C2930080A762529119174
:102FF0006EC5060604034D402010107125101020E8
:10300000402B02040A29015D08080402913D6B1C53
:103010001C6B5C79A14A7FA3D1A95B0213FE430616
:10302000063D80404020743C040402604C18244259
:10303000012A24F0195F4A0E905408083E1A3C1BDE
:1030400019326D0804427E10500920182040404279
:10305000221C500C203028242422227E2020788F0D
:103060007E0202021A26202B38241089606C7E22F0
:1030700022F379603A2485523C390B4E6458404023
:1030800024402913393A490649A449063308042A39
:10309000409C870204081020405A7F0451491B3984
:1030A0002569701A460F6A10501D1C225A55016A74
:1030B0002DB0500C0808181414243C224242E71E7C
:1030C0001F2222221E0E5442221F2D7C4242010149
:1030D00069302A1F1C29015920B80C3F4212121EC8
:1030E00012120242423F104C020207801B22223E73
:1030F0005C712122402AE73C2A7E0549706B3E081C
:10310000014A3E707A100133110F500C7722120AD7
:103110000E0A12122222771A075A39014A42F31B69
:103120007736012A2A01526B580CE346464A4A5226
:103130005252626247F04A410159802A3F7B2A3E3F
:103140004149A059206E4D53321C60202A3E6F4BDE
:1031500042C79018084242020418204016516B7F63
:1031600049B099D039016A3C105009222424141422
:103170001808081B6B49015F55553622222220484A
:103180000A2424181818242442E7C09D222214146B
:1031900050300C7E2120101008040442423F6A780F
:1031A0006D290132781D020204040B100810102052
:1031B000202040409B1E1001221E031C384412FF99
:1031C0004A0695F150083C4278444242FC1F0302F3
:1031D00002021A26CF93261A1B3844155344382D61
:1031E000604040402E9C4264D840567E0202423CE1
:1031F0003EF08808087EAF923E38087C22221C02EE
:103200003C422229601B3A46405342E7230C0C9A69
:103210000E301B30307019DD19011A22D1393050AF
:103220000872120A16122277492CC9602B7F92016C
:1032300092B79A3B6049A0290149A0412A1BE07539
:10324000221E020739D075447840E01C774C0401F7
:103250008A1FC06E42023C404270197A398019A917
:10326000712A635F9362DC9008E742242414080803
:103270009008EB494955552222C808762418181899
:10328000246E306C1808089030087E22100808441C
:103290007E2BC020013A10061320C0DA1001113A2B
:1032A000068A192E2901120604210C32C2000000E0
:04000005080001F9F5
:00000001FF
