:020000040000FA
:030000000200AB50
:03001B00020B7D58
:10004B00020AA800000080FB1200DBB900030200CB
:10005B0095E4900200789579048002F0A3D8FCD93E
:10006B00FA900594AA82AB839000DE7847790180E1
:10007B0015E493A3AC82AD838A828B83F0A3AA820F
:10008B00AB838C828D83D8E9D9E77582BC75831DD0
:10009B0074001200BD75824E75830074001200BD92
:1000AB0075D0007581BF751000751102759F000228
:1000BB000053C09FF59FE473D09F22D083D082C0A2
:1000CB009FE493C0E0740193C0E0740293F59F2208
:1000DB00790122FFFFFFFF01000000E4E3E2E1ED05
:1000EB00ECEBEA140000003FB82F3B66663BC20CFA
:1000FB0000FA3A0000C0C03F065B4F666D7D077F7C
:10010B006F003976800200000050000000A0000054
:10011B0000F0000000000000001200C6C81C001216
:10012B0000C6D41C001200C6BB18001200C6F7187C
:10013B00001200C60019001200C60919001200C6F1
:10014B001519001200C61E19001200C62A1900123A
:10015B0000C65D19001200C69019001200C6C31923
:10016B00001200C6F619001200C6381A001200C69B
:10017B004E16001200C66216001200C6A518001219
:10018B0000C6A00B001200C6BC0B001200C62D0C43
:10019B00001200C69E0C001200C6B10E001200C663
:1001AB00DA0F001200C6F311001200C6541200122F
:1001BB0000C6BC12001200C68E1A001200C6301BFD
:1001CB00001200C6D21B001200C6F312001200C6AA
:1001DB00FC12001200C62A13001200C6581300129C
:1001EB0000C6A113001200C61C15001200C6D91DB3
:1001FB00001200C62C1D001200C64C1D001200C6BA
:10020B00571D001200C6EF1B001200C66F1C001218
:10021B0000C6B91C001200C68F1D00C3E796080963
:10022B00E7960809E7960809E79622C3E09608A324
:10023B00E09608A3E09608A3E09622E9799EC6080B
:10024B00CAC608CBC608CCC6C370207996CACBCC1D
:10025B007019798ECBCC70137986CC700EF9802AFD
:10026B00CA33CACB33CBCC33CC331930E7F2CCCB3C
:10027B00CA3350147004EA30E00DE4CA3ACACB3BDF
:10028B00CBCC3CCC500209C3E913C6CC182313C604
:10029B00CB18C6CA18C6F9228A088B098C0A8D0B93
:1002AB0078081202ED20F01430E72B74FFFCFBFAF8
:1002BB00747F8022E4FCFBFA7480801AB48008BC43
:1002CB0000F2BB00EF800F50EBF9E4C39AFAE49B0A
:1002DB00FBE49CFCE499C6CC18C6CB18C6CA18C65E
:1002EB00F922E4C9C608CAC608CBC6D3330308CC67
:1002FB00C63392F0C3947F402E94184019C9B907A6
:10030B0004CACBCC225025C309CA33CACB33CBCCBE
:10031B0033CC33D9F422F4600DC9CCC313CB13CB3C
:10032B00CA13CAD9F6CC22E4FCFBFA2214FCFBFA62
:10033B0022E6C33318461846184622E7C33319473B
:10034B001947194722181818E6084608700AE608D4
:10035B00C3337005E633F4220822191919E709474C
:10036B0009700AE709C3337005E733F4220922E663
:10037B00084608C3134608336002E633F422E70944
:10038B004709C3134709336002E733F42200120312
:10039B007A604F1203896012E7548066F61203509D
:1003AB007011120346703B090909F4F618F618F69A
:1003BB0018F622120365701512033C08080860EA50
:1003CB00E6447FF618768018E4F618F62212033C02
:1003DB0060161203467012E4F608F608F608E654A7
:1003EB0080F609090918181822EAC0E0EBC0E0EC06
:1003FB00C0E0EDC0E0E687F0A4FBACF008E687F0C8
:10040B00A42CFCE435F0FA1809E687F0A42C4B6019
:10041B00027401CA35F0FCE433FB09E687F0D2F72E
:10042B00A42CCB35F0FC1908E687F0A42BCC35F0C7
:10043B00FBE433FD0819E687F0D2E7A42C4ACB3551
:10044B00F0CD3400FC09E687F0D2E7A42DCC35F0D3
:10045B00FDE433FA0918E687F0D2F7A42CCD35F07A
:10046B00CA3400FC08E687F0D2E7D2F7A42ACC35D1
:10047B00F07A7E20E70B0ACB33CBCD33CDCC33CC0C
:10048B0033CB3350147004ED30E00ED2F1E4CD3D9C
:10049B00CDCC3CCC3B5005DA05C2F1EB547FC633D7
:1004AB0008E63392F0FBE73309E733C39A502D2B61
:1004BB0070190C0D4C4D70151806E608C333700DF2
:1004CB0020F10AA2F013F6E418800B4024E4F63076
:1004DB00F002768018F618F618F68024D33B1450E9
:1004EB001074FFA2F013F6187680E418F618F68055
:1004FB000FA2F013F618E63303F618ECF618EDF628
:10050B00D0E0FDD0E0FCD0E0FBD0E0FA2212037A81
:10051B00601D1203897005191919801A1203507086
:10052B001F120365C37003E66733191919400718C7
:10053B0018182208080874FFF618F618F618F62291
:10054B001203656017120346702192F012033C7080
:10055B0019501720F014080808090909E7F61819AB
:10056B00E7F61819E7F61819E7F62212033C60E6CE
:10057B00E869701F0808E62480F608E436F618547C
:10058B007FB47F0CE654806007F6E418F618F62269
:10059B00181822E9C6CC08C6CD08C6CE08C6CFC0EF
:1005AB00E0E8C0E0EAC0E0EBC0E009E9F809E7FAEF
:1005BB0009E7FBE6F918E6F8C3EC98ED99EE9AEB30
:1005CB00C2E7F5F0EFC2E795F0500E600CEBCFFBF6
:1005DB00EACEFAE9CDF9E8CCF8EAA2E7D2E7FAEBF2
:1005EB0033FB13F5F0EEA2E7D2E7FEEF33FFC5F0D6
:1005FB0013A2E730E601B313C5F0C3C0E0C0F07F30
:10060B0000C39BFB605B9418600C401AD0E023F98D
:10061B00D0E0F80206F68AF0E9486003D2F0E4AFC6
:10062B00F0FAF9F8803BEB30E40D89F0EA6003D285
:10063B00F0E4AFF0F9CAF8EB30E30D88F0EF6002AD
:10064B00D2F0AFF0E4CAC9F8EB54076014FBC3EA6D
:10065B0013FAE913F9E813F8EF135002D2E0FFDBBA
:10066B00EDD0E0C0E030E739C3E49FFFF5F0EC9844
:10067B00FC42F0ED99FD42F0EE9AFE42F0D0E0F92B
:10068B00D0E0F8E5F0607AE923F9EE20E742D802F2
:10069B008067C3EF33FFEC33FCED33FDEE33FE80AD
:1006AB00EAEC28FCED39FDEE3AFED0E023F9D0E080
:1006BB00F84002801BC3EE13FEED13FDEC13FCEFB1
:1006CB00135002D2E0FF08B800067F7F74FF802E24
:1006DB00EF3350178CF020F00260100CBC000C0DA7
:1006EB00BD00080EBE000408E860DFE933E813FF25
:1006FB00EE2313FE4F4D4C8008E95480FFE4FEFDC2
:10070B00FCEE33EF33F47004FCFD7E80D0E0FBD0C5
:10071B00E0FAD0E0F8D0E0CFC618CEC618CDC61898
:10072B00CCC6F922E026F608A3E036F608A3E0369D
:10073B00F608A3E036F622E026F008A3E036F00830
:10074B00A3E036F008A3E036F022E0F608A3E0F6CB
:10075B0008A3E0F608A3E0F622E0FAA3E0FBA3E08F
:10076B00FCA3E0FD22EAF0A3EBF0A3ECF0A3EDF089
:10077B0022CAC0E0E6F0A308DAFAD0E0FA22C3E41A
:10078B0098F8E499F91207CA8026C3E49AFAE49B15
:10079B00FBE920E7E91207CAE498F8E499F922C3C8
:1007AB00E498F8E499F91207CAE498F8E499F9C3C4
:1007BB00E49AFAE49BFB22EB20E7CFE920E7E0B9D0
:1007CB000010BB0008E88AF084F8AAF022E4FBC80A
:1007DB00FA22EB70227B10C833C8C933C9335007D8
:1007EB00C39AC3DBF280069A50012ADBEAC833F4C2
:1007FB00C8C933F4C9FA2275F008E4C833C8C93341
:10080B00C933C99AC99B5004C92AC93BD5F0ECFB23
:10081B00C833F4C8E4C9FA22251010AF08F510400C
:10082B000215118008F51040021511D2AF22C0D06D
:10083B00251010AF08F510500205118008F5105067
:10084B00020511D2AFD0D0222510F58210AF08F5DA
:10085B0010400215118008F51040021511D2AF851A
:10086B001183222510F582E43511F583222510C55D
:10087B0082C0E0E51134FFC583C0E0E510C395826B
:10088B0024F810AF088583118582108008858311A9
:10089B00858210D2AFCEF0A3E520F0A37808E6084E
:1008AB00F0A3DEFAEFF0A3E58124FAF8E608F0A353
:1008BB00E608F0A3E608F0A30808E608F0A3E608AC
:1008CB00F0A315811581D0E0FED0E0F815811581DC
:1008DB001581E8C0E0EEC0E022851183851082E02F
:1008EB00A3FEE0A3F5207808E0A3F608DFFAE0A367
:1008FB00FFE0A3C0E0E0A3C0E0E0A3C0E0E0A3C042
:10090B00E0E0A3C0E010AF0885821085831180085A
:10091B00858210858311D2AFD083D0820200C3C0F1
:10092B00D02510C582C0E0E51134FFC583C0E0E5DA
:10093B0010C3958224F310AF088583118582108034
:10094B0008858311858210D2AFC8F0A3E9F0A3EA22
:10095B00F0A3EBF0A37908E709F0A3D8FAECF0A326
:10096B00EDF0A3EEF0A3EFF0A3D0E0F0A3D0E0F016
:10097B00A3D0E0F0A3E520F0A3E5F0F0A3228511CE
:10098B0083851082E0C0E0A3E0F9A3E0FAA3E0FBCB
:10099B00A37808E0F608A3DFFAE0FCA3E0FDA3E0F0
:1009AB00FEA3E0FFA3E0C0E0A3E0C0E0A3E0F5D02E
:1009BB00A3E0F520A3E0A3F5F010AF088583118524
:1009CB0082108008858311858210D2AFD082D083AC
:1009DB00D0E0F8D0E03274028000C0E0F4041208DA
:1009EB0053D0E012077C22D083D082ECC0E0EDC064
:1009FB00E0E493A3FCE493A3FDED4C600D120A3EDF
:100A0B00EC24FFFCED34FFFD80EFE493A3FCE493B7
:100A1B00A3FDED4C600D120A7DEC24FFFCED34FFC1
:100A2B00FD80EFD0E0FDD0E0FCE493A3C0E0E493C5
:100A3B00C0E022C0E0C3E49396087401939618407B
:100A4B000FE49366700808740193661870007019B0
:100A5B00A3A3C3E49396087401939618A3A3400D24
:100A6B00D0E0D0E0D0E0020A2EA3A3A3A3A3A3D08F
:100A7B00E022C0E0C0F088F0E493667008087401CF
:100A8B009366187000A8F0A3A3700BD0F0D0E0D041
:100A9B00E0D0E0020A2EA3A3D0F0D0E022C0E07495
:100AAB00EF12092A9005987808120755900570786F
:100ABB00081207427A017B161201A8E96003020BA8
:100ACB0075900478E0F508A3E0F50978081209F2AF
:100ADB00000003000016ED0A10161B0B3016490B15
:100AEB00750B75087475090578081209E17508010D
:100AFB0075091678081209E17901900474E0FCA3DA
:100B0B00E0FD7A017B1612019C7404120839805A9D
:100B1B0075087E75090578081209E17508117509C4
:100B2B001678081209E17901900474E0FCA3E0FD4A
:100B3B007A017B1612019C7404120839802C7508FB
:100B4B008875090578081209E17508317509167859
:100B5B00081209E17904900474E0FCA3E0FD7A012A
:100B6B007B1612019C740412083953AFFE7F0402EA
:100B7B000989C0E074F212092AC28F900592E054E1
:100B8B0000F8A3E05480F9E8497005A9F91201A215
:100B9B007F01020989C082C08353F47F43FE08C2E0
:100BAB00931201961201901201FCD083D0820200A5
:100BBB00C374F612087890059C1207649003951283
:100BCB0007709003997400F090039A7400F0A3746B
:100BDB0000F090039C7400F0A37400F090039E74DB
:100BEB0000F0A37400F09003A07400F07508C875B2
:100BFB00090078081209E17C007D007AA17B0312C1
:100C0B00022074021208399004697400F0A3740076
:100C1B00F09005A012076490046B1207707F02021C
:100C2B0008E474F612087890059C12076490046F20
:100C3B001207709004737400F09004747400F0A3A6
:100C4B007400F09004767400F0A37400F0900478B4
:100C5B007400F0A37400F090047A7400F07508C867
:100C6B0075090078081209E17C007D007A7B7B0412
:100C7B0012022074021208399005437400F0A37419
:100C8B0000F09005A01207649005451207707F02D3
:100C9B000208E474F4120878E9FE740C12086EE092
:100CAB00F50AA3E0F50B740E12086EE0F8A3E0F959
:100CBB009005497400F0A37400F08033900549E06F
:100CCB00F508A3E0F509E50824E1C0E0900549E04B
:100CDB002405F508A3E03402F5098508828509830C
:100CEB00D0E0F0900549E02401F0A3E03400F0904F
:100CFB000549C3E09404A3E0940040C0900399E03D
:100D0B00C394FF40069003997400F0900399E09010
:100D1B000209F0900399E02401F08A088B09E4E5BD
:100D2B0009F508E50890020AF0EA90020BF0ECFADC
:100D3B00EDFBE4EBFA90020CF0EC90020DF0AA0A3A
:100D4B00AB0BE4E50BAA0BE50B90020EF0E50A905A
:100D5B00020FF0EE900210F0900549740CF0A374A2
:100D6B0000F0803A900549E0FAA3E0FBE82AFAE9A3
:100D7B003BFBEA24F4F582EB34FFF583E0C0E09013
:100D8B000549E02405FAA3E03402FB8A828B83D069
:100D9B00E0F0900549E02401F0A3E03400F0900569
:100DAB00498E08750900E508240CFAE5093400FBA7
:100DBB00C3E09AA3E09B40AC8E08750900E50824BC
:100DCB000CFCE5093400FD7A057B021201B490049A
:100DDB0069EAF0A3EBF0900469E0F8A3E0F9E4E929
:100DEB00F8C0E08E0875090074112508F5827402AD
:100DFB003509F583D0E0F0900469E0F8A3E0F9E859
:100E0B00C0E08E0875090074122508F5827402354E
:100E1B0009F583D0E0F08E08750900E508240EF87B
:100E2B00E5093400F9900549E8F0A3E9F08030902A
:100E3B000549E0F8A3E0F9E824F2C39E24EAC0E0F8
:100E4B00900549E02405F8A3E03402F988828983F0
:100E5B00D0E0F0900549E02401F0A3E03400F090DD
:100E6B0005498E08750900E5082412F8E5093400D8
:100E7B00F9C3E098A3E09940B6D2937A057B0012B0
:100E8B0001BA8E08750900E5082412FCE509340047
:100E9B00FD7A057B021202087A057B001201BAC2A9
:100EAB00937F040208E4C082C08374E169700890E8
:100EBB00054C7401F0806190054CE06401700D7479
:100ECB00E269700890054C7402F0804C90054CE080
:100EDB006402700D74E369700890054C7403F08024
:100EEB003790054CE06403702974E4697024900218
:100EFB00CD74E1F09002CE74E2F09002CF74E3F087
:100F0B009005927403F0A37400F090054D7401F0FA
:100F1B00800690054C7400F090054DE07003020FB5
:100F2B00D3900592C3E094C7A3E0940040169005BC
:100F3B004B7400F090054D7400F09005927400F026
:100F4B00A37400F0E9C0E0900592E024CDFAA3E091
:100F5B003402FB8A828B83D0E0F0900592E024016F
:100F6B00F0A3E03400F074EA69700890054B74014B
:100F7B00F0805590054BE06401700D74EB697008BF
:100F8B0090054B7402F0804090054BE06402700DAD
:100F9B0074EC69700890054B7403F0802B90054B33
:100FAB00E06403701D74ED6970189005927400F085
:100FBB00A37480F090054D7400F090054B7400F015
:100FCB00800690054B7400F0D083D0820200C3746E
:100FDB00F6120878900592E064007004A3E0648038
:100FEB0060030211E39005507400F09002D4E0F816
:100FFB007900E875F000A4C8ACF075F001A42CFCE6
:10100B0075F000E9A42CF99002D5E0FC7D00E82CEA
:10101B00F8E93DF9EA687002EB6960030211B690DA
:10102B0002D1E0900473F09002D2E0F87900E875F9
:10103B00F000A4C8AAF075F001A42AFA75F000E933
:10104B00A42AF99002D3E0FA7B00E82AF8E93BF9ED
:10105B00900474E8F0A3E9F09002D4E0F87900E88A
:10106B0075F000A4C8AAF075F001A42AFA75F00077
:10107B00E9A42AF99002D5E0FA7B00E82AF8E93BCB
:10108B00F9900476E8F0A3E9F09002D6E0F8790045
:10109B00E875F000A4C8AAF075F001A42AFA75F05F
:1010AB0000E9A42AF99002D7E0FA7B00E82AF8E9D4
:1010BB003BF9900478E8F0A3E9F09002D8E09004B3
:1010CB007AF090054E740CF0A37400F0803290050A
:1010DB004EE024CDF8A3E03402F988828983E0C086
:1010EB00E090054EE0246FF8A3E03404F988828980
:1010FB0083D0E0F090054EE02401F0A3E03400F043
:10110B0090054EC082C08390047AE0F87900240CDD
:10111B00F8E93400F9D083D082C3E098A3E099407A
:10112B00AD90047AE0F8790074D928F5827402390D
:10113B00F583E0F87900E875F000A4C8AAF075F023
:10114B0001A42AFA75F000E9A42AF9900543E8F006
:10115B00A3E9F090047AE0F8790074DA28F5827448
:10116B000239F583E0F87900900543E028F0A3E01D
:10117B0039F090047AE0F87900240CFCE93400FD96
:10118B007ACD7B021201B4900551EAF0A3EBF090FB
:10119B000551E0F8A3E0F9900543E0687003A3E084
:1011AB0069600E9005507401F08006900550740133
:1011BB00F07508C875090078081209E17C007D00FC
:1011CB007ACD7B02120220740212083990059274B8
:1011DB0000F0A37400F080069005507401F09005A8
:1011EB0050E0F97F020208E4C082C083E9FC7D0075
:1011FB00E4CCFDEC6AFAED6BFB9005537400F0A3A5
:10120B007400F08013EAC333FAEB33FB900553E021
:10121B002401F0A3E03400F0900553C3E09408A33D
:10122B00E09400501DEA5400FCEB5480FDEC4D6043
:10123B00D4EAC333FAEB33FBEA6421FAEB6410FB19
:10124B0080CAD083D0820200C374F41208788A0853
:10125B008B09ECFEEDFF7A007B00E5084509600485
:10126B00EE4F70067AFF7BFF80429005557400F0BD
:10127B00A37400F0802B900555E0F8A3E0F9E50886
:10128B0028F582E50939F583E0F91201AE8A0A8B5C
:10129B000BAA0AAB0B900555E02401F0A3E0340038
:1012AB00F0900555C3E09EA3E09F40CA7F0402085F
:1012BB00E47C007D00780079007C007D008019E8DB
:1012CB002401F8E93400F9C3E89480E9942540EF50
:1012DB00EC2401FCED3400FDC3EC9AED9B50067839
:1012EB0000790080E20200C353F4CF43FE300200CA
:1012FB00C3C082C083D295D2949005C612076412E4
:10130B00020EC2959005C612076412020EC294908B
:10131B0005C612076412020ED083D0820200C3C02E
:10132B0082C083C295D2949005C612076412020E36
:10133B00D2959005C612076412020EC2949005C690
:10134B0012076412020ED083D0820200C374F7120C
:10135B000878E9FF8F08C295C2947E008014C2956D
:10136B009005C612076412020ED294E508C313F55A
:10137B00080EEEC394085015C294E508A2E050DEA7
:10138B00D2959005C612076412020E80DCC294C27D
:10139B00957F010208E474F0120878890FEAFEEBDE
:1013AB00FF8C0E7401650E700575080B806D740251
:1013BB00650E700575080C80627403650E7010EE77
:1013CB00F8EFF97A0A7B001207CAEAF508804C7429
:1013DB0004650E7046EEF8EFF97AE87B031207CA44
:1013EB00E8F50BEEF8EFF97A647B001207CA7A0A7C
:1013FB007B001207CAEAF509EEF8EFF97A0A7B00CF
:10140B001207CA7A0A7B001207CAEAF50AEEF8EF4E
:10141B00F97A0A7B001207CAEAF508C3EE94E9EFE2
:10142B009403403AEEF8EFF97AE87B031207CAE827
:10143B00F50BEEF8EFF97A647B001207CA7A0A7B98
:10144B00001207CAEAF509EEF8EFF97A0A7B0012E7
:10145B0007CA7A0A7B001207CAEAF50A8033C3EE81
:10146B00940AEF94004021EEF8EFF97A0A7B001210
:10147B0007CAE8F50BEEF8EFF97A0A7B001207CAF8
:10148B00EAF509750A0A8009750B00EEF509750A6C
:10149B000AD295D2941201D879401201E41201DEDE
:1014AB001201D8A90F1201E4850B0C750D0074B84D
:1014BB00250CF5827405350DF583E0F91201E485F1
:1014CB00090C750D0074B8250CF5827405350DF5F6
:1014DB0083E0F91201E4750B0074B8250AF58274E8
:1014EB0005350BF583E0F91201E475090074B82595
:1014FB0008F58274053509F583E0F91201E4120150
:10150B00DE1201D8798C1201E41201DE7F08020889
:10151B00E474F412087812012A1201CC90055712C8
:10152B0007641202A3E508900574F090055B12079F
:10153B00641202A3E50890057EF09005571207642C
:10154B001202A3E508900588F090055B1207641260
:10155B0002A3E508900589F0900200E0F8A3E0F9FA
:10156B00E890058AF0900200E0F8A3E0F9E4E9F8CE
:10157B0090058BF0900570C082C0839005CA7808E7
:10158B00120755D083D08278081202364029900575
:10159B006FE0702390056F7401F07C01ECF9FC9007
:1015AB0005571207641202A3AA08AB09E9FCF979E3
:1015BB00C01201EA021649900570C082C0839005E3
:1015CB00CE7808120755D083D082780812023640A5
:1015DB002A90056FE06401702290056F7402F07C15
:1015EB0002ECF9FC90055B1207641202A3AA08AB8C
:1015FB0009E9FCF979C01201EA8043900570C082B9
:10160B00C0839005D27808120755D083D082780812
:10161B00120236402990056FE0640270217C039022
:10162B000200E0FAA3E0FB79C01201EA9005D612A2
:10163B00076490057012077090056F7400F07F04BB
:10164B000208E4C082C08343FF0112018412017EB1
:10165B00D083D0820200C3D2A0D2A0D2A0D2A0C28B
:10166B00A0C2A0C2A0C2A0C2A0C2A0C2A0C2A0D24F
:10167B00A0D2A0D2A0D2A0C2A0C2A0C2A0C2A0C21F
:10168B00A0C2A0C2A0C2A0D2A0D2A0D2A0D2A0C2FF
:10169B00A0C2A0C2A0C2A0C2A0C2A0C2A0C2A0D21F
:1016AB00A0D2A0D2A0D2A0C2A0C2A0C2A0C2A0C2EF
:1016BB00A0C2A0C2A0C2A0D2A0D2A0D2A0D2A0C2CF
:1016CB00A0C2A0C2A0C2A0C2A0C2A0C2A0C2A0D2EF
:1016DB00A0D2A0D2A0D2A0C2A0C2A0C2A0C2A0C2BF
:1016EB00A0C2A0C2A0C2A0D2A0D2A0D2A0D2A0C29F
:1016FB00A0C2A0C2A0C2A0C2A0C2A0C2A0C2A0D2BF
:10170B00A0D2A0D2A0D2A0C2A0C2A0C2A0C2A0C28E
:10171B00A0C2A0C2A0C2A0D2A0D2A0D2A0D2A0C26E
:10172B00A0C2A0C2A0C2A0C2A0C2A0C2A0C2A0D28E
:10173B00A0D2A0D2A0D2A0C2A0C2A0C2A0C2A0C25E
:10174B00A0C2A0C2A0C2A0D2A0D2A0D2A0D2A0C23E
:10175B00A0C2A0C2A0C2A0C2A0C2A0C2A0C2A0D25E
:10176B00A0D2A0D2A0D2A0C2A0C2A0C2A0C2A0C22E
:10177B00A0C2A0C2A0C2A0D2A0D2A0D2A0D2A0C20E
:10178B00A0C2A0C2A0C2A0C2A0C2A0C2A0C2A0D22E
:10179B00A0D2A0D2A0D2A0C2A0C2A0C2A0C2A0C2FE
:1017AB00A0C2A0C2A0C2A0D2A0D2A0D2A0D2A0C2DE
:1017BB00A0C2A0C2A0C2A0C2A0C2A0C2A0C2A0D2FE
:1017CB00A0D2A0D2A0D2A0C2A0C2A0C2A0C2A0C2CE
:1017DB00A0C2A0C2A0C2A0D2A0D2A0D2A0D2A0D29E
:1017EB00A0D2A0D2A0D2A0C2A0C2A0C2A0C2A0D29E
:1017FB00A0D2A0D2A0D2A0D2A0D2A0D2A0D2A0C25E
:10180B00A0C2A0C2A0C2A0D2A0D2A0D2A0D2A0D26D
:10181B00A0D2A0D2A0D2A0C2A0C2A0C2A0C2A0D26D
:10182B00A0D2A0D2A0D2A0D2A0D2A0D2A0D2A0C22D
:10183B00A0C2A0C2A0C2A0D2A0D2A0D2A0D2A0D23D
:10184B00A0D2A0D2A0D2A0C2A0C2A0C2A0C2A0D23D
:10185B00A0D2A0D2A0D2A0D2A0D2A0D2A0D2A0C2FD
:10186B00A0C2A0C2A0C2A0D2A0D2A0D2A0D2A0D20D
:10187B00A0D2A0D2A0D2A0C2A0C2A0C2A0C2A0D20D
:10188B00A0D2A0D2A0D2A0D2A0D2A0D2A0D2A0C2CD
:10189B00A0C2A0C2A0C2A00200C3C082C083C2A0CB
:1018AB0090059812076412020ED083D0820200C3F7
:1018BB0074F01208788A088B098C0A8D0B85080C3A
:1018CB0085090D850A0E850B0F850C08850D09857D
:1018DB000E0A850F0B900594780812072FE50C451F
:1018EB000D450E450F70D67F080208E453F3FC43F9
:1018FB00FD030200C353F3FD43FD020200C353F388
:10190B00FD53FDFD538FFD0200C353F3FE43FD0159
:10191B000200C353F3FE53FDFE538FFE0200C3C000
:10192B0082C08312014812013CD280D2809005986C
:10193B00120764120214D281D281C280C280900538
:10194B0098120764120214C281C281D083D0820222
:10195B0000C3C082C08312014812013CC281C28104
:10196B00900598120764120214C280C280D281D2F1
:10197B0081900598120764120214D280D280D08312
:10198B00D0820200C3C082C08312013CC281C281DB
:10199B00120148C280C2809005981207641202148B
:1019AB00D281D281900598120764120214C281C2AF
:1019BB0081D083D0820200C3C082C08312013CC29B
:1019CB0081C281120148D280D2809005981207649F
:1019DB00120214D281D2819005981207641202145C
:1019EB00C281C281D083D0820200C374F7120878FF
:1019FB007E0012013C120148D280D28012014E7837
:101A0B00008016EEC333FED281D281A2805005D363
:101A1B00EE92E0FEC281C28108E8C3940840E41252
:101A2B000148D280D280EEF97F010208E474F712EC
:101A3B000878E9FF12013C12014878008011C2803E
:101A4B00C280D281D281C281C281EFC333FF08E849
:101A5B00C39408500BEFA2E750E4D280D28080E20F
:101A6B0012014ED281D281A28050047E0180027E6F
:101A7B0000C281C281120148D280D280EEF97F016F
:101A8B000208E474F012087812013C1201547980B8
:101A9B00120172E979E3120172E912015479811290
:101AAB000172E9D281D28112014280099005A41200
:101ABB000764120130A28150F312016CE9FE12018E
:101ACB006012016CE9F50812016612015AEEF87901
:101ADB0000E4C8F9750900E84508F508E94509F57A
:101AEB000974FC5508F50874FF5509F509E4F50A66
:101AFB00F50B78081202469005A8780C120755785A
:101B0B0008790C1203989005AC780C1207557808DD
:101B1B00790C12051812013CAA08AB09AC0AAD0BE3
:101B2B007F080208E474F012087812013C12015489
:101B3B007980120172E979E5120172E91201547987
:101B4B0081120172E9D281D2811201428009900582
:101B5B00A4120764120130A28150F312016CE9FE4A
:101B6B0012016012016CE9F50812016612015AEEBE
:101B7B00F87900E4C8F9750900E84508F508E94566
:101B8B0009F50974FC5508F50874FF5509F509E4C6
:101B9B00F50AF50B78081202469005B0780C12077F
:101BAB00557808790C1203989005B4780C120755E8
:101BBB007808790C12051812013CAA08AB09AC0A7B
:101BCB00AD0B7F080208E4C082C0831201C09005F0
:101BDB00571207701201C690055B120770D083D0A5
:101BEB00820200C374F012087874FC1208238A0C6A
:101BFB008B0D8C0E8D0F740212086E7400F0A37493
:101C0B0000F0802D851082851183E02401F0A3E084
:101C1B003400F0851082851183C3E09417A3E09400
:101C2B000240E1740212086EE02401F0A3E03400DC
:101C3B00F0740212086EE0F508A3E0F509E4F50A6A
:101C4B00F50B780C7908120226500F85108285113E
:101C5B00837400F0A37400F080B974041208397F08
:101C6B00080208E474F012087874FF1208238A0C37
:101C7B008B0D8C0E8D0F8510828511837400F08077
:101C8B000A851082851183E02401F085108285116D
:101C9B0083E0F508E4F509F50AF50B780C790812E1
:101CAB00022640DD74011208397F080208E453C68E
:101CBB00BFE59EA2E640FA53C6B80200C343F30445
:101CCB0053FDFB43F2040200C3C082C083C28D7577
:101CDB00B6B2A28D50FCE5BB900202F0E5BA9002C1
:101CEB0003F0900202E0F87900E875F000A4C8AAAE
:101CFB00F075F001A42AFA75F000E9A42AF9900214
:101D0B0003E0FA7B00E82AF8E93BF97A0A7B001238
:101D1B0007C2900200E8F0A3E9F0D083D082020062
:101D2B00C375FF4075F10043F33075FAD875FC0BA2
:101D3B0075FB8075F8C0C2EAC28FD2ABD2AF02007E
:101D4B00C389F9A2EA50FCC2EA0200C374F6120876
:101D5B0078EAFEEBFF8C088D0980128E828F83E070
:101D6B00F91202028E828F83A3AE82AF83A808A9D9
:101D7B0009E824FFF508E934FFF509E84970DC7F31
:101D8B00020208E474F7120878740912086EE0F87E
:101D9B00A3E0F98A828B838003ECF0A3E8FEE9FFD2
:101DAB00EE24FF18EF34FFF9EE4F70ED7F010208C0
:101DBB00E412021A1201781201241201361201D216
:101DCB001201FC12018A1201F61201F080FB75DA86
:101DDB00C475DB0943E504D2B9D2DED2AF75E40E8C
:031DEB000200C330
:04000005000000AB4C
:00000001FF
